:100000000C9498080C94C0080C94C0080C94C00878
:100010000C94C0080C94C0080C94C0080C94C00840
:100020000C94C0080C94C0080C94C0080C94C00830
:100030000C94C0080C94A81F0C94C0080C94C00821
:100040000C94D41F0C94C0080C94DD220C940F2344
:100050000C94C0080C94C0080C94C0080C94C00800
:100060000C94C0080C94C0089D0EB30EBC0EF71281
:10007000500FCA0F4B10CA1021117911621252464B
:100080003A20566964656F20525820696E69746918
:10009000616C697A656400525353493A20004368A1
:1000A000616E6E656C3A20005246204368616E6E48
:1000B000656C2053656C656374696F6E0050726582
:1000C000737320616E7920746F20636F6E74696E34
:1000D00075652E2E2E002020202020486F6C642075
:1000E0003A2053617665004D6F646520436C696307
:1000F0006B3A2045786974002020202020486F6CDE
:1001000064203A205363616E004E65787420436C1E
:1001100069636B3A2043682B00427574746F6E20DC
:100120004B657920496E666F003E00457869740022
:1001300020205246204469766572736974790020E4
:10014000204578742E20566964656F002020524641
:1001500020566964656F203200202052462056697F
:1001600064656F203100566964656F20496E707553
:1001700074204D656E75004578697400525353497B
:100180002043616C6962726174696F6E0046616ED2
:10019000204F7574707574005246205370656374F7
:1001A00072756D005246204368616E6E656C205317
:1001B0006574757000566964656F20496E7075745A
:1001C0002053656C6563742E00436F6E66696775B6
:1001D000726174696F6E204D656E75002500202D6B
:1001E0002000202D20004368616E6E656C3A004649
:1001F0007265616B7941747469632E636F6D00354C
:100200002E3847487A20566964656F205278202D31
:10021000205665722E004641353847485A004F53E4
:10022000443A204F5344206F6666004F53443A20AF
:100230004F534420696E697469616C697A65640022
:10024000566964656F4D55583A20496E7075742033
:100250003000566964656F4D55583A20496E707587
:1002600074203300566964656F4D55583A20496EC5
:10027000707574203200566964656F4D55583A2088
:10028000496E707574203100454550524F4D3A20EB
:10029000436F6E66696775726174696F6E20736112
:1002A00076656400454550524F4D3A20436F6E6667
:1002B000696775726174696F6E206C6F61646564E3
:1002C00000454550524F4D3A204C6F6164696E674E
:1002D0002064656661756C742076616C7565730069
:1002E00020004E6F76203130203230313500202012
:1002F00020427920467265616B7961747469632E5E
:10030000636F6D202D20000A0A0A0D4641353847DB
:10031000485A20524620566964656F204D6F6475B7
:100320006C65202D205665722E2000426F6172642C
:1003300020696E697469616C697A6564202E2E2E5D
:1003400000E916D516C116AD169916851671165DFB
:1003500016651678168B169E16B116C416D716EAB1
:10036000164916351621160D16FD161117251739C3
:10037000176C1680169416A816BC16D016E416F83C
:10038000161A163F1664168916AE16D316F8161DE1
:10039000170406200000000000004040400040001C
:1003A000A0A000000000A0E0A0E0A0004060C060AD
:1003B000C000A0204080A0002040C0A0E0008080BD
:1003C000000000004080808040008040404080006D
:1003D00040A0400000000040E0400000000000801D
:1003E00080000000E00000000000000080002020ED
:1003F00040808000E0A0A0A0E00040C04040E000BD
:10040000E020E080E000E020E020E000A0A0E0208C
:100410002000E080E020C000C080E0A0E000E020FC
:1004200040808000E0A0E0A0E000E0A0E0206000CC
:10043000004000400000004000408000204080401C
:10044000200000E000E00000804020408000C0204C
:1004500040004000E0A0A0E0E000E0A0E0A0A0009C
:10046000C0A0E0A0C000E0808080E000C0A0A0A00C
:10047000C000E080E080E000E080E0808000E0807C
:1004800080A0E000A0A0E0A0A000E0404040E0008C
:10049000202020A0E00080A0C0C0A000808080803C
:1004A000E000A0E0E0A0A000C0A0A0A0A00040A0AC
:1004B000A0A04000E0A0E080800040A0A0E0660096
:1004C000E0A0C0E0AA00E080E020E000E040404082
:1004D0004000A0A0A0A0E000A0A0A0A04000A0A07C
:1004E000E0E0A200A0A040A0A000A0A040404000EA
:1004F000E0204080E000C0808080C000008040207C
:100500002000C0404040C00040A0000000000000AB
:100510000000E0008040000000000060A0A060003B
:100520008080C0A0C000006080806000202060A0AB
:10053000600040A0E08060006040E040400060A0BB
:100540006020C0008080C0A0A0004000404040006B
:1005500040004040C0008080A0C0A000C04040409B
:10056000E00000A0E0A0A00000C0A0A0A00000400B
:10057000A0A0400000C0A0C080000060A0602000DB
:1005800000C0A080800000604020600040E040404B
:10059000400000A0A0A0600000A0A0A0400000A01B
:1005A000A0E0A00000A04040A00000A0E02040008B
:1005B00000E04080E0002040C04022004040004079
:1005C000400080406040800000A04000000006081D
:1005D000200000000000000000404040404000407B
:1005E000005050500000000000000050F850F8503B
:1005F000002070A0702870200000C8D020589800FB
:100600000020508040A8906800404040000000005A
:1006100000102040404020100040201010102040CA
:10062000001038100000000000002020F8202000FA
:10063000000000000000101000000000F8000000A2
:1006400000000000000010000000081020408000A2
:10065000007088A8A888700000206020202070000A
:10066000007088102040F80000F8102010887000FA
:1006700000909090F810100000F880F0088870004A
:10068000007080F08888700000F80810204080001A
:100690000070887088887000007088887808700002
:1006A000000000200000200000000020002020406A
:1006B00000001860806018000000007800780000DA
:1006C0000000C0300830C0000060902020002000F2
:1006D00000708898A890887000205088F88888005A
:1006E00000F088F08888F0000070888080887000B2
:1006F00000F088888888F00000F880F88080F80092
:1007000000F880F0808080000070888098887000F9
:10071000008888F8888888000070202020207000D9
:100720000038101010906000008890E0A0908800C1
:10073000008080808080F8000088D8A8A888880081
:10074000008888C8A8988800007088888888700009
:1007500000F088F08080800000708888A890680091
:1007600000F088F0A0908800007880700808F00001
:1007700000F82020202020000088888888887000C9
:100780000088888888502000008888A8A8A8500081
:100790000088502050888800008888502020200041
:1007A00000F808102040F80000E080808080E00021
:1007B00000008040201008000038080808083800B1
:1007C000002050000000000000000000000000F8C1
:1007D0000080400000000000000060107090600089
:1007E000008080E09090E000000000708080700049
:1007F000001010709090700000006090F080700009
:10080000003040E0404040000000609070101060F8
:10081000008080E090909000002000202020700058
:100820000010003010101060008090A0C0A0900058
:10083000006020202020700000000050A8A8A80020
:10084000000000F088888800000000609090600040
:100850000000006090F080800000006090F01010B8
:10086000000000B048404000000030402010600010
:10087000004040E040404000000000909090600048
:10088000000000888850200000000088A8A85000C0
:100890000000885020508800000000909060408048
:1008A000000000F02040F000002040408040402048
:1008B00000202020202020200020101008101020D0
:1008C0000040A81000000000000000000000000030
:1008D0000008080000000000000000007E81A581E3
:1008E000BD99817E7EFFDBFFC3E7FF7E6CFEFEFECF
:1008F0007C38100010387CFE7C381000387C38FEC4
:10090000FED6103810387CFEFE7C10380000183CF3
:100910003C180000FFFFE7C3C3E7FFFF003C66424F
:1009200042663C00FFC399BDBD99C3FF0F070F7D11
:10093000CCCCCC783C6666663C187E183F333F30A2
:100940003070F0E07F637F636367E6C018DB3CE7ED
:10095000E73CDB1880E0F8FEF8E08000020E3EFE87
:100960003E0E0200183C7E18187E3C1866666666CD
:10097000660066007FDBDB7B1B1B1B003E613C6669
:10098000663C867C000000007E7E7E00183C7E185F
:100990007E3C18FF183C7E181818180018181818F4
:1009A0007E3C180000180CFE0C180000003060FEA1
:1009B000603000000000C0C0C0FE0000002466FFE0
:1009C0006624000000183C7EFFFF000000FFFF7E51
:1009D0003C1800000000000000000000183C3C181B
:1009E0001800180066662400000000006C6CFE6CA5
:1009F000FE6C6C00183E603C067C180000C6CC18EB
:100A00003066C600386C3876DCCC760018183000BA
:100A1000000000000C18303030180C0030180C0C9E
:100A20000C18300000663CFF3C6600000018187E81
:100A30001818000000000000001818300000007EA8
:100A4000000000000000000000181800060C18301C
:100A500060C080007CC6CED6E6C67C001838181868
:100A600018187E007CC6061C3066FE007CC6063C5C
:100A700006C67C001C3C6CCCFE0C1E00FEC0C0FCFC
:100A800006C67C003860C0FCC6C67C00FEC60C18DA
:100A9000303030007CC6C67CC6C67C007CC6C67EB4
:100AA000060C78000018180000181800001818002C
:100AB00000181830060C1830180C060000007E00D4
:100AC000007E00006030180C183060007CC60C18E6
:100AD000180018007CC6DEDEDEC07800386CC6FE6A
:100AE000C6C6C600FC66667C6666FC003C66C0C086
:100AF000C0663C00F86C6666666CF800FE6268785A
:100B00006862FE00FE6268786860F0003C66C0C003
:100B1000CE663A00C6C6C6FEC6C6C6003C18181841
:100B200018183C001E0C0C0CCCCC7800E6666C78D7
:100B30006C66E600F06060606266FE00C6EEFEFE77
:100B4000D6C6C600C6E6F6DECEC6C6007CC6C6C69B
:100B5000C6C67C00FC66667C6060F0007CC6C6C6CB
:100B6000C6CE7C0EFC66667C6C66E6007CC6603891
:100B70000CC67C007E7E5A1818183C00C6C6C6C635
:100B8000C6C67C00C6C6C6C6C66C3800C6C6C6D6B3
:100B9000D6FE6C00C6C66C386CC6C6006666663C7F
:100BA00018183C00FEC68C183266FE003C3030300F
:100BB00030303C00C06030180C0602003C0C0C0CBD
:100BC0000C0C3C0010386CC6000000000000000057
:100BD000000000FF30180C00000000000000780C3E
:100BE0007CCC7600E0607C666666DC0000007CC63B
:100BF000C0C67C001C0C7CCCCCCC760000007CC633
:100C0000FEC07C003C6660F86060F000000076CCBE
:100C1000CC7C0CF8E0606C766666E600180038184C
:100C200018183C00060006060666663CE060666C26
:100C3000786CE6003818181818183C000000ECFE14
:100C4000D6D6D6000000DC666666660000007CC66C
:100C5000C6C67C000000DC66667C60F0000076CCD6
:100C6000CC7C0C1E0000DC766060F00000007EC0D2
:100C70007C06FC003030FC3030361C000000CCCC50
:100C8000CCCC76000000C6C6C66C38000000C6D6C4
:100C9000D6FE6C000000C66C386CC6000000C6C6EC
:100CA000C67E06FC00007E4C18327E000E181870BE
:100CB00018180E0018181818181818007018180EA0
:100CC0001818700076DC0000000000000010386C7E
:100CD000C6C6FE0060F0607C6666660CFC607C66E2
:100CE00066666C001C10007E606060003820FEC0EC
:100CF000C0C0C0006C007CC6FEC07C006CFE627888
:100D00006062FE0000007CC6F0C67C003C66C0F855
:100D1000C0663C0000007EC07C06FC007CC66038DB
:100D20000CC67C0030003030303078007830303005
:100D300030307800CC00303030307800663C181805
:100D400018183C0018001818181818701E0C0C0CF5
:100D50000CCC7800000070505C52DC0070505C528B
:100D60005252DC000000A0A0FCA2BC00A0A0A0FC8D
:100D7000A2A2BC0060F0607C66666600F8607C66DB
:100D8000666666001C10C6D8F8CCC60018D6CCF82B
:100D9000F8CCC6006C38C6C6C67E067C38C6C67E91
:100DA00006C67C000000C6C6C6C6FE10C6C6C6C6BD
:100DB000C6C6FE100000DCD6F6D6DC00DCD6D6F6C1
:100DC000D6D6DC000000F0B03C363C00F0F0B03C81
:100DD00036363C000000780C7CCC76003E66C6C6F9
:100DE000FEC6C600067CC07CC6C67C00FE66607C73
:100DF0006666FC000000CCCCCCCCFE06CCCCCCCCC7
:100E0000CCCCFE0600003C6C6C6CFEC61E366666E2
:100E10006666FFC300007CC6FEC07C00FE62687888
:100E20006862FE0000007CD6D67C10387CD6D6D610
:100E30007C1038000000FE666060F000FE666060B6
:100E40006060F000003366CC6633000000CC66338F
:100E500066CC0000228822882288228855AA55AABA
:100E600055AA55AADB77DBEEDB77DBEE18181818EE
:100E70001818181818181818F81818180000C66C40
:100E8000386CC600C6C66C386CC6C6000000C6CE3C
:100E9000DEF6E600C6C6CEDEF6E6C6003636F60656
:100EA000F636363636363636363636360000FE06F6
:100EB000F63636363636F606FE0000000038C6CE68
:100EC000DEF6E60038C6CEDEF6E6C600000000001C
:100ED000F8181818181818181F00000018181818F3
:100EE000FF00000000000000FF181818181818185C
:100EF0001F18181800000000FF000000181818182C
:100F0000FF1818180000E66C786CE600E66C78783C
:100F10006C66E600363637303F00000000003F3098
:100F2000373636363636F700FF0000000000FF0087
:100F3000F736363636363730373636360000FF006D
:100F4000FF0000003636F700F736363600C67CC69E
:100F5000C67CC60000003E666666E6001E36666613
:100F60006666C6000000C6FEFED6C600C6EEFEFEE1
:100F7000D6C6C6000000C6C6FEC6C600C6C6C6FEA9
:100F8000C6C6C60000007CC6C6C67C007CC6C6C6F7
:100F9000C6C67C000000FEC6C6C6C60018181818D3
:100FA000F8000000000000001F181818FFFFFFFFE6
:100FB000FFFFFFFF00000000FFFFFFFFFEC6C6C6E9
:100FC000C6C6C60000007EC67E66C600FFFFFFFFE5
:100FD000000000007EC6C6C67E66C6000000FC6635
:100FE000667C60F0FC6666667C60F00000007CC693
:100FF000C0C67C007CC6C0C0C0C67C0000007E5A53
:1010000018183C007E5A181818183C000000C6C674
:10101000C67E067CC6C6C67E06C67C000000D67CA0
:10102000387CD600D6D67C387CD6D6000000FC664C
:101030007C66FC00FC66667C6666FC000000F06076
:101040007C66FC00F060607C66667C008FCDEFFC07
:10105000DCCCCC000000007C7C0000000000C6C698
:10106000F6DEF600C6C6C6F6DEDEF60000007CC67A
:101070001CC67C007CC6063C06C67C000000D6D69A
:10108000D6D6FE00D6D6D6D6D6D6FE0000007CC672
:101090001EC67C00788C063E068C78000000D6D6F2
:1010A000D6D6FF03D6D6D6D6D6D6FF030000C6C600
:1010B0007E060600C6C6C67E060606003E613C6683
:1010C000663C867C00003C3C3C3C0000000000008C
:1010D00000000000000000080002010000030407F7
:1010E0000000000000000000010204081020408001
:1010F0000102040810200102040810200404040462
:1011000004040404020202020202030303030303B1
:101110000000000023002600290000000000250038
:1011200028002B0000000000240027002A003F2395
:1011300011241FBECFEFD8E0DEBFCDBF11E0A0E08D
:10114000B1E0ECE3FDE402C005900D92A432B107DA
:10115000D9F722E0A4E2B1E001C01D92AF31B2079D
:10116000E1F711E1C0E3D1E104C02297FE010E9442
:101170004725CE32D107C9F70E9483230C949C26C1
:101180000C9400000C9486260C948E26CF92DF924D
:10119000EF92FF92CF93DF93EC010E941E206B0130
:1011A0007C01CC0EDD1EE11CF11C0E941E206C1582
:1011B0007D058E059F05C8F461E080E10E9439211C
:1011C00060E081E10E94392184E690E00E94752070
:1011D00060E080E10E94392161E081E10E943921D3
:1011E00084E690E00E947520E0CF60E080E10E94FC
:1011F000392160E081E1DF91CF91FF90EF90DF90A6
:10120000CF900C943921CF93DF93EC018091300182
:1012100081112CC026E040E052EC61E070E08EE7E6
:1012200091E00E947B2267E073E08EE791E00E94EC
:10123000D0236BE071E08EE791E00E9422246EEEF5
:1012400072E08EE791E00E94D02362EE72E08EE7BA
:1012500091E00E94102460EE72E08EE791E00E941F
:101260001024809130018F5F80933001BE018EE7A2
:1012700091E0DF91CF910C9410246091550181E0B1
:1012800090E00E94C4086091540182E090E00E94C6
:10129000C4086091520183E090E00E94C40860910C
:1012A000530184E090E00E94C4086091500185E001
:1012B00090E00E94C4086091510186E090E00E9495
:1012C000C40860914F0187E090E00E94C4086091DB
:1012D0004E0188E090E00E94C40860914D0189E0D1
:1012E00090E00E94C40888E892E00C940309CF9330
:1012F000DF9380E090E00E94C208803309F054C080
:1013000082E00E946F21EC0184E00E946F21892B12
:1013100019F4CD2B09F448C081E090E00E94C20886
:101320008093550182E090E00E94C20880935401AE
:1013300083E090E00E94C208C82F84E090E00E9401
:10134000C2082C2F30E0322F2227282B3093530154
:101350002093520185E090E00E94C208C82F86E0E9
:1013600090E00E94C2082C2F30E0322F2227282B39
:10137000309351012093500187E090E00E94C20811
:1013800080934F0188E090E00E94C20880934E0154
:1013900089E090E00E94C20880934D0184EA92E0C7
:1013A000DF91CF910C94030981EC92E00E94030934
:1013B00060E380E090E00E94C4081092550185E14E
:1013C000809354018CE291E09093530180935201F9
:1013D0008AE590E0909351018093500183E08093DF
:1013E0004F0110924E0110924D010E943D0994CF81
:1013F0000F931F9382E00E946F2140912C01509126
:101400002D0160912E0170912F01892B81F4452BC4
:10141000462B472B09F047C00E941E2060932C01E9
:1014200070932D0180932E0190932F013CC0452B8A
:10143000462B472BC1F10E941E2000912C011091D8
:101440002D0120912E0130912F01601B710B820B19
:10145000930B6333710581059105E8F0683522E04F
:1014600072078105910518F481E090E010C0683B97
:101470002BE072078105910518F482E090E007C027
:10148000603A7F408105910530F483E090E09093CD
:101490004C0180934B0110922C0110922D0110925F
:1014A0002E0110922F0183E00E946F2140912801AC
:1014B0005091290160912A0170912B01892B81F4AF
:1014C000452B462B472B09F047C00E941E206093F6
:1014D00028017093290180932A0190932B013CC02D
:1014E000452B462B472BC1F10E941E20009128015D
:1014F0001091290120912A0130912B01601B710B61
:10150000820B930B6333710581059105E8F0683513
:1015100022E072078105910518F481E090E010C087
:10152000683B2BE072078105910518F482E090E09A
:1015300007C0603A7F408105910530F483E090E078
:1015400090934A0180934901109228011092290139
:1015500010922A0110922B0184E00E946F21409189
:101560002401509125016091260170912701892B5A
:1015700081F4452B462B472B09F047C00E941E20C3
:101580006093240170932501809326019093270195
:101590003CC0452B462B472BC1F10E941E200091D9
:1015A0002401109125012091260130912701601B13
:1015B000710B820B930B6333710581059105E8F084
:1015C000683522E072078105910518F481E090E00A
:1015D00010C0683B2BE072078105910518F482E08A
:1015E00090E007C0603A7F408105910530F483E0C8
:1015F00090E090934801809347011092240110924B
:10160000250110922601109227011F910F91089534
:1016100010924C0110924B0110924A011092490114
:101620001092480110924701089580914B019091CA
:101630004C01019741F40E94080B8FE090E00E945A
:10164000C60881E0089580E0089580914B01909153
:101650004C01029741F40E94080B8FE090E00E9439
:10166000C60881E0089580E0089580914B01909133
:101670004C01039741F40E94080B8FE090E00E9418
:10168000C60881E0089580E0089580914901909115
:101690004A01019741F40E94080B8FE090E00E94FC
:1016A000C60881E0089580E0089531E080914B0103
:1016B00090914C01892B09F430E021E080914701A1
:1016C00090914801892B09F420E0232B31F480917B
:1016D000490190914A01892B41F00E94080B8FE04B
:1016E00090E00E94C60881E0089580E0089561E0DE
:1016F00081E491E00E94FB131816ACF461E08DE0E8
:101700000E9439216CE271E080E090E00E944D205F
:1017100060E08DE00E9439216CE271E080E090E0B1
:101720000E944D20EBCF60E081E491E00E947B13AA
:1017300084E090E09093400180933F018BE292E03F
:101740000C94030980913F0190914001059731F07D
:1017500084E090E09093400180933F0108950E94BF
:10176000A20B60E08EE00E94392160E08FE00E94D1
:10177000392180E492E00C94030980913F0190911B
:101780004001019721F01092400110923F0108950D
:10179000823089F08330E9F0813041F50E94BD0B41
:1017A00061E08EE00E94392160E08FE00E943921E3
:1017B00086E792E00CC00E94BD0B60E08EE00E94C4
:1017C000392161E08FE00E94392184E692E00C9497
:1017D00003090E94BD0B61E08EE00E94392161E0A7
:1017E0008FE00E94392182E592E0F1CF0C94AF0B9B
:1017F000CF92EF920F9380933E0180933D016093CF
:101800003C01880F482F440F440F480F4E5E52E0B2
:10181000C52EEE24E3940AE02BE762E081E491E038
:101820000E94ED150F91EF90CF900895CF92EF9217
:101830000F9380913E018F5F80933E0190913C0118
:10184000891302C010923E0180913D01880F482FFC
:10185000440F440F480F4E5E62E0C62EE12C0AE0B2
:101860002BE762E081E491E00E94ED1580913E015A
:10187000880F482F440F440F480F4E5EEE24E39428
:101880002BE762E081E491E00E94ED1580913E013A
:1018900080933D010F91EF90CF9008951F93CF93C8
:1018A000DF93182FC82FCF7082958F7098E0899F93
:1018B000C00D1124C950C83208F0C0E0C0933301F4
:1018C000D0E04AE050E0BE018EE791E00E94D724CC
:1018D000FE01EE0FFF1FEF5BFC4F2591349130931B
:1018E000320120933101C10FD11DFE01C591D49168
:1018F00081E090E00E94752060E08BE00E94392139
:101900008AE090E00E94752060E08CE00E9439211E
:1019100081E090E00E94752061E08AE00E94392118
:1019200081E090E00E94752061E08CE00E94392106
:1019300081E090E00E94752060E08CE00E943921F7
:1019400081E090E00E94752060E08CE00E943921E7
:1019500081E090E00E94752060E08AE00E943921D9
:1019600081E090E00E94752061E08CE00E943921C6
:1019700081E090E00E94752060E08CE00E943921B7
:1019800081E090E00E94752060E08CE00E943921A7
:1019900081E090E00E94752060E08AE00E94392199
:1019A00081E090E00E94752061E08CE00E94392186
:1019B00081E090E00E94752060E08CE00E94392177
:1019C00081E090E00E94752060E08CE00E94392167
:1019D00081E090E00E94752060E08AE00E94392159
:1019E00081E090E00E94752061E08CE00E94392146
:1019F00081E090E00E94752060E08CE00E94392137
:101A000081E090E00E94752060E08CE00E94392126
:101A100081E090E00E94752061E08AE00E94392117
:101A200081E090E00E94752061E08CE00E94392105
:101A300081E090E00E94752060E08CE00E943921F6
:101A400081E090E00E94752010E160E0C0FF09C0D5
:101A50008CE00E94392181E090E00E94752061E0D5
:101A600008C08CE00E94392181E090E00E9475203E
:101A700060E08AE00E94392181E090E00E947520B8
:101A800061E08CE00E94392181E090E00E947520A5
:101A900060E08CE00E94392181E090E00E94752096
:101AA000D695C795115089F6C4E060E08CE00E949D
:101AB000392181E090E00E94752060E08AE00E9478
:101AC000392181E090E00E94752061E08CE00E9465
:101AD000392181E090E00E94752060E08CE00E9456
:101AE000392181E090E00E947520C150F1F681E03B
:101AF00090E00E94752061E08BE00E9439218AE02D
:101B000090E00E94752061E08BE00E94392160E046
:101B10008CE00E94392160E08AE0DF91CF911F9133
:101B20000C9439210E944E0C81E090E00E947520B7
:101B300061E08BE00E9439218AE090E00E947520EC
:101B40008EE790E00C940309CF9361E08BE00E9454
:101B5000002161E08AE00E94002161E08CE00E94A7
:101B6000002161E082E10E94002161E082E10E94A7
:101B7000392161E08EE00E94002161E08FE00E9447
:101B8000002160E08EE00E94392160E08FE00E9439
:101B9000392160E082E00E94002162E082E00E9440
:101BA000392160E083E00E94002162E083E00E942E
:101BB000392160E084E00E94002162E084E00E941C
:101BC000392161E080E10E94002161E081E10E9411
:101BD000002160E080E10E94392160E081E10E9403
:101BE000392161E08DE00E94002161E08DE00E94DA
:101BF000392161E089E00E94002161E089E00E94D2
:101C00003921C6E061E08DE00E9439218AE090E050
:101C10000E94C60860E08DE00E94392164E670E011
:101C200080E090E00E944D20C15061F70E9477094A
:101C3000809154010E94920D0E94770B8BE293E0F9
:101C40000E9403090E941E20609356017093570161
:101C50008093580190935901CF9108958091330159
:101C6000282F2695269526958F5F98E0299F800D31
:101C700011248F702F5F90E1299F90011124822BF6
:101C80000895809133018F5F883219F0809333017A
:101C900002C0109233010E942E0E0C944E0CE82FBD
:101CA000EF7082958F7098E0899FE00D1124E950C4
:101CB000E83208F0E0E0F0E0EE0FFF1FEF5BFC4FD2
:101CC000859194910895CF92DF92EF92FF92CF93F6
:101CD000DF93C4E1D0E0C12CD12C760184E10E94D5
:101CE000BA20AA2797FDA095BA2FC80ED91EEA1EC2
:101CF000FB1E219799F7C701B60124E130E040E0CF
:101D000050E00E940425C901DF91CF91FF90EF9030
:101D1000DF90CF900895CF92EF920F931F93CF93C0
:101D2000DF93E0913F01F0914001EB30F10508F0C5
:101D300073C4EC5CFF4F0C9445258EE192E00E9449
:101D400003090E94080B809155018F5F0E94C80B08
:101D500081E491E00E94511880E590E00E94C6085D
:101D600081E090E055C40E94250BC82F0E94350BDE
:101D70008C2B09F451C44AC40E94080B0E94AF0B7B
:101D800060E081E491E00E947B13CC24CA9412E0CD
:101D9000E12E0FE52FE740E060E081E491E00E9452
:101DA000ED1561ED78E081E491E00E945B1826E199
:101DB00032E042E163E281E491E00E94431961E98B
:101DC00073E081E491E00E945B182FEF31E048E27C
:101DD0006AE081E491E00E9443196BE071E081E4E4
:101DE00091E00E942D192FEE31E042E360E281E4A0
:101DF00091E00E944319EE24E3940AE42FE74AE4B9
:101E000060E081E491E00E94271526EE31E042E592
:101E10006CE081E491E00E94431942E562E381E4D1
:101E200091E00E945A1940E150E06091540181E430
:101E300091E00E94F11962EE71E081E491E00E946C
:101E40002F19809154010E944F0E4AE050E0BC01CE
:101E500081E491E00E94F8196EED71E081E491E077
:101E60000E942F194AE050E063E381E491E00E9470
:101E7000F1196CED71E081E491E00E942F190E944C
:101E80001E2068577C4E8F4F9F4F60933801709390
:101E9000390180933A0190933B0183E090E0B8C30D
:101EA0000E94080B0E94AF0B81E491E00E9457183A
:101EB00060E081E491E00E947B13CC24CA94D2E0DC
:101EC000ED2E0FE52FE740E060E081E491E00E9415
:101ED000ED1561E973E081E491E00E945B1829EC63
:101EE00031E043E064E181E491E00E9443190BE0BA
:101EF0002FE74BE060E081E491E00E9427156EEC53
:101F000075E081E491E00E945B1825EB31E044E14B
:101F100065E081E491E00E94431924EA31E04EE15A
:101F200065E081E491E00E94431928E931E048E24C
:101F300065E081E491E00E9443192DE831E042E33D
:101F400065E081E491E00E9443192CE731E04CE325
:101F500065E081E491E00E94431927E731E046E41F
:101F600065E081E491E00E94431966E085E00E940B
:101F7000F80B0E941E2068577C4E8F4F9F4F609336
:101F800038017093390180933A0190933B0185E0C9
:101F900090E03EC30E941E2000913801109139014B
:101FA00020913A0130913B0106171707280739079E
:101FB00020F41092400110923F010E94450B8823AB
:101FC00081F00E941E2068577C4E8F4F9F4F609378
:101FD00038017093390180933A0190933B010E943C
:101FE000160C0E94150B882309F416C384E190E0B7
:101FF0000E94C60868EC70E080E090E00E944D20EE
:1020000084E190E00E94C6080E941E2068577C4E22
:102010008F4F9F4F609338017093390180933A013D
:1020200090933B0180913E018230B1F040F48823CF
:1020300081F0813009F0F0C288E090E0E9C283309D
:10204000B9F0853009F0E8C21092400110923F01CA
:10205000E3C286E090E0DCC268EE73E080E090E0EE
:102060000E944D2083E190E00E94C60885E10BC0EC
:1020700068EE73E080E090E00E944D2083E190E004
:102080000E94C60888E5DF91CF911F910F91EF90D4
:10209000CF900C944E0C0E94080B81E491E00E94BA
:1020A000571860E081E491E00E947B13CC24CA942D
:1020B000C2E0EC2E0FE52FE740E060E081E491E024
:1020C0000E94ED1561E973E081E491E00E945B18E4
:1020D00026E631E043E064E181E491E00E944319A7
:1020E0000BE02FE74BE060E081E491E00E942715D0
:1020F0006EEC75E081E491E00E945B1829E531E027
:1021000044E165E081E491E00E9443192CE431E070
:102110004EE165E081E491E00E9443192FE331E054
:1021200048E265E081E491E00E94431920E331E058
:1021300042E365E081E491E00E9443192BE231E043
:102140004CE365E081E491E00E94431980915501E0
:10215000880F482F440F440F480F4C5E29E231E0AE
:1021600065E081E491E00E94431965E084E00E940B
:10217000F80B0E941E2068577C4E8F4F9F4F609334
:1021800038017093390180933A0190933B0187E0C5
:1021900090E03EC20E941E2000913801109139014A
:1021A00020913A0130913B0106171707280739079C
:1021B00030F484E090E09093400180933F010E94CE
:1021C000450B882381F00E941E2068577C4E8F4F5C
:1021D0009F4F609338017093390180933A01909337
:1021E0003B010E94160C0E94150B882309F414C2AF
:1021F0000E941E2068577C4E8F4F9F4F609338017E
:102200007093390180933A0190933B0180913E0194
:10221000843009F4FBC1833009F480E080935501D8
:102220000E943D0984E190E00E94C60868EC70E0DD
:1022300080E090E00E944D2084E190E00E94C6087A
:10224000E5C10E94080B81E491E00E94571860E00C
:1022500081E491E00E947B136EEC75E081E491E0F3
:102260000E945B1829E131E04AE06AE081E491E0F4
:102270000E94431961E973E081E491E00E945B18D8
:1022800029E031E049E16CE081E491E00E944319EA
:1022900028EF30E043E26CE081E491E00E944319D2
:1022A00027EE30E042E36CE081E491E00E944319C4
:1022B00026ED30E04CE36CE081E491E00E944319AC
:1022C0002DEB30E04AE565E081E491E00E9443199E
:1022D0000E941E2068577C4E8F4F9F4F609338019D
:1022E0007093390180933A0190933B0189E090E02B
:1022F0008FC10E941E20C1E0D0E0009138011091F2
:10230000390120913A0130913B0106171707280740
:10231000390710F0C0E0D0E00E94550BC82BCD2B40
:1023200009F47AC18AE090E09093400180933F01E4
:1023300060E081E491E00E947B13CC24CA94EE24F7
:10234000E39403E22FE740E060E081E491E00E9443
:10235000ED1561E973E081E491E00E945B1828EAE1
:1023600030E043E064E181E491E00E9443190BE036
:102370002FE74BE060E081E491E00E9427156EECCE
:1023800075E081E491E00E945B182EE930E04FE0B7
:1023900065E081E491E00E94431927E930E049E1DA
:1023A00065E081E491E00E94431902E324E545E2FF
:1023B00065E181E491E00E94ED1561E973E081E45B
:1023C00091E00E945B184AE56FE081E491E00E9491
:1023D0005A19E7E6F3E0659174914AE050E081E430
:1023E00091E00E942D1A4AE567E381E491E00E94A2
:1023F0005A19E7E5F3E0659174914AE050E081E411
:1024000091E00E942D1A4AE56FE581E491E00E9477
:102410005A19EFE6F3E0659174914AE050E081E4E7
:1024200091E00E942D1A6EEC75E081E491E00E942B
:102430005B184FE06CE381E491E00E945A190E941E
:102440002E0E40E150E0682F81E491E00E94F119E6
:1024500060E171E081E491E00E942D190E942E0E4E
:102460000E944F0E4AE050E0BC0181E491E00E94DE
:102470002D1A0E94630EEC0149E166E281E491E0CD
:102480000E945A194AE050E0BE0181E491E00E94A6
:102490002D1A0E941E2060933401709335018093A1
:1024A0003601909337010E941E20605A75418F4F6C
:1024B0009F4F609338017093390180933A01909354
:1024C0003B01AAC00E941E200091340110913501E9
:1024D0002091360130913701061717072807390771
:1024E000F0F40E941E2066507F4F8F4F9F4F6093E5
:1024F00034017093350180933601909337010E9427
:10250000630EEC0149E166E281E491E00E945A1910
:102510004AE050E0BE0181E491E00E942D1A0E9441
:10252000450B8823E1F10E941E20605A75418F4FB0
:102530009F4F609338017093390180933A019093D3
:102540003B010E94410E64E670E080E090E00E9452
:102550004D206EEC75E081E491E00E945B184FE045
:102560006CE381E491E00E945A190E942E0E40E132
:1025700050E0682F81E491E00E94F11960E171E080
:1025800081E491E00E942D190E942E0E0E944F0EB0
:102590004AE050E0BC0181E491E00E942D1A0E94C3
:1025A000150B882331F084E090E0909340018093F4
:1025B0003F010E94250B8823D1F084E190E00E9426
:1025C000C60868EC70E080E090E00E944D2084E155
:1025D00090E00E94C6080E942E0E809354010E9433
:1025E0003D0984E090E09093400180933F010E9478
:1025F0001E20009138011091390120913A0130914B
:102600003B01061717072807390730F484E090E0EC
:102610009093400180933F01DF91CF911F910F91E3
:10262000EF90CF9008950F931F930E94F8090E9496
:102630008B0E0E941E20009156011091570120918F
:102640005801309159010617170728073907D8F4A0
:102650000E941E206C507E4F8F4F9F4F60935601FB
:102660007093570180935801909359018DE00E9417
:102670006F21892B11F060E001C061E08DE01F91B6
:102680000F910C9439211F910F910895E0916C01E5
:10269000982F96959695969520917101309172019B
:1026A00087706E9FF0011124E90FF11DE20FF31FF7
:1026B000413051F420E830E002C0359527958A95E5
:1026C000E2F78081822B15C041110AC02FE73FEF4E
:1026D00002C0359527958A95E2F78081822309C04B
:1026E00020E830E002C0359527958A95E2F7808191
:1026F000822780830895FC016130F9F030F0623068
:1027000009F049C080E090E031C01282138280E07D
:1027100090E030916C0120916B01329F9001112467
:10272000821793074CF4E0917101F0917201E80F68
:10273000F91F10820196EDCF08951282138280E076
:1027400090E04FEF30916C0120916B01329F90012E
:102750001124821793074CF4E0917101F0917201FA
:10276000E80FF91F40830196EDCF089530916C0179
:1027700020916B01329F90011124821793075CF422
:10278000E0917101F0917201E80FF91F208120950D
:1027900020830196EBCF0895FF920F931F93CF9361
:1027A000DF93EC01F62E022F842F887FD9F0142FAF
:1027B000169516951695129FC00111240E945F254B
:1027C00099838883009781F01A821B829C01402F95
:1027D000612F8F2D0E94E71E60E0CE010E947B13C7
:1027E00080E003C081E001C084E0DF91CF911F91C0
:1027F0000F91FF90089520E640E80C94CC13862FAB
:10280000642FE0916C01A82FB0E098E0E99FF001FF
:102810001124AE17BF073CF490916B01491718F4CF
:10282000422F0C94461308950F931F93CF93DF9379
:10283000DC01FA014217530749F4202F462F6E2F6F
:10284000DF91CF911F910F910C94FF13241735073F
:1028500020F4CA019927F9019C01EF01C770DD2717
:102860008FEF90E0AC0102C055954795CA95E2F70D
:10287000EA01142F43E0F695E7954A95E1F7409178
:102880006C01469FB0011124E60FF71FA9014770A4
:10289000552702C0959587954A95E2F7582F509590
:1028A000C901D3E096958795DA95E1F7860F971FD2
:1028B000E817F90719F41C2F152350E00130D9F45B
:1028C0009F012F5F3F4FCD91DC911197CE0FDF1FFE
:1028D0004881412B48834FEFED91FC911197E20F16
:1028E000F31F2817390720F440832F5F3F4FF4CFA1
:1028F0008081852B3BC001111CC09F012F5F3F4F82
:10290000CD91DC911197CE0FDF1F109548814123A7
:102910004883ED91FC911197E20FF31F28173907B7
:1029200020F410822F5F3F4FF4CF50958081852394
:102930001DC00230E1F49F012F5F3F4FCD91DC912C
:102940001197CE0FDF1F488141274883ED91FC91FD
:102950001197E20FF31F2817390730F44081409593
:1029600040832F5F3F4FF2CF808185278083DF91A7
:10297000CF911F910F9108950F93CF93DF9342173B
:10298000530731F4202FDF91CF910F910C94FF1357
:102990002417350720F4FA01FF27A9019F01762F9C
:1029A0007770A0E8B0E002C0B595A7957A95E2F7F8
:1029B0007A2FC0916C01C49FF001C59FF00D1124C6
:1029C000669566956695E60FF11D013091F4241722
:1029D0003507C8F1EC01A881B981AE0FBF1F6C911A
:1029E000672B6C9360916C01E60FF11D4F5F5F4F99
:1029F000EECF011114C07A2F70952417350718F106
:102A0000EC01A881B981AE0FBF1F6C9167236C9355
:102A100060916C01E60FF11D4F5F5F4FEECF02300A
:102A200091F42417350778F0EC01A881B981AE0F35
:102A3000BF1F6C9167276C9360916C01E60FF11DCD
:102A40004F5F5F4FEECFDF91CF910F9108952F929F
:102A50003F924F925F926F927F928F929F92AF922E
:102A6000BF92CF92DF92EF92FF920F931F93CF937B
:102A7000DF9300D000D0CDB7DEB7742F302F0E2DEE
:102A8000462F50E05C834B83E0916C0158E0E59F5A
:102A9000F00111244B815C81E417F5070CF486C02A
:102AA00040916B01471708F481C0422E512CE41568
:102AB000F5050CF47BC0431708F478C0621307C017
:102AC000232F30E0472F50E00E94BC146FC07313D7
:102AD00007C092014B815C81672F0E94141466C06D
:102AE000261738F48B819C81841995092C018FEF6E
:102AF00005C0EB81FC814E1A5F0A81E0A72EB12C44
:102B0000C32ED12C371730F495012C193D096901DA
:102B10009FEF03C0CA18DB0891E04C145D043CF041
:102B20003C2D2D2D6201432E522E10E001C011E0EC
:102B3000440C551C42018C189D089601220F331F2E
:102B4000612C712C292E332427FC3094E82EFF248D
:102B5000E7FCF094C614D7044CF1402F6A2D8B810A
:102B600029833A830E94461329813A8197FC0DC03C
:102B7000113039F44B815C814E0D5F1D5C834B83BA
:102B800002C0A20CB31C821A930A113019F4A20CD1
:102B9000B31C06C08B819C818E0D9F1D9C838B83F3
:102BA000840C951C9FEF691A790AD4CF0F900F906F
:102BB0000F900F90DF91CF911F910F91FF90EF90A9
:102BC000DF90CF90BF90AF909F908F907F906F904D
:102BD0005F904F903F902F9008954F925F926F9229
:102BE0007F928F929F92AF92BF92CF92DF92EF929D
:102BF000FF920F931F93CF93DF93EC01F62E142FC8
:102C0000422E502EDE2C8FEFC81230C0AF2CA40CF9
:102C1000ED2C012F2A2D412F6F2DCE010E9427155B
:102C2000B12EB50C0B2D2F2D412F6F2DCE010E94F3
:102C300027152A2D412F6A2DCE010E9427152A2DF6
:102C40004B2D6F2DCE010E942715DF91CF911F9143
:102C50000F91FF90EF90DF90CF90BF90AF909F903B
:102C60008F907F906F905F904F900895E42EA02EEC
:102C7000B12CA40EB11C862E912C3401620E711C55
:102C80008E2D90E08A159B050CF60C2D9301A40166
:102C90006E2DCE010E941414E394F2CF2F923F9236
:102CA0004F925F926F927F928F929F92AF92BF925C
:102CB000CF92DF92EF92FF920F931F93CF93DF9308
:102CC000CDB7DEB729970FB6F894DEBF0FBECDBFE4
:102CD000DC01962F977058E0591BE11006C0F901EE
:102CE000E00FF11FE4900F5F1F4FC11006C0F90104
:102CF000E00FF11FC4900F5F1F4F8E2D8770EE2DD8
:102D0000E695E695E695882321F0882483948E0E37
:102D100002C08E2E88E0669566956695E62EF12CAB
:102D2000FC82EB82692E712CB301680F711D7987CB
:102D300068876FEF70E0088402C0759567950A9404
:102D4000E2F7852F90E09A83898391E0891202C08F
:102D5000562E01C0512C8FEF90E05C01052E01C072
:102D6000AA0C0A94EAF75A28462E68857985685095
:102D7000710902C0959587956A95E2F78D8360E0A9
:102D800070E0E42EF12CFF82EE82912C41E0841A57
:102D900091086C1508F08CC0F0916C014E815F8138
:102DA000460F571FF49FC001F59F900D1124EB8033
:102DB000FC808E0D9F1DED91FC911197E80FF91F7E
:102DC000D0804D2D45214083A8014F5F5F4FF80112
:102DD000E20FF31FA490ED91FC911197E80FF91FFA
:102DE000EA2CF12C062C02C0F594E7940A94E2F741
:102DF000F080FE28F0821401240E351E7C01E01ABA
:102E0000F10AC701840F951F0D911C911197B12CE8
:102E10004215530508F5080F191FF801D0800980E5
:102E200001C0AA0C0A94EAF7A082F901E40FF51F89
:102E3000A490ED91FC911197E80FF91F8A2D90E075
:102E4000062C02C0959587950A94E2F79081982BFD
:102E500090834F5F5F4FD5CFE885F985389744F46D
:102E6000FC013197E00FF11FD42010811D290CC007
:102E7000E885F985389749F07801E80EF91EF701E1
:102E80001081FD811F23F70110830D911C91119773
:102E9000080F191F098002C0AA0CBB1C0A94E2F794
:102EA000F80180818A2980836F5F7F4F8A0171CF0B
:102EB00029960FB6F894DEBF0FBECDBFDF91CF913C
:102EC0001F910F91FF90EF90DF90CF90BF90AF9048
:102ED0009F908F907F906F905F904F903F902F903A
:102EE0000895DF92EF92FF920F931F93CF93DF939A
:102EF0004130A9F1C0F0423009F44DC0433009F02F
:102F0000C8C0562F5770E52E66956695669570E099
:102F1000719561957109F12C02E010E088E090E074
:102F2000851B910983C0809171019091720120915C
:102F30006C01FC01629FE00DF11D112430916B01C9
:102F4000AC01329F400D511D11249A01DC012E1756
:102F50003F0708F49EC080818D931192F8CF809135
:102F600071019091720130916B0120916C01DC0133
:102F7000329FA00DB11D1124FD01629FE019F109DE
:102F800011241196E817F90708F483C020812E93C5
:102F900010823197F7CF162F177066956695669554
:102FA00070E0D0E028E030E0211B310980916B0116
:102FB000D81708F06EC080916C01E0917101F0911A
:102FC00072018D9FE00DF11D1124DF01A60FB71FC7
:102FD00090E002978E0F9F1F8A179B0790F0CC916D
:102FE000012E01C0CC0F0A94EAF71D924C9150E0DB
:102FF000022E02C0559547950A94E2F7C42BC1935F
:10300000EBCF8C91012E01C0880F0A94EAF71C9235
:103010008083DF5FCBCF2C9130E00E2C02C0359542
:1030200027950A94E2F71C922083F39420916B0178
:10303000F21678F5E0916C014E2F50E09A01215084
:103040003109EF9D200D311D1124E0917101F091A6
:103050007201E20FF31F9801241B350B2E0F3F1F47
:10306000DF01A60FB71FA217B307A8F24C9150E0DB
:103070000E2C02C0559547950A94E2F71C92CE910A
:10308000082E01C0CC0F0A94EAF74C2B40833197ED
:10309000EACFDF91CF911F910F91FF90EF90DF90DA
:1030A0000895EFE6F0E080818E7F8083089581E0CF
:1030B00080936F000895FC01758364830895CF9217
:1030C000EF920F931F93CF93DF93FC01A481B581FF
:1030D000FD0132963491ED012196FE01C490FD016F
:1030E000E490FE010491231B209F800111240D5FB9
:1030F0001F4F9D010E944E16DF91CF911F910F919E
:10310000EF90CF900895DC0113964C91139750E007
:103110001496ED91FC9115973196649120916B0175
:1031200030E0261B31094217530724F0649140E038
:103130000C947117E4914E0F511DFC0143830895C7
:103140000F931F93CF93DF931F92CDB7DEB78C0100
:10315000262F6A3031F1F8F4662309F466C068302E
:1031600069F5DC011496ED91FC911597E491DC0171
:1031700012966C91129770E06E1B710912966C9307
:10318000129720E213964C910F90DF91CF911F91EF
:103190000F910C945F186D3071F06E3009F445C0DA
:1031A0000DC0DC0112961C920F90DF91CF911F9100
:1031B0000F910C948318FC01128237C0D80112962B
:1031C0006C91129780916C011496ED91FC9115977A
:1031D000E491462F50E0B8E08B9FC00111248E1B74
:1031E0009109F801481759076CF01282C801298328
:1031F0000E9483182981D80113964C911397129637
:103200006C9101C04381C8010E945F18D8011496D7
:10321000ED91FC911597E491D80112968C9112973B
:10322000F0E0E80FF11D1296EC930F90DF91CF9133
:103230001F910F9108950F931F93CF93DF938C01EC
:10324000EB016991662321F0C8010E94A018F9CF13
:10325000DF91CF911F910F9108950C941B190F933B
:103260001F93CF93DF938C01EB01FE0164916623E2
:1032700029F02196C8010E94A018F7CFDF91CF91C5
:103280001F910F9108950F931F93CF93DF93EC013C
:1032900089016A834B83F8016491662331F00F5FE3
:1032A0001F4FCE010E94A018F6CFDF91CF911F9142
:1032B0000F910895FC016283438308954F925F92BA
:1032C0006F927F928F929F92AF92BF92CF92DF9236
:1032D000EF92FF920F931F93CF93DF93CDB7DEB79B
:1032E000A0970FB6F894DEBF0FBECDBF5C014115AD
:1032F000510561057105C9F460E3A0960FB6F89415
:10330000DEBF0FBECDBFDF91CF911F910F91FF9018
:10331000EF90DF90CF90BF90AF909F908F907F9075
:103320006F905F904F900C94A0188E010F5F1F4F0D
:10333000C12CD12C76014801422E512C612C712CCC
:103340008FEFC81AD80AE80AF80ACB01BA01A3011C
:1033500092010E940425CA01F80161938F01A9011D
:10336000BC01411551056105710551F7F1E0CF1A16
:10337000D108E108F108F401EC0DFD1D60816A300F
:1033800010F4605D01C0695CC5010E94A01881E075
:10339000C81AD108E108F108EFEFCE16DE06EE06F6
:1033A000FE0649F7A0960FB6F894DEBF0FBECDBF5C
:1033B000DF91CF911F910F91FF90EF90DF90CF9011
:1033C000BF90AF909F908F907F906F905F904F9045
:1033D00008952115310519F4642F0C94A0180C944C
:1033E0005E199A01462F50E060E070E00C94E919F4
:1033F0009A01AB0160E070E00C94E919CF92DF9282
:10340000EF92FF92CF93DF93EC016A017B0177FF8C
:103410000BC06DE20E94A018F094E094D094C09488
:10342000C11CD11CE11CF11C2AE0B701A601CE0190
:10343000DF91CF91FF90EF90DF90CF900C945E19C9
:103440002115310519F4642F0C94A0182A30310588
:1034500011F40C94FE190C945E199A01AB016627C5
:1034600057FD6095762F0C94201A089520916201E3
:10347000309163018091680190E02817390779F451
:10348000109274011092730180916E0180936F010C
:103490008BEE9AE190935F0180935E0116C02091BC
:1034A0006201309163018091690190916A0128174E
:1034B000390759F48FE69AE190935F0180935E019A
:1034C000E0910601F09107010995809162019091C8
:1034D00063010196909363018093620108952091A6
:1034E0006201309163018091690190916A0128170E
:1034F00039070CF44EC08CEA93E0909389008093D6
:103500008800109263011092620180916401909191
:103510006501A0916601B09167010196A11DB11DE1
:103520008093640190936501A0936601B093670155
:1035300080915A0190915B01A0915C01B0915D0175
:10354000892B8A2B8B2B09F180915A0190915B0179
:10355000A0915C01B0915D01181619061A061B06B0
:1035600084F580915A0190915B01A0915C01B0912A
:103570005D010197A109B10980935A0190935B0104
:10358000A0935C01B0935D011CC01092B1002B9818
:1035900018C02091620130916301809170019927D8
:1035A00087FD90952817390761F48AE490E090939D
:1035B00089008093880086E39AE190935F0180936D
:1035C0005E01809162019091630101969093630185
:1035D0008093620108953091840020916D012A50FA
:1035E000231B2350F0F72D5F19F02A9511F001C02D
:1035F0000000E0916001F0916101099580916F01F7
:1036000040916E0181110FC040936F0120916C01B8
:103610008091730190917401820F911D90937401B8
:103620008093730103C0815080936F0120916201E8
:10363000309163012F5F3F4F6091680170916B0182
:10364000552747FD50954F5F5F4F749FC001759F91
:10365000900D1124860F911D2817390731F486E348
:103660009AE190935F0180935E0180916201909155
:1036700063010196909363018093620108950F9313
:10368000CF93DF93A0917101B0917201C09173014A
:10369000D091740180916C01AC0FBD1F0BB10F77FD
:1036A00003C000FA07F90BB90D90000007FA07F9FB
:1036B0000BB900000000000006FA07F90BB9000082
:1036C0000000000005FA07F90BB900000000000037
:1036D00004FA07F90BB900000000000003FA07F92B
:1036E0000BB900000000000002FA07F90BB9000056
:1036F0000000000001FA07F90BB98A9591F6000065
:10370000000000FA07F90BB90BB10F7707FB07F9B7
:103710000BB9DF91CF910F9108950F93CF93DF9362
:10372000A0917101B0917201C0917301D0917401A7
:1037300080916C01AC0FBD1F0BB10F7703C000FA75
:1037400007F90BB90D9007FA07F90BB90000000053
:1037500006FA07F90BB90000000005FA07F90BB9E2
:103760000000000004FA07F90BB90000000003FA9A
:1037700007F90BB90000000002FA07F90BB90000C5
:103780008A9501FA07F90BB9D1F6000000FA07F99A
:103790000BB90BB10F7707FB07F90BB9DF91CF918D
:1037A0000F9108950F93CF93DF93A0917101B09182
:1037B0007201C0917301D091740180916C01AC0FC2
:1037C000BD1F02C0000C0BB80D9000000BB800002C
:1037D0000000000C0BB800000000000C0BB800004B
:1037E0000000000C0BB800000000000C0BB800003B
:1037F0000000000C0BB80000000C8A950BB811F704
:103800000000000C0BB80000000000005F98DF9182
:10381000CF910F9108950F93CF93DF93A0917101F2
:10382000B0917201C0917301D091740180916C01CB
:10383000AC0FBD1F8E3191F08D3151F08C3149F0BC
:103840008B3141F08A3139F0893131F0883129F0FA
:103850001CC032C048C05EC074C08AC00D900BB896
:103860000000000C0BB80000000C0BB80000000CAE
:103870000BB80000000C0BB80000000C0BB80000E7
:10388000000C0BB80000000C0BB80D900BB800003A
:10389000000C0BB80000000C0BB80000000C0BB8BB
:1038A0000000000C0BB80000000C0BB80000000C6E
:1038B0000BB80000000C0BB80D900BB80000000C0A
:1038C0000BB80000000C0BB80000000C0BB8000097
:1038D000000C0BB80000000C0BB80000000C0BB87B
:1038E0000000000C0BB80D900BB80000000C0BB8DA
:1038F0000000000C0BB80000000C0BB80000000C1E
:103900000BB80000000C0BB80000000C0BB8000056
:10391000000C0BB80D900BB80000000C0BB80000A9
:10392000000C0BB80000000C0BB80000000C0BB82A
:103930000000000C0BB80000000C0BB80000000CDD
:103940000BB80D900BB80000000C0BB80000000C79
:103950000BB80000000C0BB80000000C0BB8000006
:10396000000C0BB80000000C0BB80000000C0BB8EA
:103970000D900BB80000000C0BB80000000C0BB849
:103980000000000C0BB80000000C0BB80000000C8D
:103990000BB80000000C0BB80000000C0BB80D9029
:1039A0000BB80000000C0BB80000000C0BB80000B6
:1039B000000C0BB80000000C0BB80000000C0BB89A
:1039C0000000000C0BB80000000C0BB80D900BB8F9
:1039D0000000000C0BB80000000C0BB80000000C3D
:1039E0000BB80000000C0BB80000000C0BB8000076
:1039F000000C0BB80000000C0BB80D900BB80000C9
:103A0000000C0BB80000000C0BB80000000C0BB849
:103A10000000000C0BB80000000C0BB80000000CFC
:103A20000BB80000000C0BB80D900BB80000000C98
:103A30000BB80000000C0BB80000000C0BB8000025
:103A4000000C0BB80000000C0BB80000000C0BB809
:103A50000000000C0BB80D900BB80000000C0BB868
:103A60000000000C0BB80000000C0BB80000000CAC
:103A70000BB80000000C0BB80000000C0BB80000E5
:103A8000000C0BB80D900BB80000000C0BB8000038
:103A9000000C0BB80000000C0BB80000000C0BB8B9
:103AA0000000000C0BB80000000C0BB80000000C6C
:103AB0000BB80D900BB80000000C0BB80000000C08
:103AC0000BB80000000C0BB80000000C0BB8000095
:103AD000000C0BB80000000C0BB80000000C0BB879
:103AE0000D900BB80000000C0BB80000000C0BB8D8
:103AF0000000000C0BB80000000C0BB80000000C1C
:103B00000BB80000000C0BB80000000C0BB80D90B7
:103B10000BB80000000C0BB80000000C0BB8000044
:103B2000000C0BB80000000C0BB80000000C0BB828
:103B30000000000C0BB80000000C0BB80D900BB887
:103B40000000000C0BB80000000C0BB80000000CCB
:103B50000BB80000000C0BB80000000C0BB8000004
:103B6000000C0BB80000000C0BB80D900BB8000057
:103B7000000C0BB80000000C0BB80000000C0BB8D8
:103B80000000000C0BB80000000C0BB80000000C8B
:103B90000BB80000000C0BB80D900BB80000000C27
:103BA0000BB80000000C0BB80000000C0BB80000B4
:103BB000000C0BB80000000C0BB80000000C0BB898
:103BC0000000000C0BB80D900BB80000000C0BB8F7
:103BD0000000000C0BB80000000C0BB80000000C3B
:103BE0000BB80000000C0BB80000000C0BB8000074
:103BF000000C0BB80D900BB80000000C0BB80000C7
:103C0000000C0BB80000000C0BB80000000C0BB847
:103C10000000000C0BB80000000C0BB80000000CFA
:103C20000BB80D900BB80000000C0BB80000000C96
:103C30000BB80000000C0BB80000000C0BB8000023
:103C4000000C0BB80000000C0BB80000000C0BB807
:103C50000D900BB80000000C0BB80000000C0BB866
:103C60000000000C0BB80000000C0BB80000000CAA
:103C70000BB80000000C0BB80000000C0BB80D9046
:103C80000BB80000000C0BB80000000C0BB80000D3
:103C9000000C0BB80000000C0BB80000000C0BB8B7
:103CA0000000000C0BB80000000C0BB80D900BB816
:103CB0000000000C0BB80000000C0BB80000000C5A
:103CC0000BB80000000C0BB80000000C0BB8000093
:103CD000000C0BB80000000C0BB80D900BB80000E6
:103CE000000C0BB80000000C0BB80000000C0BB867
:103CF0000000000C0BB80000000C0BB80000000C1A
:103D00000BB80000000C0BB80D900BB80000000CB5
:103D10000BB80000000C0BB80000000C0BB8000042
:103D2000000C0BB80000000C0BB80000000C0BB826
:103D30000000000C0BB80D900BB80000000C0BB885
:103D40000000000C0BB80000000C0BB80000000CC9
:103D50000BB80000000C0BB80000000C0BB8000002
:103D6000000C0BB80D900BB80000000C0BB8000055
:103D7000000C0BB80000000C0BB80000000C0BB8D6
:103D80000000000C0BB80000000C0BB80000000C89
:103D90000BB80D900BB80000000C0BB80000000C25
:103DA0000BB80000000C0BB80000000C0BB80000B2
:103DB000000C0BB80000000C0BB80000000C0BB896
:103DC000000000005F98DF91CF910F910895CF938D
:103DD000DF93C82FE62F3093720120937101609317
:103DE0006C0140936B011092640110926501109276
:103DF000660110926701642F70E0882319F084E057
:103E000091E002C088ED90E00E94F0246150609340
:103E10006E01D0916E01D0936F0188E0E89F900110
:103E20001124442737FD4095542F60EE72E080E066
:103E300090E00E942625243091F018F42330B9F048
:103E400011C0253049F0263069F48FE39BE190934F
:103E500061018093600111C04DE85BE10AC042ED51
:103E60005BE107C0273018F04FE35BE102C04BE095
:103E70005CE15093610140936001579A219A5F98E9
:103E8000299A239A82EC8093800089E180938100B3
:103E900040916B012D2F332727FD30952F5F3F4F2A
:103EA000429FC001439F900D1124CC23C9F097FD80
:103EB0000196959587959195819591098456809362
:103EC000680187EC80936D0187E08093700188E33F
:103ED00091E090936A01809369018FEF93E018C09D
:103EE00097FD0196959587959195819591098557AF
:103EF000809368018FEB80936D0183E08093700164
:103F000086E091E090936A018093690187EF93E0E6
:103F100090938700809386008AE490E090938900D4
:103F2000809388008091690190916A010196909335
:103F30006301809362018FE69AE190935F01809321
:103F40005E0181E080936F007894DF91CF910895B6
:103F50001F920F920FB60F9211242F933F934F93FE
:103F60005F936F937F938F939F93AF93BF93EF93E1
:103F7000FF93E0910801F09109010995E0915E013C
:103F8000F0915F010995FF91EF91BF91AF919F91E2
:103F90008F917F916F915F914F913F912F910F90F2
:103FA0000FBE0F901F9018951F920F920FB60F9291
:103FB00011242F933F938F939F93AF93BF9380913F
:103FC000760190917701A0917801B09179013091BB
:103FD000750123E0230F2D3720F40196A11DB11D9B
:103FE00005C026E8230F0296A11DB11D209375017F
:103FF0008093760190937701A0937801B093790133
:1040000080917A0190917B01A0917C01B0917D011A
:104010000196A11DB11D80937A0190937B01A0931D
:104020007C01B0937D01BF91AF919F918F913F91A2
:104030002F910F900FBE0F901F9018952FB7F894E7
:10404000609176017091770180917801909179016A
:104050002FBF08953FB7F89480917A0190917B012A
:10406000A0917C01B0917D0126B5A89B05C02F3F92
:1040700019F00196A11DB11D3FBF6627782F892F2A
:104080009A2F620F711D811D911D42E0660F771FEF
:10409000881F991F4A95D1F70895CF92DF92EF922A
:1040A000FF92CF93DF936B017C010E942A20EB01EA
:1040B000C114D104E104F10489F00E94EF240E94AC
:1040C0002A206C1B7D0B683E734090F381E0C81A78
:1040D000D108E108F108C851DC4FEACFDF91CF9158
:1040E000FF90EF90DF90CF900895019739F0880FFF
:1040F000991F880F991F02970197F1F708957894F7
:1041000084B5826084BD84B5816084BD85B58260DC
:1041100085BD85B5816085BDEEE6F0E0808181607A
:104120008083E1E8F0E0108280818260808380817A
:1041300081608083E0E8F0E0808181608083E1EB52
:10414000F0E0808184608083E0EBF0E0808181603A
:104150008083EAE7F0E080818460808380818260F0
:1041600080838081816080838081806880831092D9
:10417000C10008958E3008F08E50877020910A019A
:1041800090E4299F90011124822B80937C008091E0
:104190007A00806480937A0080917A0086FDFCCF5B
:1041A000809178002091790090E0922B08958330DF
:1041B00081F028F4813099F08230A1F008958730A1
:1041C000A9F08830B9F08430D1F4809180008F7DDF
:1041D00003C0809180008F7780938000089584B51C
:1041E0008F7702C084B58F7D84BD08958091B00023
:1041F0008F7703C08091B0008F7D8093B0000895C9
:10420000CF93DF9390E0FC01E851FF4E2491FC0135
:10421000E450FF4E8491882349F190E0880F991F64
:10422000FC01EC5DFE4EA591B491865E9E4EFC01B4
:10423000C591D4919FB7611108C0F8948C912095D5
:1042400082238C93888182230AC0623051F4F894CF
:104250008C91322F309583238C938881822B888395
:1042600004C0F8948C91822B8C939FBFDF91CF91E7
:1042700008950F931F93CF93DF931F92CDB7DEB7AF
:10428000282F30E0F901EC52FF4E8491F901E851FA
:10429000FF4E1491F901E450FF4E04910023C9F040
:1042A000882321F069830E94D7206981E02FF0E004
:1042B000EE0FFF1FE65EFE4EA591B4919FB7F894F6
:1042C0008C91611103C01095812301C0812B8C93C7
:1042D0009FBF0F90DF91CF911F910F910895CF93C2
:1042E000DF93282F30E0F901EC52FF4E8491F90161
:1042F000E851FF4ED491F901E450FF4EC491CC2314
:1043000091F081110E94D720EC2FF0E0EE0FFF1FFB
:10431000E05FFE4EA591B4912C912D2381E090E0B9
:1043200021F480E002C080E090E0DF91CF91089519
:10433000FC01818D228D90E0805C9F4F821B910952
:104340008F7399270895FC01918D828D981731F014
:10435000828DE80FF11D858D90E008958FEF9FEF1E
:104360000895FC01918D828D981761F0828DDF0197
:10437000A80FB11D5D968C91928D9F5F9F73928F58
:1043800090E008958FEF9FEF089585E393E2892BE6
:1043900049F080E090E0892B29F00E9435238111BB
:1043A0000C9400000895FC01848DDF01A80FB11D5D
:1043B000A35ABF4F2C91848D90E001968F7399275B
:1043C000848FA689B7892C93A089B1898C91806448
:1043D0008C93938D848D981306C00288F389E02D09
:1043E00080818F7D80830895CF93DF93EC01888D4A
:1043F0008823C9F0EA89FB89808185FD05C0A889E9
:10440000B9898C9186FD0FC00FB607FCF5CF80816E
:1044100085FFF2CFA889B9898C9185FFEDCFCE01B8
:104420000E94D321E7CFDF91CF910895CF92DF9201
:10443000FF920F931F93CF93DF931F92CDB7DEB7F9
:104440006C01DC015B969C915B975C968C915C9710
:10445000981307C05096ED91FC915197808185FD8E
:1044600032C0F601038D10E00F5F1F4F0F7311274D
:10447000F02EF601848DF81211C00FB607FCF9CFAB
:10448000D6015096ED91FC915197808185FFF1CF37
:10449000C60169830E94D3216981EBCF838DE80F28
:1044A000F11DE35AFF4F6083D6015B960C935B9737
:1044B0005296ED91FC91539780818062808381E0D8
:1044C00058968C930DC0D6015696ED91FC91579756
:1044D00060835096ED91FC91519780818064808338
:1044E00081E090E00F90DF91CF911F910F91FF90AD
:1044F000DF90CF900895BF92CF92DF92EF92FF921C
:10450000CF93DF93EC016A017B01B22EE889F98930
:1045100082E08083411581EE580761057105A1F0A5
:1045200060E079E08DE390E0A70196010E94042508
:1045300021503109410951095695479537952795DD
:10454000211580E1380798F0E889F989108260E840
:1045500074E88EE190E0A70196010E9404252150A5
:104560003109410951095695479537952795EC85AD
:10457000FD853083EE85FF852083188EEC89FD89CB
:10458000B082EA89FB89808180618083EA89FB8926
:10459000808188608083EA89FB898081806880834C
:1045A000EA89FB8980818F7D8083DF91CF91FF90A5
:1045B000EF90DF90CF90BF9008951F920F920FB6AB
:1045C0000F9211242F938F939F93EF93FF93E0917A
:1045D0008E01F0918F018081E0919401F09195011D
:1045E00082FD12C09081809197018F5F8F7320911F
:1045F0009801821751F0E0919701F0E0E258FE4FE8
:10460000958F8093970101C08081FF91EF919F91D9
:104610008F912F910F900FBE0F901F9018951F92A2
:104620000F920FB60F9211242F933F934F935F93E6
:104630006F937F938F939F93AF93BF93EF93FF936A
:104640008EE791E00E94D321FF91EF91BF91AF914E
:104650009F918F917F916F915F914F913F912F919A
:104660000F900FBE0F901F9018958EE791E00E945B
:10467000982121E0892B09F420E0822F08951092DF
:1046800081011092800188EE93E0A0E0B0E0809379
:10469000820190938301A0938401B093850188E106
:1046A00091E090937F0180937E0185EC90E0909360
:1046B0008B0180938A0184EC90E090938D0180932C
:1046C0008C0180EC90E090938F0180938E0181ECBF
:1046D00090E0909391018093900182EC90E0909310
:1046E00093018093920186EC90E0909395018093E2
:1046F00094011092970110929801109299011092D2
:104700009A01089508950E947F200E9482230E94AA
:10471000A40DC5ECD1E20E9413132097E1F30E948F
:10472000C521F9CFCF92DF92EF92FF920F931F93A3
:10473000CF93DF936C017A01EB01E60EF71E00E0E8
:1047400010E0CE15DF0561F06991D601ED91FC9185
:104750000190F081E02DC6010995080F191FF1CFD6
:10476000C801DF91CF911F910F91FF90EF90DF90E3
:10477000CF9008956115710581F0DB010D90002047
:10478000E9F7AD0141505109461B570BDC01ED9192
:10479000FC910280F381E02D099480E090E008957F
:1047A000EF92FF920F931F93CF93DF938C01FB0146
:1047B000C0E0D0E064917F018FEFE81AF80A662329
:1047C00061F0D801ED91FC910190F081E02DC801DC
:1047D0000995C80FD91FF701EDCFCE01DF91CF9119
:1047E0001F910F91FF90EF900895DC01ED91FC91E6
:1047F0000190F081E02D09940F931F93CF93DF93E5
:10480000EC016DE00E94F5238C016AE0CE010E946C
:10481000F523800F911FDF91CF911F910F91089584
:104820000F931F93CF93DF93EC010E94D0238C0151
:10483000CE010E94FC23800F911FDF91CF911F9129
:104840000F9108950F931F93CF93DF93EC010E9474
:10485000BA238C01CE010E94FC23800F911FDF91AF
:10486000CF911F910F9108958F929F92AF92BF9217
:10487000CF92DF92EF92FF920F931F93CF93DF932C
:10488000CDB7DEB7A1970FB6F894DEBF0FBECDBF90
:104890007C01C42EE52FCB01D22E19A221E02D15CB
:1048A00010F02AE0D22E8E010F5D1F4F8D2C912C1F
:1048B000A12CB12C6C2D7E2FA50194010E94042502
:1048C0008C2DD29E80191124015011098A3014F4C4
:1048D000805D01C0895CF8018083211531054105A7
:1048E000510521F0C22EE32FCA01E4CFB801C70160
:1048F0000E94BA23A1960FB6F894DEBF0FBECDBFBB
:10490000DF91CF911F910F91FF90EF90DF90CF90AB
:10491000BF90AF909F908F900895CF92DF92EF92CB
:10492000FF920F931F93CF93DF93EC016A017B01FA
:104930002115310579F4E881F9810190F081E02DAC
:10494000642FDF91CF911F910F91FF90EF90DF9037
:10495000CF9009942A303105E9F477FF1AC06DE24F
:104960000E94F5238C0144275527BA014C195D0993
:104970006E097F092AE0CE010E943424800F911F26
:10498000DF91CF911F910F91FF90EF90DF90CF902B
:1049900008952AE0B701A601CE01DF91CF911F91C2
:1049A0000F91FF90EF90DF90CF900C9434240F93F1
:1049B0001F93CF93DF93EC019A01AB01662757FD5C
:1049C0006095762F0E948D248C01CE010E94FC23DD
:1049D000800F911FDF91CF911F910F91089508953E
:1049E00097FB072E16F4009407D077FD09D00E949C
:1049F0004B2507FC05D03EF4909581959F4F089577
:104A0000709561957F4F0895A1E21A2EAA1BBB1BDA
:104A1000FD010DC0AA1FBB1FEE1FFF1FA217B3078A
:104A2000E407F50720F0A21BB30BE40BF50B661FA0
:104A3000771F881F991F1A9469F760957095809564
:104A400090959B01AC01BD01CF010895052E97FB08
:104A50001EF400940E943D2557FD07D00E940425B6
:104A600007FC03D04EF40C943D25509540953095AD
:104A700021953F4F4F4F5F4F0895909580957095CA
:104A800061957F4F8F4F9F4F0895EE0FFF1F059049
:104A9000F491E02D0994AA1BBB1B51E107C0AA1F8A
:104AA000BB1FA617B70710F0A61BB70B881F991FCF
:104AB0005A95A9F780959095BC01CD010895CF93A3
:104AC000DF938230910510F482E090E0E0911D02C6
:104AD000F0911E0220E030E0A0E0B0E0309739F124
:104AE0004081518148175907B8F04817590771F4A8
:104AF00082819381109729F013969C938E9312973D
:104B00002CC090931E0280931D0227C021153105F1
:104B100031F04217530718F0A901DB0101C0EF0182
:104B20009A01BD01DF010280F381E02DD7CF21156D
:104B30003105F9F0281B390B2430310580F48A81C6
:104B40009B816115710521F0FB019383828304C071
:104B500090931E0280931D02FE01329644C0FE0116
:104B6000E20FF31F819391932250310939832883F7
:104B70003AC020911B0230911C02232B41F420915A
:104B800002013091030130931C0220931B022091FB
:104B90000001309101012115310541F42DB73EB7D7
:104BA0004091040150910501241B350BE0911B023B
:104BB000F0911C02E217F307A0F42E1B3F0B2817FD
:104BC000390778F0AC014E5F5F4F2417350748F086
:104BD0004E0F5F1F50931C0240931B0281939193D1
:104BE00002C0E0E0F0E0CF01DF91CF910895CF93D4
:104BF000DF93009709F487C0FC0132971382128279
:104C0000C0911D02D0911E02209781F42081318134
:104C1000280F391F80911B0290911C028217930765
:104C200079F5F0931C02E0931B026DC0DE0120E0D9
:104C300030E0AE17BF0750F412964D915C91139778
:104C40009D014115510509F1DA01F3CFB383A28328
:104C500040815181840F951F8A179B0771F48D91B4
:104C60009C911197840F951F0296918380831296D1
:104C70008D919C911397938382832115310529F49B
:104C8000F0931E02E0931D023EC0D9011396FC93DF
:104C9000EE9312974D915D91A40FB51FEA17FB0794
:104CA00079F480819181840F951F0296D901119624
:104CB0009C938E938281938113969C938E931297EB
:104CC000E0E0F0E08A819B81009719F0FE01EC01A1
:104CD000F9CFCE01029628813981820F931F20914E
:104CE0001B0230911C022817390769F4309729F408
:104CF00010921E0210921D0202C013821282D093E3
:104D00001C02C0931B02DF91CF910895F999FECF49
:104D100092BD81BDF89A992780B50895262FF999FB
:104D2000FECF1FBA92BD81BD20BD0FB6F894FA9A8E
:0C4D3000F99A0FBE01960895F894FFCF89
:104D3C0000001F028000351A351A01312E30620036
:104D4C00202D200000000000162292239821B12172
:044D5C00A321F4217A
:00000001FF
