:100000000C94B4080C94DC080C94DC080C94DC0808
:100010000C94DC080C94DC080C94DC080C94DC08D0
:100020000C94DC080C94DC080C94DC080C94DC08C0
:100030000C94DC080C94E91F0C94DC080C94DC088C
:100040000C9415200C94DC080C941E230C94502363
:100050000C94DC080C94DC080C94DC080C94DC0890
:100060000C94DC080C94DC08DE0EF40EFD0E381344
:10007000910F0B108C100B116211BA119212525386
:1000800053493A20004368616E6E656C3A20005215
:1000900046204368616E6E656C2053656C656374C1
:1000A000696F6E00507265737320616E7920746F92
:1000B00020636F6E74696E75652E2E2E00202020D1
:1000C0002020486F6C64203A2053617665004D6FA4
:1000D000646520436C69636B3A204578697400203D
:1000E00020202020486F6C64203A205363616E000A
:1000F0004E65787420436C69636B3A2043682B002B
:10010000427574746F6E204B657920496E666F007E
:100110003E00457869740020205246204469766587
:1001200072736974790020204578742E20566964B2
:10013000656F002020524620566964656F203200AA
:100140002020524620566964656F2031005669644C
:10015000656F20496E707574204D656E7500457829
:10016000697400525353492043616C69627261742F
:10017000696F6E0046616E204F7574707574005221
:100180004620537065637472756D00524620436853
:10019000616E6E656C205365747570005669646598
:1001A0006F20496E7075742053656C6563742E0002
:1001B000436F6E66696775726174696F6E204D6515
:1001C0006E75002500202D2000202D200043686141
:1001D0006E6E656C3A00467265616B794174746944
:1001E000632E636F6D00352E3847487A2056696458
:1001F000656F205278202D205665722E00464135BD
:100200003847485A004F53443A204F5344206F66B2
:1002100066004F53443A204F534420696E69746915
:10022000616C697A656400566964656F4D55583A2A
:1002300020496E707574203000566964656F4D55A5
:10024000583A20496E707574203300566964656FA2
:100250004D55583A20496E707574203200566964C5
:10026000656F4D55583A20496E70757420310045C0
:100270004550524F4D3A20436F6E66696775726103
:1002800074696F6E20736176656400454550524F06
:100290004D3A20436F6E66696775726174696F6E5F
:1002A000206C6F6164656400454550524F4D3A20A3
:1002B0004C6F6164696E672064656661756C74205B
:1002C00076616C7565730020004E6F7620313020AA
:1002D0003230313500202020427920467265616B32
:1002E0007961747469632E636F6D202D20000A0A92
:1002F0000A0D4641353847485A205246205669640F
:10030000656F204D6F64756C65202D205665722ECB
:100310002000426F61726420696E697469616C6962
:100320007A6564202E2E2E00E916D516C116AD165C
:100330009916851671165D16651678168B169E161B
:10034000B116C416D716EA164916351621160D161B
:10035000FD161117251739176C1680169416A81656
:10036000BC16D016E416F8161A163F16641689162F
:10037000AE16D316F8161D17052A9B299129872931
:100380001D29132909299F2803290C2916291F290A
:10039000892992299C29052A95288B2881281728A4
:1003A0000F2A192A832A8D2A062910291A29842915
:1003B0008E299829022A0C2A1D28B02802291529DD
:1003C0008729DA290C2A132A0406200000000000DD
:1003D00000404040004000A0A000000000A0E0A0BD
:1003E000E0A0004060C060C000A0204080A00020CD
:1003F00040C0A0E00080800000000040808080407D
:100400000080404040800040A0400000000040E0EC
:100410004000000000008080000000E000000000BC
:100420000000008000202040808000E0A0A0A0E02C
:100430000040C04040E000E020E080E000E020E03C
:1004400020E000A0A0E0202000E080E020C000C06C
:1004500080E0A0E000E02040808000E0A0E0A0E09C
:1004600000E0A0E0206000004000400000004000EC
:1004700040800020408040200000E000E00000803C
:100480004020408000C02040004000E0A0A0E0E00C
:1004900000E0A0E0A0A000C0A0E0A0C000E080803C
:1004A00080E000C0A0A0A0C000E080E080E000E00C
:1004B00080E0808000E08080A0E000A0A0E0A0A01C
:1004C00000E0404040E000202020A0E00080A0C0EC
:1004D000C0A00080808080E000A0E0E0A0A000C07C
:1004E000A0A0A0A00040A0A0A04000E0A0E08080CC
:1004F0000040A0A0E06600E0A0C0E0AA00E080E02C
:1005000020E000E04040404000A0A0A0A0E000A00B
:10051000A0A0A04000A0A0E0E0A200A0A040A0A059
:1005200000A0A040404000E0204080E000C080806B
:1005300080C000008040202000C0404040C00040FB
:10054000A00000000000000000E00080400000006B
:10055000000060A0A060008080C0A0C0000060809B
:10056000806000202060A0600040A0E0806000600B
:1005700040E040400060A06020C0008080C0A0A09B
:100580000040004040400040004040C0008080A04B
:10059000C0A000C0404040E00000A0E0A0A00000DB
:1005A000C0A0A0A0000040A0A0400000C0A0C0804B
:1005B000000060A060200000C0A0808000006040BB
:1005C00020600040E04040400000A0A0A06000008B
:1005D000A0A0A0400000A0A0E0A00000A04040A07B
:1005E0000000A0E020400000E04080E0002040C08B
:1005F00040220040400040400080406040800000B9
:10060000A0400000000608200000000000000000DC
:10061000404040404000400050505000000000006A
:10062000000050F850F850002070A0702870200092
:1006300000C8D0205898000020508040A890680042
:1006400040404000000000001020404040201000CA
:100650004020101010204000103810000000000052
:10066000002020F8202000000000000000101000F2
:10067000000000F800000000000000000010000072
:1006800000081020408000007088A8A88870000032
:1006900020602020207000007088102040F80000AA
:1006A000F810201088700000909090F81010000052
:1006B000F880F008887000007080F0888870000072
:1006C000F808102040800000708870888870000052
:1006D000708888780870000000002000002000006A
:1006E00000002000202040000018608060180000FA
:1006F000000078007800000000C0300830C0000022
:100700006090202000200000708898A890887000D9
:10071000205088F888880000F088F08888F0000071
:100720007088808088700000F088888888F00000D9
:10073000F880F88080F80000F880F0808080000069
:1007400070888098887000008888F8888888000001
:1007500070202020207000003810101090600000E1
:100760008890E0A0908800008080808080F8000061
:1007700088D8A8A8888800008888C8A89888000019
:100780007088888888700000F088F0808080000081
:10079000708888A890680000F088F0A09088000019
:1007A0007880700808F00000F82020202020000049
:1007B0008888888888700000888888885020000091
:1007C0008888A8A8A8500000885020508888000079
:1007D0008888502020200000F808102040F80000F1
:1007E000E080808080E00000008040201008000051
:1007F00038080808083800002050000000000000F9
:10080000000000000000F800804000000000000030
:1008100000601070906000008080E09090E0000028
:1008200000007080807000001010709090700000C8
:10083000006090F0807000003040E04040400000D8
:1008400000609070101060008080E0909090000038
:1008500020002020207000001000301010106000D8
:100860008090A0C0A0900000602020202070000098
:10087000000050A8A8A800000000F08888880000A8
:10088000000060909060000000006090F0808000A8
:1008900000006090F01010000000B04840400000E0
:1008A00000304020106000004040E0404040000028
:1008B00000009090906000000000888850200000A8
:1008C000000088A8A8500000008850205088000030
:1008D00000009090604080000000F02040F0000098
:1008E0002040408040402000202020202020200068
:1008F000201010081010200040A810000000000078
:1009000000000000000000000808000000000000D7
:100910000000007E81A581BD99817E7EFFDBFFC343
:10092000E7FF7E6CFEFEFE7C38100010387CFE7CFB
:10093000381000387C38FEFED6103810387CFEFEA9
:100940007C10380000183C3C180000FFFFE7C3C3D0
:10095000E7FFFF003C664242663C00FFC399BDBD15
:1009600099C3FF0F070F7DCCCCCC783C6666663C04
:10097000187E183F333F303070F0E07F637F636351
:1009800067E6C018DB3CE7E73CDB1880E0F8FEF8E0
:10099000E08000020E3EFE3E0E0200183C7E18185B
:1009A0007E3C1866666666660066007FDBDB7B1B46
:1009B0001B1B003E613C66663C867C000000007E9E
:1009C0007E7E00183C7E187E3C18FF183C7E18186E
:1009D000181800181818187E3C180000180CFE0C87
:1009E000180000003060FE603000000000C0C0C091
:1009F000FE0000002466FF6624000000183C7EFF15
:100A0000FF000000FFFF7E3C180000000000000017
:100A1000000000183C3C181800180066662400000E
:100A20000000006C6CFE6CFE6C6C00183E603C06B6
:100A30007C180000C6CC183066C600386C3876DCEE
:100A4000CC760018183000000000000C1830303050
:100A5000180C0030180C0C0C18300000663CFF3CE1
:100A60006600000018187E18180000000000000042
:100A70001818300000007E00000000000000000098
:100A8000181800060C183060C080007CC6CED6E670
:100A9000C67C001838181818187E007CC6061C3052
:100AA00066FE007CC6063C06C67C001C3C6CCCFE88
:100AB0000C1E00FEC0C0FC06C67C003860C0FCC630
:100AC000C67C00FEC60C18303030007CC6C67CC622
:100AD000C67C007CC6C67E060C7800001818000094
:100AE0001818000018180000181830060C183018D4
:100AF0000C060000007E00007E00006030180C181C
:100B00003060007CC60C18180018007CC6DEDEDEE3
:100B1000C07800386CC6FEC6C6C600FC66667C6639
:100B200066FC003C66C0C0C0663C00F86C66666649
:100B30006CF800FE6268786862FE00FE62687868A1
:100B400060F0003C66C0C0CE663A00C6C6C6FEC6AF
:100B5000C6C6003C18181818183C001E0C0C0CCC0B
:100B6000CC7800E6666C786C66E600F060606062E7
:100B700066FE00C6EEFEFED6C6C600C6E6F6DECEB1
:100B8000C6C6007CC6C6C6C6C67C00FC66667C605F
:100B900060F0007CC6C6C6C6CE7C0EFC66667C6C69
:100BA00066E6007CC660380CC67C007E7E5A18184B
:100BB000183C00C6C6C6C6C6C67C00C6C6C6C6C6E3
:100BC0006C3800C6C6C6D6D6FE6C00C6C66C386C7D
:100BD000C6C6006666663C18183C00FEC68C183215
:100BE00066FE003C30303030303C00C06030180CC5
:100BF0000602003C0C0C0C0C0C3C0010386CC600BF
:100C000000000000000000000000FF30180C000091
:100C10000000000000780C7CCC7600E0607C66660A
:100C200066DC0000007CC6C0C67C001C0C7CCCCC02
:100C3000CC760000007CC6FEC07C003C6660F8609C
:100C400060F000000076CCCC7C0CF8E0606C76663E
:100C500066E6001800381818183C0006000606065C
:100C600066663CE060666C786CE600381818181808
:100C7000183C000000ECFED6D6D6000000DC66660C
:100C800066660000007CC6C6C67C000000DC6666A6
:100C90007C60F0000076CCCC7C0C1E0000DC766022
:100CA00060F00000007EC07C06FC003030FC30307C
:100CB000361C000000CCCCCCCC76000000C6C6C6EA
:100CC0006C38000000C6D6D6FE6C000000C66C383A
:100CD0006CC6000000C6C6C67E06FC00007E4C182E
:100CE000327E000E18187018180E001818181818F0
:100CF0001818007018180E1818700076DC00000024
:100D00000000000010386CC6C6FE0060F0607C6613
:100D100066660CFC607C6666666C001C10007E607B
:100D20006060003820FEC0C0C0C0006C007CC6FE01
:100D3000C07C006CFE62786062FE0000007CC6F041
:100D4000C67C003C66C0F8C0663C0000007EC07CEB
:100D500006FC007CC660380CC67C003000303030A9
:100D60003078007830303030307800CC003030309F
:100D7000307800663C181818183C0018001818182D
:100D80001818701E0C0C0C0CCC7800000070505C15
:100D900052DC0070505C525252DC000000A0A0FCFB
:100DA000A2BC00A0A0A0FCA2A2BC0060F0607C6677
:100DB000666600F8607C66666666001C10C6D8F839
:100DC000CCC60018D6CCF8F8CCC6006C38C6C6C65F
:100DD0007E067C38C6C67E06C67C000000C6C6C637
:100DE000C6FE10C6C6C6C6C6C6FE100000DCD6F6D5
:100DF000D6DC00DCD6D6F6D6D6DC000000F0B03C5F
:100E0000363C00F0F0B03C36363C000000780C7CFC
:100E1000CC76003E66C6C6FEC6C600067CC07CC652
:100E2000C67C00FE66607C6666FC000000CCCCCC14
:100E3000CCFE06CCCCCCCCCCCCFE0600003C6C6C02
:100E40006CFEC61E3666666666FFC300007CC6FE84
:100E5000C07C00FE6268786862FE0000007CD6D626
:100E60007C10387CD6D6D67C1038000000FE666038
:100E700060F000FE6660606060F000003366CC6683
:100E800033000000CC663366CC0000228822882222
:100E900088228855AA55AA55AA55AADB77DBEEDB2E
:100EA00077DBEE181818181818181818181818F8EA
:100EB0001818180000C66C386CC600C6C66C386CB2
:100EC000C6C6000000C6CEDEF6E600C6C6CEDEF61A
:100ED000E6C6003636F606F6363636363636363658
:100EE0003636360000FE06F63636363636F606FE5E
:100EF0000000000038C6CEDEF6E60038C6CEDEF6CC
:100F0000E6C60000000000F8181818181818181F76
:100F100000000018181818FF00000000000000FF73
:100F2000181818181818181F18181800000000FFB3
:100F300000000018181818FF1818180000E66C7840
:100F40006CE600E66C78786C66E600363637303F43
:100F500000000000003F30373636363636F700FFE7
:100F60000000000000FF00F73636363636373037DF
:100F70003636360000FF00FF0000003636F700F777
:100F800036363600C67CC6C67CC60000003E6666A5
:100F900066E6001E3666666666C6000000C6FEFE91
:100FA000D6C600C6EEFEFED6C6C6000000C6C6FE09
:100FB000C6C600C6C6C6FEC6C6C60000007CC6C6FB
:100FC000C67C007CC6C6C6C6C67C000000FEC6C67F
:100FD000C6C60018181818F8000000000000001F0E
:100FE000181818FFFFFFFFFFFFFFFF00000000FFC2
:100FF000FFFFFFFEC6C6C6C6C6C60000007EC67E90
:1010000066C600FFFFFFFF000000007EC6C6C67E6A
:1010100066C6000000FC66667C60F0FC6666667C66
:1010200060F00000007CC6C0C67C007CC6C0C0C0AA
:10103000C67C0000007E5A18183C007E5A1818180A
:10104000183C000000C6C6C67E067CC6C6C67E0624
:10105000C67C000000D67C387CD600D6D67C387C96
:10106000D6D6000000FC667C66FC00FC66667C66EA
:1010700066FC000000F0607C66FC00F060607C664E
:10108000667C008FCDEFFCDCCCCC000000007C7CCB
:101090000000000000C6C6F6DEF600C6C6C6F6DED4
:1010A000DEF60000007CC61CC67C007CC6063C0642
:1010B000C67C000000D6D6D6D6FE00D6D6D6D6D66A
:1010C000D6FE0000007CC61EC67C00788C063E065C
:1010D0008C78000000D6D6D6D6FF03D6D6D6D6D684
:1010E000D6FF030000C6C67E060600C6C6C67E063C
:1010F0000606003E613C66663C867C00003C3C3C4B
:101100003C0000000000000000000000000008009B
:1011100002010000030407000000000000000001BD
:10112000020408102040800102040810200102047B
:10113000081020040404040404040402020202024D
:101140000203030303030300000000230026002919
:101150000000000000250028002B000000000024F3
:101160000027002A0000802311241FBECFEFD8E003
:10117000DEBFCDBF11E0A0E0B1E0E8E4FCE402C0D6
:1011800005900D92A432B107D9F722E0A4E2B1E0B4
:1011900001C01D92AF31B207E1F711E1C8E6D1E11C
:1011A00004C02297FE010E94E124C636D107C9F788
:1011B0000E94C4230C9422260C9400000C940C264C
:1011C0000C941426CF92DF92EF92FF92CF93DF938D
:1011D000EC010E945F206B017C01CC0EDD1EE11C46
:1011E000F11C0E945F206C157D058E059F05C8F4DB
:1011F00061E080E10E947A2160E081E10E947A2131
:1012000084E690E00E94B62060E080E10E947A21AE
:1012100061E081E10E947A2184E690E00E94B6209C
:10122000E0CF60E080E10E947A2160E081E1DF911F
:10123000CF91FF90EF90DF90CF900C947A21CF93D5
:10124000DF93EC018091300181112CC026E040E059
:1012500052EC61E070E08EE791E00E94BC226EEEFD
:1012600072E08EE791E00E9411246BE071E08EE75E
:1012700091E00E94632465ED72E08EE791E00E94A8
:10128000112469EC72E08EE791E00E94512467EC32
:1012900072E08EE791E00E945124809130018F5FCF
:1012A00080933001BE018EE791E0DF91CF910C94E5
:1012B00051246091550181E090E00E94E008609126
:1012C000540182E090E00E94E0086091530183E0C5
:1012D00090E00E94E0086091520184E090E00E945A
:1012E000E0086091510185E090E00E94E008609183
:1012F000500186E090E00E94E00860914F0187E095
:1013000090E00E94E00860914E0188E090E00E9429
:10131000E00860914D0189E090E00E94E0088FE6CE
:1013200092E00C941F09CF93DF9380E090E00E943D
:10133000DE08813309F054C082E00E94B021EC0144
:1013400084E00E94B021892B19F4CD2B09F448C008
:1013500081E090E00E94DE088093550182E090E0F9
:101360000E94DE088093540183E090E00E94DE0832
:10137000C82F84E090E00E94DE082C2F30E0322F4E
:101380002227282B309353012093520185E090E0CF
:101390000E94DE08C82F86E090E00E94DE082C2F15
:1013A00030E0322F2227282B309351012093500117
:1013B00087E090E00E94DE0880934F0188E090E093
:1013C0000E94DE0880934E0189E090E00E94DE08D2
:1013D00080934D018BE892E0DF91CF910C941F092F
:1013E00088EA92E00E941F0961E380E090E00E9499
:1013F000E0081092550185E18093540184E591E065
:10140000909353018093520181E990E090935101B0
:101410008093500183E080934F0110924E0110920F
:101420004D010E94590994CF0F931F9382E00E94AF
:10143000B02140912C0150912D0160912E017091AD
:101440002F01892B81F4452B462B472B09F047C0F0
:101450000E945F2060932C0170932D0180932E01D8
:1014600090932F013CC0452B462B472BC1F10E9486
:101470005F2000912C0110912D0120912E013091BF
:101480002F01601B710B820B930B63337105810578
:101490009105E8F0683522E072078105910518F49E
:1014A00081E090E010C0683B2BE072078105910558
:1014B00018F482E090E007C0603A7F408105910512
:1014C00030F483E090E090934C0180934B011092B4
:1014D0002C0110922D0110922E0110922F0183E009
:1014E0000E94B021409128015091290160912A0168
:1014F00070912B01892B81F4452B462B472B09F04A
:1015000047C00E945F206093280170932901809357
:101510002A0190932B013CC0452B462B472BC1F150
:101520000E945F20009128011091290120912A0139
:1015300030912B01601B710B820B930B6333710590
:1015400081059105E8F0683522E072078105910573
:1015500018F481E090E010C0683B2BE07207810531
:10156000910518F482E090E007C0603A7F40810561
:10157000910530F483E090E090934A018093490113
:10158000109228011092290110922A0110922B0129
:1015900084E00E94B0214091240150912501609186
:1015A000260170912701892B81F4452B462B472B6F
:1015B00009F047C00E945F206093240170932501C9
:1015C00080932601909327013CC0452B462B472B47
:1015D000C1F10E945F20009124011091250120910A
:1015E000260130912701601B710B820B930B633333
:1015F000710581059105E8F0683522E072078105E3
:10160000910518F481E090E010C0683B2BE0720770
:101610008105910518F482E090E007C0603A7F40B0
:101620008105910530F483E090E090934801809328
:101630004701109224011092250110922601109268
:1016400027011F910F91089510924C0110924B01A8
:1016500010924A01109249011092480110924701DC
:10166000089580914B0190914C01019741F40E94A3
:10167000240B8FE090E00E94E20881E0089580E072
:10168000089580914B0190914C01029741F40E9482
:10169000240B8FE090E00E94E20881E0089580E052
:1016A000089580914B0190914C01039741F40E9461
:1016B000240B8FE090E00E94E20881E0089580E032
:1016C00008958091490190914A01019741F40E9447
:1016D000240B8FE090E00E94E20881E0089580E012
:1016E000089531E080914B0190914C01892B09F4D0
:1016F00030E021E08091470190914801892B09F465
:1017000020E0232B31F48091490190914A01892BEB
:1017100041F00E94240B8FE090E00E94E20881E0FB
:10172000089580E0089561E081E491E00E943C1416
:101730001816ACF461E08DE00E947A216CE271E051
:1017400080E090E00E948E2060E08DE00E947A218F
:101750006CE271E080E090E00E948E20EBCF60E0D0
:1017600081E491E00E94BC1384E090E090934001FA
:1017700080933F0182E192E00C941F0980913F0128
:1017800090914001059731F084E090E09093400102
:1017900080933F0108950E94BE0B60E08EE00E949E
:1017A0007A2160E08FE00E947A2187E292E00C9437
:1017B0001F0980913F0190914001019721F0109203
:1017C000400110923F010895823089F08330E9F0A2
:1017D000813041F50E94D90B61E08EE00E947A21B0
:1017E00060E08FE00E947A218DE592E00CC00E94BB
:1017F000D90B60E08EE00E947A2161E08FE00E94C8
:101800007A218BE492E00C941F090E94D90B61E0CD
:101810008EE00E947A2161E08FE00E947A2189E3C4
:1018200092E0F1CF0C94CB0BCF92EF920F93809379
:101830003E0180933D0160933C01880F482F440F87
:10184000440F480F4E5E52E0C52EEE24E3940AE0AA
:101850002BE762E081E491E00E942E160F91EF9059
:10186000CF900895CF92EF920F9380913E018F5FBA
:1018700080933E0190913C01891302C010923E0179
:1018800080913D01880F482F440F440F480F4E5E52
:1018900062E0C62EE12C0AE02BE762E081E491E0F1
:1018A0000E942E1680913E01880F482F440F440F4E
:1018B000480F4E5EEE24E3942BE762E081E491E072
:1018C0000E942E1680913E0180933D010F91EF9072
:1018D000CF9008951F93CF93DF93982F9F70282F59
:1018E00022952F7038E0239F900D11249950983243
:1018F00018F48093330104C081E18093330190E0B8
:10190000892F90E0880F991FFC01E85DFC4F25911D
:101910003491309332012093310188589C4FFC015F
:10192000C591D49181E090E00E94B62060E08BE008
:101930000E947A218AE090E00E94B62060E08CE06C
:101940000E947A2181E090E00E94B62061E08AE066
:101950000E947A2181E090E00E94B62061E08CE054
:101960000E947A2181E090E00E94B62060E08CE045
:101970000E947A2181E090E00E94B62060E08CE035
:101980000E947A2181E090E00E94B62060E08AE027
:101990000E947A2181E090E00E94B62061E08CE014
:1019A0000E947A2181E090E00E94B62060E08CE005
:1019B0000E947A2181E090E00E94B62060E08CE0F5
:1019C0000E947A2181E090E00E94B62060E08AE0E7
:1019D0000E947A2181E090E00E94B62061E08CE0D4
:1019E0000E947A2181E090E00E94B62060E08CE0C5
:1019F0000E947A2181E090E00E94B62060E08CE0B5
:101A00000E947A2181E090E00E94B62060E08AE0A6
:101A10000E947A2181E090E00E94B62061E08CE093
:101A20000E947A2181E090E00E94B62060E08CE084
:101A30000E947A2181E090E00E94B62060E08CE074
:101A40000E947A2181E090E00E94B62061E08AE065
:101A50000E947A2181E090E00E94B62061E08CE053
:101A60000E947A2181E090E00E94B62060E08CE044
:101A70000E947A2181E090E00E94B62010E160E0AF
:101A8000C0FF09C08CE00E947A2181E090E00E94B2
:101A9000B62061E008C08CE00E947A2181E090E0ED
:101AA0000E94B62060E08AE00E947A2181E090E006
:101AB0000E94B62061E08CE00E947A2181E090E0F3
:101AC0000E94B62060E08CE00E947A2181E090E0E4
:101AD0000E94B620D695C795115089F6C4E060E003
:101AE0008CE00E947A2181E090E00E94B62060E0C4
:101AF0008AE00E947A2181E090E00E94B62061E0B5
:101B00008CE00E947A2181E090E00E94B62060E0A3
:101B10008CE00E947A2181E090E00E94B620C150C2
:101B2000F1F681E090E00E94B62061E08BE00E9437
:101B30007A218AE090E00E94B62061E08BE00E946A
:101B40007A2160E08CE00E947A2160E08AE0DF91F7
:101B5000CF911F910C947A210E946A0C81E090E051
:101B60000E94B62061E08BE00E947A218AE090E03A
:101B70000C94B620CF9361E08BE00E94412161E09C
:101B80008AE00E94412161E08CE00E94412161E0F5
:101B900082E10E94412161E082E10E947A2161E0BC
:101BA0008EE00E94412161E08FE00E94412160E0CF
:101BB0008EE00E947A2160E08FE00E947A2160E04E
:101BC00082E00E94412162E082E00E947A2160E08E
:101BD00083E00E94412162E083E00E947A2160E07C
:101BE00084E00E94412162E084E00E947A2161E069
:101BF00080E10E94412161E081E10E94412160E099
:101C000080E10E947A2160E081E10E947A2161E016
:101C10008DE00E94412161E08DE00E947A2161E027
:101C200089E00E94412161E089E00E947A21C6E0BA
:101C300061E08DE00E947A218AE090E00E94E20853
:101C400060E08DE00E947A2164E670E080E090E040
:101C50000E948E20C15061F70E9493098091540127
:101C60000E94AC0D85E10E946A0C0E94930B82E1F8
:101C700093E00E941F090E945F20609356017093B9
:101C800057018093580190935901CF9108959091F5
:101C90003301892F8F7092959F7028E0929F800D5D
:101CA0001124895008950E94470E8F5F883209F4ED
:101CB00080E0282F2695269526958F5F98E0299F0E
:101CC000800D11248F702F5F90E1299F90011124C6
:101CD000822B0C946A0CE82FEF7082958F7098E03D
:101CE000899FE00D1124E950E83208F0E0E0F0E0CF
:101CF000EE0FFF1FE85DFC4F859194910895CF9200
:101D0000DF92EF92FF92CF93DF93CFE0D0E0C12C30
:101D1000D12C760184E10E94FB20AA2797FDA09593
:101D2000BA2FC80ED91EEA1EFB1E219799F7C701CC
:101D3000B6012FE030E040E050E00E949E24C9014F
:101D4000DF91CF91FF90EF90DF90CF9008950E94A8
:101D50007F0E209150013091510182179307B0F00E
:101D600060915201709153016817790790F0AC01AE
:101D7000421B530BE4E6E49FC001E59F900D112444
:101D8000621B730B0E947624CB01089580E090E0E3
:101D9000089584E690E00895CF92EF920F931F93F9
:101DA000CF93DF93E0913F01F0914001EB30F105DB
:101DB00008F073C4EC5CFF4F0C94DF2485E092E0E4
:101DC0000E941F090E94240B809155018F5F0E9481
:101DD000E40B81E491E00E94921880E590E00E947B
:101DE000E20881E090E055C40E94410BC82F0E9498
:101DF000510B8C2B09F451C44AC40E94240B0E943D
:101E0000CB0B60E081E491E00E94BC13CC24CA9427
:101E1000D2E0ED2E0FE52FE740E060E081E491E0B5
:101E20000E942E1668E079E081E491E00E949C18FF
:101E30002DEF31E042E163E281E491E00E948419F8
:101E400068EC73E081E491E00E949C1826EE31E09A
:101E500048E26AE081E491E00E9484196BE071E05D
:101E600081E491E00E946E1926ED31E042E360E2E8
:101E700081E491E00E948419EE24E3940AE42FE7C0
:101E80004AE460E081E491E00E9468152DEC31E0C5
:101E900042E56CE081E491E00E94841942E562E34E
:101EA00081E491E00E949B1940E150E0609154016F
:101EB00081E491E00E94321A69EC71E081E491E0E2
:101EC0000E947019809154010E946B0E4AE050E00C
:101ED000BC0181E491E00E94391A65EC71E081E473
:101EE00091E00E9470194AE050E063E381E491E0E0
:101EF0000E94321A63EC71E081E491E00E94701953
:101F00000E945F2068577C4E8F4F9F4F609338012F
:101F10007093390180933A0190933B0183E090E004
:101F2000B8C30E94240B0E94CB0B81E491E00E9475
:101F3000981860E081E491E00E94BC13CC24CA941C
:101F4000C2E0EC2E0FE52FE740E060E081E491E095
:101F50000E942E1668EC73E081E491E00E949C18C8
:101F600020EB31E043E064E181E491E00E948419D8
:101F70000BE02FE74BE060E081E491E00E94681500
:101F800065E076E081E491E00E949C182CE931E064
:101F900044E165E081E491E00E9484192BE831E09E
:101FA0004EE165E081E491E00E9484192FE731E081
:101FB00048E265E081E491E00E94841924E731E081
:101FC00042E365E081E491E00E94841923E631E078
:101FD0004CE365E081E491E00E9484192EE531E054
:101FE00046E465E081E491E00E94841966E085E0C2
:101FF0000E94140C0E945F2068577C4E8F4F9F4FA9
:10200000609338017093390180933A0190933B01BA
:1020100085E090E03EC30E945F200091380110915E
:10202000390120913A0130913B0106171707280723
:10203000390720F41092400110923F010E94610B79
:10204000882381F00E945F2068577C4E8F4F9F4FFE
:10205000609338017093390180933A0190933B016A
:102060000E94320C0E94310B882309F416C384E1CC
:1020700090E00E94E20868EC70E080E090E00E944E
:102080008E2084E190E00E94E2080E945F20685761
:102090007C4E8F4F9F4F609338017093390180932E
:1020A0003A0190933B0180913E018230B1F040F4BF
:1020B000882381F0813009F0F0C288E090E0E9C225
:1020C0008330B9F0853009F0E8C2109240011092D7
:1020D0003F01E3C286E090E0DCC268EE73E080E09E
:1020E00090E00E948E2083E190E00E94E20885E16A
:1020F0000BC068EE73E080E090E00E948E2083E1E8
:1021000090E00E94E20888E5DF91CF911F910F9146
:10211000EF90CF900C946A0C0E94240B81E491E024
:102120000E94981860E081E491E00E94BC13CC24E6
:10213000CA94B2E0EB2E0FE52FE740E060E081E4C7
:1021400091E00E942E1668EC73E081E491E00E9419
:102150009C182DE431E043E064E181E491E00E94C9
:1021600084190BE02FE74BE060E081E491E00E94EE
:10217000681565E076E081E491E00E949C1820E417
:1021800031E044E165E081E491E00E94841923E3B9
:1021900031E04EE165E081E491E00E94841926E29D
:1021A00031E048E265E081E491E00E94841927E192
:1021B00031E042E365E081E491E00E94841922E18C
:1021C00031E04CE365E081E491E00E948419809164
:1021D0005501880F482F440F440F480F4C5E20E1F3
:1021E00031E065E081E491E00E94841965E084E0DB
:1021F0000E94140C0E945F2068577C4E8F4F9F4FA7
:10220000609338017093390180933A0190933B01B8
:1022100087E090E03EC20E945F200091380110915B
:10222000390120913A0130913B0106171707280721
:10223000390730F484E090E09093400180933F01AF
:102240000E94610B882381F00E945F2068577C4EBA
:102250008F4F9F4F609338017093390180933A01FB
:1022600090933B010E94320C0E94310B882309F4A9
:1022700014C20E945F2068577C4E8F4F9F4F60931F
:1022800038017093390180933A0190933B0180911A
:102290003E01843009F4FBC1833009F480E080936F
:1022A00055010E94590984E190E00E94E20868EC1F
:1022B00070E080E090E00E948E2084E190E00E9437
:1022C000E208E5C10E94240B81E491E00E94981885
:1022D00060E081E491E00E94BC1365E076E081E477
:1022E00091E00E949C1820E031E04AE06AE081E43D
:1022F00091E00E94841968EC73E081E491E00E940F
:102300009C1820EF30E049E16CE081E491E00E940C
:1023100084192FED30E043E26CE081E491E00E940B
:1023200084192EEC30E042E36CE081E491E00E94FD
:1023300084192DEB30E04CE36CE081E491E00E94E5
:10234000841924EA30E04AE565E081E491E00E94E6
:1023500084190E945F2068577C4E8F4F9F4F609377
:1023600038017093390180933A0190933B0189E0E1
:1023700090E08FC10E945F20C1E0D0E00091380161
:102380001091390120913A0130913B01061717074E
:102390002807390710F0C0E0D0E00E94710BC82B6D
:1023A000CD2B09F47AC18AE090E0909340018093AC
:1023B0003F0160E081E491E00E94BC13CC24CA9408
:1023C000EE24E39403E22FE740E060E081E491E053
:1023D0000E942E1668EC73E081E491E00E949C1844
:1023E0002FE830E043E064E181E491E00E94841949
:1023F0000BE02FE74BE060E081E491E00E9468157C
:1024000065E076E081E491E00E949C1825E830E0E8
:102410004FE065E081E491E00E9484192EE730E00E
:1024200049E165E081E491E00E94841902E324E53A
:1024300045E265E181E491E00E942E1668EC73E0CC
:1024400081E491E00E949C184AE56FE081E491E00C
:102450000E949B19EEE4F3E0659174914AE050E02C
:1024600081E491E00E946E1A4AE567E381E491E01D
:102470000E949B19EEE3F3E0659174914AE050E00D
:1024800081E491E00E946E1A4AE56FE581E491E0F3
:102490000E949B19E6E5F3E0659174914AE050E0F3
:1024A00081E491E00E946E1A65E076E081E491E0BB
:1024B0000E949C184FE06CE381E491E00E949B191C
:1024C00040E150E06091330181E491E00E94321AD2
:1024D00060E171E081E491E00E946E198091330126
:1024E0000E946B0E4AE050E0BC0181E491E00E9442
:1024F0006E1A0E945F2060933401709335018093BF
:102500003601909337010E945F20605A75418F4FCA
:102510009F4F609338017093390180933A019093F3
:102520003B01BBC00E945F20009134011091350136
:102530002091360130913701061717072807390710
:1025400080F50E945F2066507F4F8F4F9F4F6093B2
:10255000340170933501809336019093370149E13E
:1025600066E281E491E00E949B190E94A70EAC01F3
:1025700060E070E02AE030E081E491E00E942A1AF5
:1025800060E171E081E491E00E946E190E947F0E8B
:10259000AC0160E070E02AE030E081E491E00E946C
:1025A0002A1A0E94610B8823D9F10E945F20605A89
:1025B00075418F4F9F4F609338017093390180931D
:1025C0003A0190933B010E94530E64E670E080E074
:1025D00090E00E948E2065E076E081E491E00E9428
:1025E0009C184FE06CE381E491E00E949B1940E16C
:1025F00050E06091330181E491E00E94321A60E181
:1026000071E081E491E00E946E19809133010E9493
:102610006B0E4AE050E0BC0181E491E00E946E1A2A
:102620000E94310B882331F084E090E090934001C8
:1026300080933F010E94410B8823D1F084E190E018
:102640000E94E20868EC70E080E090E00E948E203A
:1026500084E190E00E94E20880913301809354016C
:102660000E94590984E090E09093400180933F01DB
:102670000E945F20009138011091390120913A01A8
:1026800030913B01061717072807390730F484E01B
:1026900090E09093400180933F01DF91CF911F9193
:1026A0000F91EF90CF9008950F931F930E94140AFB
:1026B0000E94CC0E0E945F2000915601109157019C
:1026C000209158013091590106171707280739073B
:1026D000D8F40E945F206C507E4F8F4F9F4F6093C5
:1026E00056017093570180935801909359018DE0E2
:1026F0000E94B021892B11F060E001C061E08DE003
:102700001F910F910C947A211F910F910895E091E0
:102710006C01982F96959695969520917101309120
:10272000720187706E9FF0011124E90FF11DE20F15
:10273000F31F413051F420E830E002C03595279571
:102740008A95E2F78081822B15C041110AC02FE7DC
:102750003FEF02C0359527958A95E2F78081822365
:1027600009C020E830E002C0359527958A95E2F748
:102770008081822780830895FC016130F9F030F078
:10278000623009F049C080E090E031C012821382CB
:1027900080E090E030916C0120916B01329F9001BC
:1027A0001124821793074CF4E0917101F0917201AA
:1027B000E80FF91F10820196EDCF0895128213825F
:1027C00080E090E04FEF30916C0120916B01329FDF
:1027D00090011124821793074CF4E0917101F0915C
:1027E0007201E80FF91F40830196EDCF08953091F3
:1027F0006C0120916B01329F900111248217930785
:102800005CF4E0917101F0917201E80FF91F2081F1
:10281000209520830196EBCF0895FF920F931F938D
:10282000CF93DF93EC01F62E022F842F887FD9F00F
:10283000142F169516951695129FC00111240E940B
:10284000E52499838883009781F01A821B829C017A
:10285000402F612F8F2D0E94281F60E0CE010E9423
:10286000BC1380E003C081E001C084E0DF91CF9120
:102870001F910F91FF90089520E640E80C940D14ED
:10288000862F642FE0916C01A82FB0E098E0E99FBB
:10289000F0011124AE17BF073CF490916B0149176A
:1028A00018F4422F0C94871308950F931F93CF931E
:1028B000DF93DC01FA014217530749F4202F462F1A
:1028C0006E2FDF91CF911F910F910C94401424171C
:1028D000350720F4CA019927F9019C01EF01C7705F
:1028E000DD278FEF90E0AC0102C055954795CA9562
:1028F000E2F7EA01142F43E0F695E7954A95E1F7F0
:1029000040916C01469FB0011124E60FF71FA90109
:102910004770552702C0959587954A95E2F7582F3D
:102920005095C901D3E096958795DA95E1F7860F22
:10293000971FE817F90719F41C2F152350E00130F1
:10294000D9F49F012F5F3F4FCD91DC911197CE0FAE
:10295000DF1F4881412B48834FEFED91FC91119788
:10296000E20FF31F2817390720F440832F5F3F4FF2
:10297000F4CF8081852B3BC001111CC09F012F5FCC
:102980003F4FCD91DC911197CE0FDF1F10954881FD
:1029900041234883ED91FC911197E20FF31F281713
:1029A000390720F410822F5F3F4FF4CF509580817C
:1029B00085231DC00230E1F49F012F5F3F4FCD9171
:1029C000DC911197CE0FDF1F488141274883ED919D
:1029D000FC911197E20FF31F2817390730F440815B
:1029E000409540832F5F3F4FF2CF808185278083C2
:1029F000DF91CF911F910F9108950F93CF93DF93A4
:102A00004217530731F4202FDF91CF910F910C948F
:102A100040142417350720F4FA01FF27A9019F016C
:102A2000762F7770A0E8B0E002C0B595A7957A95AB
:102A3000E2F77A2FC0916C01C49FF001C59FF00DA1
:102A40001124669566956695E60FF11D013091F4A7
:102A500024173507C8F1EC01A881B981AE0FBF1F5B
:102A60006C91672B6C9360916C01E60FF11D4F5FC9
:102A70005F4FEECF011114C07A2F709524173507E0
:102A800018F1EC01A881B981AE0FBF1F6C916723CB
:102A90006C9360916C01E60FF11D4F5F5F4FEECFBD
:102AA000023091F42417350778F0EC01A881B98140
:102AB000AE0FBF1F6C9167276C9360916C01E60F9E
:102AC000F11D4F5F5F4FEECFDF91CF910F910895D2
:102AD0002F923F924F925F926F927F928F929F922E
:102AE000AF92BF92CF92DF92EF92FF920F931F931C
:102AF000CF93DF9300D000D0CDB7DEB7742F302F47
:102B00000E2D462F50E05C834B83E0916C0158E022
:102B1000E59FF00111244B815C81E417F5070CF46B
:102B200086C040916B01471708F481C0422E512C9A
:102B3000E415F5050CF47BC0431708F478C0621364
:102B400007C0232F30E0472F50E00E94FD146FC0D4
:102B5000731307C092014B815C81672F0E9455144B
:102B600066C0261738F48B819C81841995092C0145
:102B70008FEF05C0EB81FC814E1A5F0A81E0A72E22
:102B8000B12CC32ED12C371730F495012C193D09E7
:102B900069019FEF03C0CA18DB0891E04C145D0483
:102BA0003CF03C2D2D2D6201432E522E10E001C031
:102BB00011E0440C551C42018C189D089601220F0F
:102BC000331F612C712C292E332427FC3094E82EDE
:102BD000FF24E7FCF094C614D7044CF1402F6A2D73
:102BE0008B8129833A830E94871329813A8197FC3C
:102BF0000DC0113039F44B815C814E0D5F1D5C833B
:102C00004B8302C0A20CB31C821A930A113019F430
:102C1000A20CB31C06C08B819C818E0D9F1D9C83D2
:102C20008B83840C951C9FEF691A790AD4CF0F907F
:102C30000F900F900F90DF91CF911F910F91FF9008
:102C4000EF90DF90CF90BF90AF909F908F907F904C
:102C50006F905F904F903F902F9008954F925F92AA
:102C60006F927F928F929F92AF92BF92CF92DF929C
:102C7000EF92FF920F931F93CF93DF93EC01F62E09
:102C8000142F422E502EDE2C8FEFC81230C0AF2CE6
:102C9000A40CED2C012F2A2D412F6F2DCE010E9467
:102CA0006815B12EB50C0B2D2F2D412F6F2DCE0198
:102CB0000E9468152A2D412F6A2DCE010E946815A9
:102CC0002A2D4B2D6F2DCE010E946815DF91CF91DB
:102CD0001F910F91FF90EF90DF90CF90BF90AF903A
:102CE0009F908F907F906F905F904F900895E42E0B
:102CF000A02EB12CA40EB11C862E912C3401620E94
:102D0000711C8E2D90E08A159B050CF60C2D9301FD
:102D1000A4016E2DCE010E945514E394F2CF2F92A0
:102D20003F924F925F926F927F928F929F92AF925B
:102D3000BF92CF92DF92EF92FF920F931F93CF93A8
:102D4000DF93CDB7DEB729970FB6F894DEBF0FBE7D
:102D5000CDBFDC01962F977058E0591BE11006C0DB
:102D6000F901E00FF11FE4900F5F1F4FC11006C083
:102D7000F901E00FF11FC4900F5F1F4F8E2D877078
:102D8000EE2DE695E695E695882321F08824839438
:102D90008E0E02C08E2E88E0669566956695E62EAC
:102DA000F12CFC82EB82692E712CB301680F711D2E
:102DB000798768876FEF70E0088402C07595679522
:102DC0000A94E2F7852F90E09A83898391E0891233
:102DD00002C0562E01C0512C8FEF90E05C01052EF1
:102DE00001C0AA0C0A94EAF75A28462E688579850C
:102DF0006850710902C0959587956A95E2F78D83B1
:102E000060E070E0E42EF12CFF82EE82912C41E034
:102E1000841A91086C1508F08CC0F0916C014E81F9
:102E20005F81460F571FF49FC001F59F900D11243D
:102E3000EB80FC808E0D9F1DED91FC911197E80FAA
:102E4000F91FD0804D2D45214083A8014F5F5F4F72
:102E5000F801E20FF31FA490ED91FC911197E80F98
:102E6000F91FEA2CF12C062C02C0F594E7940A9481
:102E7000E2F7F080FE28F0821401240E351E7C015A
:102E8000E01AF10AC701840F951F0D911C9111974B
:102E9000B12C4215530508F5080F191FF801D08011
:102EA000098001C0AA0C0A94EAF7A082F901E40F94
:102EB000F51FA490ED91FC911197E80FF91F8A2D51
:102EC00090E0062C02C0959587950A94E2F79081D0
:102ED000982B90834F5F5F4FD5CFE885F985389762
:102EE00044F4FC013197E00FF11FD42010811D291B
:102EF0000CC0E885F985389749F07801E80EF91E8D
:102F0000F7011081FD811F23F70110830D911C91A2
:102F10001197080F191F098002C0AA0CBB1C0A9444
:102F2000E2F7F80180818A2980836F5F7F4F8A01F1
:102F300071CF29960FB6F894DEBF0FBECDBFDF91DB
:102F4000CF911F910F91FF90EF90DF90CF90BF90A6
:102F5000AF909F908F907F906F905F904F903F9039
:102F60002F900895DF92EF92FF920F931F93CF93CC
:102F7000DF934130A9F1C0F0423009F44DC0433035
:102F800009F0C8C0562F5770E52E66956695669570
:102F900070E0719561957109F12C02E010E088E014
:102FA00090E0851B910983C080917101909172011D
:102FB00020916C01FC01629FE00DF11D1124309104
:102FC0006B01AC01329F400D511D11249A01DC01AF
:102FD0002E173F0708F49EC080818D931192F8CF81
:102FE000809171019091720130916B0120916C017F
:102FF000DC01329FA00DB11D1124FD01629FE0197B
:10300000F10911241196E817F90708F483C020810B
:103010002E9310823197F7CF162F1770669566950D
:10302000669570E0D0E028E030E0211B3109809106
:103030006B01D81708F06EC080916C01E0917101AE
:10304000F09172018D9FE00DF11D1124DF01A60F9B
:10305000B71F90E002978E0F9F1F8A179B0790F073
:10306000CC91012E01C0CC0F0A94EAF71D924C912D
:1030700050E0022E02C0559547950A94E2F7C42B02
:10308000C193EBCF8C91012E01C0880F0A94EAF70F
:103090001C928083DF5FCBCF2C9130E00E2C02C0DE
:1030A000359527950A94E2F71C922083F39420919A
:1030B0006B01F21678F5E0916C014E2F50E09A0109
:1030C00021503109EF9D200D311D1124E091710136
:1030D000F0917201E20FF31F9801241B350B2E0FA4
:1030E0003F1FDF01A60FB71FA217B307A8F24C912D
:1030F00050E00E2C02C0559547950A94E2F71C92B9
:10310000CE91082E01C0CC0F0A94EAF74C2B4083D5
:103110003197EACFDF91CF911F910F91FF90EF9000
:10312000DF900895EFE6F0E080818E7F8083089540
:1031300081E080936F000895FC0175836483089596
:10314000CF92EF920F931F93CF93DF93FC01A48153
:10315000B581FD0132963491ED012196FE01C490B6
:10316000FD01E490FE010491231B209F80011124A6
:103170000D5F1F4F9D010E948F16DF91CF911F9110
:103180000F91EF90CF900895DC0113964C91139717
:1031900050E01496ED91FC91159731966491209131
:1031A0006B0130E0261B31094217530724F064916C
:1031B00040E00C94B217E4914E0F511DFC01438383
:1031C00008950F931F93CF93DF931F92CDB7DEB770
:1031D0008C01262F6A3031F1F8F4662309F466C0B9
:1031E000683069F5DC011496ED91FC911597E49136
:1031F000DC0112966C91129770E06E1B71091296A9
:103200006C93129720E213964C910F90DF91CF911F
:103210001F910F910C94A0186D3071F06E3009F46D
:1032200045C00DC0DC0112961C920F90DF91CF912A
:103230001F910F910C94C418FC01128237C0D80161
:1032400012966C91129780916C011496ED91FC91FD
:103250001597E491462F50E0B8E08B9FC0011124F0
:103260008E1B9109F801481759076CF01282C801AA
:1032700029830E94C4182981D80113964C91139771
:1032800012966C9101C04381C8010E94A018D80118
:103290001496ED91FC911597E491D80112968C91BA
:1032A0001297F0E0E80FF11D1296EC930F90DF916A
:1032B000CF911F910F9108950F931F93CF93DF9399
:1032C0008C01EB016991662321F0C8010E94E1188D
:1032D000F9CFDF91CF911F910F9108950C945C1954
:1032E0000F931F93CF93DF938C01EB01FE01649149
:1032F000662329F02196C8010E94E118F7CFDF91DB
:10330000CF911F910F9108950F931F93CF93DF9348
:10331000EC0189016A834B83F8016491662331F0E3
:103320000F5F1F4FCE010E94E118F6CFDF91CF91C2
:103330001F910F910895FC016283438308954F927A
:103340005F926F927F928F929F92AF92BF92CF9235
:10335000DF92EF92FF920F931F93CF93DF93CDB73E
:10336000DEB7A0970FB6F894DEBF0FBECDBF5C01ED
:103370004115510561057105C9F460E3A0960FB6CA
:10338000F894DEBF0FBECDBFDF91CF911F910F919B
:10339000FF90EF90DF90CF90BF90AF909F908F9075
:1033A0007F906F905F904F900C94E1188E010F5FAB
:1033B0001F4FC12CD12C76014801422E512C612C7B
:1033C000712C8FEFC81AD80AE80AF80ACB01BA01A3
:1033D000A30192010E949E24CA01F80161938F010A
:1033E000A901BC01411551056105710551F7F1E0D5
:1033F000CF1AD108E108F108F401EC0DFD1D608140
:103400006A3010F4605D01C0695CC5010E94E1187A
:1034100081E0C81AD108E108F108EFEFCE16DE0608
:10342000EE06FE0649F7A0960FB6F894DEBF0FBE73
:10343000CDBFDF91CF911F910F91FF90EF90DF9063
:10344000CF90BF90AF909F908F907F906F905F9044
:103450004F9008952115310519F4642F0C94E1184B
:103460000C949F199A01462F50E060E070E00C9494
:103470002A1A9A01AB0160E070E00C942A1ACF92EC
:10348000DF92EF92FF92CF93DF93EC016A017B0111
:1034900077FF0BC06DE20E94E118F094E094D094A5
:1034A000C094C11CD11CE11CF11C2AE0B701A6018B
:1034B000CE01DF91CF91FF90EF90DF90CF900C94F1
:1034C0009F192115310519F4642F0C94E1182A3045
:1034D000310511F40C943F1A0C949F199A01AB0119
:1034E000662757FD6095762F0C94611A08952091F8
:1034F0006201309163018091680190E028173907DB
:1035000079F4109274011092730180916E0180938E
:103510006F018CE29BE190935F0180935E0116C086
:1035200020916201309163018091690190916A015B
:103530002817390759F480EB9AE190935F01809343
:103540005E01E0910601F091070109958091620109
:1035500090916301019690936301809362010895B5
:1035600020916201309163018091690190916A011B
:10357000281739070CF44EC08CEA93E09093890029
:10358000809388001092630110926201809164011F
:1035900090916501A0916601B09167010196A11D0E
:1035A000B11D8093640190936501A0936601B0936F
:1035B000670180915A0190915B01A0915C01B091EB
:1035C0005D01892B8A2B8B2B09F180915A019091F7
:1035D0005B01A0915C01B0915D01181619061A06F5
:1035E0001B0684F580915A0190915B01A0915C01CA
:1035F000B0915D010197A109B10980935A0190939F
:103600005B01A0935C01B0935D011CC01092B100FE
:103610002B9818C020916201309163018091700154
:10362000992787FD90952817390761F48AE490E07F
:10363000909389008093880087E79AE190935F01D7
:1036400080935E0180916201909163010196909355
:1036500063018093620108953091840020916D018F
:103660002A50231B2350F0F72D5F19F02A9511F0F3
:1036700001C00000E0916001F09161010995809125
:103680006F0140916E0181110FC040936F01209135
:103690006C018091730190917401820F911D909340
:1036A00074018093730103C0815080936F01209156
:1036B0006201309163012F5F3F4F6091680170910B
:1036C0006B01552747FD50954F5F5F4F749FC001B9
:1036D000759F900D1124860F911D2817390731F41D
:1036E00087E79AE190935F0180935E018091620188
:1036F0009091630101969093630180936201089514
:103700000F93CF93DF93A0917101B0917201C0919B
:103710007301D091740180916C01AC0FBD1F0BB18E
:103720000F7703C000FA07F90BB90D90000007FAF4
:1037300007F90BB900000000000006FA07F90BB901
:1037400000000000000005FA07F90BB900000000B6
:10375000000004FA07F90BB900000000000003FAAA
:1037600007F90BB900000000000002FA07F90BB9D5
:1037700000000000000001FA07F90BB98A9591F6E4
:103780000000000000FA07F90BB90BB10F7707FB37
:1037900007F90BB9DF91CF910F9108950F93CF9354
:1037A000DF93A0917101B0917201C0917301D0912A
:1037B000740180916C01AC0FBD1F0BB10F7703C07A
:1037C00000FA07F90BB90D9007FA07F90BB90000D9
:1037D000000006FA07F90BB90000000005FA07F926
:1037E0000BB90000000004FA07F90BB90000000053
:1037F00003FA07F90BB90000000002FA07F90BB948
:1038000000008A9501FA07F90BB9D1F6000000FA19
:1038100007F90BB90BB10F7707FB07F90BB9DF916C
:10382000CF910F9108950F93CF93DF93A0917101E2
:10383000B0917201C0917301D091740180916C01BB
:10384000AC0FBD1F02C0000C0BB80D9000000BB8F0
:1038500000000000000C0BB800000000000C0BB8CA
:1038600000000000000C0BB800000000000C0BB8BA
:1038700000000000000C0BB80000000C8A950BB88B
:1038800011F70000000C0BB80000000000005F986A
:10389000DF91CF910F9108950F93CF93DF93A09174
:1038A0007101B0917201C0917301D0917401809146
:1038B0006C01AC0FBD1F8E3191F08D3151F08C3108
:1038C00049F08B3141F08A3139F0893131F088315A
:1038D00029F01CC032C048C05EC074C08AC00D90C0
:1038E0000BB80000000C0BB80000000C0BB8000077
:1038F000000C0BB80000000C0BB80000000C0BB85B
:103900000000000C0BB80000000C0BB80D900BB8B9
:103910000000000C0BB80000000C0BB80000000CFD
:103920000BB80000000C0BB80000000C0BB8000036
:10393000000C0BB80000000C0BB80D900BB8000089
:10394000000C0BB80000000C0BB80000000C0BB80A
:103950000000000C0BB80000000C0BB80000000CBD
:103960000BB80000000C0BB80D900BB80000000C59
:103970000BB80000000C0BB80000000C0BB80000E6
:10398000000C0BB80000000C0BB80000000C0BB8CA
:103990000000000C0BB80D900BB80000000C0BB829
:1039A0000000000C0BB80000000C0BB80000000C6D
:1039B0000BB80000000C0BB80000000C0BB80000A6
:1039C000000C0BB80D900BB80000000C0BB80000F9
:1039D000000C0BB80000000C0BB80000000C0BB87A
:1039E0000000000C0BB80000000C0BB80000000C2D
:1039F0000BB80D900BB80000000C0BB80000000CC9
:103A00000BB80000000C0BB80000000C0BB8000055
:103A1000000C0BB80000000C0BB80000000C0BB839
:103A20000D900BB80000000C0BB80000000C0BB898
:103A30000000000C0BB80000000C0BB80000000CDC
:103A40000BB80000000C0BB80000000C0BB80D9078
:103A50000BB80000000C0BB80000000C0BB8000005
:103A6000000C0BB80000000C0BB80000000C0BB8E9
:103A70000000000C0BB80000000C0BB80D900BB848
:103A80000000000C0BB80000000C0BB80000000C8C
:103A90000BB80000000C0BB80000000C0BB80000C5
:103AA000000C0BB80000000C0BB80D900BB8000018
:103AB000000C0BB80000000C0BB80000000C0BB899
:103AC0000000000C0BB80000000C0BB80000000C4C
:103AD0000BB80000000C0BB80D900BB80000000CE8
:103AE0000BB80000000C0BB80000000C0BB8000075
:103AF000000C0BB80000000C0BB80000000C0BB859
:103B00000000000C0BB80D900BB80000000C0BB8B7
:103B10000000000C0BB80000000C0BB80000000CFB
:103B20000BB80000000C0BB80000000C0BB8000034
:103B3000000C0BB80D900BB80000000C0BB8000087
:103B4000000C0BB80000000C0BB80000000C0BB808
:103B50000000000C0BB80000000C0BB80000000CBB
:103B60000BB80D900BB80000000C0BB80000000C57
:103B70000BB80000000C0BB80000000C0BB80000E4
:103B8000000C0BB80000000C0BB80000000C0BB8C8
:103B90000D900BB80000000C0BB80000000C0BB827
:103BA0000000000C0BB80000000C0BB80000000C6B
:103BB0000BB80000000C0BB80000000C0BB80D9007
:103BC0000BB80000000C0BB80000000C0BB8000094
:103BD000000C0BB80000000C0BB80000000C0BB878
:103BE0000000000C0BB80000000C0BB80D900BB8D7
:103BF0000000000C0BB80000000C0BB80000000C1B
:103C00000BB80000000C0BB80000000C0BB8000053
:103C1000000C0BB80000000C0BB80D900BB80000A6
:103C2000000C0BB80000000C0BB80000000C0BB827
:103C30000000000C0BB80000000C0BB80000000CDA
:103C40000BB80000000C0BB80D900BB80000000C76
:103C50000BB80000000C0BB80000000C0BB8000003
:103C6000000C0BB80000000C0BB80000000C0BB8E7
:103C70000000000C0BB80D900BB80000000C0BB846
:103C80000000000C0BB80000000C0BB80000000C8A
:103C90000BB80000000C0BB80000000C0BB80000C3
:103CA000000C0BB80D900BB80000000C0BB8000016
:103CB000000C0BB80000000C0BB80000000C0BB897
:103CC0000000000C0BB80000000C0BB80000000C4A
:103CD0000BB80D900BB80000000C0BB80000000CE6
:103CE0000BB80000000C0BB80000000C0BB8000073
:103CF000000C0BB80000000C0BB80000000C0BB857
:103D00000D900BB80000000C0BB80000000C0BB8B5
:103D10000000000C0BB80000000C0BB80000000CF9
:103D20000BB80000000C0BB80000000C0BB80D9095
:103D30000BB80000000C0BB80000000C0BB8000022
:103D4000000C0BB80000000C0BB80000000C0BB806
:103D50000000000C0BB80000000C0BB80D900BB865
:103D60000000000C0BB80000000C0BB80000000CA9
:103D70000BB80000000C0BB80000000C0BB80000E2
:103D8000000C0BB80000000C0BB80D900BB8000035
:103D9000000C0BB80000000C0BB80000000C0BB8B6
:103DA0000000000C0BB80000000C0BB80000000C69
:103DB0000BB80000000C0BB80D900BB80000000C05
:103DC0000BB80000000C0BB80000000C0BB8000092
:103DD000000C0BB80000000C0BB80000000C0BB876
:103DE0000000000C0BB80D900BB80000000C0BB8D5
:103DF0000000000C0BB80000000C0BB80000000C19
:103E00000BB80000000C0BB80000000C0BB8000051
:103E1000000C0BB80D900BB80000000C0BB80000A4
:103E2000000C0BB80000000C0BB80000000C0BB825
:103E30000000000C0BB80000000C0BB80000000CD8
:103E40000BB8000000005F98DF91CF910F910895AB
:103E5000CF93DF93C82FE62F309372012093710127
:103E600060936C0140936B011092640110926501A4
:103E70001092660110926701642F70E0882319F098
:103E800084E091E002C088ED90E00E948A246150B5
:103E900060936E01D0916E01D0936F0188E0E89F2E
:103EA00090011124442737FD4095542F60EE72E0B5
:103EB00080E090E00E94C024243091F018F4233078
:103EC000B9F011C0253049F0263069F480E89BE153
:103ED000909361018093600111C04EEC5BE10AC0D8
:103EE00043E15CE107C0273018F040E85BE102C025
:103EF0004CE45CE15093610140936001579A219A30
:103F00005F98299A239A82EC8093800089E18093BC
:103F1000810040916B012D2F332727FD30952F5FB6
:103F20003F4F429FC001439F900D1124CC23C9F005
:103F300097FD019695958795919581959109845660
:103F40008093680187EC80936D0187E08093700116
:103F500088E391E090936A01809369018FEF93E089
:103F600018C097FD01969595879591958195910932
:103F70008557809368018FEB80936D0183E0809378
:103F8000700186E091E090936A018093690187EF68
:103F900093E090938700809386008AE490E090936A
:103FA0008900809388008091690190916A0101964F
:103FB000909363018093620180EB9AE190935F019B
:103FC00080935E0181E080936F007894DF91CF91C0
:103FD00008951F920F920FB60F9211242F933F93C3
:103FE0004F935F936F937F938F939F93AF93BF9301
:103FF000EF93FF93E0910801F09109010995E09199
:104000005E01F0915F010995FF91EF91BF91AF9132
:104010009F918F917F916F915F914F913F912F91E0
:104020000F900FBE0F901F9018951F920F920FB612
:104030000F9211242F933F938F939F93AF93BF932E
:104040008091760190917701A0917801B0917901EA
:104050003091750123E0230F2D3720F40196A11D27
:10406000B11D05C026E8230F0296A11DB11D2093A6
:1040700075018093760190937701A0937801B093B6
:10408000790180917A0190917B01A0917C01B0919E
:104090007D010196A11DB11D80937A0190937B0152
:1040A000A0937C01B0937D01BF91AF919F918F91BF
:1040B0003F912F910F900FBE0F901F9018952FB723
:1040C000F8946091760170917701809178019091D8
:1040D00079012FBF08953FB7F89480917A019091AC
:1040E0007B01A0917C01B0917D0126B5A89B05C004
:1040F0002F3F19F00196A11DB11D3FBF6627782FF4
:10410000892F9A2F620F711D811D911D42E0660F4C
:10411000771F881F991F4A95D1F70895CF92DF9294
:10412000EF92FF92CF93DF936B017C010E946B2093
:10413000EB01C114D104E104F10489F00E9475245B
:104140000E946B206C1B7D0B683E734090F381E0F6
:10415000C81AD108E108F108C851DC4FEACFDF9155
:10416000CF91FF90EF90DF90CF900895019739F0B5
:10417000880F991F880F991F02970197F1F70895EB
:10418000789484B5826084BD84B5816084BD85B532
:10419000826085BD85B5816085BDEEE6F0E08081F9
:1041A00081608083E1E8F0E010828081826080831A
:1041B000808181608083E0E8F0E08081816080839D
:1041C000E1EBF0E0808184608083E0EBF0E08081CF
:1041D00081608083EAE7F0E0808184608083808171
:1041E0008260808380818160808380818068808319
:1041F0001092C10008958E3008F08E508770209183
:104200000A0190E4299F90011124822B80937C0065
:1042100080917A00806480937A0080917A0086FD94
:10422000FCCF809178002091790090E0922B089546
:10423000833081F028F4813099F08230A1F0089524
:104240008730A9F08830B9F08430D1F480918000B3
:104250008F7D03C0809180008F77809380000895C8
:1042600084B58F7702C084B58F7D84BD0895809119
:10427000B0008F7703C08091B0008F7D8093B00035
:104280000895CF93DF9390E0FC01E15EFE4E249110
:10429000FC01ED5CFE4E8491882349F190E0880F8B
:1042A000991FFC01E55AFE4EA591B4918F5A9E4E7E
:1042B000FC01C591D4919FB7611108C0F8948C910D
:1042C000209582238C93888182230AC0623051F426
:1042D000F8948C91322F309583238C938881822B94
:1042E000888304C0F8948C91822B8C939FBFDF91BC
:1042F000CF9108950F931F93CF93DF931F92CDB764
:10430000DEB7282F30E0F901E55FFE4E8491F90118
:10431000E15EFE4E1491F901ED5CFE4E0491002326
:10432000C9F0882321F069830E9418216981E02F58
:10433000F0E0EE0FFF1FEF5AFE4EA591B4919FB72C
:10434000F8948C91611103C01095812301C0812BD9
:104350008C939FBF0F90DF91CF911F910F91089584
:10436000CF93DF93282F30E0F901E55FFE4E849173
:10437000F901E15EFE4ED491F901ED5CFE4EC4916F
:10438000CC2391F081110E941821EC2FF0E0EE0F68
:10439000FF1FE95BFE4EA591B4912C912D2381E086
:1043A00090E021F480E002C080E090E0DF91CF91C6
:1043B0000895FC01818D228D90E0805C9F4F821BCF
:1043C00091098F7399270895FC01918D828D98171B
:1043D00031F0828DE80FF11D858D90E008958FEF0B
:1043E0009FEF0895FC01918D828D981761F0828D69
:1043F000DF01A80FB11D5D968C91928D9F5F9F7319
:10440000928F90E008958FEF9FEF089586E793E2F3
:10441000892B49F080E090E0892B29F00E947623D7
:1044200081110C9400000895FC01848DDF01A80F18
:10443000B11DA35ABF4F2C91848D90E001968F73CC
:104440009927848FA689B7892C93A089B1898C91EB
:1044500080648C93938D848D981306C00288F389B1
:10446000E02D80818F7D80830895CF93DF93EC01D1
:10447000888D8823C9F0EA89FB89808185FD05C084
:10448000A889B9898C9186FD0FC00FB607FCF5CFBE
:10449000808185FFF2CFA889B9898C9185FFEDCF06
:1044A000CE010E941422E7CFDF91CF910895CF92E1
:1044B000DF92FF920F931F93CF93DF931F92CDB79D
:1044C000DEB76C01DC015B969C915B975C968C91EE
:1044D0005C97981307C05096ED91FC91519780819D
:1044E00085FD32C0F601038D10E00F5F1F4F0F7383
:1044F0001127F02EF601848DF81211C00FB607FCBB
:10450000F9CFD6015096ED91FC915197808185FFAE
:10451000F1CFC60169830E9414226981EBCF838D9C
:10452000E80FF11DE35AFF4F6083D6015B960C93B1
:104530005B975296ED91FC915397808180628083C6
:1045400081E058968C930DC0D6015696ED91FC9162
:10455000579760835096ED91FC91519780818064CC
:10456000808381E090E00F90DF91CF911F910F91B8
:10457000FF90DF90CF900895BF92CF92DF92EF929D
:10458000FF92CF93DF93EC016A017B01B22EE889A1
:10459000F98982E08083411581EE58076105710534
:1045A000A1F060E079E08DE390E0A70196010E9420
:1045B0009E24215031094109510956954795379557
:1045C0002795211580E1380798F0E889F98910824C
:1045D00060E874E88EE190E0A70196010E949E24B5
:1045E000215031094109510956954795379527952D
:1045F000EC85FD853083EE85FF852083188EEC8960
:10460000FD89B082EA89FB89808180618083EA89A3
:10461000FB89808188608083EA89FB89808180684A
:104620008083EA89FB8980818F7D8083DF91CF91B0
:10463000FF90EF90DF90CF90BF9008951F920F9260
:104640000FB60F9211242F938F939F93EF93FF93A5
:10465000E0918E01F0918F018081E0919401F091C1
:10466000950182FD12C09081809197018F5F8F73B9
:1046700020919801821751F0E0919701F0E0E25803
:10468000FE4F958F8093970101C08081FF91EF913C
:104690009F918F912F910F900FBE0F901F901895A3
:1046A0001F920F920FB60F9211242F933F934F93A7
:1046B0005F936F937F938F939F93AF93BF93EF938A
:1046C000FF938EE791E00E941422FF91EF91BF913A
:1046D000AF919F918F917F916F915F914F913F919A
:1046E0002F910F900FBE0F901F9018958EE791E0BD
:1046F0000E94D92121E0892B09F420E0822F08951E
:10470000109281011092800188EE93E0A0E0B0E069
:104710008093820190938301A0938401B0938501DB
:1047200088E191E090937F0180937E0185EC90E099
:1047300090938B0180938A0184EC90E090938D019B
:1047400080938C0180EC90E090938F0180938E0198
:1047500081EC90E0909391018093900182EC90E045
:10476000909393018093920186EC90E09093950151
:1047700080939401109297011092980110929901E0
:1047800010929A01089508950E94C0200E94C323A8
:104790000E94BA0DC6E0D2E20E9454132097E1F3C2
:1047A0000E940622F9CFCF92DF92EF92FF920F93F1
:1047B0001F93CF93DF936C017A01EB01E60EF71E96
:1047C00000E010E0CE15DF0561F06991D601ED91B2
:1047D000FC910190F081E02DC6010995080F191F89
:1047E000F1CFC801DF91CF911F910F91FF90EF9012
:1047F000DF90CF9008956115710581F0DB010D9078
:104800000020E9F7AD0141505109461B570BDC016F
:10481000ED91FC910280F381E02D099480E090E01D
:104820000895EF92FF920F931F93CF93DF938C0124
:10483000FB01C0E0D0E064917F018FEFE81AF80A35
:10484000662361F0D801ED91FC910190F081E02D9B
:10485000C8010995C80FD91FF701EDCFCE01DF912F
:10486000CF911F910F91FF90EF900895DC01ED9192
:10487000FC910190F081E02D09940F931F93CF9349
:10488000DF93EC016DE00E9436248C016AE0CE01DA
:104890000E943624800F911FDF91CF911F910F91BD
:1048A00008950F931F93CF93DF93EC010E9411247F
:1048B0008C01CE010E943D24800F911FDF91CF918A
:1048C0001F910F9108950F931F93CF93DF93EC01E6
:1048D0000E94FB238C01CE010E943D24800F911F7A
:1048E000DF91CF911F910F9108950895AA1BBB1BD3
:1048F00051E107C0AA1FBB1FA617B70710F0A61BE0
:10490000B70B881F991F5A95A9F780959095BC0100
:10491000CD01089597FB072E16F4009407D077FD7C
:1049200009D00E94762407FC05D03EF4909581952D
:104930009F4F0895709561957F4F0895A1E21A2EBB
:10494000AA1BBB1BFD010DC0AA1FBB1FEE1FFF1F33
:10495000A217B307E407F50720F0A21BB30BE40B83
:10496000F50B661F771F881F991F1A9469F76095CA
:104970007095809590959B01AC01BD01CF01089584
:10498000052E97FB1EF400940E94D72457FD07D0F4
:104990000E949E2407FC03D04EF40C94D72450951B
:1049A0004095309521953F4F4F4F5F4F089590951B
:1049B0008095709561957F4F8F4F9F4F0895EE0FB3
:1049C000FF1F0590F491E02D0994CF93DF9382307F
:1049D000910510F482E090E0E0911D02F0911E023A
:1049E00020E030E0A0E0B0E0309739F14081518123
:1049F00048175907B8F04817590771F48281938115
:104A0000109729F013969C938E9312972CC0909335
:104A10001E0280931D0227C02115310531F0421777
:104A2000530718F0A901DB0101C0EF019A01BD0194
:104A3000DF010280F381E02DD7CF21153105F9F098
:104A4000281B390B2430310580F48A819B81611544
:104A5000710521F0FB019383828304C090931E02B1
:104A600080931D02FE01329644C0FE01E20FF31F47
:104A70008193919322503109398328833AC0209140
:104A80001B0230911C02232B41F420910201309132
:104A9000030130931C0220931B02209100013091EE
:104AA00001012115310541F42DB73EB740910401B4
:104AB00050910501241B350BE0911B02F0911C0263
:104AC000E217F307A0F42E1B3F0B2817390778F0E5
:104AD000AC014E5F5F4F2417350748F04E0F5F1F44
:104AE00050931C0240931B028193919302C0E0E01B
:104AF000F0E0CF01DF91CF910895CF93DF9300973E
:104B000009F487C0FC01329713821282C0911D0202
:104B1000D0911E02209781F420813181280F391F06
:104B200080911B0290911C028217930779F5F093F4
:104B30001C02E0931B026DC0DE0120E030E0AE17E6
:104B4000BF0750F412964D915C9113979D0141154A
:104B5000510509F1DA01F3CFB383A283408151817A
:104B6000840F951F8A179B0771F48D919C91119763
:104B7000840F951F02969183808312968D919C914C
:104B80001397938382832115310529F4F0931E0234
:104B9000E0931D023EC0D9011396FC93EE93129749
:104BA0004D915D91A40FB51FEA17FB0779F4808141
:104BB0009181840F951F0296D90111969C938E9333
:104BC0008281938113969C938E931297E0E0F0E09C
:104BD0008A819B81009719F0FE01EC01F9CFCE018B
:104BE000029628813981820F931F20911B023091F8
:104BF0001C022817390769F4309729F410921E0215
:104C000010921D0202C013821282D0931C02C09324
:104C10001B02DF91CF910895F999FECF92BD81BD1E
:104C2000F89A992780B50895262FF999FECF1FBAD3
:104C300092BD81BD20BD0FB6F894FA9AF99A0FBEC5
:084C400001960895F894FFCFDE
:104C480000001F028000761A761A01312E306200A9
:104C5800202D2000000000005722D323D921F22163
:044C6800E4213522EC
:00000001FF
