:100000000C9494090C94BC090C94BC090C94BC0984
:100010000C94BC090C94BC090C94BC090C94BC094C
:100020000C94BC090C94BC090C94BC090C94BC093C
:100030000C94BC090C942E160C94BC090C94BC09AD
:100040000C945A160C94BC090C9446190C9478190B
:100050000C94BC090C94BC090C94BC090C94BC090C
:100060000C94BC090C94BC09427920467265616B02
:100070007961747469632E636F6D0A000A0A0A0D50
:100080004641353847485A20524620566964656FC4
:10009000204D6F64756C65202D205665722E2000F2
:1000A000426F61726420696E697469616C697A6516
:1000B00064202E2E2E005445535420534352454560
:1000C0004E00544553542053435245454E00544529
:1000D00053542053435245454E00544553542053E6
:1000E000435245454E00E916D516C116AD16991670
:1000F000851671165D16651678168B169E16B11646
:10010000C416D716EA164916351621160D16FD1611
:100110001117251739176C1680169416A816BC16D9
:10012000D016E416F8161A163F1664168916AE167F
:10013000D316F8161D17052A9B29912987291D29F1
:10014000132909299F2803290C2916291F298929E0
:1001500092299C29052A95288B28812817280F2A5F
:10016000192A832A8D2A062910291A2984298E29D9
:100170009829022A0C2A1D28B02802291529872926
:10018000DA290C2A132A040620000000000000408F
:100190004040004000A0A000000000A0E0A0E0A0BF
:1001A000004060C060C000A0204080A0002040C08F
:1001B000A0E000808000000000408080804000803F
:1001C000404040800040A0400000000040E040006F
:1001D000000000008080000000E00000000000003F
:1001E000008000202040808000E0A0A0A0E000402F
:1001F000C04040E000E020E080E000E020E020E0BF
:1002000000A0A0E0202000E080E020C000C080E04E
:10021000A0E000E02040808000E0A0E0A0E000E05E
:10022000A0E020600000400040000000400040804E
:100230000020408040200000E000E00000804020DE
:10024000408000C02040004000E0A0A0E0E000E0CE
:10025000A0E0A0A000C0A0E0A0C000E0808080E0FE
:1002600000C0A0A0A0C000E080E080E000E080E04E
:10027000808000E08080A0E000A0A0E0A0A000E0DE
:10028000404040E000202020A0E00080A0C0C0A0AE
:100290000080808080E000A0E0E0A0A000C0A0A0DE
:1002A000A0A00040A0A0A04000E0A0E0808000400E
:1002B000A0A0E06600E0A0C0E0AA00E080E020E0AE
:1002C00000E04040404000A0A0A0A0E000A0A0A00E
:1002D000A04000A0A0E0E0A200A0A040A0A000A03C
:1002E000A040404000E0204080E000C0808080C00E
:1002F00000008040202000C0404040C00040A000DE
:1003000000000000000000E000804000000000004D
:1003100060A0A060008080C0A0C0000060808060FD
:1003200000202060A0600040A0E08060006040E00D
:1003300040400060A06020C0008080C0A0A00040BD
:10034000004040400040004040C0008080A0C0A06D
:1003500000C0404040E00000A0E0A0A00000C0A01D
:10036000A0A0000040A0A0400000C0A0C0800000ED
:1003700060A060200000C0A080800000604020607D
:100380000040E04040400000A0A0A0600000A0A00D
:10039000A0400000A0A0E0A00000A04040A00000FD
:1003A000A0E020400000E04080E0002040C040226B
:1003B0000040400040400080406040800000A0407D
:1003C000000000060820000000000000000040407F
:1003D000404040004000505050000000000000002D
:1003E00050F850F850002070A0702870200000C80D
:1003F000D0205898000020508040A89068004040CD
:10040000400000000000102040404020100040202C
:1004100010101020400010381000000000000020D4
:1004200020F8202000000000000000101000000054
:1004300000F80000000000000000001000000008AC
:100440001020408000007088A8A8887000002060FC
:100450002020207000007088102040F80000F81064
:10046000201088700000909090F810100000F88024
:10047000F008887000007080F08888700000F8082C
:10048000102040800000708870888870000070889C
:1004900088780870000000002000002000000000A4
:1004A000200020204000001860806018000000003C
:1004B00078007800000000C0300830C00000609074
:1004C000202000200000708898A89088700020509C
:1004D00088F888880000F088F08888F0000070882C
:1004E000808088700000F088888888F00000F8809C
:1004F000F88080F80000F880F0808080000070882C
:100500008098887000008888F888888800007020AB
:10051000202020700000381010109060000088909B
:10052000E0A0908800008080808080F8000088D85B
:10053000A8A8888800008888C8A8988800007088C3
:10054000888888700000F088F080808000007088C3
:1005500088A890680000F088F0A09088000078805B
:10056000700808F00000F820202020200000888873
:1005700088888870000088888888502000008888D3
:10058000A8A8A850000088502050888800008888BB
:10059000502020200000F808102040F80000E080E3
:1005A000808080E0000000804020100800003808B3
:1005B000080808380000205000000000000000007B
:1005C00000000000F8008040000000000000006013
:1005D0001070906000008080E09090E000000000CB
:1005E00070808070000010107090907000000060AB
:1005F00090F0807000003040E0404040000000601B
:100600009070101060008080E090909000002000BA
:10061000202020700000100030101010600080902A
:10062000A0C0A090000060202020207000000000EA
:1006300050A8A8A800000000F088888800000000EA
:1006400060909060000000006090F08080000000EA
:100650006090F01010000000B048404000000030F2
:100660004020106000004040E0404040000000009A
:1006700090909060000000008888502000000000EA
:1006800088A8A85000000088502050880000000072
:100690009090604080000000F02040F0000020407A
:1006A00040804040200020202020202020002010DA
:1006B00010081010200040A81000000000000000EA
:1006C000000000000000080800000000000000001A
:1006D00000003E41554155493E003E7F6B7F6B77A0
:1006E0003E0022777F7F3E1C0800081C3E7F3E1C98
:1006F0000800081C2A7F2A081C00081C3E7F3E08B0
:100700001C00001C3E3E3E1C00FFFFE3C1C1C1E3D4
:10071000FF00001C2222221C00FFFFE3DDDDDDE3E1
:10072000FF000F03053948483000083E081C22220C
:100730001C0018141010307060000F191113377658
:100740006000082A1C771C2A080060787E7F7E786B
:100750006000030F3F7F3F0F0300081C2A082A1C7C
:10076000080066666666006666003F65653D0505CD
:1007700005000C324824124C3000000000007F7F3E
:100780007F00081C2A082A1C3E00081C3E7F1C1CF7
:100790001C001C1C1C7F3E1C0800080C7E7F7E0C6D
:1007A000080008183F7F3F18080000007070707F35
:1007B0007F000014227F22140000081C1C3E3E7F94
:1007C0007F007F7F3E3E1C1C0800000000000000F0
:1007D0000000183C3C1818001800363614000000C1
:1007E000000036367F367F363600081E201C023C5D
:1007F000080060660C18306606003C663C2865669A
:100800003F00181818300000000060301818183029
:100810006000060C1818180C060000361C7F1C36E9
:1008200000000008083E08080000000000303030DA
:1008300060000000003C00000000000000000060BC
:10084000600000060C18306000003C666E7666663C
:100850003C001818381818187E003C66060C3060EA
:100860007E003C66061C06663C000C1C2C4C7E0C74
:100870000C007E607C0606663C003C66607C66661A
:100880003C007E660C0C181818003C66663C6666D8
:100890003C003C66663E06663C00001818001818CE
:1008A00000000018180018183000060C1830180C3A
:1008B000060000003C003C0000006030180C1830BE
:1008C00060003C66061C1800180038445C58423C26
:1008D00000003C66667E666666007C66667C6666D0
:1008E0007C003C66606060663C007C6666666666AE
:1008F0007C007E60607C60607E007E60607C60600A
:1009000060003C6660606E663C006666667E666699
:1009100066003C18181818183C001E0C0C0C6C6C67
:100920003800666C7870786C66006060606060604B
:100930007E0063777F6B6363630063737B6F6763C2
:1009400063003C66666666663C007C6666667C6044
:1009500060003C6666666E3C06007C66667C786C71
:1009600066003C66603C06663C007E5A1818181803
:1009700018006666666666663E0066666666663C83
:1009800018006363636B7F7763006363361C3663B1
:1009900063006666663C181818007E060C18306006
:1009A0007E001E18181818181E00006030180C065B
:1009B0000000781818181818780008142241000050
:1009C00000000000000000007F000C0C060000008A
:1009D000000000003C063E663E006060607C66668B
:1009E0007C0000003C6660663C000606063E6666CB
:1009F0003E0000003C667E603C001C3630307C309F
:100A00003000003E66663E063C006060607C6666C4
:100A100066000018001818183C000C000C0C6C6CD8
:100A200038006060666C786C660018181818181822
:100A30001800000063777F6B6B0000007C7E6666A9
:100A4000660000003C6666663C00007C66667C6072
:100A50006000003C6C6C3C0D0F0000007C66666022
:100A6000600000003E403C027C000018187E181810
:100A700018000000666666663E0000000066663C80
:100A800018000000636B6B6B3E000000663C183C76
:100A90006600000066663E063C0000003C0C183014
:100AA0003C000E18183018180E00181818001818E6
:100AB00018007018180C1818700000003A6C00002C
:100AC0000000081C366341417F0808000000000058
:100AD000000000007E81A581BD99817E7EFFDBFF45
:100AE000C3E7FF7E6CFEFEFE7C38100010387CFEF3
:100AF0007C381000387C38FEFED6103810387CFE6A
:100B0000FE7C10380000183C3C180000FFFFE7C3D3
:100B1000C3E7FFFF003C664242663C00FFC399BD4D
:100B2000BD99C3FF0F070F7DCCCCCC783C666666C1
:100B30003C187E183F333F303070F0E07F637F63B6
:100B40006367E6C018DB3CE7E73CDB1880E0F8FEB3
:100B5000F8E08000020E3EFE3E0E0200183C7E18B9
:100B6000187E3C1866666666660066007FDBDB7B87
:100B70001B1B1B003E613C66663C867C000000003F
:100B80007E7E7E00183C7E187E3C18FF183C7E1846
:100B900018181800181818187E3C180000180CFEB9
:100BA0000C180000003060FE603000000000C0C083
:100BB000C0FE0000002466FF6624000000183C7E92
:100BC000FFFF000000FFFF7E3C1800000000000057
:100BD00000000000183C3C1818001800666624004D
:100BE000000000006C6CFE6CFE6C6C00183E603CFB
:100BF000067C180000C6CC183066C600386C387603
:100C0000DCCC760018183000000000000C183030E2
:100C100030180C0030180C0C0C18300000663CFF2B
:100C20003C6600000018187E181800000000000044
:100C3000001818300000007E0000000000000000D6
:100C400000181800060C183060C080007CC6CED694
:100C5000E6C67C001838181818187E007CC6061CDA
:100C60003066FE007CC6063C06C67C001C3C6CCC94
:100C7000FE0C1E00FEC0C0FC06C67C003860C0FC36
:100C8000C6C67C00FEC60C18303030007CC6C67C60
:100C9000C6C67C007CC6C67E060C7800001818000C
:100CA000001818000018180000181830060C18302A
:100CB000180C060000007E00007E00006030180C5A
:100CC000183060007CC60C18180018007CC6DEDEE8
:100CD000DEC07800386CC6FEC6C6C600FC66667C00
:100CE0006666FC003C66C0C0C0663C00F86C666688
:100CF000666CF800FE6268786862FE00FE626878E2
:100D00006860F0003C66C0C0CE663A00C6C6C6FE4B
:100D1000C6C6C6003C18181818183C001E0C0C0C4F
:100D2000CCCC7800E6666C786C66E600F0606060BB
:100D30006266FE00C6EEFEFED6C6C600C6E6F6DE5B
:100D4000CEC6C6007CC6C6C6C6C67C00FC66667C2F
:100D50006060F0007CC6C6C6C6CE7C0EFC66667CB3
:100D60006C66E6007CC660380CC67C007E7E5A1835
:100D700018183C00C6C6C6C6C6C67C00C6C6C6C6CF
:100D8000C66C3800C6C6C6D6D6FE6C00C6C66C3861
:100D90006CC6C6006666663C18183C00FEC68C1819
:100DA0003266FE003C30303030303C00C0603018DD
:100DB0000C0602003C0C0C0C0C0C3C0010386CC6F1
:100DC0000000000000000000000000FF30180C00D0
:100DD000000000000000780C7CCC7600E0607C66AF
:100DE0006666DC0000007CC6C0C67C001C0C7CCCA7
:100DF000CCCC760000007CC6FEC07C003C6660F86F
:100E00006060F000000076CCCC7C0CF8E0606C7682
:100E10006666E6001800381818183C00060006063A
:100E20000666663CE060666C786CE6003818181858
:100E300018183C000000ECFED6D6D6000000DC6698
:100E40006666660000007CC6C6C67C000000DC66E4
:100E5000667C60F0000076CCCC7C0C1E0000DC765A
:100E60006060F00000007EC07C06FC003030FC308A
:100E700030361C000000CCCCCCCC76000000C6C6BE
:100E8000C66C38000000C6D6D6FE6C000000C66CEA
:100E9000386CC6000000C6C6C67E06FC00007E4C4C
:100EA00018327E000E18187018180E00181818182E
:100EB000181818007018180E1818700076DC00004A
:100EC000000000000010386CC6C6FE0060F0607CB8
:100ED0006666660CFC607C6666666C001C10007EB4
:100EE000606060003820FEC0C0C0C0006C007CC6DE
:100EF000FEC07C006CFE62786062FE0000007CC672
:100F0000F0C67C003C66C0F8C0663C0000007EC0B5
:100F10007C06FC007CC660380CC67C00300030309B
:100F2000303078007830303030307800CC003030DD
:100F300030307800663C181818183C001800181853
:100F4000181818701E0C0C0C0CCC78000000705097
:100F50005C52DC0070505C525252DC000000A0A0D9
:100F6000FCA2BC00A0A0A0FCA2A2BC0060F0607C1F
:100F700066666600F8607C66666666001C10C6D809
:100F8000F8CCC60018D6CCF8F8CCC6006C38C6C66B
:100F9000C67E067C38C6C67E06C67C000000C6C675
:100FA000C6C6FE10C6C6C6C6C6C6FE100000DCD643
:100FB000F6D6DC00DCD6D6F6D6D6DC000000F0B0E3
:100FC0003C363C00F0F0B03C36363C000000780C7B
:100FD0007CCC76003E66C6C6FEC6C600067CC07CDB
:100FE000C6C67C00FE66607C6666FC000000CCCC59
:100FF000CCCCFE06CCCCCCCCCCCCFE0600003C6CE1
:101000006C6CFEC61E3666666666FFC300007CC654
:10101000FEC07C00FE6268786862FE0000007CD63C
:10102000D67C10387CD6D6D67C1038000000FE6600
:101030006060F000FE6660606060F000003366CCC7
:101040006633000000CC663366CC0000228822881C
:101050002288228855AA55AA55AA55AADB77DBEE25
:10106000DB77DBEE18181818181818181818181845
:10107000F81818180000C66C386CC600C6C66C3864
:101080006CC6C6000000C6CEDEF6E600C6C6CEDEE2
:10109000F6E6C6003636F606F636363636363636D6
:1010A000363636360000FE06F63636363636F60664
:1010B000FE0000000038C6CEDEF6E60038C6CEDE02
:1010C000F6E6C60000000000F818181818181818DE
:1010D0001F00000018181818FF0000000000000092
:1010E000FF181818181818181F18181800000000F2
:1010F000FF00000018181818FF1818180000E66CF8
:10110000786CE600E66C78786C66E6003636373048
:101110003F00000000003F30373636363636F700E5
:10112000FF0000000000FF00F73636363636373055
:10113000373636360000FF00FF0000003636F70075
:10114000F736363600C67CC6C67CC60000003E6652
:101150006666E6001E3666666666C6000000C6FE67
:10116000FED6C600C6EEFEFED6C6C6000000C6C647
:10117000FEC6C600C6C6C6FEC6C6C60000007CC601
:10118000C6C67C007CC6C6C6C6C67C000000FEC6BD
:10119000C6C6C60018181818F800000000000000A5
:1011A0001F181818FFFFFFFFFFFFFFFF00000000E0
:1011B000FFFFFFFFFEC6C6C6C6C6C60000007EC64D
:1011C0007E66C600FFFFFFFF000000007EC6C6C6A9
:1011D0007E66C6000000FC66667C60F0FC666666A3
:1011E0007C60F00000007CC6C0C67C007CC6C0C02D
:1011F000C0C67C0000007E5A18183C007E5A1818A1
:1012000018183C000000C6C6C67E067CC6C6C67E50
:1012100006C67C000000D67C387CD600D6D67C384A
:101220007CD6D6000000FC667C66FC00FC66667C12
:101230006666FC000000F0607C66FC00F060607C8C
:1012400066667C008FCDEFFCDCCCCC000000007C1F
:101250007C0000000000C6C6F6DEF600C6C6C6F674
:10126000DEDEF60000007CC61CC67C007CC6063CA8
:1012700006C67C000000D6D6D6D6FE00D6D6D6D678
:10128000D6D6FE0000007CC61EC67C00788C063ECA
:10129000068C78000000D6D6D6D6FF03D6D6D6D692
:1012A000D6D6FF030000C6C67E060600C6C6C67EAA
:1012B000060606003E613C66663C867C00003C3CBF
:1012C0003C3C00000000000000000000000000089E
:1012D00000020100000304070000000000000000FD
:1012E00001020408102040800102040810200102BD
:1012F000040810200404040404040404020202028A
:10130000020203030303030300000000230026007E
:10131000290000000000250028002B00000000002C
:10132000240027002A00A81911241FBECFEFD8E0FF
:10133000DEBFCDBF11E0A0E0B1E0EAE6F9E302C014
:1013400005900D92AC32B107D9F722E0ACE2B1E0E2
:1013500001C01D92A230B207E1F713E1C8E2D3E168
:1013600004C02297FE010E94881BC632D107C9F72C
:101370000E94EC190C94B31C0C940000CF92DF92E5
:10138000EF92FF92CF93DF93EC010E94A4166B01C2
:101390007C01CC0EDD1EE11CF11C0E94A4166C1514
:1013A0007D058E059F05C8F461E080E10E94A217CB
:1013B00060E081E10E94A21784E690E00E94FB16A3
:1013C00060E080E10E94A21761E081E10E94A21723
:1013D00084E690E00E94FB16E0CF60E080E10E948E
:1013E000A21760E081E1DF91CF91FF90EF90DF9055
:1013F000CF900C94A217CF93DF93EC0180912C0136
:10140000811120C026E040E052EC61E070E081E60E
:1014100091E00E94E4186CE770E081E691E00E94A0
:10142000391A6AE071E081E691E00E948D1A68E65F
:1014300070E081E691E00E947B1A80912C018F5F21
:1014400080932C01BE0181E691E0DF91CF910C9455
:101450007B1A823051F0833071F08130B1F487E330
:1014600091E00E94DA0F61E015C087E391E00E94ED
:10147000DA0F60E005C087E391E00E94DA0F61E0D7
:101480008EE00E94A21761E009C087E391E00E940C
:10149000E00F60E08EE00E94A21760E08FE00C9405
:1014A000A2171F93CF93DF93982F9F70282F229519
:1014B0002F7038E0239F900D11249950983218F422
:1014C0008093310104C081E18093310190E0892F44
:1014D00090E0880F991FFC01EA51FF4F259134914C
:1014E0003093300120932F018A5C9E4FFC01C591FF
:1014F000D49181E090E00E94FB1660E08BE00E94B6
:10150000A2178AE090E00E94FB1660E08CE00E9447
:10151000A21781E090E00E94FB1661E08AE00E9441
:10152000A21781E090E00E94FB1661E08CE00E942F
:10153000A21781E090E00E94FB1660E08CE00E9420
:10154000A21781E090E00E94FB1660E08CE00E9410
:10155000A21781E090E00E94FB1660E08AE00E9402
:10156000A21781E090E00E94FB1661E08CE00E94EF
:10157000A21781E090E00E94FB1660E08CE00E94E0
:10158000A21781E090E00E94FB1660E08CE00E94D0
:10159000A21781E090E00E94FB1660E08AE00E94C2
:1015A000A21781E090E00E94FB1661E08CE00E94AF
:1015B000A21781E090E00E94FB1660E08CE00E94A0
:1015C000A21781E090E00E94FB1660E08CE00E9490
:1015D000A21781E090E00E94FB1660E08AE00E9482
:1015E000A21781E090E00E94FB1661E08CE00E946F
:1015F000A21781E090E00E94FB1660E08CE00E9460
:10160000A21781E090E00E94FB1660E08CE00E944F
:10161000A21781E090E00E94FB1661E08AE00E9440
:10162000A21781E090E00E94FB1661E08CE00E942E
:10163000A21781E090E00E94FB1660E08CE00E941F
:10164000A21781E090E00E94FB1610E160E0C0FF6D
:1016500009C08CE00E94A21781E090E00E94FB1676
:1016600061E008C08CE00E94A21781E090E00E9437
:10167000FB1660E08AE00E94A21781E090E00E94E1
:10168000FB1661E08CE00E94A21781E090E00E94CE
:10169000FB1660E08CE00E94A21781E090E00E94BF
:1016A000FB16D695C795115089F6C4E060E08CE032
:1016B0000E94A21781E090E00E94FB1660E08AE0A1
:1016C0000E94A21781E090E00E94FB1661E08CE08E
:1016D0000E94A21781E090E00E94FB1660E08CE07F
:1016E0000E94A21781E090E00E94FB16C150F1F623
:1016F00081E090E00E94FB1661E08BE00E94A2175F
:101700008AE090E00E94FB1661E08BE00E94A21745
:1017100060E08CE00E94A21760E08AE0DF91CF9148
:101720001F910C94A2170E94510A81E090E00E9440
:10173000FB1661E08BE00E94A2178AE090E00C9417
:10174000FB16CF9361E08BE00E94691761E08AE0AD
:101750000E94691761E08CE00E94691761E082E1F4
:101760000E94691761E082E10E94A21761E08EE0A9
:101770000E94691761E08FE00E94691760E08EE0C7
:101780000E94A21760E08FE00E94A21760E082E052
:101790000E94691762E082E00E94A21760E083E085
:1017A0000E94691762E083E00E94A21760E084E073
:1017B0000E94691762E084E00E94A21761E080E164
:1017C0000E94691761E081E10E94691760E080E191
:1017D0000E94A21760E081E10E94A21761E08DE003
:1017E0000E94691761E08DE00E94A21761E089E024
:1017F0000E94691761E089E00E94A217C6E061E0DB
:101800008DE00E94A2178AE090E00E94BE0960E08D
:101810008DE00E94A21764E670E080E090E00E94F4
:10182000D316C15061F785E18093320161E087E30F
:1018300091E00E94930D1816ACF461E08DE00E94D7
:10184000A2176CE271E080E090E00E94D31660E0A5
:101850008DE00E94A2176CE271E080E090E00E94AF
:10186000D316EBCF6AEF87E391E00E94BF0D69E2E8
:1018700087E391E00E94CD0D60E087E391E00E9454
:10188000130D66E871E087E391E00E94E40F2AED12
:1018900030E040E060E087E391E00E94A41063EC58
:1018A00073E087E391E00E94E40F2EEC30E04AE021
:1018B00060E087E391E00E94A41066EC76E087E3A5
:1018C00091E00E94E40F22EC30E044E160E087E325
:1018D00091E00E94A41069EC7AE087E391E00E9415
:1018E000E40F26EB30E04EE160E087E391E00E94F8
:1018F000A410809132010E94930B80EA90E00E9434
:10190000FB090E94A4166093330170933401809305
:10191000350190933601CF9108950F931F9382E084
:101920000E94D817892BE9F480912E0191E0892734
:1019300080932E010E94290A8AE090E00E94BE094D
:1019400064E670E080E090E00E94D31682E00E949E
:10195000D817892BD9F364E670E080E090E00E940C
:10196000D31684E00E94D817892B81F580912D0130
:1019700091E0892780932D01882311F085E101C032
:1019800088E50E94510A62E171E081E691E00E94DF
:101990005E1A40E150E06091310181E691E00E94E1
:1019A000051B8AE090E00E94BE0964E670E080E0DA
:1019B00090E00E94D31684E00E94D817892BD9F3B7
:1019C00064E670E080E090E00E94D3160E94A416C6
:1019D000009133011091340120913501309136018D
:1019E0000617170728073907D8F40E94A4166C5069
:1019F0007E4F8F4F9F4F60933301709334018093DC
:101A00003501909336018DE00E94D817892B11F093
:101A100060E001C061E08DE01F910F910C94A2176E
:101A20001F910F910895FC016130F9F030F06230A0
:101A300009F049C080E090E031C01282138280E05A
:101A400090E030914F0120914E01329F900111247E
:101A5000821793074CF4E0915401F0915501E80F7F
:101A6000F91F10820196EDCF08951282138280E053
:101A700090E04FEF30914F0120914E01329F900145
:101A80001124821793074CF4E0915401F091550111
:101A9000E80FF91F40830196EDCF089530914F0173
:101AA00020914E01329F90011124821793075CF41C
:101AB000E0915401F0915501E80FF91F2081209524
:101AC00020830196EBCF0895FF920F931F93CF933E
:101AD000DF93EC01F62E022F842F887FD9F0142F8C
:101AE000169516951695129FC00111240E948C1B05
:101AF00099838883009781F01A821B829C01402F72
:101B0000612F8F2D0E946D1560E0CE010E94130D94
:101B100080E003C081E001C084E0DF91CF911F919C
:101B20000F91FF90089520E640E80C94640D4091D9
:101B30004B0150914E0120915101332727FD3095E3
:101B40002F5F3F4F529FC001539F900D1124840F70
:101B5000911D01966115710589F020914501309123
:101B6000460128173907C9F72091450130914601F0
:101B700028173907C9F361507109ECCF0895CF9345
:101B8000C62F61E070E00E94970D6C2F6295607F18
:101B9000615060935001CF910895CF93C62F61E0BB
:101BA00070E00E94970DC0934B01CF9108952F9242
:101BB0003F924F925F926F927F928F929F92AF92DD
:101BC000BF92CF92DF92EF92FF920F931F93CF932A
:101BD000DF93CDB7DEB729970FB6F894DEBF0FBEFF
:101BE000CDBFDC01962F977058E0591BE11006C05D
:101BF000F901E00FF11FE4900F5F1F4FC11006C005
:101C0000F901E00FF11FC4900F5F1F4F8E2D8770F9
:101C1000EE2DE695E695E695882321F088248394B9
:101C20008E0E02C08E2E88E0669566956695E62E2D
:101C3000F12CFC82EB82692E712CB301680F711DAF
:101C4000798768876FEF70E0088402C075956795A3
:101C50000A94E2F7852F90E09A83898391E08912B4
:101C600002C0562E01C0512C8FEF90E05C01052E72
:101C700001C0AA0C0A94EAF75A28462E688579858D
:101C80006850710902C0959587956A95E2F78D8332
:101C900060E070E0E42EF12CFF82EE82912C41E0B6
:101CA000841A91086C1508F08CC0F0914F014E8198
:101CB0005F81460F571FF49FC001F59F900D1124BF
:101CC000EB80FC808E0D9F1DED91FC911197E80F2C
:101CD000F91FD0804D2D45214083A8014F5F5F4FF4
:101CE000F801E20FF31FA490ED91FC911197E80F1A
:101CF000F91FEA2CF12C062C02C0F594E7940A9403
:101D0000E2F7F080FE28F0821401240E351E7C01DB
:101D1000E01AF10AC701840F951F0D911C911197CC
:101D2000B12C4215530508F5080F191FF801D08092
:101D3000098001C0AA0C0A94EAF7A082F901E40F15
:101D4000F51FA490ED91FC911197E80FF91F8A2DD2
:101D500090E0062C02C0959587950A94E2F7908151
:101D6000982B90834F5F5F4FD5CFE885F9853897E3
:101D700044F4FC013197E00FF11FD42010811D299C
:101D80000CC0E885F985389749F07801E80EF91E0E
:101D9000F7011081FD811F23F70110830D911C9124
:101DA0001197080F191F098002C0AA0CBB1C0A94C6
:101DB000E2F7F80180818A2980836F5F7F4F8A0173
:101DC00071CF29960FB6F894DEBF0FBECDBFDF915D
:101DD000CF911F910F91FF90EF90DF90CF90BF9028
:101DE000AF909F908F907F906F905F904F903F90BB
:101DF0002F900895DF92EF92FF920F931F93CF934E
:101E0000DF934130A9F1C0F0423009F44DC04330B6
:101E100009F0C8C0562F5770E52E669566956695F1
:101E200070E0719561957109F12C02E010E088E095
:101E300090E0851B910983C08091540190915501D8
:101E400020914F01FC01629FE00DF11D11243091A2
:101E50004E01AC01329F400D511D11249A01DC014D
:101E60002E173F0708F49EC080818D931192F8CF02
:101E7000809154019091550130914E0120914F0174
:101E8000DC01329FA00DB11D1124FD01629FE019FC
:101E9000F10911241196E817F90708F483C020818D
:101EA0002E9310823197F7CF162F1770669566958F
:101EB000669570E0D0E028E030E0211B3109809188
:101EC0004E01D81708F06EC080914F01E091540187
:101ED000F09155018D9FE00DF11D1124DF01A60F3A
:101EE000B71F90E002978E0F9F1F8A179B0790F0F5
:101EF000CC91012E01C0CC0F0A94EAF71D924C91AF
:101F000050E0022E02C0559547950A94E2F7C42B83
:101F1000C193EBCF8C91012E01C0880F0A94EAF790
:101F20001C928083DF5FCBCF2C9130E00E2C02C05F
:101F3000359527950A94E2F71C922083F39420911B
:101F40004E01F21678F5E0914F014E2F50E09A01C4
:101F500021503109EF9D200D311D1124E0915401D4
:101F6000F0915501E20FF31F9801241B350B2E0F42
:101F70003F1FDF01A60FB71FA217B307A8F24C91AE
:101F800050E00E2C02C0559547950A94E2F71C923A
:101F9000CE91082E01C0CC0F0A94EAF74C2B408357
:101FA0003197EACFDF91CF911F910F91FF90EF9082
:101FB000DF900895EFE6F0E080818E7F80830895C2
:101FC00081E080936F000895FC0175836483089518
:101FD000CF92EF920F931F93CF93DF93FC01A481D5
:101FE000B581FD0132963491ED012196FE01C49038
:101FF000FD01E490FE010491231B209F8001112428
:102000000D5F1F4F9D010E94D70DDF91CF911F9152
:102010000F91EF90CF900895DC0113964C91139798
:1020200050E01496ED91FC911597319664912091B2
:102030004E0130E0261B31094217530724F064910A
:1020400040E00C94FA0EE4914E0F511DFC014383C5
:1020500008950F931F93CF93DF931F92CDB7DEB7F1
:102060008C01262F6A3031F1F8F4662309F466C03A
:10207000683069F5DC011496ED91FC911597E491B7
:10208000DC0112966C91129770E06E1B710912962A
:102090006C93129720E213964C910F90DF91CF91A1
:1020A0001F910F910C94E80F6D3071F06E3009F4B0
:1020B00045C00DC0DC0112961C920F90DF91CF91AC
:1020C0001F910F910C940C10FC01128237C0D801A3
:1020D00012966C91129780914F011496ED91FC919C
:1020E0001597E491462F50E0B8E08B9FC001112472
:1020F0008E1B9109F801481759076CF01282C8012C
:1021000029830E940C102981D80113964C911397B2
:1021100012966C9101C04381C8010E94E80FD8015A
:102120001496ED91FC911597E491D80112968C913B
:102130001297F0E0E80FF11D1296EC930F90DF91EB
:10214000CF911F910F9108950F931F93CF93DF931A
:10215000EC0189016A834B83F8016491662331F0B5
:102160000F5F1F4FCE010E942910F6CFDF91CF9154
:102170001F910F91089508952091450130914601D6
:1021800080914B0190E02817390779F4109257019C
:1021900010925601809151018093520181E791E1A3
:1021A000909342018093410116C0209145013091E6
:1021B000460180914C0190914D012817390759F43F
:1021C00085EF90E19093420180934101E0910601F7
:1021D000F091070109958091450190914601019682
:1021E00090934601809345010895209145013091D7
:1021F000460180914C0190914D01281739070CF44C
:102200004EC08CEA93E090938900809388001092EE
:102210004601109245018091470190914801A0919B
:102220004901B0914A010196A11DB11D809347015A
:1022300090934801A0934901B0934A0180913D01D8
:1022400090913E01A0913F01B0914001892B8A2BD2
:102250008B2B09F180913D0190913E01A0913F01AE
:10226000B0914001181619061A061B0684F58091D4
:102270003D0190913E01A0913F01B0914001019735
:10228000A109B10980933D0190933E01A0933F01C4
:10229000B09340011CC01092B1002B9818C020913F
:1022A00045013091460180915301992787FD909512
:1022B0002817390761F48AE490E0909389008093AD
:1022C00088008CEB90E190934201809341018091D2
:1022D00045019091460101969093460180934501F6
:1022E000089530918400209150012A50231B2350DF
:1022F000F0F72D5F19F02A9511F001C00000E09170
:102300004301F0914401099580915201409151019E
:1023100081110FC04093520120914F0180915601CD
:1023200090915701820F911D909357018093560110
:1023300003C08150809352012091450130914601A4
:102340002F5F3F4F60914B0170914E01552747FD24
:1023500050954F5F5F4F749FC001759F900D112482
:10236000860F911D2817390731F48CEB90E190937B
:10237000420180934101809145019091460101966F
:10238000909346018093450108950F93CF93DF9377
:10239000A0915401B0915501C0915601D0915701BF
:1023A00080914F01AC0FBD1F0BB10F7703C000FA36
:1023B00007F90BB90D90000007FA07F90BB90000F7
:1023C0000000000006FA07F90BB900000000000049
:1023D00005FA07F90BB900000000000004FA07F93C
:1023E0000BB900000000000003FA07F90BB9000068
:1023F0000000000002FA07F90BB90000000000001D
:1024000001FA07F90BB98A9591F60000000000FA6D
:1024100007F90BB90BB10F7707FB07F90BB9DF9180
:10242000CF910F9108950F93CF93DF93A091540113
:10243000B0915501C0915601D091570180914F0143
:10244000AC0FBD1F0BB10F7703C000FA07F90BB932
:102450000D9007FA07F90BB90000000006FA07F91A
:102460000BB90000000005FA07F90BB900000000E5
:1024700004FA07F90BB90000000003FA07F90BB9D9
:102480000000000002FA07F90BB900008A9501FA72
:1024900007F90BB9D1F6000000FA07F90BB90BB137
:1024A0000F7707FB07F90BB9DF91CF910F910895D3
:1024B0000F93CF93DF93A0915401B0915501C09138
:1024C0005601D091570180914F01AC0FBD1F02C042
:1024D000000C0BB80D9000000BB800000000000CC1
:1024E0000BB800000000000C0BB800000000000C4E
:1024F0000BB800000000000C0BB800000000000C3E
:102500000BB80000000C8A950BB811F70000000C06
:102510000BB80000000000005F98DF91CF910F9191
:1025200008950F93CF93DF93A0915401B09155017B
:10253000C0915601D091570180914F01AC0FBD1F42
:102540008E3191F08D3151F08C3149F08B3141F069
:102550008A3139F0893131F0883129F01CC032C01C
:1025600048C05EC074C08AC00D900BB80000000C5B
:102570000BB80000000C0BB80000000C0BB80000FA
:10258000000C0BB80000000C0BB80000000C0BB8DE
:102590000000000C0BB80D900BB80000000C0BB83D
:1025A0000000000C0BB80000000C0BB80000000C81
:1025B0000BB80000000C0BB80000000C0BB80000BA
:1025C000000C0BB80D900BB80000000C0BB800000D
:1025D000000C0BB80000000C0BB80000000C0BB88E
:1025E0000000000C0BB80000000C0BB80000000C41
:1025F0000BB80D900BB80000000C0BB80000000CDD
:102600000BB80000000C0BB80000000C0BB8000069
:10261000000C0BB80000000C0BB80000000C0BB84D
:102620000D900BB80000000C0BB80000000C0BB8AC
:102630000000000C0BB80000000C0BB80000000CF0
:102640000BB80000000C0BB80000000C0BB80D908C
:102650000BB80000000C0BB80000000C0BB8000019
:10266000000C0BB80000000C0BB80000000C0BB8FD
:102670000000000C0BB80000000C0BB80D900BB85C
:102680000000000C0BB80000000C0BB80000000CA0
:102690000BB80000000C0BB80000000C0BB80000D9
:1026A000000C0BB80000000C0BB80D900BB800002C
:1026B000000C0BB80000000C0BB80000000C0BB8AD
:1026C0000000000C0BB80000000C0BB80000000C60
:1026D0000BB80000000C0BB80D900BB80000000CFC
:1026E0000BB80000000C0BB80000000C0BB8000089
:1026F000000C0BB80000000C0BB80000000C0BB86D
:102700000000000C0BB80D900BB80000000C0BB8CB
:102710000000000C0BB80000000C0BB80000000C0F
:102720000BB80000000C0BB80000000C0BB8000048
:10273000000C0BB80D900BB80000000C0BB800009B
:10274000000C0BB80000000C0BB80000000C0BB81C
:102750000000000C0BB80000000C0BB80000000CCF
:102760000BB80D900BB80000000C0BB80000000C6B
:102770000BB80000000C0BB80000000C0BB80000F8
:10278000000C0BB80000000C0BB80000000C0BB8DC
:102790000D900BB80000000C0BB80000000C0BB83B
:1027A0000000000C0BB80000000C0BB80000000C7F
:1027B0000BB80000000C0BB80000000C0BB80D901B
:1027C0000BB80000000C0BB80000000C0BB80000A8
:1027D000000C0BB80000000C0BB80000000C0BB88C
:1027E0000000000C0BB80000000C0BB80D900BB8EB
:1027F0000000000C0BB80000000C0BB80000000C2F
:102800000BB80000000C0BB80000000C0BB8000067
:10281000000C0BB80000000C0BB80D900BB80000BA
:10282000000C0BB80000000C0BB80000000C0BB83B
:102830000000000C0BB80000000C0BB80000000CEE
:102840000BB80000000C0BB80D900BB80000000C8A
:102850000BB80000000C0BB80000000C0BB8000017
:10286000000C0BB80000000C0BB80000000C0BB8FB
:102870000000000C0BB80D900BB80000000C0BB85A
:102880000000000C0BB80000000C0BB80000000C9E
:102890000BB80000000C0BB80000000C0BB80000D7
:1028A000000C0BB80D900BB80000000C0BB800002A
:1028B000000C0BB80000000C0BB80000000C0BB8AB
:1028C0000000000C0BB80000000C0BB80000000C5E
:1028D0000BB80D900BB80000000C0BB80000000CFA
:1028E0000BB80000000C0BB80000000C0BB8000087
:1028F000000C0BB80000000C0BB80000000C0BB86B
:102900000D900BB80000000C0BB80000000C0BB8C9
:102910000000000C0BB80000000C0BB80000000C0D
:102920000BB80000000C0BB80000000C0BB80D90A9
:102930000BB80000000C0BB80000000C0BB8000036
:10294000000C0BB80000000C0BB80000000C0BB81A
:102950000000000C0BB80000000C0BB80D900BB879
:102960000000000C0BB80000000C0BB80000000CBD
:102970000BB80000000C0BB80000000C0BB80000F6
:10298000000C0BB80000000C0BB80D900BB8000049
:10299000000C0BB80000000C0BB80000000C0BB8CA
:1029A0000000000C0BB80000000C0BB80000000C7D
:1029B0000BB80000000C0BB80D900BB80000000C19
:1029C0000BB80000000C0BB80000000C0BB80000A6
:1029D000000C0BB80000000C0BB80000000C0BB88A
:1029E0000000000C0BB80D900BB80000000C0BB8E9
:1029F0000000000C0BB80000000C0BB80000000C2D
:102A00000BB80000000C0BB80000000C0BB8000065
:102A1000000C0BB80D900BB80000000C0BB80000B8
:102A2000000C0BB80000000C0BB80000000C0BB839
:102A30000000000C0BB80000000C0BB80000000CEC
:102A40000BB80D900BB80000000C0BB80000000C88
:102A50000BB80000000C0BB80000000C0BB8000015
:102A6000000C0BB80000000C0BB80000000C0BB8F9
:102A70000D900BB80000000C0BB80000000C0BB858
:102A80000000000C0BB80000000C0BB80000000C9C
:102A90000BB80000000C0BB80000000C0BB80D9038
:102AA0000BB80000000C0BB80000000C0BB80000C5
:102AB000000C0BB80000000C0BB80000000C0BB8A9
:102AC0000000000C0BB80000000C0BB80000000068
:102AD0005F98DF91CF910F910895CF93DF93C82F27
:102AE000E62F309355012093540160934F0140939A
:102AF0004E01109247011092480110924901109224
:102B00004A01642F70E0882319F084E091E002C04C
:102B100088ED90E00E941D1B615060935101D0919F
:102B20005101D093520188E0E89F9001112444277D
:102B300037FD4095542F60EE72E080E090E00E94F7
:102B4000531B243091F018F42330B9F011C0253014
:102B500049F0263069F485EC91E19093440180932B
:102B6000430111C043E152E10AC048E552E107C008
:102B7000273018F045EC51E102C041E952E1509391
:102B8000440140934301579A219A5F98299A239AC6
:102B900082EC8093800089E18093810040914E0116
:102BA0002D2F332727FD30952F5F3F4F429FC001C8
:102BB000439F900D1124CC23C9F097FD0196959564
:102BC0008795919581959109845680934B0187EC67
:102BD0008093500187E08093530188E391E09093C4
:102BE0004D0180934C018FEF93E018C097FD019643
:102BF00095958795919581959109855780934B017E
:102C00008FEB8093500183E08093530186E091E045
:102C100090934D0180934C0187EF93E09093870050
:102C2000809386008AE490E09093890080938800E6
:102C300080914C0190914D010196909346018093B3
:102C4000450185EF90E1909342018093410181E03D
:102C500080936F007894DF91CF9108951F920F9227
:102C60000FB60F9211242F933F934F935F936F935F
:102C70007F938F939F93AF93BF93EF93FF93E091D5
:102C80000801F09109010995E0914101F09142019B
:102C90000995FF91EF91BF91AF919F918F917F9196
:102CA0006F915F914F913F912F910F900FBE0F90B9
:102CB0001F9018951F920F920FB60F9211242F9309
:102CC0003F938F939F93AF93BF93809159019091BE
:102CD0005A01A0915B01B0915C013091580123E051
:102CE000230F2D3720F40196A11DB11D05C026E844
:102CF000230F0296A11DB11D209358018093590105
:102D000090935A01A0935B01B0935C0180915D01A7
:102D100090915E01A0915F01B09160010196A11DAB
:102D2000B11D80935D0190935E01A0935F01B0930C
:102D30006001BF91AF919F918F913F912F910F9023
:102D40000FBE0F901F9018952FB7F89460915901FE
:102D500070915A0180915B0190915C012FBF0895A1
:102D60003FB7F89480915D0190915E01A0915F0161
:102D7000B091600126B5A89B05C02F3F19F00196C0
:102D8000A11DB11D3FBF6627782F892F9A2F620F93
:102D9000711D811D911D42E0660F771F881F991FCD
:102DA0004A95D1F70895CF92DF92EF92FF92CF9399
:102DB000DF936B017C010E94B016EB01C114D104BA
:102DC000E104F10489F00E941C1B0E94B0166C1BE8
:102DD0007D0B683E734090F381E0C81AD108E1088A
:102DE000F108C851DC4FEACFDF91CF91FF90EF900F
:102DF000DF90CF900895019739F0880F991F880FC1
:102E0000991F02970197F1F70895789484B582602D
:102E100084BD84B5816084BD85B5826085BD85B57E
:102E2000816085BDEEE6F0E0808181608083E1E82D
:102E3000F0E0108280818260808380818160808365
:102E4000E0E8F0E0808181608083E1EBF0E0808168
:102E500084608083E0EBF0E0808181608083EAE73A
:102E6000F0E08081846080838081826080838081C3
:102E7000816080838081806880831092C100089582
:102E8000833081F028F4813099F08230A1F00895E8
:102E90008730A9F08830B9F08430D1F48091800077
:102EA0008F7D03C0809180008F778093800008958C
:102EB00084B58F7702C084B58F7D84BD08958091DD
:102EC000B0008F7703C08091B0008F7D8093B000F9
:102ED0000895CF93DF9390E0FC01E052FD4E2491E2
:102EE000FC01EC50FD4E8491882349F190E0880F5D
:102EF000991FFC01E45EFC4EA591B4918E5E9C4E40
:102F0000FC01C591D4919FB7611108C0F8948C91D0
:102F1000209582238C93888182230AC0623051F4E9
:102F2000F8948C91322F309583238C938881822B57
:102F3000888304C0F8948C91822B8C939FBFDF917F
:102F4000CF9108950F931F93CF93DF931F92CDB727
:102F5000DEB7282F30E0F901E453FD4E8491F901EA
:102F6000E052FD4E1491F901EC50FD4E0491002306
:102F7000C9F0882321F069830E9440176981E02FFE
:102F8000F0E0EE0FFF1FEE5EFC4EA591B4919FB7EF
:102F9000F8948C91611103C01095812301C0812B9D
:102FA0008C939FBF0F90DF91CF911F910F91089548
:102FB000CF93DF93282F30E0F901E453FD4E849145
:102FC000F901E052FD4ED491F901EC50FD4EC4914F
:102FD000CC2391F081110E944017EC2FF0E0EE0F0E
:102FE000FF1FE85FFC4EA591B4912C912D2381E049
:102FF00090E021F480E002C080E090E0DF91CF918A
:103000000895FC01818D228D90E0805C9F4F821B92
:1030100091098F7399270895FC01918D828D9817DE
:1030200031F0828DE80FF11D858D90E008958FEFCE
:103030009FEF0895FC01918D828D981761F0828D2C
:10304000DF01A80FB11D5D968C91928D9F5F9F73DC
:10305000928F90E008958FEF9FEF08958EE999E1A8
:10306000892B49F080E090E0892B29F00E949E197D
:1030700081110C9400000895FC01848DDF01A80FDC
:10308000B11DA35ABF4F2C91848D90E001968F7390
:103090009927848FA689B7892C93A089B1898C91AF
:1030A00080648C93938D848D981306C00288F38975
:1030B000E02D80818F7D80830895CF93DF93EC0195
:1030C000888D8823C9F0EA89FB89808185FD05C048
:1030D000A889B9898C9186FD0FC00FB607FCF5CF82
:1030E000808185FFF2CFA889B9898C9185FFEDCFCA
:1030F000CE010E943C18E7CFDF91CF910895CF9287
:10310000DF92FF920F931F93CF93DF931F92CDB760
:10311000DEB76C01DC015B969C915B975C968C91B1
:103120005C97981307C05096ED91FC915197808160
:1031300085FD32C0F601038D10E00F5F1F4F0F7346
:103140001127F02EF601848DF81211C00FB607FC7E
:10315000F9CFD6015096ED91FC915197808185FF72
:10316000F1CFC60169830E943C186981EBCF838D42
:10317000E80FF11DE35AFF4F6083D6015B960C9375
:103180005B975296ED91FC9153978081806280838A
:1031900081E058968C930DC0D6015696ED91FC9126
:1031A000579760835096ED91FC9151978081806490
:1031B000808381E090E00F90DF91CF911F910F917C
:1031C000FF90DF90CF900895BF92CF92DF92EF9261
:1031D000FF92CF93DF93EC016A017B01B22EE88965
:1031E000F98982E08083411581EE580761057105F8
:1031F000A1F060E079E08DE390E0A70196010E94E4
:10320000311B215031094109510956954795379590
:103210002795211580E1380798F0E889F98910820F
:1032200060E874E88EE190E0A70196010E94311BEE
:1032300021503109410951095695479537952795F0
:10324000EC85FD853083EE85FF852083188EEC8923
:10325000FD89B082EA89FB89808180618083EA8967
:10326000FB89808188608083EA89FB89808180680E
:103270008083EA89FB8980818F7D8083DF91CF9174
:10328000FF90EF90DF90CF90BF9008951F920F9224
:103290000FB60F9211242F938F939F93EF93FF9369
:1032A000E0917101F09172018081E0917701F091DC
:1032B000780182FD12C0908180917A018F5F8F73B7
:1032C00020917B01821751F0E0917A01F0E0EF59F3
:1032D000FE4F958F80937A0101C08081FF91EF911D
:1032E0009F918F912F910F900FBE0F901F90189567
:1032F0001F920F920FB60F9211242F933F934F936B
:103300005F936F937F938F939F93AF93BF93EF934D
:10331000FF9381E691E00E943C18FF91EF91BF91ED
:10332000AF919F918F917F916F915F914F913F915D
:103330002F910F900FBE0F901F90189581E691E08E
:103340000E94011821E0892B09F420E0822F0895C2
:10335000109264011092630188EE93E0A0E0B0E067
:103360008093650190936601A0936701B093680113
:103370008FE191E0909362018093610185EC90E090
:1033800090936E0180936D0184EC90E090937001B6
:1033900080936F0180EC90E09093720180937101B3
:1033A00081EC90E0909374018093730182EC90E043
:1033B000909376018093750186EC90E0909378016C
:1033C0008093770110927A0110927B0110927C0118
:1033D00010927D01089508950E9405170E94EB192F
:1033E0000E94A10BCEE2D8E10E948D0C2097E1F360
:1033F0000E942E18F9CFCF92DF92EF92FF920F9397
:103400001F93CF93DF936C017A01EB01E60EF71E59
:1034100000E010E0CE15DF0561F06991D601ED9175
:10342000FC910190F081E02DC6010995080F191F4C
:10343000F1CFC801DF91CF911F910F91FF90EF90D5
:10344000DF90CF9008956115710581F0DB010D903B
:103450000020E9F7AD0141505109461B570BDC0133
:10346000ED91FC910280F381E02D099480E090E0E1
:103470000895EF92FF920F931F93CF93DF938C01E8
:10348000FB01C0E0D0E064917F018FEFE81AF80AF9
:10349000662361F0D801ED91FC910190F081E02D5F
:1034A000C8010995C80FD91FF701EDCFCE01DF91F3
:1034B000CF911F910F91FF90EF9008950C94231AD4
:1034C000DC01ED91FC910190F081E02D09940F93C6
:1034D0001F93CF93DF93EC016DE00E94601A8C0183
:1034E0006AE0CE010E94601A800F911FDF91CF9198
:1034F0001F910F9108950F931F93CF93DF93EC01CA
:103500000E94391A8C01CE010E94671A800F911F08
:10351000DF91CF911F910F9108950F931F93CF9338
:10352000DF93EC010E94231A8C01CE010E94671ADE
:10353000800F911FDF91CF911F910F9108958F926E
:103540009F92AF92BF92CF92DF92EF92FF920F9332
:103550001F93CF93DF93CDB7DEB7A1970FB6F89443
:10356000DEBF0FBECDBF7C01C42EE52FCB01D22E16
:1035700019A221E02D1510F02AE0D22E8E010F5D48
:103580001F4F8D2C912CA12CB12C6C2D7E2FA501C1
:1035900094010E94311B8C2DD29E80191124015060
:1035A00011098A3014F4805D01C0895CF8018083C0
:1035B000211531054105510521F0C22EE32FCA0125
:1035C000E4CFB801C7010E94231AA1960FB6F89460
:1035D000DEBF0FBECDBFDF91CF911F910F91FF9046
:1035E000EF90DF90CF90BF90AF909F908F90089515
:1035F0002115310541F4DC01ED91FC910190F08140
:10360000E02D642F09940C949F1A0F931F93CF936E
:10361000DF93EC019A01462F50E060E070E00E94D9
:10362000F81A8C01CE010E94671A800F911FDF915A
:10363000CF911F910F910895089597FB072E16F4CF
:10364000009407D077FD09D00E94721B07FC05D0BB
:103650003EF4909581959F4F0895709561957F4FA9
:103660000895A1E21A2EAA1BBB1BFD010DC0AA1FC3
:10367000BB1FEE1FFF1FA217B307E407F50720F0DB
:10368000A21BB30BE40BF50B661F771F881F991F56
:103690001A9469F760957095809590959B01AC019F
:1036A000BD01CF010895052E97FB1EF400940E94E2
:1036B0006A1B57FD07D00E94311B07FC03D04EF454
:1036C0000C946A1B50954095309521953F4F4F4F74
:1036D0005F4F089590958095709561957F4F8F4FBE
:1036E0009F4F0895AA1BBB1B51E107C0AA1FBB1F18
:1036F000A617B70710F0A61BB70B881F991F5A957E
:10370000A9F780959095BC01CD010895EE0FFF1F9C
:103710000590F491E02D0994CF93DF9382309105C9
:1037200010F482E090E0E0910002F091010220E0CC
:1037300030E0A0E0B0E0309739F140815181481786
:103740005907B8F04817590771F48281938110978F
:1037500029F013969C938E9312972CC0909301029C
:103760008093000227C02115310531F0421753071D
:1037700018F0A901DB0101C0EF019A01BD01DF01D1
:103780000280F381E02DD7CF21153105F9F0281BF8
:10379000390B2430310580F48A819B8161157105D4
:1037A00021F0FB019383828304C0909301028093F4
:1037B0000002FE01329644C0FE01E20FF31F819326
:1037C000919322503109398328833AC02091FE0118
:1037D0003091FF01232B41F420910201309103012C
:1037E0003093FF012093FE012091000130910101EF
:1037F0002115310541F42DB73EB740910401509198
:103800000501241B350BE091FE01F091FF01E21749
:10381000F307A0F42E1B3F0B2817390778F0AC01F3
:103820004E5F5F4F2417350748F04E0F5F1F5093D0
:10383000FF014093FE018193919302C0E0E0F0E02C
:10384000CF01DF91CF910895CF93DF93009709F4D3
:1038500087C0FC01329713821282C0910002D0917E
:103860000102209781F420813181280F391F809136
:10387000FE019091FF018217930779F5F093FF0104
:10388000E093FE016DC0DE0120E030E0AE17BF071F
:1038900050F412964D915C9113979D01411551057D
:1038A00009F1DA01F3CFB383A28340815181840F00
:1038B000951F8A179B0771F48D919C911197840F26
:1038C000951F02969183808312968D919C911397F8
:1038D000938382832115310529F4F0930102E0934B
:1038E00000023EC0D9011396FC93EE9312974D91BE
:1038F0005D91A40FB51FEA17FB0779F480819181D0
:10390000840F951F0296D90111969C938E93828104
:10391000938113969C938E931297E0E0F0E08A8156
:103920009B81009719F0FE01EC01F9CFCE010296C0
:1039300028813981820F931F2091FE013091FF0170
:103940002817390769F4309729F410920102109270
:10395000000202C013821282D093FF01C093FE01C5
:0A396000DF91CF910895F894FFCF96
:10396A00000002028000BB10BB1042657461312E58
:10397A0030004368616E6E656C2000000000007FB5
:0C398A0018FB1901181A180C185D180021
:00000001FF
