:100000000C94EF080C9417090C9417090C94170919
:100010000C9417090C9417090C9417090C941709E0
:100020000C9417090C9417090C9417090C941709D0
:100030000C9417090C94B2240C9417090C9417090A
:100040000C94DE240C9417090C94E7270C941928BF
:100050000C9417090C9417090C9417090C941709A0
:100060000C9417090C9417093E0F510F5C0FEE0FFB
:1000700059101611BD113C12A8120413EB13A91547
:100080003C16981753415645442021212100616EAA
:100090007920746F2063616E63656C00486F6C64D7
:1000A000204D6F646520746F205361766500202DAC
:1000B000200044657465637465643A2000202D2037
:1000C0000053617665642020203A20005253534942
:1000D0002043616C6962726174696F6E00524620E0
:1000E000737065637472756D20616E616C797A6589
:1000F0007200534156454420212121002020200038
:1001000052535349004368616E6E656C3A20005249
:1001100046204368616E6E656C2053656C65637440
:10012000696F6E00507265737320616E7920746F11
:1001300020636F6E74696E75652E2E2E0020202050
:100140002020486F6C64203A2053617665004D6F23
:10015000646520436C69636B3A20457869740020BC
:1001600020202020486F6C64203A205363616E0089
:100170004E65787420436C69636B3A2043682B00AA
:10018000427574746F6E204B657920496E666F00FE
:10019000534156454420212121003E004578697491
:1001A0000020205246204469766572736974790094
:1001B00020204578742E20566964656F00202052F7
:1001C0004620566964656F20320020205246205632
:1001D0006964656F203100566964656F20496E70EF
:1001E0007574204D656E75002500202020202000AC
:1001F000202D00202D20004368616E6E656C3A0052
:10020000457869740046616E204F7574707574008E
:10021000524620537065637472756D0052462043D8
:1002200068616E6E656C2053657475700056696404
:10023000656F20496E7075742053656C6563742E0C
:1002400000436F6E66696775726174696F6E204DE9
:10025000656E75002500202020202000202D002024
:100260002D20004368616E6E656C3A0046726561D0
:100270006B7941747469632E636F6D00352E384756
:10028000487A20566964656F205278202D20566583
:10029000722E004641353847485A004F53443A20A1
:1002A0004F5344206F6666004F53443A204F5344E7
:1002B00020696E697469616C697A656400454550AE
:1002C000524F4D3A20436F6E66696775726174696B
:1002D0006F6E20736176656400454550524F4D3A0C
:1002E00020436F6E66696775726174696F6E206C0A
:1002F0006F6164656400454550524F4D3A204C6F24
:100300006164696E672064656661756C74207661EE
:100310006C7565730020004E6F76203130203230CE
:10032000313500202020427920467265616B796169
:10033000747469632E636F6D202D20000A0A0A0D04
:100340004641353847485A20524620566964656F01
:10035000204D6F64756C65202D205665722E20002F
:10036000426F61726420696E697469616C697A6553
:1003700064202E2E2E00E916D516C116AD1699163C
:10038000851671165D16651678168B169E16B116B3
:10039000C416D716EA164916351621160D16FD167F
:1003A0001117251739176C1680169416A816BC1647
:1003B000D016E416F8161A163F1664168916AE16ED
:1003C000D316F8161D17052A9B29912987291D295F
:1003D000132909299F2803290C2916291F2989294E
:1003E00092299C29052A95288B28812817280F2ACD
:1003F000192A832A8D2A062910291A2984298E2947
:100400009829022A0C2A1D28B02802291529872993
:10041000DA290C2A132A1320121121100722081896
:1004200006091905230A1A040B1B03240C1C020DD0
:100430001D25010E1E000F1F261415271617040672
:1004400020000000000000404040004000A0A0004C
:10045000000000A0E0A0E0A0004060C060C000A0DC
:10046000204080A0002040C0A0E00080800000006C
:100470000040808080400080404040800040A0409C
:100480000000000040E0400000000000808000000C
:1004900000E000000000000000800020204080807C
:1004A00000E0A0A0A0E00040C04040E000E020E06C
:1004B00080E000E020E020E000A0A0E0202000E0BC
:1004C00080E020C000C080E0A0E000E0204080800C
:1004D00000E0A0E0A0E000E0A0E02060000040001C
:1004E000400000004000408000204080402000008C
:1004F000E000E00000804020408000C0204000403C
:1005000000E0A0A0E0E000E0A0E0A0A000C0A0E02B
:10051000A0C000E0808080E000C0A0A0A0C000E0FB
:1005200080E080E000E080E0808000E08080A0E06B
:1005300000A0A0E0A0A000E0404040E0002020207B
:10054000A0E00080A0C0C0A00080808080E000A06B
:10055000E0E0A0A000C0A0A0A0A00040A0A0A040FB
:1005600000E0A0E080800040A0A0E06600E0A0C025
:10057000E0AA00E080E020E000E04040404000A031
:10058000A0A0A0E000A0A0A0A04000A0A0E0E0A249
:1005900000A0A040A0A000A0A040404000E020405B
:1005A00080E000C0808080C000008040202000C02B
:1005B000404040C00040A00000000000000000E0FB
:1005C000008040000000000060A0A060008080C0AB
:1005D000A0C000006080806000202060A06000401B
:1005E000A0E08060006040E040400060A06020C06B
:1005F000008080C0A0A0004000404040004000407B
:1006000040C0008080A0C0A000C0404040E000008A
:10061000A0E0A0A00000C0A0A0A0000040A0A040BA
:100620000000C0A0C080000060A060200000C0A04A
:1006300080800000604020600040E04040400000BA
:10064000A0A0A0600000A0A0A0400000A0A0E0A08A
:100650000000A04040A00000A0E020400000E040DA
:1006600080E0002040C04022004040004040008028
:10067000406040800000A04000000006082000000C
:10068000000000000000404040404000400050504A
:10069000500000000000000050F850F8500020709A
:1006A000A0702870200000C8D0205898000020506A
:1006B0008040A890680040404000000000001020EA
:1006C0004040402010004020101010204000103802
:1006D000100000000000002020F820200000000092
:1006E000000000101000000000F8000000000000F2
:1006F00000000010000000081020408000007088FA
:10070000A8A8887000002060202020700000708859
:10071000102040F80000F810201088700000909021
:1007200090F810100000F880F008887000007080C9
:10073000F08888700000F808102040800000708861
:100740007088887000007088887808700000000049
:1007500020000020000000002000202040000018A1
:10076000608060180000000078007800000000C081
:10077000300830C000006090202000200000708809
:1007800098A890887000205088F888880000F08829
:10079000F08888F000007088808088700000F08801
:1007A000888888F00000F880F88080F80000F880E1
:1007B000F0808080000070888098887000008888B1
:1007C000F8888888000070202020207000003810F1
:1007D0001010906000008890E0A090880000808059
:1007E000808080F8000088D8A8A8888800008888C1
:1007F000C8A8988800007088888888700000F088F1
:10080000F08080800000708888A890680000F088E0
:10081000F0A0908800007880700808F00000F820B0
:100820002020202000008888888888700000888820
:100830008888502000008888A8A8A8500000885008
:100840002050888800008888502020200000F80868
:10085000102040F80000E080808080E000000080F0
:100860004020100800003808080808380000205010
:10087000000000000000000000000000F8008040C0
:100880000000000000000060107090600000808098
:10089000E09090E000000000708080700000101078
:1008A000709090700000006090F080700000304008
:1008B000E0404040000000609070101060008080B8
:1008C000E090909000002000202020700000100098
:1008D0003010101060008090A0C0A0900000602038
:1008E000202020700000000050A8A8A800000000F0
:1008F000F088888800000000609090600000000090
:100900006090F080800000006090F0101000000007
:10091000B0484040000000304020106000004040DF
:10092000E040404000000000909090600000000017
:10093000888850200000000088A8A8500000008887
:10094000502050880000000090906040800000001F
:10095000F02040F000002040408040402000202057
:10096000202020202000201010081010200040A877
:100970001000000000000000000000000000080857
:100980000000000000000000007E81A581BD99816B
:100990007E7EFFDBFFC3E7FF7E6CFEFEFE7C381031
:1009A0000010387CFE7C381000387C38FEFED610F3
:1009B0003810387CFEFE7C10380000183C3C1800D3
:1009C00000FFFFE7C3C3E7FFFF003C664242663C0F
:1009D00000FFC399BDBD99C3FF0F070F7DCCCCCCE1
:1009E000783C6666663C187E183F333F303070F0C6
:1009F000E07F637F636367E6C018DB3CE7E73CDBCF
:100A00001880E0F8FEF8E08000020E3EFE3E0E0286
:100A100000183C7E18187E3C18666666666600669E
:100A2000007FDBDB7B1B1B1B003E613C66663C865C
:100A30007C000000007E7E7E00183C7E187E3C1804
:100A4000FF183C7E1818181800181818187E3C1843
:100A50000000180CFE0C180000003060FE60300032
:100A6000000000C0C0C0FE0000002466FF66240035
:100A70000000183C7EFFFF000000FFFF7E3C1800D6
:100A8000000000000000000000183C3C181800188E
:100A90000066662400000000006C6CFE6CFE6C6C4E
:100AA00000183E603C067C180000C6CC183066C6B4
:100AB00000386C3876DCCC76001818300000000066
:100AC000000C18303030180C0030180C0C0C18309A
:100AD0000000663CFF3C6600000018187E181800F5
:100AE0000000000000001818300000007E00000028
:100AF000000000000000181800060C183060C080CC
:100B0000007CC6CED6E6C67C001838181818187EA9
:100B1000007CC6061C3066FE007CC6063C06C67C11
:100B2000001C3C6CCCFE0C1E00FEC0C0FC06C67C4B
:100B3000003860C0FCC6C67C00FEC60C18303030E1
:100B4000007CC6C67CC6C67C007CC6C67E060C7809
:100B500000001818000018180000181800001818D5
:100B600030060C1830180C060000007E00007E00D5
:100B7000006030180C183060007CC60C1818001883
:100B8000007CC6DEDEDEC07800386CC6FEC6C6C697
:100B900000FC66667C6666FC003C66C0C0C0663CC5
:100BA00000F86C6666666CF800FE6268786862FE43
:100BB00000FE6268786860F0003C66C0C0CE663AAD
:100BC00000C6C6C6FEC6C6C6003C18181818183C93
:100BD000001E0C0C0CCCCC7800E6666C786C66E6DB
:100BE00000F06060606266FE00C6EEFEFED6C6C61D
:100BF00000C6E6F6DECEC6C6007CC6C6C6C6C67C45
:100C000000FC66667C6060F0007CC6C6C6C6CE7C12
:100C10000EFC66667C6C66E6007CC660380CC67CA2
:100C2000007E7E5A1818183C00C6C6C6C6C6C67CCA
:100C300000C6C6C6C6C66C3800C6C6C6D6D6FE6CCA
:100C400000C6C66C386CC6C6006666663C18183CA2
:100C500000FEC68C183266FE003C30303030303C2E
:100C600000C06030180C0602003C0C0C0C0C0C3C54
:100C70000010386CC60000000000000000000000FA
:100C8000FF30180C00000000000000780C7CCC76CF
:100C900000E0607C666666DC0000007CC6C0C67C46
:100CA000001C0C7CCCCCCC760000007CC6FEC07C4A
:100CB000003C6660F86060F000000076CCCC7C0CF4
:100CC000F8E0606C766666E6001800381818183C84
:100CD00000060006060666663CE060666C786CE618
:100CE000003818181818183C000000ECFED6D6D6AC
:100CF000000000DC666666660000007CC6C6C67C36
:100D0000000000DC66667C60F0000076CCCC7C0CD9
:100D10001E0000DC766060F00000007EC07C06FCF7
:100D2000003030FC3030361C000000CCCCCCCC760F
:100D3000000000C6C6C66C38000000C6D6D6FE6CE1
:100D4000000000C66C386CC6000000C6C6C67E0631
:100D5000FC00007E4C18327E000E18187018180E19
:100D60000018181818181818007018180E1818708D
:100D70000076DC0000000000000010386CC6C6FEE3
:100D80000060F0607C6666660CFC607C6666666C83
:100D9000001C10007E606060003820FEC0C0C0C033
:100DA000006C007CC6FEC07C006CFE62786062FE57
:100DB0000000007CC6F0C67C003C66C0F8C0663C03
:100DC0000000007EC07C06FC007CC660380CC67C3F
:100DD00000300030303030780078303030303078CB
:100DE00000CC00303030307800663C181818183CC1
:100DF0000018001818181818701E0C0C0C0CCC7861
:100E000000000070505C52DC0070505C525252DCAA
:100E1000000000A0A0FCA2BC00A0A0A0FCA2A2BC5C
:100E20000060F0607C66666600F8607C66666666F8
:100E3000001C10C6D8F8CCC60018D6CCF8F8CCC622
:100E4000006C38C6C6C67E067C38C6C67E06C67C22
:100E5000000000C6C6C6C6FE10C6C6C6C6C6C6FECA
:100E6000100000DCD6F6D6DC00DCD6D6F6D6D6DC12
:100E7000000000F0B03C363C00F0F0B03C36363CB0
:100E8000000000780C7CCC76003E66C6C6FEC6C666
:100E900000067CC07CC6C67C00FE66607C6666FC84
:100EA000000000CCCCCCCCFE06CCCCCCCCCCCCFE48
:100EB0000600003C6C6C6CFEC61E3666666666FFFD
:100EC000C300007CC6FEC07C00FE6268786862FEDB
:100ED0000000007CD6D67C10387CD6D6D67C103864
:100EE000000000FE666060F000FE6660606060F01A
:100EF00000003366CC6633000000CC663366CC005D
:100F000000228822882288228855AA55AA55AA55E7
:100F1000AADB77DBEEDB77DBEE1818181818181849
:100F20001818181818F81818180000C66C386CC66D
:100F300000C6C66C386CC6C6000000C6CEDEF6E63B
:100F400000C6C6CEDEF6E6C6003636F606F63636FD
:100F50003636363636363636360000FE06F6363645
:100F6000363636F606FE0000000038C6CEDEF6E65F
:100F70000038C6CEDEF6E6C60000000000F81818FD
:100F800018181818181F00000018181818FF00006B
:100F90000000000000FF181818181818181F18185B
:100FA0001800000000FF00000018181818FF18189B
:100FB000180000E66C786CE600E66C78786C66E603
:100FC00000363637303F00000000003F30373636FD
:100FD000363636F700FF0000000000FF00F7363617
:100FE0003636363730373636360000FF00FF000021
:100FF000003636F700F736363600C67CC6C67CC6E5
:101000000000003E666666E6001E3666666666C6D8
:10101000000000C6FEFED6C600C6EEFEFED6C6C660
:10102000000000C6C6FEC6C600C6C6C6FEC6C6C608
:101030000000007CC6C6C67C007CC6C6C6C6C67C90
:10104000000000FEC6C6C6C60018181818F8000032
:1010500000000000001F181818FFFFFFFFFFFFFF30
:10106000FF00000000FFFFFFFFFEC6C6C6C6C6C6E3
:101070000000007EC67E66C600FFFFFFFF00000086
:10108000007EC6C6C67E66C6000000FC66667C6042
:10109000F0FC6666667C60F00000007CC6C0C67C22
:1010A000007CC6C0C0C0C67C0000007E5A18183C38
:1010B000007E5A181818183C000000C6C6C67E06E6
:1010C0007CC6C6C67E06C67C000000D67C387CD6B0
:1010D00000D6D67C387CD6D6000000FC667C66FC48
:1010E00000FC66667C6666FC000000F0607C66FCC6
:1010F00000F060607C66667C008FCDEFFCDCCCCCC1
:10110000000000007C7C0000000000C6C6F6DEF691
:1011100000C6C6C6F6DEDEF60000007CC61CC67C35
:10112000007CC6063C06C67C000000D6D6D6D6FE9D
:1011300000D6D6D6D6D6D6FE0000007CC61EC67C0B
:1011400000788C063E068C78000000D6D6D6D6FFF6
:1011500003D6D6D6D6D6D6FF030000C6C67E060670
:1011600000C6C6C67E060606003E613C66663C8634
:101170007C00003C3C3C3C00000000000000000003
:101180000000000008000201000003040700000046
:101190000000000000010204081020408001020449
:1011A00008102001020408102004040404040404AC
:1011B000040202020202020303030303030000000D
:1011C0000023002600290000000000250028002B35
:1011D0000000000000240027002A000049281124F4
:1011E0001FBECFEFD8E0DEBFCDBF11E0A0E0B1E081
:1011F000ECEBF6E502C005900D92A832B107D9F7E5
:1012000022E0A8E2B1E001C01D92AE32B207E1F7E0
:1012100011E1CEEDD1E104C02297FE010E94012A26
:10122000CC3DD107C9F70E948D280C945C2B0C94FF
:1012300000000C94462B0C944E2BCF92DF92EF9231
:10124000FF92CF93DF93EC010E9428256B017C0174
:10125000CC0EDD1EE11CF11C0E9428256C157D05BD
:101260008E059F05C8F461E080E10E94432660E09E
:1012700081E10E94432684E690E00E947F2560E0A1
:1012800080E10E94432661E081E10E94432684E6DA
:1012900090E00E947F25E0CF60E080E10E9443263D
:1012A00060E081E1DF91CF91FF90EF90DF90CF90F0
:1012B0000C944326CF93DF93EC018091360181118A
:1012C0002CC026E040E052EC61E070E08DE891E057
:1012D0000E9485276CE373E08DE891E00E94DA2894
:1012E0006FE071E08DE891E00E942C2963E273E0E9
:1012F0008DE891E00E94DA2867E173E08DE891E0E3
:101300000E941A2965E173E08DE891E00E941A2994
:10131000809136018F5F80933601BE018DE891E0A8
:10132000DF91CF910C941A296091640181E090E0E3
:101330000E941B096091630182E090E00E941B09FA
:101340006091620183E090E00E941B09609161015D
:1013500084E090E00E941B096091600185E090E0CC
:101360000E941B0960915F0186E090E00E941B09CA
:1013700060915E0187E090E00E941B0960915D0131
:1013800088E090E00E941B0960915C0189E090E098
:101390000E941B098DEB92E00C945A09CF93DF93C6
:1013A00080E090E00E941909813309F054C082E086
:1013B0000E947926EC0184E00E947926892B19F499
:1013C000CD2B09F448C081E090E00E941909809378
:1013D000640182E090E00E9419098093630183E038
:1013E00090E00E941909C82F84E090E00E9419093A
:1013F0002C2F30E0322F2227282B309362012093AC
:10140000610185E090E00E941909C82F86E090E014
:101410000E9419092C2F30E0322F2227282B3093DD
:10142000600120935F0187E090E00E94190980939A
:101430005E0188E090E00E94190980935D0189E0D7
:1014400090E00E94190980935C0189ED92E0DF91A0
:10145000CF910C945A0986EF92E00E945A0961E3F9
:1014600080E090E00E941B091092640185E1809366
:10147000630184E591E0909362018093610181E9C9
:1014800090E09093600180935F0183E080935E0120
:1014900010925D0110925C010E94940994CF0F9309
:1014A0001F9382E00E9479264091320150913301CE
:1014B0006091340170913501892B81F4452B462BC5
:1014C000472B09F047C00E94282560933201709392
:1014D000330180933401909335013CC0452B462B5A
:1014E000472BC1F10E942825009132011091330150
:1014F0002091340130913501601B710B820B930BED
:101500006333710581059105E8F0683522E07207C3
:101510008105910518F481E090E010C0683B2BE054
:1015200072078105910518F482E090E007C0603AE7
:101530007F408105910530F483E090E090935B015A
:1015400080935A01109232011092330110923401AB
:101550001092350183E00E94792640912E0150912E
:101560002F016091300170913101892B81F4452B5D
:10157000462B472B09F047C00E94282560932E0177
:1015800070932F0180933001909331013CC0452B23
:10159000462B472BC1F10E94282500912E01109166
:1015A0002F012091300130913101601B710B820BB2
:1015B000930B6333710581059105E8F0683522E0EE
:1015C00072078105910518F481E090E010C0683B36
:1015D0002BE072078105910518F482E090E007C0C6
:1015E000603A7F408105910530F483E090E090936C
:1015F00059018093580110922E0110922F011092E0
:1016000030011092310184E00E94792640912A0134
:1016100050912B0160912C0170912D01892B81F447
:10162000452B462B472B09F047C00E942825609385
:101630002A0170932B0180932C0190932D013CC0C3
:10164000452B462B472BC1F10E94282500912A01EA
:1016500010912B0120912C0130912D01601B710BF9
:10166000820B930B6333710581059105E8F06835B2
:1016700022E072078105910518F481E090E010C026
:10168000683B2BE072078105910518F482E090E039
:1016900007C0603A7F408105910530F483E090E017
:1016A000909357018093560110922A0110922B01BA
:1016B00010922C0110922D011F910F9108951092FC
:1016C0005B0110925A011092590110925801109228
:1016D000570110925601089580915A0190915B0133
:1016E000019741F40E945F0B8FE090E00E941D097A
:1016F00081E0089580E0089580915A0190915B0106
:10170000029741F40E945F0B8FE090E00E941D0958
:1017100081E0089580E0089580915A0190915B01E5
:10172000039741F40E945F0B8FE090E00E941D0937
:1017300081E0089580E008958091580190915901C9
:10174000019741F40E945F0B8FE090E00E941D0919
:1017500081E0089580E008958091580190915901A9
:10176000029741F40E945F0B8FE090E00E941D09F8
:1017700081E0089580E0089531E080915A019091D0
:101780005B01892B09F430E021E0809156019091B2
:101790005701892B09F420E0232B31F48091580163
:1017A00090915901892B41F00E945F0B8FE090E0EE
:1017B0000E941D0981E0089580E0089561E080E5C0
:1017C00091E00E94E9181816ACF461E08DE00E94E7
:1017D00043266CE271E080E090E00E94572560E0D3
:1017E0008DE00E9443266CE271E080E090E00E9470
:1017F0005725EBCF60E080E591E00E94691882E018
:1018000090E090934F0180934E0188EA92E00C940F
:101810005A0980914E0190914F01059731F084E073
:1018200090E090934F0180934E01089580914E0176
:1018300090914F01019721F010924F0110924E01AB
:101840000895CF92EF920F9380934D0180934C01B6
:1018500060934B01880F482F440F440F480F4E5E92
:1018600052E0C52EEE24E3940AE02BE762E080E527
:1018700091E00E94DB1A0F91EF90CF900895CF92E4
:10188000EF920F9380914D018F5F80934D01909166
:101890004B01891302C010924D0180914C01880FB9
:1018A000482F440F440F480F4E5E62E0C62EE12CD5
:1018B0000AE02BE762E080E591E00E94DB1A80916C
:1018C0004D01880F482F440F440F480F4E5EEE2401
:1018D000E3942BE762E080E591E00E94DB1A8091BF
:1018E0004D0180934C010F91EF90CF9008951F937D
:1018F000CF93DF93982F9F70282F22952F7038E079
:10190000239F900D11249950983218F480933A0136
:1019100004C081E180933A0190E0892F90E0880F24
:10192000991FFC01EA58FC4F2591349130933901FD
:10193000209338018A539C4FFC01C591D49181E0DA
:1019400090E00E947F2560E08BE00E9443268AE0C1
:1019500090E00E947F2560E08CE00E94432681E0B9
:1019600090E00E947F2561E08AE00E94432681E0AA
:1019700090E00E947F2561E08CE00E94432681E098
:1019800090E00E947F2560E08CE00E94432681E089
:1019900090E00E947F2560E08CE00E94432681E079
:1019A00090E00E947F2560E08AE00E94432681E06B
:1019B00090E00E947F2561E08CE00E94432681E058
:1019C00090E00E947F2560E08CE00E94432681E049
:1019D00090E00E947F2560E08CE00E94432681E039
:1019E00090E00E947F2560E08AE00E94432681E02B
:1019F00090E00E947F2561E08CE00E94432681E018
:101A000090E00E947F2560E08CE00E94432681E008
:101A100090E00E947F2560E08CE00E94432681E0F8
:101A200090E00E947F2560E08AE00E94432681E0EA
:101A300090E00E947F2561E08CE00E94432681E0D7
:101A400090E00E947F2560E08CE00E94432681E0C8
:101A500090E00E947F2560E08CE00E94432681E0B8
:101A600090E00E947F2561E08AE00E94432681E0A9
:101A700090E00E947F2561E08CE00E94432681E097
:101A800090E00E947F2560E08CE00E94432681E088
:101A900090E00E947F2510E160E0C0FF09C08CE06B
:101AA0000E94432681E090E00E947F2561E008C00B
:101AB0008CE00E94432681E090E00E947F2560E058
:101AC0008AE00E94432681E090E00E947F2561E049
:101AD0008CE00E94432681E090E00E947F2560E038
:101AE0008CE00E94432681E090E00E947F25D695FD
:101AF000C795115089F6C4E060E08CE00E9443264F
:101B000081E090E00E947F2560E08AE00E94432609
:101B100081E090E00E947F2561E08CE00E944326F6
:101B200081E090E00E947F2560E08CE00E944326E7
:101B300081E090E00E947F25C150F1F681E090E0C5
:101B40000E947F2561E08BE00E9443268AE090E0BE
:101B50000E947F2561E08BE00E94432660E08CE0DC
:101B60000E94432660E08AE0DF91CF911F910C94A0
:101B70004326823061F0833091F08130C1F480914E
:101B800063010E94770C0E94160C61E013C08091E3
:101B900063010E94770C0E94160C60E003C00E9453
:101BA000160C61E08EE00E94432661E007C00E94AF
:101BB000090C60E08EE00E94432660E08FE00C9408
:101BC00043260E94770C81E090E00E947F2561E02F
:101BD0008BE00E9443268AE090E00C947F25CF930F
:101BE00061E08BE00E940A2661E08AE00E940A26FA
:101BF00061E08CE00E940A2661E082E10E940A26F0
:101C000061E082E10E94432661E08EE00E940A26A4
:101C100061E08FE00E940A2660E08EE00E94432689
:101C200060E08FE00E94432660E082E00E940A2686
:101C300062E082E00E94432660E083E00E940A2680
:101C400062E083E00E94432660E084E00E940A266E
:101C500062E084E00E94432661E080E10E940A265F
:101C600061E081E10E940A2660E080E10E94432653
:101C700060E081E10E94432661E08DE00E940A2637
:101C800061E08DE00E94432661E089E00E940A261F
:101C900061E089E00E944326C6E061E08DE00E9499
:101CA00043268AE090E00E941D0960E08DE00E94DA
:101CB000432664E670E080E090E00E945725C15022
:101CC00061F70E94CE09809163010E94E10D0E949C
:101CD000DE0B80E693E00E945A090E94282560935B
:101CE0006501709366018093670190936801CF91BD
:101CF000089590913A01892F8F7092959F7028E0F6
:101D0000929F800D1124895008950E94790E8F5F53
:101D1000883209F480E0282F2695269526958F5F36
:101D200098E0299F800D11248F702F5F90E1299FEB
:101D300090011124822B0C94770C809137018F5FD6
:101D4000883218F48093370102C010923701E09175
:101D50003701F0E0EA5EFB4F8491282F30E0F3E09A
:101D600036952795FA95E1F78F5F98E0299F800DCA
:101D700011248F702F5F90E1299F90011124822BF5
:101D80000C94770CE82FEF7082958F7098E0899F04
:101D9000E00D1124E950E83208F0E0E0F0E0EE0F49
:101DA000FF1FEA58FC4F859194910895CF92DF92DE
:101DB000EF92FF92CF93DF93CFE0D0E0C12CD12CF4
:101DC000760184E10E94C425AA2797FDA095BA2F29
:101DD000C80ED91EEA1EFB1E219799F7C701B6014E
:101DE0002FE030E040E050E00E94BE29C901DF91C1
:101DF000CF91FF90EF90DF90CF9008950E94D60E84
:101E000020915F013091600182179307B0F06091DB
:101E10006101709162016817790790F0AC01421B73
:101E2000530BE4E6E49FC001E59F900D1124621B73
:101E3000730B0E949629CB01089580E090E00895ED
:101E400084E690E008954F925F926F927F92AF92F6
:101E5000BF92CF92DF92EF92FF920F931F93CF9397
:101E6000DF93E0914E01F0914F01EE30F10510F05B
:101E70000C94F217EC5CFF4F0C94FF298BE992E075
:101E80000E945A090E945F0B809164018F5F0E943B
:101E9000B90D80E591E00E943F1D81E090E00C9437
:101EA000EE170E947C0BC82F0E948C0B8C2B11F418
:101EB0000C94F2170C94EC170E945F0B80E00E94C8
:101EC000B90D60E080E591E00E946918CC24CA94C5
:101ED000D2E0ED2E0FE52FE740E060E080E591E0F5
:101EE0000E94DB1A6EE779E080E591E00E94491DCF
:101EF00023E932E042E163E280E591E00E94311E95
:101F00006EE374E080E591E00E94491D2CE732E029
:101F100048E26AE080E591E00E94311E6FE071E0E6
:101F200080E591E00E941B1E2CE632E042E360E275
:101F300080E591E00E94311EEE24E39404E52FE752
:101F400044E560E080E591E00E94151A23E632E066
:101F500047E56CE080E591E00E94311E47E562E3D1
:101F600080E591E00E94481E40E150E060913A0116
:101F700080E591E00E94DF1E6FE572E080E591E070
:101F80000E941D1E60913801709139014AE050E0B5
:101F900080E591E00E94E61E6CE572E080E591E04C
:101FA0000E941D1E0E9428256093430170934401E6
:101FB00080934501909346010E942825605F784DEB
:101FC0008F4F9F4F60934701709348018093490161
:101FD00090934A0183E090E00C94EE170E9428252C
:101FE000C1E0D0E040904701509048016090490125
:101FF00070904A01461657066806790610F0C0E050
:10200000D0E00E94BC0BC82BCD2B31F084E090E0D7
:1020100090934F0180934E010E94282540904301E8
:102020005090440160904501709046014616570655
:102030006806790608F0D6C70E94282566507F4FAB
:102040008F4F9F4F609343017093440180934501EC
:102050009093460147E564E680E591E00E94481EC2
:1020600066E572E080E591E00E941D1E47E564E6AA
:1020700080E591E00E94481E0E94FE0E4AE050E07A
:10208000BC0180E591E00E94E61E64E572E080E517
:1020900091E0DF91CF911F910F91FF90EF90DF9032
:1020A000CF90BF90AF907F906F905F904F900C94C7
:1020B0001D1E809163010E94770C0E945F0B80E0DF
:1020C0000E94B90D80E591E00E94451D60E080E529
:1020D00091E00E946918CC24CA94C2E0EC2E0FE56E
:1020E0002FE740E060E080E591E00E94DB1A6EE3BC
:1020F00074E080E591E00E94491D21E432E043E074
:1021000064E180E591E00E94311E0BE02FE74BE097
:1021100060E080E591E00E94151A6BE776E080E5CB
:1021200091E00E94491D2DE232E044E165E080E546
:1021300091E00E94311E2CE132E04EE165E080E545
:1021400091E00E94311E20E132E048E265E080E546
:1021500091E00E94311E25E032E042E365E080E537
:1021600091E00E94311E20E032E04CE365E080E522
:1021700091E00E94311E6EE374E080E591E00E94E0
:10218000491DEE24E39404E52FE744E560E080E593
:1021900091E00E94151A27EF31E047E56CE080E5F9
:1021A00091E00E94311E47E562E380E591E00E94E4
:1021B000481E40E150E060913A0180E591E00E94C4
:1021C000DF1E63EF71E080E591E00E941D1E6091CB
:1021D0003801709139014AE050E080E591E00E94B9
:1021E000E61E60EF71E080E591E00E941D1E65E053
:1021F00084E00E94210C0E94282560934301709383
:10220000440180934501909346010E942825605F18
:10221000784D8F4F9F4F6093470170934801809393
:10222000490190934A0185E090E0D8C60E94282594
:1022300040904701509048016090490170904A01D8
:10224000461657066806790620F410924F01109240
:102250004E010E9428254090430150904401609017
:102260004501709046014616570668067906A8F59E
:102270006EE374E080E591E00E94491D0E942825EC
:1022800066507F4F8F4F9F4F60934301709344017F
:10229000809345019093460147E564E680E591E02F
:1022A0000E94481E6AEE71E080E591E00E941D1ECA
:1022B00047E564E680E591E00E94481E0E94FE0E1C
:1022C0004AE050E0BC0180E591E00E94E61E68EE25
:1022D00071E080E591E00E941D1E0E949C0B882306
:1022E00081F00E942825605F784D8F4F9F4F60934B
:1022F0004701709348018093490190934A010E94DD
:102300003F0C0E946C0BC82F0E94AC0B8C2B09F465
:1023100069C684E190E00E941D0968EC70E080E0ED
:1023200090E00E94572584E190E00E941D090E94E0
:102330002825605F784D8F4F9F4F609347017093C2
:1023400048018093490190934A0180914D01813069
:1023500071F050F0823071F0843009F043C6109271
:102360004F0110924E013EC686E090E037C688E0ED
:1023700090E034C68BE090E031C60E945F0B80E5B0
:1023800091E00E94451D60E080E591E00E9469189F
:10239000CC24CA94B2E0EB2E0FE52FE740E060E0DA
:1023A00080E591E00E94DB1A6EE374E080E591E045
:1023B0000E94491D27ED31E043E064E180E591E0B2
:1023C0000E94311E0BE02FE74BE060E080E591E0DA
:1023D0000E94151A6BE776E080E591E00E94491DA6
:1023E0002AEC31E044E165E080E591E00E94311E95
:1023F0002DEB31E04EE165E080E591E00E94311E79
:1024000020EB31E048E265E080E591E00E94311E7A
:1024100021EA31E042E365E080E591E00E94311E6F
:102420002CE931E04CE365E080E591E00E94311E4B
:1024300080916401880F482F440F440F480F4C5E71
:102440002AE931E065E080E591E00E94311E65E017
:1024500084E00E94210C0E942825605F784D8F4FF8
:102460009F4F609347017093480180934901909377
:102470004A0187E090E0B2C50E94282540904701BC
:10248000509048016090490170904A0146165706E5
:102490006806790630F484E090E090934F018093D1
:1024A0004E010E949C0B882381F00E942825605FCA
:1024B000784D8F4F9F4F60934701709348018093F1
:1024C000490190934A010E943F0C0E946C0BC82F57
:1024D0000E94AC0B8C2B09F485C50E942825605FF7
:1024E000784D8F4F9F4F60934701709348018093C1
:1024F000490190934A0180914D01843009F46CC5E3
:10250000833009F480E0809364010E94940984E19F
:1025100090E00E941D0968EC70E080E090E00E946D
:10252000572584E190E00E941D0940E568E280E5BE
:1025300091E00E94481E60E971E080E591E00E9410
:102540001D1E6CED75E080E090E00E94572544C5AB
:102550000E945F0B80E591E00E94451D60E080E5F0
:1025600091E00E9469186BE776E080E591E00E94B7
:10257000491D20E831E04AE06AE080E591E00E94F0
:10258000311E6EE374E080E591E00E94491D20E772
:1025900031E049E16CE080E591E00E94311E2FE5D9
:1025A00031E043E26CE080E591E00E94311E2EE4D0
:1025B00031E042E36CE080E591E00E94311E2DE3C2
:1025C00031E04CE36CE080E591E00E94311E24E2B2
:1025D00031E04AE565E080E591E00E94311E80919E
:1025E00063010E94770C0E94282568577C4E8F4F0C
:1025F0009F4F6093470170934801809349019093E6
:102600004A0189E090E0EAC40E942825C1E0D0E0B8
:1026100040904701509048016090490170904A01F4
:10262000461657066806790610F0C0E0D0E00E9412
:10263000BC0BC82BCD2B09F4D5C48AE090E0909355
:102640004F0180934E0160E080E591E00E9469189F
:10265000CC24CA94EE24E39403E22FE740E060E048
:1026600080E591E00E94DB1A6EE374E080E591E082
:102670000E94491D2FE031E043E064E180E591E0F4
:102680000E94311E0BE02FE74BE060E080E591E017
:102690000E94151A6BE776E080E591E00E94491DE3
:1026A00025E031E04FE065E080E591E00E94311ED9
:1026B00020E031E049E165E080E591E00E94311ED3
:1026C00002E328E645E26BE080E591E00E94DB1A38
:1026D0006EE374E080E591E00E94491D4AE565E003
:1026E00080E591E00E94481EECE9F3E06591749169
:1026F0004AE050E080E591E00E941B1F4AE567E355
:1027000080E591E00E94481EECE8F3E06591749149
:102710004AE050E080E591E00E941B1F4AE569E62F
:1027200080E591E00E94481EE4EAF3E0659174912F
:102730004AE050E080E591E00E941B1F6BE776E0E5
:1027400080E591E00E94491D4FE06CE380E591E057
:102750000E94481E40E150E060913A0180E591E01E
:102760000E94DF1E64E171E080E591E00E941B1E83
:1027700080913A010E94C20E4AE050E0BC0180E51F
:1027800091E00E941B1F8FEF809329011092280176
:102790000E94282560933F0170934001809341017E
:1027A000909342010E942825609343017093440155
:1027B00080934501909346010E942825605C7346F2
:1027C0008F4F9F4F60934701709348018093490159
:1027D00090934A0107C40E942825409043015090DD
:1027E0004401609045017090460146165706680600
:1027F000790608F0F0C00E94282566507F4F8F4F61
:102800009F4F6093430170934401809345019093DF
:1028100046010E94FE0EEC01C12CEE24E39406E07A
:102820002BE449E16EE180E591E00E94DB1A2E0184
:10283000612C712C1F921F921F928BE48F93A12CFD
:10284000B12C650114E6E12EF12C00E010E020E04F
:1028500030E0A901C301B2010E943E29262FCC24F9
:10286000C394EE24E39406E049E16EE180E591E053
:102870000E94DB1A2CEF30E049E16CE680E591E044
:102880000E94311E49E16CE680E591E00E94481EFD
:102890004AE050E0BE0180E591E00E94E61E6091B2
:1028A00038017091390180E090E01F921F921F92D1
:1028B00024E62F93A12CB12C650119E3E12E17E139
:1028C000F12E00E010E02DE036E140E050E00E9403
:1028D0003E29D62FCDE0C60FE12C07E22C2F45E58F
:1028E0006C2F80E591E00E94151A1F921F921F9293
:1028F0001F92FEE2AF2EB12CC12CD12C14E6E12E9A
:10290000F12C00E010E020E030E0A901C301B201A9
:102910000E943E29695DEE24E394062F2C2F45E5A5
:102920006C2F80E591E00E94151A8DB79EB70C962A
:102930000FB6F8949EBF0FBE8DBF809129018D17F1
:1029400009F449C06BE776E080E591E00E94491DFB
:102950004FE06CE380E591E00E94481E40E150E0CA
:1029600060913A0180E591E00E94DF1E64E171E030
:1029700080E591E00E941B1E80913A010E94C20EE8
:102980004AE050E0BC0180E591E00E941B1F60918D
:1029900029016F3F81F0635F22E045E280E591E02D
:1029A0000E94ED1860912901635F22E047E580E510
:1029B00091E00E94ED1822E045E26C2F80E591E065
:1029C0000E94ED1822E047E56C2F80E591E00E941F
:1029D000ED18D0932901C0912801D0E00E9428254C
:1029E00021E030E040903F01509040016090410173
:1029F00070904201461657066806790610F020E0EE
:102A000030E0C223D323CD2B89F10E9428256858BA
:102A10007F4F8F4F9F4F60933F0170934001809392
:102A20004101909342010E94850E62E370E080E0D4
:102A300090E00E9457250E94FE0E8B349105B0F065
:102A40001092280164E170E080E090E00E94572538
:102A50008FE090E00E941D0964E170E080E090E06A
:102A60000E9457258FE090E00E941D090E949C0B58
:102A70008823B1F00E942825605C73468F4F9F4FDA
:102A800060934701709348018093490190934A01F4
:102A90000E94850E6AE070E080E090E00E94572579
:102AA0000E94AC0B882331F08091280191E08927A6
:102AB000809328010E946C0B882351F08091630160
:102AC0000E94770C84E090E090934F0180934E0138
:102AD0000E947C0B882361F184E190E00E941D0933
:102AE00068EC70E080E090E00E94572584E190E07F
:102AF0000E941D0980913A01809363010E9494090C
:102B00004DE268E280E591E00E94481E62EF70E0CD
:102B100080E591E00E941D1E6CED75E080E090E084
:102B20000E94572584E090E090934F0180934E01DE
:102B30000E9428254090470150904801609049012B
:102B400070904A01461657066806790608F04AC290
:102B500043C20E945F0B80E591E00E94451D60E04A
:102B600080E591E00E946918CC24CA9462E0E62EC8
:102B70000BE02FE740E060E080E591E00E94DB1A87
:102B80006EE374E080E591E00E94491D2DED30E098
:102B900043E064E180E591E00E94311EEE24E3947D
:102BA00006E428E64FE06BE080E591E00E94DB1A46
:102BB0006EE374E080E591E00E94491D49E565E01F
:102BC00080E591E00E94481EECE9F3E06591749184
:102BD0004AE050E080E591E00E941B1F49E567E371
:102BE00080E591E00E94481EECE8F3E06591749165
:102BF0004AE050E080E591E00E941B1F49E569E64C
:102C000080E591E00E94481EE4EAF3E0659174914A
:102C10004AE050E080E591E00E941B1F8091610135
:102C20009091620190933C0180933B0180915F0100
:102C30009091600190933E0180933D018FEF8093CE
:102C400029010E94282560933F01709340018093E1
:102C50004101909342010E942825605C73468F4F8A
:102C60009F4F60934701709348018093490190936F
:102C70004A018CE090E0B2C10E94282540903F01BB
:102C800050904001609041017090420146165706F5
:102C90006806790608F0A7C00E942825645C7F4F6B
:102CA0008F4F9F4F60933F0170934001809341018C
:102CB000909342010E949D0E68E270E080E090E0F7
:102CC0000E9457250E94FE0EEC0160913801709120
:102CD000390180E090E01F921F921F9224E62F930B
:102CE000A12CB12C650119E3E12E17E1F12E00E0D2
:102CF00010E02DE036E140E050E00E943E29662ED3
:102D00003DE0732E760EE12C01E1272D45E5672D80
:102D100080E591E00E94151ABE0180E090E01F92CC
:102D20001F921F921F9242E4A42EB12CC12CD12CD1
:102D300014E6E12EF12C00E010E020E030E0A901E3
:102D40000E943E296F5EEE24E394062F272D45E571
:102D5000672D80E591E00E94151A609129018DB7D9
:102D60009EB708960FB6F8949EBF0FBE8DBF66152E
:102D700011F16F3F81F0635F22E04FE080E591E069
:102D80000E94ED1860912901635F22E045E580E52E
:102D900091E00E94ED1822E04FE0672D80E591E080
:102DA0000E94ED1822E045E5672D80E591E00E9444
:102DB000ED18609229010E94D60E20913B013091BE
:102DC0003C018217930720F490933C0180933B01D0
:102DD00020913D0130913E012817390720F490934E
:102DE0003E0180933D010E947C0B882309F4DCC0E6
:102DF0000E945F0B80E591E00E94451D60E080E548
:102E000091E00E946918CC24CA94B2E0EB2E0BE04A
:102E10002FE740E060E080E591E00E94DB1A6EE37E
:102E200074E080E591E00E94491D2CEC30E043E025
:102E300064E180E591E00E94311E6BE776E080E579
:102E400091E00E94491D44E165E080E591E00E9427
:102E5000481E61EC70E080E591E00E941D1E6091CB
:102E60005F01709160014AE050E080E591E00E94CE
:102E70001B1F6DEB70E080E591E00E941D1E6091CC
:102E80006101709162014AE050E080E591E00E94AA
:102E90002F1F4EE165E080E591E00E94481E62EB45
:102EA00070E080E591E00E941D1E60913B017091F1
:102EB0003C014AE050E080E591E00E941B1F6EEA71
:102EC00070E080E591E00E941D1E60913D017091CF
:102ED0003E014AE050E080E591E00E942F1F42E36E
:102EE0006AE080E591E00E94481E6CE970E080E5B0
:102EF00091E00E941D1E4CE36AE080E591E00E9493
:102F0000481E6EE870E080E591E00E941D1E0E9460
:102F10002825605C73468F4F9F4F609347017093E5
:102F200048018093490190934A018DE090E038C0B8
:102F30000E947C0B8823C1F180913B0190913C0160
:102F40009093600180935F0180913D0190913E01DB
:102F500090936201809361010E94940984E190E062
:102F60000E941D0968EC70E080E090E00E94572507
:102F700084E190E00E941D0940E568E280E591E06F
:102F80000E94481E64E870E080E591E00E941D1EEA
:102F90006CED75E080E090E00E94572584E090E0C1
:102FA00090934F0180934E010E942825C1E0D0E00C
:102FB00040904701509048016090490170904A014B
:102FC000461657066806790610F0C0E0D0E00E9469
:102FD000BC0BC82BCD2B31F084E090E090934F01D7
:102FE00080934E01DF91CF911F910F91FF90EF9051
:102FF000DF90CF90BF90AF907F906F905F904F9099
:1030000008950F931F930E944F0A0E94230F0E945E
:10301000282500916501109166012091670130918A
:1030200068010617170728073907D8F40E942825D2
:103030006C507E4F8F4F9F4F609365017093660178
:1030400080936701909368018DE00E947926892B17
:1030500011F060E001C061E08DE01F910F910C94D0
:1030600043261F910F910895E0917B01982F96952B
:1030700096959695209180013091810187706E9F81
:10308000F0011124E90FF11DE20FF31F413051F45B
:1030900020E830E002C0359527958A95E2F78081D7
:1030A000822B15C041110AC02FE73FEF02C03595B2
:1030B00027958A95E2F78081822309C020E830E0D5
:1030C00002C0359527958A95E2F780818227808313
:1030D0000895FC016130F9F030F0623009F049C028
:1030E00080E090E031C01282138280E090E0309165
:1030F0007B0120917A01329F90011124821793075E
:103100004CF4E0918001F0918101E80FF91F1082E9
:103110000196EDCF08951282138280E090E04FEF88
:1031200030917B0120917A01329F90011124821706
:1031300093074CF4E0918001F0918101E80FF91FB1
:1031400040830196EDCF089530917B0120917A0163
:10315000329F90011124821793075CF4E091800163
:10316000F0918101E80FF91F2081209520830196BD
:10317000EBCF0895FF920F931F93CF93DF93EC0152
:10318000F62E022F842F887FD9F0142F16951695CE
:103190001695129FC00111240E941F2A99838883CB
:1031A000009781F01A821B829C01402F612F8F2D86
:1031B0000E94F12360E0CE010E94691880E003C004
:1031C00081E001C084E0DF91CF911F910F91FF90CA
:1031D000089520E640E80C94BA18862F642FE091F9
:1031E0007B01A82FB0E098E0E99FF0011124AE1711
:1031F000BF073CF490917A01491718F4422F0C94C0
:10320000341808950F931F93CF93DF93DC01FA01D5
:103210004217530749F4202F462F6E2FDF91CF918D
:103220001F910F910C94ED182417350720F4CA0153
:103230009927F9019C01EF01C770DD278FEF90E01E
:10324000AC0102C055954795CA95E2F7EA01142FE3
:1032500043E0F695E7954A95E1F740917B01469F5B
:10326000B0011124E60FF71FA9014770552702C0CE
:10327000959587954A95E2F7582F5095C901D3E067
:1032800096958795DA95E1F7860F971FE817F90766
:1032900019F41C2F152350E00130D9F49F012F5F42
:1032A0003F4FCD91DC911197CE0FDF1F4881412B0D
:1032B00048834FEFED91FC911197E20FF31F281710
:1032C000390720F440832F5F3F4FF4CF8081852B57
:1032D0003BC001111CC09F012F5F3F4FCD91DC917E
:1032E0001197CE0FDF1F1095488141234883ED9140
:1032F000FC911197E20FF31F2817390720F4108271
:103300002F5F3F4FF4CF5095808185231DC0023041
:10331000E1F49F012F5F3F4FCD91DC911197CE0FCC
:10332000DF1F488141274883ED91FC911197E20FFF
:10333000F31F2817390730F44081409540832F5FF1
:103340003F4FF2CF808185278083DF91CF911F91FE
:103350000F9108950F93CF93DF934217530731F4E2
:10336000202FDF91CF910F910C94ED182417350782
:1033700020F4FA01FF27A9019F01762F7770A0E8BA
:10338000B0E002C0B595A7957A95E2F77A2FC09183
:103390007B01C49FF001C59FF00D112466956695D1
:1033A0006695E60FF11D013091F424173507C8F139
:1033B000EC01A881B981AE0FBF1F6C91672B6C9394
:1033C00060917B01E60FF11D4F5F5F4FEECF011162
:1033D00014C07A2F70952417350718F1EC01A881D5
:1033E000B981AE0FBF1F6C9167236C9360917B0115
:1033F000E60FF11D4F5F5F4FEECF023091F42417BF
:10340000350778F0EC01A881B981AE0FBF1F6C9130
:1034100067276C9360917B01E60FF11D4F5F5F4F53
:10342000EECFDF91CF910F9108952F923F924F925F
:103430005F926F927F928F929F92AF92BF92CF9244
:10344000DF92EF92FF920F931F93CF93DF9300D001
:1034500000D0CDB7DEB7742F302F0E2D462F50E0A1
:103460005C834B83E0917B0158E0E59FF0011124E0
:103470004B815C81E417F5070CF486C040917A011A
:10348000471708F481C0422E512CE415F5050CF4C1
:103490007BC0431708F478C0621307C0232F30E0C5
:1034A000472F50E00E94AA196FC0731307C0920102
:1034B0004B815C81672F0E94021966C0261738F481
:1034C0008B819C81841995092C018FEF05C0EB81BC
:1034D000FC814E1A5F0A81E0A72EB12CC32ED12C9D
:1034E000371730F495012C193D0969019FEF03C08E
:1034F000CA18DB0891E04C145D043CF03C2D2D2DE6
:103500006201432E522E10E001C011E0440C551C04
:1035100042018C189D089601220F331F612C712CDB
:10352000292E332427FC3094E82EFF24E7FCF09466
:10353000C614D7044CF1402F6A2D8B8129833A831E
:103540000E94341829813A8197FC0DC0113039F45A
:103550004B815C814E0D5F1D5C834B8302C0A20CCE
:10356000B31C821A930A113019F4A20CB31C06C0C2
:103570008B819C818E0D9F1D9C838B83840C951C5D
:103580009FEF691A790AD4CF0F900F900F900F9088
:10359000DF91CF911F910F91FF90EF90DF90CF902F
:1035A000BF90AF909F908F907F906F905F904F9063
:1035B0003F902F9008954F925F926F927F928F92DB
:1035C0009F92AF92BF92CF92DF92EF92FF920F93B2
:1035D0001F93CF93DF93EC01F62E142F422E502E23
:1035E000DE2C8FEFC81230C0AF2CA40CED2C012FB5
:1035F0002A2D412F6F2DCE010E94151AB12EB50C28
:103600000B2D2F2D412F6F2DCE010E94151A2A2D23
:10361000412F6A2DCE010E94151A2A2D4B2D6F2D98
:10362000CE010E94151ADF91CF911F910F91FF904B
:10363000EF90DF90CF90BF90AF909F908F907F9052
:103640006F905F904F900895E42EA02EB12CA40EA1
:10365000B11C862E912C3401620E711C8E2D90E0CF
:103660008A159B050CF60C2D9301A4016E2DCE013D
:103670000E940219E394F2CF2F923F924F925F92F1
:103680006F927F928F929F92AF92BF92CF92DF9272
:10369000EF92FF920F931F93CF93DF93CDB7DEB7D7
:1036A00029970FB6F894DEBF0FBECDBFDC01962F71
:1036B000977058E0591BE11006C0F901E00FF11FA7
:1036C000E4900F5F1F4FC11006C0F901E00FF11F1A
:1036D000C4900F5F1F4F8E2D8770EE2DE695E695F7
:1036E000E695882321F0882483948E0E02C08E2EC6
:1036F00088E0669566956695E62EF12CFC82EB8255
:10370000692E712CB301680F711D798768876FEF7F
:1037100070E0088402C0759567950A94E2F7852FDA
:1037200090E09A83898391E0891202C0562E01C0ED
:10373000512C8FEF90E05C01052E01C0AA0C0A9479
:10374000EAF75A28462E688579856850710902C0C3
:10375000959587956A95E2F78D8360E070E0E42E99
:10376000F12CFF82EE82912C41E0841A91086C15B5
:1037700008F08CC0F0917B014E815F81460F571F8E
:10378000F49FC001F59F900D1124EB80FC808E0DFD
:103790009F1DED91FC911197E80FF91FD0804D2DE1
:1037A00045214083A8014F5F5F4FF801E20FF31FEF
:1037B000A490ED91FC911197E80FF91FEA2CF12CE0
:1037C000062C02C0F594E7940A94E2F7F080FE28F4
:1037D000F0821401240E351E7C01E01AF10AC701A3
:1037E000840F951F0D911C911197B12C4215530513
:1037F00008F5080F191FF801D080098001C0AA0C34
:103800000A94EAF7A082F901E40FF51FA490ED9164
:10381000FC911197E80FF91F8A2D90E0062C02C049
:10382000959587950A94E2F79081982B90834F5F46
:103830005F4FD5CFE885F985389744F4FC0131977F
:10384000E00FF11FD42010811D290CC0E885F985F7
:10385000389749F07801E80EF91EF7011081FD81D3
:103860001F23F70110830D911C911197080F191F49
:10387000098002C0AA0CBB1C0A94E2F7F8018081FF
:103880008A2980836F5F7F4F8A0171CF29960FB697
:10389000F894DEBF0FBECDBFDF91CF911F910F9186
:1038A000FF90EF90DF90CF90BF90AF909F908F9060
:1038B0007F906F905F904F903F902F900895DF9290
:1038C000EF92FF920F931F93CF93DF934130A9F1B3
:1038D000C0F0423009F44DC0433009F0C8C0562F43
:1038E0005770E52E66956695669570E071956195C1
:1038F0007109F12C02E010E088E090E0851B91094D
:1039000083C0809180019091810120917B01FC0115
:10391000629FE00DF11D112430917A01AC01329FBC
:10392000400D511D11249A01DC012E173F0708F4A8
:103930009EC080818D931192F8CF809180019091EB
:10394000810130917A0120917B01DC01329FA00D31
:10395000B11D1124FD01629FE019F1091124119696
:10396000E817F90708F483C020812E93108231975D
:10397000F7CF162F177066956695669570E0D0E0C4
:1039800028E030E0211B310980917A01D81708F036
:103990006EC080917B01E0918001F09181018D9F4B
:1039A000E00DF11D1124DF01A60FB71F90E0029773
:1039B0008E0F9F1F8A179B0790F0CC91012E01C09C
:1039C000CC0F0A94EAF71D924C9150E0022E02C0EF
:1039D000559547950A94E2F7C42BC193EBCF8C9190
:1039E000012E01C0880F0A94EAF71C928083DF5FE2
:1039F000CBCF2C9130E00E2C02C0359527950A9440
:103A0000E2F71C922083F39420917A01F21678F564
:103A1000E0917B014E2F50E09A0121503109EF9D3A
:103A2000200D311D1124E0918001F0918101E20F00
:103A3000F31F9801241B350B2E0F3F1FDF01A60F2C
:103A4000B71FA217B307A8F24C9150E00E2C02C08A
:103A5000559547950A94E2F71C92CE91082E01C025
:103A6000CC0F0A94EAF74C2B40833197EACFDF91D1
:103A7000CF911F910F91FF90EF90DF900895EFE6A7
:103A8000F0E080818E7F8083089581E080936F00D5
:103A90000895FC01758364830895CF92EF920F938C
:103AA0001F93CF93DF93FC01A481B581FD01329672
:103AB0003491ED012196FE01C490FD01E490FE01D8
:103AC0000491231B209F800111240D5F1F4F9D0136
:103AD0000E943C1BDF91CF911F910F91EF90CF90EF
:103AE0000895DC0113964C91139750E01496ED91D4
:103AF000FC9115973196649120917A0130E0261B54
:103B000031094217530724F0649140E00C945F1C84
:103B1000E4914E0F511DFC01438308950F931F93B1
:103B2000CF93DF931F92CDB7DEB78C01262F6A307B
:103B300031F1F8F4662309F466C0683069F5DC01F8
:103B40001496ED91FC911597E491DC0112966C911D
:103B5000129770E06E1B710912966C93129720E217
:103B600013964C910F90DF91CF911F910F910C9470
:103B70004D1D6D3071F06E3009F445C00DC0DC0193
:103B800012961C920F90DF91CF911F910F910C9480
:103B9000711DFC01128237C0D80112966C911297E8
:103BA00080917B011496ED91FC911597E491462F3D
:103BB00050E0B8E08B9FC00111248E1B9109F801E1
:103BC000481759076CF01282C80129830E94711DA1
:103BD0002981D80113964C91139712966C9101C0CC
:103BE0004381C8010E944D1DD8011496ED91FC91AE
:103BF0001597E491D80112968C911297F0E0E80F96
:103C0000F11D1296EC930F90DF91CF911F910F91C0
:103C100008950F931F93CF93DF938C01EB0169916C
:103C2000662321F0C8010E948E1DF9CFDF91CF914C
:103C30001F910F9108950C94091E0F931F93CF931A
:103C4000DF938C01EB01FE016491662329F021963C
:103C5000C8010E948E1DF7CFDF91CF911F910F9168
:103C600008950F931F93CF93DF93EC0189016A832B
:103C70004B83F8016491662331F00F5F1F4FCE0133
:103C80000E948E1DF6CFDF91CF911F910F91089565
:103C9000FC016283438308954F925F926F927F92FB
:103CA0008F929F92AF92BF92CF92DF92EF92FF924C
:103CB0000F931F93CF93DF93CDB7DEB7A0970FB6C7
:103CC000F894DEBF0FBECDBF5C0141155105610503
:103CD0007105C9F460E3A0960FB6F894DEBF0FBE7D
:103CE000CDBFDF91CF911F910F91FF90EF90DF90AB
:103CF000CF90BF90AF909F908F907F906F905F908C
:103D00004F900C948E1D8E010F5F1F4FC12CD12C34
:103D100076014801422E512C612C712C8FEFC81A6C
:103D2000D80AE80AF80ACB01BA01A30192010E945D
:103D3000BE29CA01F80161938F01A901BC01411597
:103D400051056105710551F7F1E0CF1AD108E1087D
:103D5000F108F401EC0DFD1D60816A3010F4605D26
:103D600001C0695CC5010E948E1D81E0C81AD1089E
:103D7000E108F108EFEFCE16DE06EE06FE0649F783
:103D8000A0960FB6F894DEBF0FBECDBFDF91CF91E6
:103D90001F910F91FF90EF90DF90CF90BF90AF9069
:103DA0009F908F907F906F905F904F900895211516
:103DB000310519F4642F0C948E1D0C944C1E9A013D
:103DC000462F50E060E070E00C94D71E9A01AB01E2
:103DD00060E070E00C94D71ECF92DF92EF92FF92DA
:103DE000CF93DF93EC016A017B0177FF0BC06DE29B
:103DF0000E948E1DF094E094D094C094C11CD11CFC
:103E0000E11CF11C2AE0B701A601CE01DF91CF91A0
:103E1000FF90EF90DF90CF900C944C1E2115310550
:103E200019F4642F0C948E1D2A30310511F40C9472
:103E3000EC1E0C944C1E9A01AB01662757FD609551
:103E4000762F0C940E1FCF93DF93EC016DE00E9450
:103E50008E1D6AE0CE01DF91CF910C948E1DCF9321
:103E6000DF93EC019A01AB01662757FD6095762F31
:103E70000E940E1FCE01DF91CF910C94231F089555
:103E800020917101309172018091770190E02817A3
:103E9000390779F4109283011092820180917D019B
:103EA00080937E0185EF9FE190936E0180936D0179
:103EB00016C020917101309172018091780190912A
:103EC00079012817390759F489E79FE190936E012A
:103ED00080936D01E0910A01F0910B0109958091A9
:103EE000710190917201019690937201809371011A
:103EF0000895209171013091720180917801909123
:103F00007901281739070CF44EC08CEA93E090939E
:103F10008900809388001092720110927101809143
:103F2000730190917401A0917501B0917601019691
:103F3000A11DB11D8093730190937401A09375012D
:103F4000B09376018091690190916A01A0916B0113
:103F5000B0916C01892B8A2B8B2B09F1809169011F
:103F600090916A01A0916B01B0916C01181619062D
:103F70001A061B0684F58091690190916A01A0914F
:103F80006B01B0916C010197A109B109809369019E
:103F900090936A01A0936B01B0936C011CC01092C6
:103FA000B1002B9818C0209171013091720180915D
:103FB0007F01992787FD90952817390761F48AE4D6
:103FC00090E0909389008093880080E49FE1909333
:103FD0006E0180936D018091710190917201019643
:103FE0009093720180937101089530918400209123
:103FF0007C012A50231B2350F0F72D5F19F02A95DE
:1040000011F001C00000E0916F01F091700109957D
:1040100080917E0140917D0181110FC040937E010E
:1040200020917B018091820190918301820F911DEB
:10403000909383018093820103C0815080937E011D
:1040400020917101309172012F5F3F4F6091770194
:1040500070917A01552747FD50954F5F5F4F749FD0
:10406000C001759F900D1124860F911D28173907E7
:1040700031F480E49FE190936E0180936D01809113
:104080007101909172010196909372018093710178
:1040900008950F93CF93DF93A0918001B091810198
:1040A000C0918201D091830180917B01AC0FBD1F33
:1040B0000BB10F7703C000FA07F90BB90D900000A0
:1040C00007FA07F90BB900000000000006FA07F92B
:1040D0000BB900000000000005FA07F90BB9000059
:1040E0000000000004FA07F90BB90000000000000E
:1040F00003FA07F90BB900000000000002FA07F903
:104100000BB900000000000001FA07F90BB98A950D
:1041100091F60000000000FA07F90BB90BB10F7718
:1041200007FB07F90BB9DF91CF910F9108950F931A
:10413000CF93DF93A0918001B0918101C091820162
:10414000D091830180917B01AC0FBD1F0BB10F7724
:1041500003C000FA07F90BB90D9007FA07F90BB97C
:104160000000000006FA07F90BB90000000005FA8C
:1041700007F90BB90000000004FA07F90BB90000B9
:10418000000003FA07F90BB90000000002FA07F972
:104190000BB900008A9501FA07F90BB9D1F60000B6
:1041A00000FA07F90BB90BB10F7707FB07F90BB949
:1041B000DF91CF910F9108950F93CF93DF93A0914B
:1041C0008001B0918101C0918201D09183018091E1
:1041D0007B01AC0FBD1F02C0000C0BB80D9000009E
:1041E0000BB800000000000C0BB800000000000C31
:1041F0000BB800000000000C0BB800000000000C21
:104200000BB800000000000C0BB80000000C8A95F1
:104210000BB811F70000000C0BB800000000000004
:104220005F98DF91CF910F9108950F93CF93DF9314
:10423000A0918001B0918101C0918201D091830150
:1042400080917B01AC0FBD1F8E3191F08D3151F00B
:104250008C3149F08B3141F08A3139F0893131F0BC
:10426000883129F01CC032C048C05EC074C08AC00A
:104270000D900BB80000000C0BB80000000C0BB840
:104280000000000C0BB80000000C0BB80000000C84
:104290000BB80000000C0BB80000000C0BB80D9020
:1042A0000BB80000000C0BB80000000C0BB80000AD
:1042B000000C0BB80000000C0BB80000000C0BB891
:1042C0000000000C0BB80000000C0BB80D900BB8F0
:1042D0000000000C0BB80000000C0BB80000000C34
:1042E0000BB80000000C0BB80000000C0BB800006D
:1042F000000C0BB80000000C0BB80D900BB80000C0
:10430000000C0BB80000000C0BB80000000C0BB840
:104310000000000C0BB80000000C0BB80000000CF3
:104320000BB80000000C0BB80D900BB80000000C8F
:104330000BB80000000C0BB80000000C0BB800001C
:10434000000C0BB80000000C0BB80000000C0BB800
:104350000000000C0BB80D900BB80000000C0BB85F
:104360000000000C0BB80000000C0BB80000000CA3
:104370000BB80000000C0BB80000000C0BB80000DC
:10438000000C0BB80D900BB80000000C0BB800002F
:10439000000C0BB80000000C0BB80000000C0BB8B0
:1043A0000000000C0BB80000000C0BB80000000C63
:1043B0000BB80D900BB80000000C0BB80000000CFF
:1043C0000BB80000000C0BB80000000C0BB800008C
:1043D000000C0BB80000000C0BB80000000C0BB870
:1043E0000D900BB80000000C0BB80000000C0BB8CF
:1043F0000000000C0BB80000000C0BB80000000C13
:104400000BB80000000C0BB80000000C0BB80D90AE
:104410000BB80000000C0BB80000000C0BB800003B
:10442000000C0BB80000000C0BB80000000C0BB81F
:104430000000000C0BB80000000C0BB80D900BB87E
:104440000000000C0BB80000000C0BB80000000CC2
:104450000BB80000000C0BB80000000C0BB80000FB
:10446000000C0BB80000000C0BB80D900BB800004E
:10447000000C0BB80000000C0BB80000000C0BB8CF
:104480000000000C0BB80000000C0BB80000000C82
:104490000BB80000000C0BB80D900BB80000000C1E
:1044A0000BB80000000C0BB80000000C0BB80000AB
:1044B000000C0BB80000000C0BB80000000C0BB88F
:1044C0000000000C0BB80D900BB80000000C0BB8EE
:1044D0000000000C0BB80000000C0BB80000000C32
:1044E0000BB80000000C0BB80000000C0BB800006B
:1044F000000C0BB80D900BB80000000C0BB80000BE
:10450000000C0BB80000000C0BB80000000C0BB83E
:104510000000000C0BB80000000C0BB80000000CF1
:104520000BB80D900BB80000000C0BB80000000C8D
:104530000BB80000000C0BB80000000C0BB800001A
:10454000000C0BB80000000C0BB80000000C0BB8FE
:104550000D900BB80000000C0BB80000000C0BB85D
:104560000000000C0BB80000000C0BB80000000CA1
:104570000BB80000000C0BB80000000C0BB80D903D
:104580000BB80000000C0BB80000000C0BB80000CA
:10459000000C0BB80000000C0BB80000000C0BB8AE
:1045A0000000000C0BB80000000C0BB80D900BB80D
:1045B0000000000C0BB80000000C0BB80000000C51
:1045C0000BB80000000C0BB80000000C0BB800008A
:1045D000000C0BB80000000C0BB80D900BB80000DD
:1045E000000C0BB80000000C0BB80000000C0BB85E
:1045F0000000000C0BB80000000C0BB80000000C11
:104600000BB80000000C0BB80D900BB80000000CAC
:104610000BB80000000C0BB80000000C0BB8000039
:10462000000C0BB80000000C0BB80000000C0BB81D
:104630000000000C0BB80D900BB80000000C0BB87C
:104640000000000C0BB80000000C0BB80000000CC0
:104650000BB80000000C0BB80000000C0BB80000F9
:10466000000C0BB80D900BB80000000C0BB800004C
:10467000000C0BB80000000C0BB80000000C0BB8CD
:104680000000000C0BB80000000C0BB80000000C80
:104690000BB80D900BB80000000C0BB80000000C1C
:1046A0000BB80000000C0BB80000000C0BB80000A9
:1046B000000C0BB80000000C0BB80000000C0BB88D
:1046C0000D900BB80000000C0BB80000000C0BB8EC
:1046D0000000000C0BB80000000C0BB80000000C30
:1046E0000BB80000000C0BB80000000C0BB80D90CC
:1046F0000BB80000000C0BB80000000C0BB8000059
:10470000000C0BB80000000C0BB80000000C0BB83C
:104710000000000C0BB80000000C0BB80D900BB89B
:104720000000000C0BB80000000C0BB80000000CDF
:104730000BB80000000C0BB80000000C0BB8000018
:10474000000C0BB80000000C0BB80D900BB800006B
:10475000000C0BB80000000C0BB80000000C0BB8EC
:104760000000000C0BB80000000C0BB80000000C9F
:104770000BB80000000C0BB80D900BB80000000C3B
:104780000BB80000000C0BB80000000C0BB80000C8
:10479000000C0BB80000000C0BB80000000C0BB8AC
:1047A0000000000C0BB80D900BB80000000C0BB80B
:1047B0000000000C0BB80000000C0BB80000000C4F
:1047C0000BB80000000C0BB80000000C0BB8000088
:1047D000000C0BB8000000005F98DF91CF910F91A3
:1047E0000895CF93DF93C82FE62F30938101209354
:1047F000800160937B0140937A01109273011092C3
:1048000074011092750110927601642F70E0882374
:1048100019F084E091E002C088ED90E00E94AA299E
:10482000615060937D01D0917D01D0937E0188E03D
:10483000E89F90011124442737FD4095542F60EEE6
:1048400072E080E090E00E94E029243091F018F4BA
:104850002330B9F011C0253049F0263069F489E4DD
:1048600090E29093700180936F0111C047E950E28C
:104870000AC04CED50E207C0273018F049E450E27E
:1048800002C045E151E25093700140936F01579A85
:10489000219A5F98299A239A82EC8093800089E17B
:1048A0008093810040917A012D2F332727FD309589
:1048B0002F5F3F4F429FC001439F900D1124CC2397
:1048C000C9F097FD019695958795919581959109E8
:1048D00084568093770187EC80937C0187E08093F6
:1048E0007F0188E391E090937901809378018FEFC5
:1048F00093E018C097FD01969595879591958195C0
:1049000091098557809377018FEB80937C0183E039
:1049100080937F0186E091E0909379018093780104
:1049200087EF93E090938700809386008AE490E07D
:10493000909389008093880080917801909179010B
:104940000196909372018093710189E79FE19093A2
:104950006E0180936D0181E080936F007894DF9108
:10496000CF9108951F920F920FB60F9211242F939B
:104970003F934F935F936F937F938F939F93AF93E7
:10498000BF93EF93FF93E0910C01F0910D01099516
:10499000E0916D01F0916E010995FF91EF91BF914A
:1049A000AF919F918F917F916F915F914F913F91C7
:1049B0002F910F900FBE0F901F9018951F920F927E
:1049C0000FB60F9211242F933F938F939F93AF9322
:1049D000BF938091850190918601A0918701B0914C
:1049E00088013091840123E0230F2D3720F40196B4
:1049F000A11DB11D05C026E8230F0296A11DB11D02
:104A0000209384018093850190938601A093870170
:104A1000B09388018091890190918A01A0918B01C6
:104A2000B0918C010196A11DB11D809389019093D5
:104A30008A01A0938B01B0938C01BF91AF919F919C
:104A40008F913F912F910F900FBE0F901F9018954F
:104A50002FB7F8946091850170918601809187014C
:104A6000909188012FBF08953FB7F89480918901F4
:104A700090918A01A0918B01B0918C0126B5A89BE1
:104A800005C02F3F19F00196A11DB11D3FBF66273C
:104A9000782F892F9A2F620F711D811D911D42E081
:104AA000660F771F881F991F4A95D1F70895CF92F7
:104AB000DF92EF92FF92CF93DF936B017C010E9414
:104AC0003425EB01C114D104E104F10489F00E9402
:104AD00085290E9434256C1B7D0B683E734090F342
:104AE00081E0C81AD108E108F108C851DC4FEACFCB
:104AF000DF91CF91FF90EF90DF90CF9008950197D5
:104B000039F0880F991F880F991F02970197F1F7C5
:104B10000895789484B5826084BD84B5816084BD35
:104B200085B5826085BD85B5816085BDEEE6F0E026
:104B3000808181608083E1E8F0E010828081826082
:104B40008083808181608083E0E8F0E08081816003
:104B50008083E1EBF0E0808184608083E0EBF0E033
:104B6000808181608083EAE7F0E0808184608083D7
:104B70008081826080838081816080838081806881
:104B800080831092C10008958E3008F08E50877097
:104B900020910E0190E4299F90011124822B809393
:104BA0007C0080917A00806480937A0080917A0002
:104BB00086FDFCCF809178002091790090E0922BC7
:104BC0000895833081F028F4813099F08230A1F08B
:104BD00008958730A9F08830B9F08430D1F48091FD
:104BE00080008F7D03C0809180008F77809380004C
:104BF000089584B58F7702C084B58F7D84BD0895F4
:104C00008091B0008F7703C08091B0008F7D80933A
:104C1000B0000895CF93DF9390E0FC01EB56FE4E79
:104C20002491FC01E755FE4E8491882349F190E0E0
:104C3000880F991FFC01EF52FE4EA591B491895344
:104C40009E4EFC01C591D4919FB7611108C0F894A4
:104C50008C91209582238C93888182230AC06230B4
:104C600051F4F8948C91322F309583238C93888162
:104C7000822B888304C0F8948C91822B8C939FBFE5
:104C8000DF91CF9108950F931F93CF93DF931F92DE
:104C9000CDB7DEB7282F30E0F901EF57FE4E8491F3
:104CA000F901EB56FE4E1491F901E755FE4E0491C1
:104CB0000023C9F0882321F069830E94E1256981DE
:104CC000E02FF0E0EE0FFF1FE953FE4EA591B491E7
:104CD0009FB7F8948C91611103C01095812301C096
:104CE000812B8C939FBF0F90DF91CF911F910F91DC
:104CF0000895CF93DF93282F30E0F901EF57FE4E50
:104D00008491F901EB56FE4ED491F901E755FE4E20
:104D1000C491CC2391F081110E94E125EC2FF0E0A9
:104D2000EE0FFF1FE354FE4EA591B4912C912D235D
:104D300081E090E021F480E002C080E090E0DF912B
:104D4000CF910895FC01818D228D90E0805C9F4F72
:104D5000821B91098F7399270895FC01918D828D93
:104D6000981731F0828DE80FF11D858D90E0089540
:104D70008FEF9FEF0895FC01918D828D981761F060
:104D8000828DDF01A80FB11D5D968C91928D9F5F82
:104D90009F73928F90E008958FEF9FEF08958FE3B8
:104DA00098E2892B49F080E090E0892B29F00E945D
:104DB0003F2881110C9400000895FC01848DDF01CF
:104DC000A80FB11DA35ABF4F2C91848D90E001967E
:104DD0008F739927848FA689B7892C93A089B1896D
:104DE0008C9180648C93938D848D981306C0028877
:104DF000F389E02D80818F7D80830895CF93DF93A9
:104E0000EC01888D8823C9F0EA89FB89808185FDC2
:104E100005C0A889B9898C9186FD0FC00FB607FC23
:104E2000F5CF808185FFF2CFA889B9898C9185FF64
:104E3000EDCFCE010E94DD26E7CFDF91CF9108951F
:104E4000CF92DF92FF920F931F93CF93DF931F9226
:104E5000CDB7DEB76C01DC015B969C915B975C96ED
:104E60008C915C97981307C05096ED91FC915197E7
:104E7000808185FD32C0F601038D10E00F5F1F4F6A
:104E80000F731127F02EF601848DF81211C00FB6A2
:104E900007FCF9CFD6015096ED91FC915197808196
:104EA00085FFF1CFC60169830E94DD266981EBCFC2
:104EB000838DE80FF11DE35AFF4F6083D6015B96A7
:104EC0000C935B975296ED91FC9153978081806291
:104ED000808381E058968C930DC0D6015696ED9153
:104EE000FC91579760835096ED91FC91519780818A
:104EF0008064808381E090E00F90DF91CF911F91DB
:104F00000F91FF90DF90CF900895BF92CF92DF92E4
:104F1000EF92FF92CF93DF93EC016A017B01B22EF7
:104F2000E889F98982E08083411581EE580761059F
:104F30007105A1F060E079E08DE390E0A7019601B2
:104F40000E94BE29215031094109510956954795C2
:104F500037952795211580E1380798F0E889F98978
:104F6000108260E874E88EE190E0A70196010E944B
:104F7000BE29215031094109510956954795379568
:104F80002795EC85FD853083EE85FF852083188E7F
:104F9000EC89FD89B082EA89FB8980818061808308
:104FA000EA89FB89808188608083EA89FB89808126
:104FB00080688083EA89FB8980818F7D8083DF918F
:104FC000CF91FF90EF90DF90CF90BF9008951F9208
:104FD0000F920FB60F9211242F938F939F93EF93FD
:104FE000FF93E0919D01F0919E018081E091A301EA
:104FF000F091A40182FD12C090818091A6018F5F83
:105000008F732091A701821751F0E091A601F0E083
:10501000E357FE4F958F8093A60101C08081FF91D9
:10502000EF919F918F912F910F900FBE0F901F9036
:1050300018951F920F920FB60F9211242F933F9342
:105040004F935F936F937F938F939F93AF93BF9390
:10505000EF93FF938DE891E00E94DD26FF91EF91A1
:10506000BF91AF919F918F917F916F915F914F9180
:105070003F912F910F900FBE0F901F9018958DE8C4
:1050800091E00E94A22621E0892B09F420E0822FE2
:1050900008951092900110928F0188EE93E0A0E0A5
:1050A000B0E08093910190939201A0939301B0930B
:1050B00094018CE191E090938E0180938D0185ECB9
:1050C00090E090939A018093990184EC90E0909302
:1050D0009C0180939B0180EC90E090939E018093D3
:1050E0009D0181EC90E09093A00180939F0182EC60
:1050F00090E09093A2018093A10186EC90E09093C0
:10510000A4018093A3011092A6011092A70110920E
:10511000A8011092A901089508950E9489250E946E
:105120008C280E94EF0DCFECD6E20E940118209748
:10513000E1F30E94CF26F9CFCF92DF92EF92FF9258
:105140000F931F93CF93DF936C017A01EB01E60E6F
:10515000F71E00E010E0CE15DF0561F06991D60181
:10516000ED91FC910190F081E02DC6010995080FA9
:10517000191FF1CFC801DF91CF911F910F91FF90BF
:10518000EF90DF90CF9008956115710581F0DB01FC
:105190000D900020E9F7AD0141505109461B570B16
:1051A000DC01ED91FC910280F381E02D099480E017
:1051B00090E00895EF92FF920F931F93CF93DF93A8
:1051C0008C01FB01C0E0D0E064917F018FEFE81A11
:1051D000F80A662361F0D801ED91FC910190F0810D
:1051E000E02DC8010995C80FD91FF701EDCFCE01F9
:1051F000DF91CF911F910F91FF90EF900895DC0107
:10520000ED91FC910190F081E02D09940F931F9393
:10521000CF93DF93EC016DE00E94FF288C016AE0E0
:10522000CE010E94FF28800F911FDF91CF911F9127
:105230000F9108950F931F93CF93DF93EC010E947A
:10524000DA288C01CE010E940629800F911FDF9180
:10525000CF911F910F9108950F931F93CF93DF93D9
:10526000EC010E94C4288C01CE010E940629800F07
:10527000911FDF91CF911F910F9108954F925F92EF
:105280006F927F92AF92BF92CF92DF92EF92FF9296
:105290000F931F93CF93DF93CDB7DEB729013A0168
:1052A000621B730B840B950B29893A894B895C89A6
:1052B0002A193B094C095D09298B3A8B4B8B5C8B76
:1052C0009B01AC0169897A898B899C890E94862916
:1052D000E418F50806091709A80197010E94E029BA
:1052E0002A0D3B1D4C1D5D1DCA01B901DF91CF91F7
:1052F0001F910F91FF90EF90DF90CF90BF90AF90F4
:105300007F906F905F904F9008950895DB018F9389
:105310009F930E94052ABF91AF91A29F800D911D7E
:10532000A39F900DB29F900D11240895AA1BBB1B43
:1053300051E107C0AA1FBB1FA617B70710F0A61B95
:10534000B70B881F991F5A95A9F780959095BC01B6
:10535000CD01089597FB072E16F4009407D077FD32
:1053600009D00E94962907FC05D03EF490958195BE
:105370009F4F0895709561957F4F0895A1E21A2E71
:10538000AA1BBB1BFD010DC0AA1FBB1FEE1FFF1FE9
:10539000A217B307E407F50720F0A21BB30BE40B39
:1053A000F50B661F771F881F991F1A9469F7609580
:1053B0007095809590959B01AC01BD01CF0108953A
:1053C000052E97FB1EF400940E94F72957FD07D085
:1053D0000E94BE2907FC03D04EF40C94F729509587
:1053E0004095309521953F4F4F4F5F4F08959095D1
:1053F0008095709561957F4F8F4F9F4F0895EE0F69
:10540000FF1F0590F491E02D09940E94102AA59F9A
:10541000900DB49F900DA49F800D911D11240895AF
:10542000A29FB001B39FC001A39F700D811D1124E5
:10543000911DB29F700D811D1124911D0895CF9370
:10544000DF938230910510F482E090E0E0912C022D
:10545000F0912D0220E030E0A0E0B0E0309739F18B
:105460004081518148175907B8F04817590771F41E
:1054700082819381109729F013969C938E931297B3
:105480002CC090932D0280932C0227C0211531054A
:1054900031F04217530718F0A901DB0101C0EF01F9
:1054A0009A01BD01DF010280F381E02DD7CF2115E4
:1054B0003105F9F0281B390B2430310580F48A813D
:1054C0009B816115710521F0FB019383828304C0E8
:1054D00090932D0280932C02FE01329644C0FE016F
:1054E000E20FF31F8193919322503109398328836E
:1054F0003AC020912A0230912B02232B41F42091B3
:1055000002013091030130932B0220932A02209153
:105510000001309101012115310541F42DB73EB74D
:105520004091040150910501241B350BE0912A02A2
:10553000F0912B02E217F307A0F42E1B3F0B281764
:10554000390778F0AC014E5F5F4F2417350748F0FC
:105550004E0F5F1F50932B0240932A028193919329
:1055600002C0E0E0F0E0CF01DF91CF910895CF934A
:10557000DF93009709F487C0FC01329713821282EF
:10558000C0912C02D0912D02209781F4208131818D
:10559000280F391F80912A0290912B0282179307BE
:1055A00079F5F0932B02E0932A026DC0DE0120E032
:1055B00030E0AE17BF0750F412964D915C911397EF
:1055C0009D014115510509F1DA01F3CFB383A2839F
:1055D00040815181840F951F8A179B0771F48D912B
:1055E0009C911197840F951F029691838083129648
:1055F0008D919C911397938382832115310529F412
:10560000F0932D02E0932C023EC0D9011396FC9337
:10561000EE9312974D915D91A40FB51FEA17FB070A
:1056200079F480819181840F951F0296D90111969A
:105630009C938E938281938113969C938E93129761
:10564000E0E0F0E08A819B81009719F0FE01EC0117
:10565000F9CFCE01029628813981820F931F2091C4
:105660002A0230912B022817390769F4309729F460
:1056700010922D0210922C0202C013821282D0933B
:105680002B02C0932A02DF91CF910895F999FECFA2
:1056900092BD81BDF89A992780B50895262FF99972
:1056A000FECF1FBA92BD81BD20BD0FB6F894FA9A05
:0C56B000F99A0FBE01960895F894FFCF00
:1056BC0000002E028000010000003F1F3F1F01313F
:1056CC002E306200202D20000000000020279C2896
:0856DC00A226BB26AD26FE2626
:00000001FF
