:100000000C941C090C9439090C9439090C94390985
:100010000C9439090C9439090C9439090C94390958
:100020000C9439090C9439090C9439090C94390948
:100030000C9439090C94FC130C9439090C9439096B
:100040000C9428140C9439090C9439090C9439092E
:100050000C9439090C9439090C9439090C94390918
:100060000C9439090C943909544553542053435284
:1000700045454E00544553542053435245454E0088
:10008000544553542053435245454E005445535410
:100090002053435245454E00040620000000000056
:1000A00000404040004000A0A000000000A0E0A0F0
:1000B000E0A0004060C060C000A0204080A0002000
:1000C00040C0A0E0008080000000004080808040B0
:1000D0000080404040800040A0400000000040E020
:1000E0004000000000008080000000E000000000F0
:1000F0000000008000202040808000E0A0A0A0E060
:100100000040C04040E000E020E080E000E020E06F
:1001100020E000A0A0E0202000E080E020C000C09F
:1001200080E0A0E000E02040808000E0A0E0A0E0CF
:1001300000E0A0E02060000040004000000040001F
:1001400040800020408040200000E000E00000806F
:100150004020408000C02040004000E0A0A0E0E03F
:1001600000E0A0E0A0A000C0A0E0A0C000E080806F
:1001700080E000C0A0A0A0C000E080E080E000E03F
:1001800080E0808000E08080A0E000A0A0E0A0A04F
:1001900000E0404040E000202020A0E00080A0C01F
:1001A000C0A00080808080E000A0E0E0A0A000C0AF
:1001B000A0A0A0A00040A0A0A04000E0A0E08080FF
:1001C0000040A0A0E06600E0A0C0E0AA00E080E05F
:1001D00020E000E04040404000A0A0A0A0E000A03F
:1001E000A0A0A04000A0A0E0E0A200A0A040A0A08D
:1001F00000A0A040404000E0204080E000C080809F
:1002000080C000008040202000C0404040C000402E
:10021000A00000000000000000E00080400000009E
:10022000000060A0A060008080C0A0C000006080CE
:10023000806000202060A0600040A0E0806000603E
:1002400040E040400060A06020C0008080C0A0A0CE
:100250000040004040400040004040C0008080A07E
:10026000C0A000C0404040E00000A0E0A0A000000E
:10027000C0A0A0A0000040A0A0400000C0A0C0807E
:10028000000060A060200000C0A0808000006040EE
:1002900020600040E04040400000A0A0A0600000BE
:1002A000A0A0A0400000A0A0E0A00000A04040A0AE
:1002B0000000A0E020400000E04080E0002040C0BE
:1002C00040220040400040400080406040800000EC
:1002D000A040000000060820000000000000000010
:1002E000404040404000400050505000000000009E
:1002F000000050F850F850002070A07028702000C6
:1003000000C8D0205898000020508040A890680075
:1003100040404000000000001020404040201000FD
:100320004020101010204000103810000000000085
:10033000002020F820200000000000000010100025
:10034000000000F8000000000000000000100000A5
:1003500000081020408000007088A8A88870000065
:1003600020602020207000007088102040F80000DD
:10037000F810201088700000909090F81010000085
:10038000F880F008887000007080F08888700000A5
:10039000F808102040800000708870888870000085
:1003A000708888780870000000002000002000009D
:1003B000000020002020400000186080601800002D
:1003C000000078007800000000C0300830C0000055
:1003D0006090202000200000708898A8908870000D
:1003E000205088F888880000F088F08888F00000A5
:1003F0007088808088700000F088888888F000000D
:10040000F880F88080F80000F880F080808000009C
:1004100070888098887000008888F8888888000034
:100420007020202020700000381010109060000014
:100430008890E0A0908800008080808080F8000094
:1004400088D8A8A8888800008888C8A8988800004C
:100450007088888888700000F088F08080800000B4
:10046000708888A890680000F088F0A0908800004C
:100470007880700808F00000F8202020202000007C
:1004800088888888887000008888888850200000C4
:100490008888A8A8A85000008850205088880000AC
:1004A0008888502020200000F808102040F8000024
:1004B000E080808080E00000008040201008000084
:1004C000380808080838000020500000000000002C
:1004D000000000000000F800804000000000000064
:1004E00000601070906000008080E09090E000005C
:1004F00000007080807000001010709090700000FC
:10050000006090F0807000003040E040404000000B
:1005100000609070101060008080E090909000006B
:10052000200020202070000010003010101060000B
:100530008090A0C0A09000006020202020700000CB
:10054000000050A8A8A800000000F08888880000DB
:10055000000060909060000000006090F0808000DB
:1005600000006090F01010000000B0484040000013
:1005700000304020106000004040E040404000005B
:1005800000009090906000000000888850200000DB
:10059000000088A8A8500000008850205088000063
:1005A00000009090604080000000F02040F00000CB
:1005B000204040804040200020202020202020009B
:1005C000201010081010200040A8100000000000AB
:1005D000000000000000000008080000000000000B
:1005E000000000003E41554155493E003E7F6B7F73
:1005F0006B773E0022777F7F3E1C0800081C3E7F01
:100600003E1C0800081C2A7F2A081C00081C3E7F8C
:100610003E081C00001C3E3E3E1C00FFFFE3C1C123
:10062000C1E3FF00001C2222221C00FFFFE3DDDDEE
:10063000DDE3FF000F03053948483000083E081C81
:1006400022221C0018141010307060000F191113B2
:1006500037766000082A1C771C2A080060787E7FA5
:100660007E786000030F3F7F3F0F0300081C2A08BD
:100670002A1C080066666666006666003F65653D82
:10068000050505000C324824124C30000000000023
:100690007F7F7F00081C2A082A1C3E00081C3E7F22
:1006A0001C1C1C001C1C1C7F3E1C0800080C7E7FB0
:1006B0007E0C080008183F7F3F180800000070708B
:1006C000707F7F000014227F22140000081C1C3E53
:1006D0003E7F7F007F7F3E3E1C1C08000000000024
:1006E00000000000183C3C181800180036361400B2
:1006F0000000000036367F367F363600081E201C8C
:10070000023C080060660C18306606003C663C2817
:1007100065663F0018181830000000006030181897
:1007200018306000060C1818180C060000361C7FE4
:100730001C3600000008083E0808000000000030D9
:10074000303060000000003C0000000000000000AD
:100750000060600000060C18306000003C666E7699
:1007600066663C001818381818187E003C66060C9F
:1007700030607E003C66061C06663C000C1C2C4C5F
:100780007E0C0C007E607C0606663C003C66607C4D
:1007900066663C007E660C0C181818003C66663CC9
:1007A00066663C003C66663E06663C000018180023
:1007B000181800000018180018183000060C18301F
:1007C000180C060000003C003C0000006030180CD3
:1007D000183060003C66061C1800180038445C584D
:1007E000423C00003C66667E666666007C66667C0F
:1007F00066667C003C66606060663C007C6666669F
:1008000066667C007E60607C60607E007E60607CEE
:10081000606060003C6660606E663C006666667E96
:10082000666666003C18181818183C001E0C0C0C64
:100830006C6C3800666C7870786C66006060606024
:1008400060607E0063777F6B6363630063737B6FBD
:10085000676363003C66666666663C007C66666647
:100860007C6060003C6666666E3C06007C66667C6A
:10087000786C66003C66603C06663C007E5A181840
:10088000181818006666666666663E0066666666E6
:10089000663C18006363636B7F7763006363361C99
:1008A000366363006666663C181818007E060C18EE
:1008B00030607E001E18181818181E0000603018CE
:1008C0000C0600007818181818187800081422412F
:1008D000000000000000000000007F000C0C06007B
:1008E0000000000000003C063E663E006060607C48
:1008F00066667C0000003C6660663C000606063EBC
:1009000066663E0000003C667E603C001C3630306F
:100910007C303000003E66663E063C006060607CD5
:10092000666666000018001818183C000C000C0CD5
:100930006C6C38006060666C786C6600181818186B
:1009400018181800000063777F6B6B0000007C7E36
:100950006666660000003C6666663C00007C666673
:100960007C606000003C6C6C3C0D0F0000007C66FD
:100970006660600000003E403C027C000018187E6B
:10098000181818000000666666663E0000000066E3
:10099000663C18000000636B6B6B3E000000663C19
:1009A000183C6600000066663E063C0000003C0CF9
:1009B00018303C000E18183018180E0018181800BF
:1009C000181818007018180C1818700000003A6CED
:1009D00000000000081C366341417F080800000049
:1009E0000000000000007E81A581BD99817E7EFF10
:1009F000DBFFC3E7FF7E6CFEFEFE7C381000103884
:100A00007CFE7C381000387C38FEFED6103810385A
:100A10007CFEFE7C10380000183C3C180000FFFFF4
:100A2000E7C3C3E7FFFF003C664242663C00FFC3EA
:100A300099BDBD99C3FF0F070F7DCCCCCC783C6628
:100A400066663C187E183F333F303070F0E07F63BD
:100A50007F636367E6C018DB3CE7E73CDB1880E0B8
:100A6000F8FEF8E08000020E3EFE3E0E0200183C4A
:100A70007E18187E3C1866666666660066007FDB38
:100A8000DB7B1B1B1B003E613C66663C867C0000DA
:100A900000007E7E7E00183C7E187E3C18FF183CCD
:100AA0007E1818181800181818187E3C180000181E
:100AB0000CFE0C180000003060FE603000000000EA
:100AC000C0C0C0FE0000002466FF662400000018BD
:100AD0003C7EFFFF000000FFFF7E3C18000000008E
:100AE000000000000000183C3C1818001800666662
:100AF0002400000000006C6CFE6CFE6C6C00183E64
:100B0000603C067C180000C6CC183066C600386C05
:100B10003876DCCC760018183000000000000C1885
:100B2000303030180C0030180C0C0C1830000066F7
:100B30003CFF3C6600000018187E181800000000FA
:100B40000000001818300000007E000000000000C7
:100B5000000000181800060C183060C080007CC629
:100B6000CED6E6C67C001838181818187E007CC649
:100B7000061C3066FE007CC6063C06C67C001C3C9B
:100B80006CCCFE0C1E00FEC0C0FC06C67C003860AB
:100B9000C0FCC6C67C00FEC60C18303030007CC6D7
:100BA000C67CC6C67C007CC6C67E060C78000018D3
:100BB0001800001818000018180000181830060C4B
:100BC0001830180C060000007E00007E0000603027
:100BD000180C183060007CC60C18180018007CC671
:100BE000DEDEDEC07800386CC6FEC6C6C600FC6617
:100BF000667C6666FC003C66C0C0C0663C00F86C63
:100C00006666666CF800FE6268786862FE00FE62E6
:100C100068786860F0003C66C0C0CE663A00C6C620
:100C2000C6FEC6C6C6003C18181818183C001E0C94
:100C30000C0CCCCC7800E6666C786C66E600F06054
:100C400060606266FE00C6EEFEFED6C6C600C6E660
:100C5000F6DECEC6C6007CC6C6C6C6C67C00FC662E
:100C6000667C6060F0007CC6C6C6C6CE7C0EFC66A4
:100C7000667C6C66E6007CC660380CC67C007E7EB6
:100C80005A1818183C00C6C6C6C6C6C67C00C6C6DA
:100C9000C6C6C66C3800C6C6C6D6D6FE6C00C6C66A
:100CA0006C386CC6C6006666663C18183C00FEC60A
:100CB0008C183266FE003C30303030303C00C06072
:100CC00030180C0602003C0C0C0C0C0C3C001038CC
:100CD0006CC60000000000000000000000FF30189B
:100CE0000C00000000000000780C7CCC7600E06076
:100CF0007C666666DC0000007CC6C0C67C001C0CFE
:100D00007CCCCCCC760000007CC6FEC07C003C666F
:100D100060F86060F000000076CCCC7C0CF8E060FD
:100D20006C766666E6001800381818183C00060055
:100D300006060666663CE060666C786CE60038186D
:100D4000181818183C000000ECFED6D6D60000009B
:100D5000DC666666660000007CC6C6C67C000000D5
:100D6000DC66667C60F0000076CCCC7C0C1E00005B
:100D7000DC766060F00000007EC07C06FC00303055
:100D8000FC3030361C000000CCCCCCCC760000000F
:100D9000C6C6C66C38000000C6D6D6FE6C00000081
:100DA000C66C386CC6000000C6C6C67E06FC0000D5
:100DB0007E4C18327E000E18187018180E00181885
:100DC0001818181818007018180E1818700076DC0B
:100DD0000000000000000010386CC6C6FE0060F085
:100DE000607C6666660CFC607C6666666C001C1047
:100DF000007E606060003820FEC0C0C0C0006C0093
:100E00007CC6FEC07C006CFE62786062FE00000062
:100E10007CC6F0C67C003C66C0F8C0663C000000A2
:100E20007EC07C06FC007CC660380CC67C003000AE
:100E30003030303078007830303030307800CC00CE
:100E4000303030307800663C181818183C00180014
:100E50001818181818701E0C0C0C0CCC7800000018
:100E600070505C52DC0070505C525252DC0000004A
:100E7000A0A0FCA2BC00A0A0A0FCA2A2BC0060F0AC
:100E8000607C66666600F8607C66666666001C10BC
:100E9000C6D8F8CCC60018D6CCF8F8CCC6006C384A
:100EA000C6C6C67E067C38C6C67E06C67C00000066
:100EB000C6C6C6C6FE10C6C6C6C6C6C6FE1000005A
:100EC000DCD6F6D6DC00DCD6D6F6D6D6DC000000C2
:100ED000F0B03C363C00F0F0B03C36363C00000050
:100EE000780C7CCC76003E66C6C6FEC6C600067C84
:100EF000C07CC6C67C00FE66607C6666FC000000A6
:100F0000CCCCCCCCFE06CCCCCCCCCCCCFE060000E1
:100F10003C6C6C6CFEC61E3666666666FFC30000DF
:100F20007CC6FEC07C00FE6268786862FE0000003D
:100F30007CD6D67C10387CD6D6D67C103800000003
:100F4000FE666060F000FE6660606060F000003386
:100F500066CC6633000000CC663366CC0000228885
:100F600022882288228855AA55AA55AA55AADB7735
:100F7000DBEEDB77DBEE181818181818181818189D
:100F80001818F81818180000C66C386CC600C6C6C9
:100F90006C386CC6C6000000C6CEDEF6E600C6C6DB
:100FA000CEDEF6E6C6003636F606F6363636363687
:100FB0003636363636360000FE06F63636363636E5
:100FC000F606FE0000000038C6CEDEF6E60038C6A3
:100FD000CEDEF6E6C60000000000F8181818181853
:100FE00018181F00000018181818FF000000000053
:100FF0000000FF181818181818181F1818180000E3
:101000000000FF00000018181818FF18181800003A
:10101000E66C786CE600E66C78786C66E60036364E
:1010200037303F00000000003F3037363636363666
:10103000F700FF0000000000FF00F73636363636B6
:101040003730373636360000FF00FF0000003636F6
:10105000F700F736363600C67CC6C67CC6000000F0
:101060003E666666E6001E3666666666C600000078
:10107000C6FEFED6C600C6EEFEFED6C6C600000000
:10108000C6C6FEC6C600C6C6C6FEC6C6C6000000A8
:101090007CC6C6C67C007CC6C6C6C6C67C00000030
:1010A000FEC6C6C6C60018181818F80000000000D2
:1010B00000001F181818FFFFFFFFFFFFFFFF0000D1
:1010C0000000FFFFFFFFFEC6C6C6C6C6C600000082
:1010D0007EC67E66C600FFFFFFFF000000007EC6E2
:1010E000C6C67E66C6000000FC66667C60F0FC66D4
:1010F00066667C60F00000007CC6C0C67C007CC6D2
:10110000C0C0C0C67C0000007E5A18183C007E5A41
:10111000181818183C000000C6C6C67E067CC6C655
:10112000C67E06C67C000000D67C387CD600D6D6AB
:101130007C387CD6D6000000FC667C66FC00FC6631
:10114000667C6666FC000000F0607C66FC00F06077
:10115000607C66667C008FCDEFFCDCCCCC000000B0
:10116000007C7C0000000000C6C6F6DEF600C6C6A5
:10117000C6F6DEDEF60000007CC61CC67C007CC61F
:10118000063C06C67C000000D6D6D6D6FE00D6D6D3
:10119000D6D6D6D6FE0000007CC61EC67C00788C53
:1011A000063E068C78000000D6D6D6D6FF03D6D6EB
:1011B000D6D6D6D6FF030000C6C67E060600C6C633
:1011C000C67E060606003E613C66663C867C0000E4
:1011D0003C3C3C3C0000000000000000000000001F
:1011E00000080002010000030407000000000000E6
:1011F00000000102040810204080010204081020B1
:10120000010204081020040404040404040402027B
:101210000202020203030303030300000000230091
:101220002600290000000000250028002B000000F7
:101230000000240027002A0011241FBECFEFD8E0B1
:10124000DEBFCDBF11E0A0E0B1E0E4EEFEE202C0FF
:1012500005900D92AA30B107D9F721E0AAE0B1E0DC
:1012600001C01D92AE33B207E1F70E94D0150C9475
:1012700070170C940000CF92DF92EF92FF92CF9301
:10128000DF93EC010E9472146B017C01CC0EDD1E19
:10129000E11CF11C0E9472146C157D058E059F05E2
:1012A000C8F461E080E10E94701560E081E10E9475
:1012B000701584E690E00E94C91460E080E10E940D
:1012C000701561E081E10E94701584E690E00E9453
:1012D000C914E0CF60E080E10E94701560E081E118
:1012E000DF91CF91FF90EF90DF90CF900C9470152D
:1012F0000F931F9382E00E94A615892B29F58091F8
:101300000B01811102C061E001C060E08EE00E942B
:10131000701580910B0191E0892780930B018AE081
:1013200090E00E943B0964E670E080E090E00E945B
:10133000A11482E00E94A615892BD9F364E670E01F
:1013400080E090E00E94A11484E00E94A615892B01
:1013500041F580910A01811105C080E191E00E9470
:10136000A80D04C080E191E00E94AE0D80910A01B9
:1013700091E0892780930A018AE090E00E943B096E
:1013800064E670E080E090E00E94A11484E00E9496
:10139000A615892BD9F364E670E080E090E00E9406
:1013A000A1140E94721400910C0110910D01209162
:1013B0000E0130910F010617170728073907D8F4D7
:1013C0000E9472146C507E4F8F4F9F4F60930C01A0
:1013D00070930D0180930E0190930F018DE00E9498
:1013E000A615892B11F060E001C061E08DE01F912E
:1013F0000F910C9470151F910F91089561E080E199
:1014000091E00E94610B1816ACF461E08DE00E943F
:1014100070156CE271E080E090E00E94A11460E041
:101420008DE00E9470156CE271E080E090E00E9417
:10143000A114EBCF6AEF80E191E00E948D0B69E28D
:1014400080E191E00C949B0BCF9361E08BE00E94D4
:10145000371561E08AE00E94371561E08CE00E9458
:10146000371561E082E10E94371561E082E10E9458
:10147000701561E08EE00E94371561E08FE00E94F8
:10148000371560E08EE00E94701560E08FE00E94EA
:10149000701560E082E00E94371562E082E00E94F1
:1014A000701560E083E00E94371562E083E00E94DF
:1014B000701560E084E00E94371562E084E00E94CD
:1014C000701561E080E10E94371561E081E10E94C2
:1014D000371560E080E10E94701560E081E10E94B4
:1014E000701561E08DE00E94371561E08DE00E948B
:1014F000701561E089E00E94371561E089E00E9483
:101500007015C6E061E08DE00E9470158AE090E001
:101510000E943B0960E08DE00E94701564E670E077
:1015200080E090E00E94A114C15061F70E94FE0982
:1015300060E080E191E00E94E10A68E970E080E10A
:1015400091E00E94B20D2CE830E040E060E080E1E4
:1015500091E00E94720E65ED72E080E191E00E94E0
:10156000B20D20E830E04AE060E080E191E00E94C6
:10157000720E68ED75E080E191E00E94B20D24E703
:1015800030E044E160E080E191E00E94720E6BED9A
:1015900079E080E191E00E94B20D28E630E04EE172
:1015A00060E080E191E00E94720E0E9472146093EC
:1015B0000C0170930D0180930E0190930F01CF9158
:1015C0000895FC016130F9F030F0623009F049C053
:1015D00080E090E031C01282138280E090E0309190
:1015E000280120912701329F90011124821793072F
:1015F0004CF4E0912D01F0912E01E80FF91F1082BB
:101600000196EDCF08951282138280E090E04FEFB3
:101610003091280120912701329F900111248217D7
:1016200093074CF4E0912D01F0912E01E80FF91F82
:1016300040830196EDCF0895309128012091270134
:10164000329F90011124821793075CF4E0912D01E1
:10165000F0912E01E80FF91F20812095208301963B
:10166000EBCF0895FF920F931F93CF93DF93EC017D
:10167000F62E022F842F887FD9F0142F16951695F9
:101680001695129FC00111240E94491699838883E0
:10169000009781F01A821B829C01402F612F8F2DB1
:1016A0000E943B1360E0CE010E94E10A80E003C08B
:1016B00081E001C084E0DF91CF911F910F91FF90F5
:1016C000089520E640E80C94320B4091240150919B
:1016D000270120912A01332727FD30952F5F3F4FA7
:1016E000529FC001539F900D1124840F911D0196AC
:1016F0006115710589F020911E0130911F01281795
:101700003907C9F720911E0130911F0128173907A9
:10171000C9F361507109ECCF0895CF93C62F61E0F2
:1017200070E00E94650B6C2F6295607F6150609342
:101730002901CF910895CF93C62F61E070E00E94F8
:10174000650BC0932401CF9108952F923F924F9241
:101750005F926F927F928F929F92AF92BF92CF9241
:10176000DF92EF92FF920F931F93CF93DF93CDB74A
:10177000DEB729970FB6F894DEBF0FBECDBFDC01F0
:10178000962F977058E0591BE11006C0F901E00F41
:10179000F11FE4900F5F1F4FC11006C0F901E00F69
:1017A000F11FC4900F5F1F4F8E2D8770EE2DE695B1
:1017B000E695E695882321F0882483948E0E02C056
:1017C0008E2E88E0669566956695E62EF12CFC8255
:1017D000EB82692E712CB301680F711D79876887C0
:1017E0006FEF70E0088402C0759567950A94E2F780
:1017F000852F90E09A83898391E0891202C0562E4A
:1018000001C0512C8FEF90E05C01052E01C0AA0CA5
:101810000A94EAF75A28462E688579856850710936
:1018200002C0959587956A95E2F78D8360E070E038
:10183000E42EF12CFF82EE82912C41E0841A910873
:101840006C1508F08CC0F09128014E815F81460F25
:10185000571FF49FC001F59F900D1124EB80FC8071
:101860008E0D9F1DED91FC911197E80FF91FD0800F
:101870004D2D45214083A8014F5F5F4FF801E20FD6
:10188000F31FA490ED91FC911197E80FF91FEA2C3A
:10189000F12C062C02C0F594E7940A94E2F7F0804C
:1018A000FE28F0821401240E351E7C01E01AF10A94
:1018B000C701840F951F0D911C911197B12C4215F2
:1018C000530508F5080F191FF801D080098001C0E1
:1018D000AA0C0A94EAF7A082F901E40FF51FA4907C
:1018E000ED91FC911197E80FF91F8A2D90E0062CDD
:1018F00002C0959587950A94E2F79081982B908382
:101900004F5F5F4FD5CFE885F985389744F4FC01E8
:101910003197E00FF11FD42010811D290CC0E885FC
:10192000F985389749F07801E80EF91EF701108122
:10193000FD811F23F70110830D911C911197080F52
:10194000191F098002C0AA0CBB1C0A94E2F7F80117
:1019500080818A2980836F5F7F4F8A0171CF2996AA
:101960000FB6F894DEBF0FBECDBFDF91CF911F91B0
:101970000F91FF90EF90DF90CF90BF90AF909F902E
:101980008F907F906F905F904F903F902F90089531
:10199000DF92EF92FF920F931F93CF93DF9341302B
:1019A000A9F1C0F0423009F44DC0433009F0C8C07D
:1019B000562F5770E52E66956695669570E0719581
:1019C00061957109F12C02E010E088E090E0851B40
:1019D000910983C080912D0190912E0120912801C1
:1019E000FC01629FE00DF11D112430912701AC0133
:1019F000329F400D511D11249A01DC012E173F0723
:101A000008F49EC080818D931192F8CF80912D01B2
:101A100090912E013091270120912801DC01329F05
:101A2000A00DB11D1124FD01629FE019F1091124DF
:101A30001196E817F90708F483C020812E931082CD
:101A40003197F7CF162F177066956695669570E0FB
:101A5000D0E028E030E0211B310980912701D81720
:101A600008F06EC080912801E0912D01F0912E01C7
:101A70008D9FE00DF11D1124DF01A60FB71F90E02F
:101A800002978E0F9F1F8A179B0790F0CC91012E13
:101A900001C0CC0F0A94EAF71D924C9150E0022E3F
:101AA00002C0559547950A94E2F7C42BC193EBCF3A
:101AB0008C91012E01C0880F0A94EAF71C92808352
:101AC000DF5FCBCF2C9130E00E2C02C035952795EF
:101AD0000A94E2F71C922083F39420912701F216D6
:101AE00078F5E09128014E2F50E09A0121503109FC
:101AF000EF9D200D311D1124E0912D01F0912E015B
:101B0000E20FF31F9801241B350B2E0F3F1FDF013F
:101B1000A60FB71FA217B307A8F24C9150E00E2CE6
:101B200002C0559547950A94E2F71C92CE91082E73
:101B300001C0CC0F0A94EAF74C2B40833197EACFCF
:101B4000DF91CF911F910F91FF90EF90DF9008955B
:101B5000EFE6F0E080818E7F8083089581E08093BE
:101B60006F000895FC01758364830895CF92EF920E
:101B70000F931F93CF93DF93FC01A481B581FD01E7
:101B800032963491ED012196FE01C490FD01E4905E
:101B9000FE010491231B209F800111240D5F1F4F24
:101BA0009D010E94A50BDF91CF911F910F91EF90A6
:101BB000CF900895DC0113964C91139750E0149642
:101BC000ED91FC911597319664912091270130E0B9
:101BD000261B31094217530724F0649140E00C940E
:101BE000C80CE4914E0F511DFC01438308950F93DF
:101BF0001F93CF93DF931F92CDB7DEB78C01262FB3
:101C00006A3031F1F8F4662309F466C0683069F58A
:101C1000DC011496ED91FC911597E491DC0112968C
:101C20006C91129770E06E1B710912966C9312976B
:101C300020E213964C910F90DF91CF911F910F915D
:101C40000C94B60D6D3071F06E3009F445C00DC0C6
:101C5000DC0112961C920F90DF91CF911F910F9192
:101C60000C94DA0DFC01128237C0D80112966C91E7
:101C70001297809128011496ED91FC911597E491AB
:101C8000462F50E0B8E08B9FC00111248E1B9109B4
:101C9000F801481759076CF01282C80129830E9485
:101CA000DA0D2981D80113964C91139712966C91F5
:101CB00001C04381C8010E94B60DD8011496ED9170
:101CC000FC911597E491D80112968C911297F0E04F
:101CD000E80FF11D1296EC930F90DF91CF911F91B9
:101CE0000F9108950F931F93CF93DF93EC01890118
:101CF0006A834B83F8016491662331F00F5F1F4FB5
:101D0000CE010E94F70DF6CFDF91CF911F910F9179
:101D10000895089520911E0130911F0180912401A2
:101D200090E02817390779F41092300110922F01B2
:101D300080912A0180932B018FE39FE090931B01F8
:101D400080931A0116C020911E0130911F018091CD
:101D50002501909126012817390759F483EC9EE05C
:101D600090931B0180931A01E0910601F091070105
:101D7000099580911E0190911F01019690931F017A
:101D800080931E01089520911E0130911F018091C2
:101D9000250190912601281739070CF44EC08CEAD2
:101DA00093E0909389008093880010921F01109215
:101DB0001E018091200190912101A0912201B091FA
:101DC00023010196A11DB11D809320019093210153
:101DD000A0932201B09323018091160190911701E5
:101DE000A0911801B0911901892B8A2B8B2B09F135
:101DF0008091160190911701A0911801B0911901DD
:101E0000181619061A061B0684F580911601909182
:101E10001701A0911801B09119010197A109B10909
:101E20008093160190931701A0931801B0931901A4
:101E30001CC01092B1002B9818C020911E01309147
:101E40001F0180912C01992787FD9095281739074C
:101E500061F48AE490E090938900809388008AE896
:101E60009EE090931B0180931A0180911E01909136
:101E70001F01019690931F0180931E0108953091D8
:101E80008400209129012A50231B2350F0F72D5F55
:101E900019F02A9511F001C00000E0911C01F091A9
:101EA0001D01099580912B0140912A0181110FC0DC
:101EB00040932B012091280180912F0190913001B6
:101EC000820F911D9093300180932F0103C08150A8
:101ED00080932B0120911E0130911F012F5F3F4FF6
:101EE0006091240170912701552747FD50954F5F60
:101EF0005F4F749FC001759F900D1124860F911D37
:101F00002817390731F48AE89EE090931B018093EB
:101F10001A0180911E0190911F01019690931F015B
:101F200080931E0108950F93CF93DF93A0912D010D
:101F3000B0912E01C0912F01D091300180912801E4
:101F4000AC0FBD1F0BB10F7703C000FA07F90BB937
:101F50000D90000007FA07F90BB90000000000001F
:101F600006FA07F90BB900000000000005FA07F9AE
:101F70000BB900000000000004FA07F90BB90000DB
:101F80000000000003FA07F90BB900000000000090
:101F900002FA07F90BB900000000000001FA07F986
:101FA0000BB98A9591F60000000000FA07F90BB909
:101FB0000BB10F7707FB07F90BB9DF91CF910F91A9
:101FC00008950F93CF93DF93A0912D01B0912E012F
:101FD000C0912F01D091300180912801AC0FBD1F1D
:101FE0000BB10F7703C000FA07F90BB90D9007FA90
:101FF00007F90BB90000000006FA07F90BB9000059
:10200000000005FA07F90BB90000000004FA07F90F
:102010000BB90000000003FA07F90BB9000000003B
:1020200002FA07F90BB900008A9501FA07F90BB912
:10203000D1F6000000FA07F90BB90BB10F7707FBD7
:1020400007F90BB9DF91CF910F9108950F93CF93BB
:10205000DF93A0912D01B0912E01C0912F01D0915D
:10206000300180912801AC0FBD1F02C0000C0BB8DD
:102070000D9000000BB800000000000C0BB8000031
:102080000000000C0BB800000000000C0BB80000B2
:102090000000000C0BB800000000000C0BB80000A2
:1020A000000C8A950BB811F70000000C0BB800006B
:1020B000000000005F98DF91CF910F9108950F937A
:1020C000CF93DF93A0912D01B0912E01C0912F01EC
:1020D000D091300180912801AC0FBD1F8E3191F05D
:1020E0008D3151F08C3149F08B3141F08A3139F02A
:1020F000893131F0883129F01CC032C048C05EC03F
:1021000074C08AC00D900BB80000000C0BB8000022
:10211000000C0BB80000000C0BB80000000C0BB852
:102120000000000C0BB80000000C0BB80000000C05
:102130000BB80D900BB80000000C0BB80000000CA1
:102140000BB80000000C0BB80000000C0BB800002E
:10215000000C0BB80000000C0BB80000000C0BB812
:102160000D900BB80000000C0BB80000000C0BB871
:102170000000000C0BB80000000C0BB80000000CB5
:102180000BB80000000C0BB80000000C0BB80D9051
:102190000BB80000000C0BB80000000C0BB80000DE
:1021A000000C0BB80000000C0BB80000000C0BB8C2
:1021B0000000000C0BB80000000C0BB80D900BB821
:1021C0000000000C0BB80000000C0BB80000000C65
:1021D0000BB80000000C0BB80000000C0BB800009E
:1021E000000C0BB80000000C0BB80D900BB80000F1
:1021F000000C0BB80000000C0BB80000000C0BB872
:102200000000000C0BB80000000C0BB80000000C24
:102210000BB80000000C0BB80D900BB80000000CC0
:102220000BB80000000C0BB80000000C0BB800004D
:10223000000C0BB80000000C0BB80000000C0BB831
:102240000000000C0BB80D900BB80000000C0BB890
:102250000000000C0BB80000000C0BB80000000CD4
:102260000BB80000000C0BB80000000C0BB800000D
:10227000000C0BB80D900BB80000000C0BB8000060
:10228000000C0BB80000000C0BB80000000C0BB8E1
:102290000000000C0BB80000000C0BB80000000C94
:1022A0000BB80D900BB80000000C0BB80000000C30
:1022B0000BB80000000C0BB80000000C0BB80000BD
:1022C000000C0BB80000000C0BB80000000C0BB8A1
:1022D0000D900BB80000000C0BB80000000C0BB800
:1022E0000000000C0BB80000000C0BB80000000C44
:1022F0000BB80000000C0BB80000000C0BB80D90E0
:102300000BB80000000C0BB80000000C0BB800006C
:10231000000C0BB80000000C0BB80000000C0BB850
:102320000000000C0BB80000000C0BB80D900BB8AF
:102330000000000C0BB80000000C0BB80000000CF3
:102340000BB80000000C0BB80000000C0BB800002C
:10235000000C0BB80000000C0BB80D900BB800007F
:10236000000C0BB80000000C0BB80000000C0BB800
:102370000000000C0BB80000000C0BB80000000CB3
:102380000BB80000000C0BB80D900BB80000000C4F
:102390000BB80000000C0BB80000000C0BB80000DC
:1023A000000C0BB80000000C0BB80000000C0BB8C0
:1023B0000000000C0BB80D900BB80000000C0BB81F
:1023C0000000000C0BB80000000C0BB80000000C63
:1023D0000BB80000000C0BB80000000C0BB800009C
:1023E000000C0BB80D900BB80000000C0BB80000EF
:1023F000000C0BB80000000C0BB80000000C0BB870
:102400000000000C0BB80000000C0BB80000000C22
:102410000BB80D900BB80000000C0BB80000000CBE
:102420000BB80000000C0BB80000000C0BB800004B
:10243000000C0BB80000000C0BB80000000C0BB82F
:102440000D900BB80000000C0BB80000000C0BB88E
:102450000000000C0BB80000000C0BB80000000CD2
:102460000BB80000000C0BB80000000C0BB80D906E
:102470000BB80000000C0BB80000000C0BB80000FB
:10248000000C0BB80000000C0BB80000000C0BB8DF
:102490000000000C0BB80000000C0BB80D900BB83E
:1024A0000000000C0BB80000000C0BB80000000C82
:1024B0000BB80000000C0BB80000000C0BB80000BB
:1024C000000C0BB80000000C0BB80D900BB800000E
:1024D000000C0BB80000000C0BB80000000C0BB88F
:1024E0000000000C0BB80000000C0BB80000000C42
:1024F0000BB80000000C0BB80D900BB80000000CDE
:102500000BB80000000C0BB80000000C0BB800006A
:10251000000C0BB80000000C0BB80000000C0BB84E
:102520000000000C0BB80D900BB80000000C0BB8AD
:102530000000000C0BB80000000C0BB80000000CF1
:102540000BB80000000C0BB80000000C0BB800002A
:10255000000C0BB80D900BB80000000C0BB800007D
:10256000000C0BB80000000C0BB80000000C0BB8FE
:102570000000000C0BB80000000C0BB80000000CB1
:102580000BB80D900BB80000000C0BB80000000C4D
:102590000BB80000000C0BB80000000C0BB80000DA
:1025A000000C0BB80000000C0BB80000000C0BB8BE
:1025B0000D900BB80000000C0BB80000000C0BB81D
:1025C0000000000C0BB80000000C0BB80000000C61
:1025D0000BB80000000C0BB80000000C0BB80D90FD
:1025E0000BB80000000C0BB80000000C0BB800008A
:1025F000000C0BB80000000C0BB80000000C0BB86E
:102600000000000C0BB80000000C0BB80D900BB8CC
:102610000000000C0BB80000000C0BB80000000C10
:102620000BB80000000C0BB80000000C0BB8000049
:10263000000C0BB80000000C0BB80D900BB800009C
:10264000000C0BB80000000C0BB80000000C0BB81D
:102650000000000C0BB80000000C0BB80000000CD0
:102660000BB80000000C0BB8000000005F98DF9171
:10267000CF910F910895CF93DF93C82FE62F30931A
:102680002E0120932D016093280140932701109281
:102690002001109221011092220110922301642F37
:1026A00070E0882319F084E091E002C088ED90E0AA
:1026B0000E94E015615060932A01D0912A01D093C5
:1026C0002B0188E0E89F90011124442737FD4095B5
:1026D000542F60EE72E080E090E00E9416162430E5
:1026E00091F018F42330B9F011C0253049F02630AC
:1026F00069F483E99FE090931D0180931C0111C050
:1027000041EE5FE00AC046E250E107C0273018F012
:1027100043E95FE002C04FE550E150931D01409353
:102720001C01579A219A5F98299A239A82EC8093E8
:10273000800089E180938100409127012D2F33276C
:1027400027FD30952F5F3F4F429FC001439F900D63
:102750001124CC23C9F097FD019695958795919505
:102760008195910984568093240187EC80932901F7
:1027700087E080932C0188E391E090932601809379
:1027800025018FEF93E018C097FD019695958795E9
:102790009195819591098557809324018FEB8093C2
:1027A000290183E080932C0186E091E0909326013B
:1027B0008093250187EF93E09093870080938600B4
:1027C0008AE490E0909389008093880080912501AD
:1027D00090912601019690931F0180931E0183EC36
:1027E0009EE090931B0180931A0181E080936F001B
:1027F0007894DF91CF9108951F920F920FB60F92A8
:1028000011242F933F934F935F936F937F938F93F5
:102810009F93AF93BF93EF93FF93E0910801F091E3
:1028200009010995E0911A01F0911B010995FF91A9
:10283000EF91BF91AF919F918F917F916F915F9138
:102840004F913F912F910F900FBE0F901F901895B1
:102850001F920F920FB60F9211242F933F938F93D5
:102860009F93AF93BF938091320190913301A091D8
:102870003401B09135013091310123E0230F2D3720
:1028800020F40196A11DB11D05C026E8230F029674
:10289000A11DB11D2093310180933201909333012A
:1028A000A0933401B09335018091360190913701A6
:1028B000A0913801B09139010196A11DB11D8093FD
:1028C000360190933701A0933801B0933901BF913D
:1028D000AF919F918F913F912F910F900FBE0F90CD
:1028E0001F9018952FB7F8946091320170913301C1
:1028F00080913401909135012FBF08953FB7F8942E
:102900008091360190913701A0913801B091390141
:1029100026B5A89B05C02F3F19F00196A11DB11D3A
:102920003FBF6627782F892F9A2F620F711D811D57
:10293000911D42E0660F771F881F991F4A95D1F7B6
:102940000895CF92DF92EF92FF92CF93DF936B01C6
:102950007C010E947E14EB01C114D104E104F10456
:1029600089F00E94DF150E947E146C1B7D0B683E6F
:10297000734090F381E0C81AD108E108F108C8510A
:10298000DC4FEACFDF91CF91FF90EF90DF90CF90B7
:102990000895019739F0880F991F880F991F0297A2
:1029A0000197F1F70895789484B5826084BD84B569
:1029B000816084BD85B5826085BD85B5816085BD3A
:1029C000EEE6F0E0808181608083E1E8F0E0108253
:1029D000808182608083808181608083E0E8F0E094
:1029E000808181608083E1EBF0E08081846080837E
:1029F000E0EBF0E0808181608083EAE7F0E08081B5
:102A00008460808380818260808380818160808314
:102A10008081806880831092C1000895833081F0A6
:102A200028F4813099F08230A1F008958730A9F020
:102A30008830B9F08430D1F4809180008F7D03C05C
:102A4000809180008F7780938000089584B58F7780
:102A500002C084B58F7D84BD08958091B0008F77CA
:102A600003C08091B0008F7D8093B0000895CF9314
:102A7000DF9390E0FC01EE50FE4E2491FC01EA5FF2
:102A8000FD4E8491882349F190E0880F991FFC0145
:102A9000E25DFD4EA591B4918C5D9D4EFC01C5910A
:102AA000D4919FB7611108C0F8948C91209582232E
:102AB0008C93888182230AC0623051F4F8948C91FF
:102AC000322F309583238C938881822B888304C096
:102AD000F8948C91822B8C939FBFDF91CF910895B6
:102AE0000F931F93CF93DF931F92CDB7DEB7282F9D
:102AF00030E0F901E252FE4E8491F901EE50FE4EB3
:102B00001491F901EA5FFD4E04910023C9F0882376
:102B100021F069830E940E156981E02FF0E0EE0F2D
:102B2000FF1FEC5DFD4EA591B4919FB7F8948C9179
:102B3000611103C01095812301C0812B8C939FBF2D
:102B40000F90DF91CF911F910F910895CF93DF9355
:102B5000282F30E0F901E252FE4E8491F901EE5047
:102B6000FE4ED491F901EA5FFD4EC491CC2391F061
:102B700081110E940E15EC2FF0E0EE0FFF1FE65EB4
:102B8000FD4EA591B4912C912D2381E090E021F48C
:102B900080E002C080E090E0DF91CF910895089539
:102BA0000E94D3140E94CF150E94240AC0E0D0E0F6
:102BB0000E9478092097E1F30E940000F9CF089560
:102BC00097FB072E16F4009407D077FD09D00E94DA
:102BD000351607FC05D03EF4909581959F4F0895DA
:102BE000709561957F4F0895A1E21A2EAA1BBB1B19
:102BF000FD010DC0AA1FBB1FEE1FFF1FA217B307C9
:102C0000E407F50720F0A21BB30BE40BF50B661FDE
:102C1000771F881F991F1A9469F7609570958095A2
:102C200090959B01AC01BD01CF010895052E97FB46
:102C30001EF400940E942D1657FD07D00E94F41533
:102C400007FC03D04EF40C942D165095409530950A
:102C500021953F4F4F4F5F4F089590958095709508
:102C600061957F4F8F4F9F4F0895AA1BBB1B51E16A
:102C700007C0AA1FBB1FA617B70710F0A61BB70BEC
:102C8000881F991F5A95A9F780959095BC01CD0191
:102C90000895CF93DF938230910510F482E090E0A5
:102CA000E0913C01F0913D0120E030E0A0E0B0E097
:102CB000309739F14081518148175907B8F04817CA
:102CC000590771F482819381109729F013969C9390
:102CD0008E9312972CC090933D0180933C0127C0A6
:102CE0002115310531F04217530718F0A901DB0116
:102CF00001C0EF019A01BD01DF010280F381E02DE7
:102D0000D7CF21153105F9F0281B390B24303105B7
:102D100080F48A819B816115710521F0FB01938309
:102D2000828304C090933D0180933C01FE01329662
:102D300044C0FE01E20FF31F8193919322503109A9
:102D4000398328833AC020913A0130913B01232BEB
:102D500041F4209102013091030130933B01209313
:102D60003A0120910001309101012115310541F412
:102D70002DB73EB74091040150910501241B350B3E
:102D8000E0913A01F0913B01E217F307A0F42E1B0A
:102D90003F0B2817390778F0AC014E5F5F4F2417BF
:102DA000350748F04E0F5F1F50933B0140933A01A7
:102DB0008193919302C0E0E0F0E0CF01DF91CF91E9
:102DC0000895CF93DF93009709F487C0FC013297F1
:102DD00013821282C0913C01D0913D01209781F471
:102DE00020813181280F391F80913A0190913B0158
:102DF0008217930779F5F0933B01E0933A016DC098
:102E0000DE0120E030E0AE17BF0750F412964D917E
:102E10005C9113979D014115510509F1DA01F3CF3A
:102E2000B383A28340815181840F951F8A179B072A
:102E300071F48D919C911197840F951F0296918347
:102E4000808312968D919C91139793838283211591
:102E5000310529F4F0933D01E0933C013EC0D901D6
:102E60001396FC93EE9312974D915D91A40FB51FAD
:102E7000EA17FB0779F480819181840F951F0296F0
:102E8000D90111969C938E938281938113969C9382
:102E90008E931297E0E0F0E08A819B81009719F011
:102EA000FE01EC01F9CFCE01029628813981820F13
:102EB000931F20913A0130913B012817390769F49B
:102EC000309729F410923D0110923C0102C0138208
:102ED0001282D0933B01C0933A01DF91CF910895C4
:042EE000F894FFCF94
:0A2EE40000003E018000890E890EF7
:00000001FF
