:100000000C94B3080C94DB080C94DB080C94DB080C
:100010000C94DB080C94DB080C94DB080C94DB08D4
:100020000C94DB080C94DB080C94DB080C94DB08C4
:100030000C94DB080C940B210C94DB080C94DB086B
:100040000C9437210C94DB080C9440240C947224FB
:100050000C94DB080C94DB080C94DB080C94DB0894
:100060000C94DB080C94DB08F50E0B0F140F5214E4
:10007000A80F2210AE102D118411DC11C31252539F
:100080005349004368616E6E656C3A200052462009
:100090004368616E6E656C2053656C656374696F4F
:1000A0006E00507265737320616E7920746F2063E7
:1000B0006F6E74696E75652E2E2E00202020202014
:1000C000486F6C64203A2053617665004D6F64651B
:1000D00020436C69636B3A204578697400202020C6
:1000E0002020486F6C64203A205363616E004E6597
:1000F000787420436C69636B3A2043682B00427527
:1001000074746F6E204B657920496E666F003E00F7
:1001100045786974002020524620446976657273E0
:100120006974790020204578742E20566964656FC3
:10013000002020524620566964656F20320020203E
:10014000524620566964656F203100566964656FB8
:1001500020496E707574204D656E75004578697420
:1001600000525353492043616C6962726174696F34
:100170006E0046616E204F75747075740052462093
:10018000537065637472756D005246204368616EEA
:100190006E656C20536574757000566964656F20D8
:1001A000496E7075742053656C6563742E00436FDF
:1001B0006E66696775726174696F6E204D656E75E4
:1001C000002500202D2000202D20004368616E6E48
:1001D000656C3A00467265616B7941747469632E8F
:1001E000636F6D00352E3847487A20566964656F15
:1001F000205278202D205665722E00464135384712
:10020000485A004F53443A204F5344206F666600CB
:100210004F53443A204F534420696E697469616CAE
:10022000697A656400566964656F4D55583A20498E
:100230006E707574203000566964656F4D55583A7C
:1002400020496E707574203300566964656F4D5592
:10025000583A20496E707574203200566964656F93
:100260004D55583A20496E707574203100454550FF
:10027000524F4D3A20436F6E6669677572617469BB
:100280006F6E20736176656400454550524F4D3A5C
:1002900020436F6E66696775726174696F6E206C5A
:1002A0006F6164656400454550524F4D3A204C6F74
:1002B0006164696E672064656661756C742076613F
:1002C0006C7565730020004E6F762031302032301F
:1002D000313500202020427920467265616B7961BA
:1002E000747469632E636F6D202D20000A0A0A0D55
:1002F0004641353847485A20524620566964656F52
:10030000204D6F64756C65202D205665722E20007F
:10031000426F61726420696E697469616C697A65A3
:1003200064202E2E2E00E916D516C116AD1699168C
:10033000851671165D16651678168B169E16B11603
:10034000C416D716EA164916351621160D16FD16CF
:100350001117251739176C1680169416A816BC1697
:10036000D016E416F8161A163F1664168916AE163D
:10037000D316F8161D17052A9B29912987291D29AF
:10038000132909299F2803290C2916291F2989299E
:1003900092299C29052A95288B28812817280F2A1D
:1003A000192A832A8D2A062910291A2984298E2997
:1003B0009829022A0C2A1D28B028022915298729E4
:1003C000DA290C2A132A040620000000000000404D
:1003D0004040004000A0A000000000A0E0A0E0A07D
:1003E000004060C060C000A0204080A0002040C04D
:1003F000A0E00080800000000040808080400080FD
:10040000404040800040A0400000000040E040002C
:10041000000000008080000000E0000000000000FC
:10042000008000202040808000E0A0A0A0E00040EC
:10043000C04040E000E020E080E000E020E020E07C
:1004400000A0A0E0202000E080E020C000C080E00C
:10045000A0E000E02040808000E0A0E0A0E000E01C
:10046000A0E020600000400040000000400040800C
:100470000020408040200000E000E000008040209C
:10048000408000C02040004000E0A0A0E0E000E08C
:10049000A0E0A0A000C0A0E0A0C000E0808080E0BC
:1004A00000C0A0A0A0C000E080E080E000E080E00C
:1004B000808000E08080A0E000A0A0E0A0A000E09C
:1004C000404040E000202020A0E00080A0C0C0A06C
:1004D0000080808080E000A0E0E0A0A000C0A0A09C
:1004E000A0A00040A0A0A04000E0A0E080800040CC
:1004F000A0A0E06600E0A0C0E0AA00E080E020E06C
:1005000000E04040404000A0A0A0A0E000A0A0A0CB
:10051000A04000A0A0E0E0A200A0A040A0A000A0F9
:10052000A040404000E0204080E000C0808080C0CB
:1005300000008040202000C0404040C00040A0009B
:1005400000000000000000E000804000000000000B
:1005500060A0A060008080C0A0C0000060808060BB
:1005600000202060A0600040A0E08060006040E0CB
:1005700040400060A06020C0008080C0A0A000407B
:10058000004040400040004040C0008080A0C0A02B
:1005900000C0404040E00000A0E0A0A00000C0A0DB
:1005A000A0A0000040A0A0400000C0A0C0800000AB
:1005B00060A060200000C0A080800000604020603B
:1005C0000040E04040400000A0A0A0600000A0A0CB
:1005D000A0400000A0A0E0A00000A04040A00000BB
:1005E000A0E020400000E04080E0002040C0402229
:1005F0000040400040400080406040800000A0403B
:10060000000000060820000000000000000040403C
:1006100040404000400050505000000000000000EA
:1006200050F850F850002070A0702870200000C8CA
:10063000D0205898000020508040A890680040408A
:1006400040000000000010204040402010004020EA
:100650001010102040001038100000000000002092
:1006600020F8202000000000000000101000000012
:1006700000F800000000000000000010000000086A
:100680001020408000007088A8A8887000002060BA
:100690002020207000007088102040F80000F81022
:1006A000201088700000909090F810100000F880E2
:1006B000F008887000007080F08888700000F808EA
:1006C000102040800000708870888870000070885A
:1006D0008878087000000000200000200000000062
:1006E00020002020400000186080601800000000FA
:1006F00078007800000000C0300830C00000609032
:10070000202000200000708898A890887000205059
:1007100088F888880000F088F08888F000007088E9
:10072000808088700000F088888888F00000F88059
:10073000F88080F80000F880F080808000007088E9
:100740008098887000008888F88888880000702069
:100750002020207000003810101090600000889059
:10076000E0A0908800008080808080F8000088D819
:10077000A8A8888800008888C8A898880000708881
:10078000888888700000F088F08080800000708881
:1007900088A890680000F088F0A090880000788019
:1007A000700808F00000F820202020200000888831
:1007B0008888887000008888888850200000888891
:1007C000A8A8A85000008850205088880000888879
:1007D000502020200000F808102040F80000E080A1
:1007E000808080E000000080402010080000380871
:1007F0000808083800002050000000000000000039
:1008000000000000F80080400000000000000060D0
:100810001070906000008080E09090E00000000088
:100820007080807000001010709090700000006068
:1008300090F0807000003040E040404000000060D8
:100840009070101060008080E09090900000200078
:1008500020202070000010003010101060008090E8
:10086000A0C0A090000060202020207000000000A8
:1008700050A8A8A800000000F088888800000000A8
:1008800060909060000000006090F08080000000A8
:100890006090F01010000000B048404000000030B0
:1008A0004020106000004040E04040400000000058
:1008B00090909060000000008888502000000000A8
:1008C00088A8A85000000088502050880000000030
:1008D0009090604080000000F02040F00000204038
:1008E0004080404020002020202020202000201098
:1008F00010081010200040A81000000000000000A8
:1009000000000000000008080000000000000000D7
:10091000007E81A581BD99817E7EFFDBFFC3E7FF5D
:100920007E6CFEFEFE7C38100010387CFE7C381099
:1009300000387C38FEFED6103810387CFEFE7C1065
:10094000380000183C3C180000FFFFE7C3C3E7FF76
:10095000FF003C664242663C00FFC399BDBD99C39F
:10096000FF0F070F7DCCCCCC783C6666663C187ECA
:10097000183F333F303070F0E07F637F636367E69A
:10098000C018DB3CE7E73CDB1880E0F8FEF8E080CD
:1009900000020E3EFE3E0E0200183C7E18187E3C01
:1009A0001866666666660066007FDBDB7B1B1B1BCA
:1009B000003E613C66663C867C000000007E7E7ED8
:1009C00000183C7E187E3C18FF183C7E181818183A
:1009D00000181818187E3C180000180CFE0C18009F
:1009E00000003060FE603000000000C0C0C0FE00AB
:1009F00000002466FF6624000000183C7EFFFF0014
:100A00000000FFFF7E3C1800000000000000000016
:100A100000183C3C1818001800666624000000000E
:100A2000006C6CFE6CFE6C6C00183E603C067C1822
:100A30000000C6CC183066C600386C3876DCCC7640
:100A40000018183000000000000C18303030180C6E
:100A50000030180C0C0C18300000663CFF3C66009F
:100A6000000018187E181800000000000000181878
:100A7000300000007E000000000000000000181898
:100A800000060C183060C080007CC6CED6E6C67C5E
:100A9000001838181818187E007CC6061C3066FE30
:100AA000007CC6063C06C67C001C3C6CCCFE0C1EC2
:100AB00000FEC0C0FC06C67C003860C0FCC6C67C18
:100AC00000FEC60C18303030007CC6C67CC6C67C22
:100AD000007CC6C67E060C780000181800001818A6
:100AE000000018180000181830060C1830180C06F2
:100AF0000000007E00007E00006030180C1830609E
:100B0000007CC60C18180018007CC6DEDEDEC0783B
:100B100000386CC6FEC6C6C600FC66667C6666FC0F
:100B2000003C66C0C0C0663C00F86C6666666CF847
:100B300000FE6268786862FE00FE6268786860F0B5
:100B4000003C66C0C0CE663A00C6C6C6FEC6C6C673
:100B5000003C18181818183C001E0C0C0CCCCC7853
:100B600000E6666C786C66E600F06060606266FEC7
:100B700000C6EEFEFED6C6C600C6E6F6DECEC6C689
:100B8000007CC6C6C6C6C67C00FC66667C6060F09B
:100B9000007CC6C6C6C6CE7C0EFC66667C6C66E66D
:100BA000007CC660380CC67C007E7E5A1818183C43
:100BB00000C6C6C6C6C6C67C00C6C6C6C6C66C3893
:100BC00000C6C6C6D6D6FE6C00C6C66C386CC6C695
:100BD000006666663C18183C00FEC68C183266FE3D
:100BE000003C30303030303C00C06030180C060221
:100BF000003C0C0C0C0C0C3C0010386CC6000000C7
:100C00000000000000000000FF30180C0000000091
:100C1000000000780C7CCC7600E0607C666666DCC8
:100C20000000007CC6C0C67C001C0C7CCCCCCC7602
:100C30000000007CC6FEC07C003C6660F86060F08E
:100C400000000076CCCC7C0CF8E0606C766666E642
:100C5000001800381818183C0006000606066666DC
:100C60003CE060666C786CE6003818181818183C80
:100C7000000000ECFED6D6D6000000DC6666666694
:100C80000000007CC6C6C67C000000DC66667C6096
:100C9000F0000076CCCC7C0C1E0000DC766060F0AE
:100CA0000000007EC07C06FC003030FC3030361C7A
:100CB000000000CCCCCCCC76000000C6C6C66C3898
:100CC000000000C6D6D6FE6C000000C66C386CC6AC
:100CD000000000C6C6C67E06FC00007E4C18327EB0
:100CE000000E18187018180E001818181818181870
:100CF000007018180E1818700076DC000000000054
:100D0000000010386CC6C6FE0060F0607C66666647
:100D10000CFC607C6666666C001C10007E60606087
:100D2000003820FEC0C0C0C0006C007CC6FEC07C85
:100D3000006CFE62786062FE0000007CC6F0C67C3B
:100D4000003C66C0F8C0663C0000007EC07C06FC2B
:100D5000007CC660380CC67C003000303030307803
:100D6000007830303030307800CC0030303030789F
:100D700000663C181818183C0018001818181818A5
:100D8000701E0C0C0C0CCC7800000070505C52DC17
:100D90000070505C525252DC000000A0A0FCA2BCCB
:100DA00000A0A0A0FCA2A2BC0060F0607C66666609
:100DB00000F8607C66666666001C10C6D8F8CCC673
:100DC0000018D6CCF8F8CCC6006C38C6C6C67E066D
:100DD0007C38C6C67E06C67C000000C6C6C6C6FEF7
:100DE00010C6C6C6C6C6C6FE100000DCD6F6D6DCE7
:100DF00000DCD6D6F6D6D6DC000000F0B03C363C9F
:100E000000F0F0B03C36363C000000780C7CCC762C
:100E1000003E66C6C6FEC6C600067CC07CC6C67C52
:100E200000FE66607C6666FC000000CCCCCCCCFE8C
:100E300006CCCCCCCCCCCCFE0600003C6C6C6CFE62
:100E4000C61E3666666666FFC300007CC6FEC07CB2
:100E500000FE6268786862FE0000007CD6D67C10D6
:100E6000387CD6D6D67C1038000000FE666060F074
:100E700000FE6660606060F000003366CC663300A0
:100E80000000CC663366CC000022882288228822AB
:100E90008855AA55AA55AA55AADB77DBEEDB77DB86
:100EA000EE181818181818181818181818F818180C
:100EB000180000C66C386CC600C6C66C386CC6C656
:100EC000000000C6CEDEF6E600C6C6CEDEF6E6C6FA
:100ED000003636F606F63636363636363636363698
:100EE000360000FE06F63636363636F606FE0000CA
:100EF000000038C6CEDEF6E60038C6CEDEF6E6C620
:100F00000000000000F8181818181818181F000022
:100F10000018181818FF00000000000000FF181843
:100F200018181818181F18181800000000FF0000E3
:100F30000018181818FF1818180000E66C786CE6EE
:100F400000E66C78786C66E600363637303F000095
:100F50000000003F30373636363636F700FF0000E7
:100F6000000000FF00F73636363636373037363673
:100F7000360000FF00FF0000003636F700F7363677
:100F80003600C67CC6C67CC60000003E666666E6C5
:100F9000001E3666666666C6000000C6FEFED6C641
:100FA00000C6EEFEFED6C6C6000000C6C6FEC6C619
:100FB00000C6C6C6FEC6C6C60000007CC6C6C67C45
:100FC000007CC6C6C6C6C67C000000FEC6C6C6C635
:100FD0000018181818F8000000000000001F18186A
:100FE00018FFFFFFFFFFFFFFFF00000000FFFFFFF4
:100FF000FFFEC6C6C6C6C6C60000007EC67E66C662
:1010000000FFFFFFFF000000007EC6C6C67E66C66A
:10101000000000FC66667C60F0FC6666667C60F042
:101020000000007CC6C0C67C007CC6C0C0C0C67CB8
:101030000000007E5A18183C007E5A181818183CF8
:10104000000000C6C6C67E067CC6C6C67E06C67C36
:10105000000000D67C387CD600D6D67C387CD6D62C
:10106000000000FC667C66FC00FC66667C6666FC34
:10107000000000F0607C66FC00F060607C66667CCE
:10108000008FCDEFFCDCCCCC000000007C7C0000AD
:10109000000000C6C6F6DEF600C6C6C6F6DEDEF600
:1010A0000000007CC61CC67C007CC6063C06C67CD4
:1010B000000000D6D6D6D6FE00D6D6D6D6D6D6FED8
:1010C0000000007CC61EC67C00788C063E068C782C
:1010D000000000D6D6D6D6FF03D6D6D6D6D6D6FFB3
:1010E000030000C6C67E060600C6C6C67E06060605
:1010F000003E613C66663C867C00003C3C3C3C001B
:1011000000000000000000000000000008000201D4
:1011100000000304070000000000000000010204BA
:101120000810204080010204081020010204081069
:101130002004040404040404040202020202020360
:10114000030303030300000000230026002900001E
:10115000000000250028002B0000000000240027CC
:10116000002A0000A22411241FBECFEFD8E0DEBF6A
:10117000CDBF11E0A0E0B1E0EEE6FFE402C00590D3
:101180000D92A832B107D9F722E0A8E2B1E001C080
:101190001D92A932B207E1F711E1C6E6D1E104C020
:1011A0002297FE010E945A26C436D107C9F70E9431
:1011B000E6240C94B5270C9400000C949F270C9403
:1011C000A727CF92DF92EF92FF92CF93DF93EC01AC
:1011D0000E9481216B017C01CC0EDD1EE11CF11C03
:1011E0000E9481216C157D058E059F05C8F461E084
:1011F00080E10E949C2260E081E10E949C2284E6C2
:1012000090E00E94D82160E080E10E949C2261E091
:1012100081E10E949C2284E690E00E94D821E0CFE8
:1012200060E080E10E949C2260E081E1DF91CF914B
:10123000FF90EF90DF90CF900C949C22CF93DF93A0
:10124000EC018091360181112CC026E040E052EC87
:1012500061E070E088E891E00E94DE236CEE72E0CD
:1012600088E891E00E9433256FE071E088E891E022
:101270000E94852563ED72E088E891E00E943325A5
:1012800067EC72E088E891E00E94732565EC72E0FB
:1012900088E891E00E947325809136018F5F8093EA
:1012A0003601BE0188E891E0DF91CF910C9473255F
:1012B00060915F0181E090E00E94DF0860915E0133
:1012C00082E090E00E94DF0860915D0183E090E0A1
:1012D0000E94DF0860915C0184E090E00E94DF08DA
:1012E00060915B0185E090E00E94DF0860915A0107
:1012F00086E090E00E94DF086091590187E090E06D
:101300000E94DF086091580188E090E00E94DF08A9
:101310006091570189E090E00E94DF088DE692E03D
:101320000C941E09CF93DF9380E090E00E94DD08CB
:10133000813309F054C082E00E94D222EC0184E0A3
:101340000E94D222892B19F4CD2B09F448C081E0E8
:1013500090E00E94DD0880935F0182E090E00E94AF
:10136000DD0880935E0183E090E00E94DD08C82FD5
:1013700084E090E00E94DD082C2F30E0322F2227FD
:10138000282B30935D0120935C0185E090E00E9462
:10139000DD08C82F86E090E00E94DD082C2F30E0A9
:1013A000322F2227282B30935B0120935A0187E0AC
:1013B00090E00E94DD088093590188E090E00E944F
:1013C000DD088093580189E090E00E94DD08809359
:1013D000570189E892E0DF91CF910C941E0986EACB
:1013E00092E00E941E0961E380E090E00E94DF0825
:1013F00010925F0185E180935E0184E591E0909316
:101400005D0180935C0181E990E090935B018093A2
:101410005A0183E0809359011092580110925701AC
:101420000E94580994CF0F931F9382E00E94D2220A
:101430004091320150913301609134017091350136
:10144000892B81F4452B462B472B09F047C00E947E
:101450008121609332017093330180933401909322
:1014600035013CC0452B462B472BC1F10E94812101
:1014700000913201109133012091340130913501F6
:10148000601B710B820B930B633371058105910512
:10149000E8F0683522E072078105910518F481E0D3
:1014A00090E010C0683B2BE072078105910518F4AD
:1014B00082E090E007C0603A7F408105910530F4FA
:1014C00083E090E090935601809355011092320191
:1014D00010923301109234011092350183E00E9482
:1014E000D22240912E0150912F01609130017091D4
:1014F0003101892B81F4452B462B472B09F047C03E
:101500000E94812160932E0170932F0180933001FE
:10151000909331013CC0452B462B472BC1F10E94D3
:10152000812100912E0110912F01209130013091E5
:101530003101601B710B820B930B633371058105C5
:101540009105E8F0683522E072078105910518F4ED
:1015500081E090E010C0683B2BE0720781059105A7
:1015600018F482E090E007C0603A7F408105910561
:1015700030F483E090E090935401809353011092F3
:101580002E0110922F01109230011092310184E04F
:101590000E94D22240912A0150912B0160912C018E
:1015A00070912D01892B81F4452B462B472B09F097
:1015B00047C00E94812160932A0170932B01809380
:1015C0002C0190932D013CC0452B462B472BC1F19C
:1015D0000E94812100912A0110912B0120912C0160
:1015E00030912D01601B710B820B930B63337105DE
:1015F00081059105E8F0683522E0720781059105C3
:1016000018F481E090E010C0683B2BE07207810580
:10161000910518F482E090E007C0603A7F408105B0
:10162000910530F483E090E0909352018093510152
:1016300010922A0110922B0110922C0110922D0170
:101640001F910F910895109256011092550110921A
:1016500054011092530110925201109251010895B9
:101660008091550190915601019741F40E94230BFE
:101670008FE090E00E94E10881E0089580E0089505
:101680008091550190915601029741F40E94230BDD
:101690008FE090E00E94E10881E0089580E00895E5
:1016A0008091550190915601039741F40E94230BBC
:1016B0008FE090E00E94E10881E0089580E00895C5
:1016C0008091530190915401019741F40E94230BA2
:1016D0008FE090E00E94E10881E0089580E00895A5
:1016E0008091530190915401029741F40E94230B81
:1016F0008FE090E00E94E10881E0089580E0089585
:1017000031E08091550190915601892B09F430E028
:1017100021E08091510190915201892B09F420E040
:10172000232B31F48091530190915401892B41F086
:101730000E94230B8FE090E00E94E10881E0089571
:1017400080E0089561E08BE491E00E945E15181638
:10175000ACF461E08DE00E949C226CE271E080E0DC
:1017600090E00E94B02160E08DE00E949C226CE23B
:1017700071E080E090E00E94B021EBCF60E08BE46C
:1017800091E00E94DE1484E090E090934A018093FF
:10179000490180E192E00C941E09809149019091E9
:1017A0004A01059731F084E090E090934A018093DC
:1017B000490108950E94CD0B60E08EE00E949C22BA
:1017C00060E08FE00E949C2285E292E00C941E096A
:1017D0008091490190914A01019721F010924A01AC
:1017E000109249010895823089F08330E9F0813008
:1017F00041F50E94E80B61E08EE00E949C2260E0CF
:101800008FE00E949C228BE592E00CC00E94E80BC6
:1018100060E08EE00E949C2261E08FE00E949C22AA
:1018200089E492E00C941E090E94E80B61E08EE0CE
:101830000E949C2261E08FE00E949C2287E392E05C
:10184000F1CF0C94DA0BCF92EF920F938093480173
:101850008093470160934601880F482F440F440F3F
:10186000480F4E5E52E0C52EEE24E3940AE02BE7CB
:1018700062E08BE491E00E9450170F91EF90CF90BF
:101880000895CF92EF920F93809148018F5F8093DC
:10189000480190914601891302C01092480180913D
:1018A0004701880F482F440F440F480F4E5E62E0F7
:1018B000C62EE12C0AE02BE762E08BE491E00E9467
:1018C000501780914801880F482F440F440F480F4C
:1018D0004E5EEE24E3942BE762E08BE491E00E94FD
:1018E000501780914801809347010F91EF90CF905E
:1018F00008951F93CF93DF93982F9F70282F2295E1
:101900002F7038E0239F900D11249950983218F4CD
:101910008093390104C081E18093390190E0892FDF
:1019200090E0880F991FFC01EA5DFC4F25913491EE
:1019300030933801209337018A589C4FFC01C591A0
:10194000D49181E090E00E94D82160E08BE00E9479
:101950009C228AE090E00E94D82160E08CE00E9406
:101960009C2281E090E00E94D82161E08AE00E9400
:101970009C2281E090E00E94D82161E08CE00E94EE
:101980009C2281E090E00E94D82160E08CE00E94DF
:101990009C2281E090E00E94D82160E08CE00E94CF
:1019A0009C2281E090E00E94D82160E08AE00E94C1
:1019B0009C2281E090E00E94D82161E08CE00E94AE
:1019C0009C2281E090E00E94D82160E08CE00E949F
:1019D0009C2281E090E00E94D82160E08CE00E948F
:1019E0009C2281E090E00E94D82160E08AE00E9481
:1019F0009C2281E090E00E94D82161E08CE00E946E
:101A00009C2281E090E00E94D82160E08CE00E945E
:101A10009C2281E090E00E94D82160E08CE00E944E
:101A20009C2281E090E00E94D82160E08AE00E9440
:101A30009C2281E090E00E94D82161E08CE00E942D
:101A40009C2281E090E00E94D82160E08CE00E941E
:101A50009C2281E090E00E94D82160E08CE00E940E
:101A60009C2281E090E00E94D82161E08AE00E94FF
:101A70009C2281E090E00E94D82161E08CE00E94ED
:101A80009C2281E090E00E94D82160E08CE00E94DE
:101A90009C2281E090E00E94D82110E160E0C0FF2C
:101AA00009C08CE00E949C2281E090E00E94D82135
:101AB00061E008C08CE00E949C2281E090E00E94DE
:101AC000D82160E08AE00E949C2281E090E00E94A0
:101AD000D82161E08CE00E949C2281E090E00E948D
:101AE000D82160E08CE00E949C2281E090E00E947E
:101AF000D821D695C795115089F6C4E060E08CE0F6
:101B00000E949C2281E090E00E94D82160E08AE05F
:101B10000E949C2281E090E00E94D82161E08CE04C
:101B20000E949C2281E090E00E94D82160E08CE03D
:101B30000E949C2281E090E00E94D821C150F1F6E1
:101B400081E090E00E94D82161E08BE00E949C221D
:101B50008AE090E00E94D82161E08BE00E949C2204
:101B600060E08CE00E949C2260E08AE0DF91CF91EF
:101B70001F910C949C220E94790C81E090E00E94BD
:101B8000D82161E08BE00E949C228AE090E00C94D6
:101B9000D821CF9361E08BE00E94632261E08AE06C
:101BA0000E94632261E08CE00E94632261E082E196
:101BB0000E94632261E082E10E949C2261E08EE04B
:101BC0000E94632261E08FE00E94632260E08EE069
:101BD0000E949C2260E08FE00E949C2260E082E0F4
:101BE0000E94632262E082E00E949C2260E083E027
:101BF0000E94632262E083E00E949C2260E084E015
:101C00000E94632262E084E00E949C2261E080E105
:101C10000E94632261E081E10E94632260E080E132
:101C20000E949C2260E081E10E949C2261E08DE0A4
:101C30000E94632261E08DE00E949C2261E089E0C5
:101C40000E94632261E089E00E949C22C6E061E07C
:101C50008DE00E949C228AE090E00E94E10860E012
:101C60008DE00E949C2264E670E080E090E00E949B
:101C7000B021C15061F70E94920980915E010E94DB
:101C8000BB0D85E10E94790C0E94A20B80E193E0DC
:101C90000E941E090E94812160936001709361017E
:101CA0008093620190936301CF91089590913901DF
:101CB000892F8F7092959F7028E0929F800D11243C
:101CC000895008950E94560E8F5F883209F480E093
:101CD000282F2695269526958F5F98E0299F800DC1
:101CE00011248F702F5F90E1299F90011124822B86
:101CF0000C94790CE82FEF7082958F7098E0899F93
:101D0000E00D1124E950E83208F0E0E0F0E0EE0FD9
:101D1000FF1FEA5DFC4F859194910895CF92DF9269
:101D2000EF92FF92CF93DF93CFE0D0E0C12CD12C84
:101D3000760184E10E941D22AA2797FDA095BA2F63
:101D4000C80ED91EEA1EFB1E219799F7C701B601DE
:101D50002FE030E040E050E00E941726C901DF91FB
:101D6000CF91FF90EF90DF90CF9008950E948E0E5C
:101D700020915A0130915B0182179307B0F0609176
:101D80005C0170915D016817790790F0AC01421B0E
:101D9000530BE4E6E49FC001E59F900D1124621B04
:101DA000730B0E94EF25CB01089580E090E0089529
:101DB00084E690E008954F925F926F927F92AF9287
:101DC000BF92CF92DF92EF92FF920F931F93CF9328
:101DD000DF93E0914901F0914A01EB30F10508F001
:101DE00076C5EC5CFF4F0C94582683E092E00E948D
:101DF0001E090E94230B80915F018F5F0E94F30BED
:101E00008BE491E00E94B41980E590E00E94E10823
:101E100081E090E058C50E94400BC82F0E94500BF3
:101E20008C2B09F454C54DC50E94230B0E94DA0B7C
:101E300060E08BE491E00E94DE14CC24CA9432E08E
:101E4000E32E0FE52FE740E060E08BE491E00E9495
:101E5000501766E079E08BE491E00E94BE192BEF09
:101E600031E042E163E28BE491E00E94A61A66EC65
:101E700073E08BE491E00E94BE1924EE31E048E269
:101E80006AE08BE491E00E94A61A6FE071E08BE4B7
:101E900091E00E94901A24ED31E042E360E28BE48D
:101EA00091E00E94A61AEE24E3940AE42FE74AE4A4
:101EB00060E08BE491E00E948A162BEC31E042E571
:101EC0006CE08BE491E00E94A61A42E562E38BE4A9
:101ED00091E00E94BD1A40E150E060915E018BE408
:101EE00091E00E94541B67EC71E08BE491E00E944A
:101EF000921A80915E010E947A0E4AE050E0BC0185
:101F00008BE491E00E945B1B63EC71E08BE491E059
:101F10000E94921A4AE050E063E38BE491E00E9451
:101F2000541B61EC71E08BE491E00E94921A0E94D4
:101F3000812168577C4E8F4F9F4F60934201709371
:101F40004301809344019093450183E090E0BBC43A
:101F50000E94230B0E94DA0B8BE491E00E94BA19D5
:101F600060E08BE491E00E94DE14CC24CA9422E06D
:101F7000E22E0FE52FE740E060E08BE491E00E9465
:101F8000501766EC73E08BE491E00E94BE192EEAD4
:101F900031E043E064E18BE491E00E94A61A0BE09B
:101FA0002FE74BE060E08BE491E00E948A1663E04B
:101FB00076E08BE491E00E94BE192AE931E044E129
:101FC00065E08BE491E00E94A61A29E831E04EE139
:101FD00065E08BE491E00E94A61A2DE731E048E22B
:101FE00065E08BE491E00E94A61A22E731E042E32B
:101FF00065E08BE491E00E94A61A21E631E04CE313
:1020000065E08BE491E00E94A61A2CE531E046E4FD
:1020100065E08BE491E00E94A61A66E085E00E94EC
:10202000230C0E94812168577C4E8F4F9F4F6093F5
:10203000420170934301809344019093450185E0F0
:1020400090E041C40E9481214090420150904301A0
:10205000609044017090450146165706680679065F
:1020600020F410924A01109249010E94600B8823CB
:1020700081F00E94812168577C4E8F4F9F4F609363
:1020800042017093430180934401909345010E9463
:10209000410C0E94300BC82F0E94700B8C2B09F44E
:1020A00016C484E190E00E94E10868EC70E080E0F2
:1020B00090E00E94B02184E190E00E94E1080E943B
:1020C000812168577C4E8F4F9F4F609342017093E0
:1020D00043018093440190934501809148018230EF
:1020E000B1F040F4882381F0813009F0F0C388E03A
:1020F00090E0E9C38330B9F0853009F0E8C310926D
:102100004A0110924901E3C386E090E0DCC368EE27
:1021100073E080E090E00E94B02183E190E00E94B3
:10212000E10885E10BC068EE73E080E090E00E947A
:10213000B02183E190E00E94E10888E5DF91CF9132
:102140001F910F91FF90EF90DF90CF90BF90AF90D5
:102150007F906F905F904F900C94790C0E94230BAE
:102160008BE491E00E94BA1960E08BE491E00E9458
:10217000DE14CC24CA9492E0E92E0FE52FE740E06C
:1021800060E08BE491E00E94501766EC73E08BE412
:1021900091E00E94BE192BE431E043E064E18BE45E
:1021A00091E00E94A61A0BE02FE74BE060E08BE481
:1021B00091E00E948A1663E076E08BE491E00E9451
:1021C000BE192EE331E044E165E08BE491E00E942A
:1021D000A61A21E331E04EE165E08BE491E00E9434
:1021E000A61A24E231E048E265E08BE491E00E9427
:1021F000A61A25E131E042E365E08BE491E00E941C
:10220000A61A20E131E04CE365E08BE491E00E9406
:10221000A61A80915F01880F482F440F440F480F82
:102220004C5E2EE031E065E08BE491E00E94A61A5E
:1022300065E084E00E94230C0E94812168577C4E57
:102240008F4F9F4F609342017093430180934401ED
:102250009093450187E090E036C30E948121409031
:102260004201509043016090440170904501461630
:1022700057066806790630F484E090E090934A01AE
:10228000809349010E94600B882381F00E94812184
:1022900068577C4E8F4F9F4F60934201709343016C
:1022A00080934401909345010E94410C0E94300BA1
:1022B000882309F40CC30E94812168577C4E8F4FFC
:1022C0009F4F609342017093430180934401909328
:1022D000450180914801843009F4F3C2833009F448
:1022E00080E080935F010E94580984E190E00E94A1
:1022F000E10868EC70E080E090E00E94B02184E1A9
:1023000090E00E94E108DDC20E94230B8BE491E083
:102310000E94BA1960E08BE491E00E94DE1463E051
:1023200076E08BE491E00E94BE192EEF30E04AE0A7
:102330006AE08BE491E00E94A61A66EC73E08BE4FD
:1023400091E00E94BE192EEE30E049E16CE08BE492
:1023500091E00E94A61A2DED30E043E26CE08BE4A0
:1023600091E00E94A61A2CEC30E042E36CE08BE492
:1023700091E00E94A61A2BEB30E04CE36CE08BE47A
:1023800091E00E94A61A22EA30E04AE565E08BE47B
:1023900091E00E94A61A0E94812168577C4E8F4FBF
:1023A0009F4F609342017093430180934401909347
:1023B000450189E090E087C20E948121C1E0D0E020
:1023C000409042015090430160904401709045015B
:1023D000461657066806790610F0C0E0D0E00E9465
:1023E000800BC82BCD2B09F472C28AE090E0909349
:1023F0004A018093490160E08BE491E00E94DE1481
:10240000CC24CA94EE24E39403E22FE740E060E09A
:102410008BE491E00E94501766EC73E08BE491E04E
:102420000E94BE192DE830E043E064E18BE491E0C6
:102430000E94A61A0BE02FE74BE060E08BE491E0EE
:102440000E948A1663E076E08BE491E00E94BE1958
:1024500023E830E04FE065E08BE491E00E94A61AAB
:102460002EE730E049E165E08BE491E00E94A61A96
:1024700002E328E645E26BE08BE491E00E9450170E
:1024800066EC73E08BE491E00E94BE194AE565E0DA
:102490008BE491E00E94BD1AECE4F3E06591749145
:1024A0004AE050E08BE491E00E94901B4AE567E32C
:1024B0008BE491E00E94BD1AECE3F3E06591749126
:1024C0004AE050E08BE491E00E94901B4AE569E607
:1024D0008BE491E00E94BD1AE4E5F3E0659174910C
:1024E0004AE050E08BE491E00E94901B63E076E0CC
:1024F0008BE491E00E94BE194FE06CE38BE491E025
:102500000E94BD1A40E150E0609139018BE491E0F6
:102510000E94541B64E171E08BE491E00E94901AE8
:10252000809139010E947A0E4AE050E0BC018BE4B0
:1025300091E00E94901B8FEF809329011092280157
:102540000E94812160933A0170933B0180933C018A
:1025500090933D010E94812160933E0170933F0161
:1025600080934001909341010E948121605A7541FE
:102570008F4F9F4F609342017093430180934401BA
:1025800090934501A4C10E94812140903E0150904A
:102590003F01609040017090410146165706680661
:1025A000790608F0E8C00E94812166507F4F8F4F66
:1025B0009F4F60933E0170933F0180934001909341
:1025C00041010E94B60EEC01C12CEE24E39406E01A
:1025D0002BE449E161E28BE491E00E9450172E0167
:1025E000612C712C1F921F921F928BE48F93A12C50
:1025F000B12C650114E6E12EF12C00E010E020E0A2
:1026000030E0A901C301B2010E949725262FCC24F6
:10261000C394EE24E39406E049E161E28BE491E0A7
:102620000E94501749E160E78BE491E00E94BD1AD7
:102630004AE050E0BE018BE491E00E945B1B609198
:1026400037017091380180E090E01F921F921F9235
:1026500024E62F93A12CB12C650119E3E12E17E19B
:10266000F12E00E010E02DE036E140E050E00E9465
:102670009725D62FCDE0C60FE12C07E22C2F45E59C
:102680006C2F8BE491E00E948A161F921F921F927A
:102690001F921EE2A12EB12CC12CD12C14E6E12EEA
:1026A000F12C00E010E020E030E0A901C301B2010C
:1026B0000E949725695DEE24E394062F2C2F45E5B3
:1026C0006C2F8BE491E00E948A168DB79EB70C9612
:1026D0000FB6F8949EBF0FBE8DBF809129018D1754
:1026E00009F449C063E076E08BE491E00E94BE19F2
:1026F0004FE06CE38BE491E00E94BD1A40E150E0B2
:10270000609139018BE491E00E94541B64E171E017
:102710008BE491E00E94901A809139010E947A0E18
:102720004AE050E0BC018BE491E00E94901B609174
:1027300029016F3F81F0635F22E045E28BE491E085
:102740000E94621560912901635F22E047E58BE4F6
:1027500091E00E94621522E045E26C2F8BE491E04B
:102760000E94621522E047E56C2F8BE491E00E9405
:102770006215D0932901C0912801D0E00E948121E7
:1027800021E030E040903A0150903B0160903C01E4
:1027900070903D01461657066806790610F020E055
:1027A00030E0C223D323CD2B89F10E948121655BC8
:1027B0007F4F8F4F9F4F60933A0170933B018093FF
:1027C0003C0190933D010E94620E62E370E080E064
:1027D00090E00E94B0210E94B60E8B349105B0F0BB
:1027E0001092280164E170E080E090E00E94B02146
:1027F0008FE090E00E94E10864E170E080E090E00A
:102800000E94B0218FE090E00E94E1080E94600BDE
:102810008823B1F00E948121605A75418F4F9F4FEC
:10282000609342017093430180934401909345016A
:102830000E94620E6AE070E080E090E00E94B021A9
:102840000E94700B882331F08091280191E0892744
:10285000809328010E94300B882331F084E090E0BF
:1028600090934A01809349010E94400B8823D1F044
:1028700084E190E00E94E10868EC70E080E090E084
:102880000E94B02184E190E00E94E108809139012A
:1028900080935E010E94580984E090E090934A0181
:1028A000809349010E948121409042015090430150
:1028B00060904401709045014616570668067906F7
:1028C00030F484E090E090934A0180934901DF91D5
:1028D000CF911F910F91FF90EF90DF90CF90BF901D
:1028E000AF907F906F905F904F9008950F931F93DC
:1028F0000E94130A0E94DB0E0E9481210091600158
:102900001091610120916201309163010617170750
:1029100028073907D8F40E9481216C507E4F8F4FD1
:102920009F4F609360017093610180936201909367
:1029300063018DE00E94D222892B11F060E001C07A
:1029400061E08DE01F910F910C949C221F910F91DB
:102950000895E0917601982F9695969596952091F9
:102960007B0130917C0187706E9FF0011124E90F8B
:10297000F11DE20FF31F413051F420E830E002C0B6
:10298000359527958A95E2F78081822B15C04111F4
:102990000AC02FE73FEF02C0359527958A95E2F7E9
:1029A0008081822309C020E830E002C03595279558
:1029B0008A95E2F78081822780830895FC01613047
:1029C000F9F030F0623009F049C080E090E031C0A9
:1029D0001282138280E090E030917601209175019F
:1029E000329F90011124821793074CF4E0917B01F0
:1029F000F0917C01E80FF91F10820196EDCF089548
:102A00001282138280E090E04FEF309176012091A6
:102A10007501329F90011124821793074CF4E091C5
:102A20007B01F0917C01E80FF91F40830196EDCF07
:102A300008953091760120917501329F9001112403
:102A4000821793075CF4E0917B01F0917C01E80F21
:102A5000F91F2081209520830196EBCF0895FF92E6
:102A60000F931F93CF93DF93EC01F62E022F842F49
:102A7000887FD9F0142F169516951695129FC001D0
:102A800011240E94782699838883009781F01A8206
:102A90001B829C01402F612F8F2D0E944A2060E0F5
:102AA000CE010E94DE1480E003C081E001C084E01A
:102AB000DF91CF911F910F91FF90089520E640E89C
:102AC0000C942F15862F642FE0917601A82FB0E08B
:102AD00098E0E99FF0011124AE17BF073CF49091F4
:102AE0007501491718F4422F0C94A91408950F93F7
:102AF0001F93CF93DF93DC01FA014217530749F488
:102B0000202F462F6E2FDF91CF911F910F910C94A4
:102B100062152417350720F4CA019927F9019C0191
:102B2000EF01C770DD278FEF90E0AC0102C0559533
:102B30004795CA95E2F7EA01142F43E0F695E79529
:102B40004A95E1F740917601469FB0011124E60FC6
:102B5000F71FA9014770552702C0959587954A959B
:102B6000E2F7582F5095C901D3E096958795DA95ED
:102B7000E1F7860F971FE817F90719F41C2F1523A3
:102B800050E00130D9F49F012F5F3F4FCD91DC9190
:102B90001197CE0FDF1F4881412B48834FEFED91F6
:102BA000FC911197E20FF31F2817390720F4408397
:102BB0002F5F3F4FF4CF8081852B3BC001111CC09C
:102BC0009F012F5F3F4FCD91DC911197CE0FDF1FFB
:102BD0001095488141234883ED91FC911197E20FB4
:102BE000F31F2817390720F410822F5F3F4FF4CFCF
:102BF0005095808185231DC00230E1F49F012F5F35
:102C00003F4FCD91DC911197CE0FDF1F48814127B7
:102C10004883ED91FC911197E20FF31F28173907B4
:102C200030F44081409540832F5F3F4FF2CF808149
:102C300085278083DF91CF911F910F9108950F9386
:102C4000CF93DF934217530731F4202FDF91CF91B9
:102C50000F910C9462152417350720F4FA01FF2711
:102C6000A9019F01762F7770A0E8B0E002C0B5956A
:102C7000A7957A95E2F77A2FC0917601C49FF0016B
:102C8000C59FF00D1124669566956695E60FF11DBA
:102C9000013091F424173507C8F1EC01A881B981FE
:102CA000AE0FBF1F6C91672B6C9360917601E60F9E
:102CB000F11D4F5F5F4FEECF011114C07A2F709559
:102CC0002417350718F1EC01A881B981AE0FBF1F99
:102CD0006C9167236C9360917601E60FF11D4F5F55
:102CE0005F4FEECF023091F42417350778F0EC01F6
:102CF000A881B981AE0FBF1F6C9167276C9360915B
:102D00007601E60FF11D4F5F5F4FEECFDF91CF9160
:102D10000F9108952F923F924F925F926F927F9200
:102D20008F929F92AF92BF92CF92DF92EF92FF92DB
:102D30000F931F93CF93DF9300D000D0CDB7DEB7B2
:102D4000742F302F0E2D462F50E05C834B83E09183
:102D5000760158E0E59FF00111244B815C81E41776
:102D6000F5070CF486C040917501471708F481C03F
:102D7000422E512CE415F5050CF47BC0431708F4E2
:102D800078C0621307C0232F30E0472F50E00E9425
:102D90001F166FC0731307C092014B815C81672FB0
:102DA0000E94771566C0261738F48B819C818419A0
:102DB00095092C018FEF05C0EB81FC814E1A5F0A4B
:102DC00081E0A72EB12CC32ED12C371730F49501FA
:102DD0002C193D0969019FEF03C0CA18DB0891E077
:102DE0004C145D043CF03C2D2D2D6201432E522EDF
:102DF00010E001C011E0440C551C42018C189D08E4
:102E00009601220F331F612C712C292E332427FCAD
:102E10003094E82EFF24E7FCF094C614D7044CF15C
:102E2000402F6A2D8B8129833A830E94A91429811E
:102E30003A8197FC0DC0113039F44B815C814E0D05
:102E40005F1D5C834B8302C0A20CB31C821A930AE1
:102E5000113019F4A20CB31C06C08B819C818E0D1D
:102E60009F1D9C838B83840C951C9FEF691A790AA4
:102E7000D4CF0F900F900F900F90DF91CF911F91B3
:102E80000F91FF90EF90DF90CF90BF90AF909F9009
:102E90008F907F906F905F904F903F902F9008950C
:102EA0004F925F926F927F928F929F92AF92BF925A
:102EB000CF92DF92EF92FF920F931F93CF93DF9306
:102EC000EC01F62E142F422E502EDE2C8FEFC8125E
:102ED00030C0AF2CA40CED2C012F2A2D412F6F2DCB
:102EE000CE010E948A16B12EB50C0B2D2F2D412F2D
:102EF0006F2DCE010E948A162A2D412F6A2DCE01F8
:102F00000E948A162A2D4B2D6F2DCE010E948A1603
:102F1000DF91CF911F910F91FF90EF90DF90CF90B5
:102F2000BF90AF909F908F907F906F905F904F90E9
:102F30000895E42EA02EB12CA40EB11C862E912C47
:102F40003401620E711C8E2D90E08A159B050CF6E3
:102F50000C2D9301A4016E2DCE010E947715E394F0
:102F6000F2CF2F923F924F925F926F927F928F9209
:102F70009F92AF92BF92CF92DF92EF92FF920F9308
:102F80001F93CF93DF93CDB7DEB729970FB6F89491
:102F9000DEBF0FBECDBFDC01962F977058E0591BE6
:102FA000E11006C0F901E00FF11FE4900F5F1F4F21
:102FB000C11006C0F901E00FF11FC4900F5F1F4F51
:102FC0008E2D8770EE2DE695E695E695882321F007
:102FD000882483948E0E02C08E2E88E066956695B6
:102FE0006695E62EF12CFC82EB82692E712CB301E2
:102FF000680F711D798768876FEF70E0088402C0E1
:10300000759567950A94E2F7852F90E09A838983F6
:1030100091E0891202C0562E01C0512C8FEF90E032
:103020005C01052E01C0AA0C0A94EAF75A28462E24
:10303000688579856850710902C0959587956A956C
:10304000E2F78D8360E070E0E42EF12CFF82EE82E7
:10305000912C41E0841A91086C1508F08CC0F09115
:1030600076014E815F81460F571FF49FC001F59F87
:10307000900D1124EB80FC808E0D9F1DED91FC9135
:103080001197E80FF91FD0804D2D45214083A801ED
:103090004F5F5F4FF801E20FF31FA490ED91FC9199
:1030A0001197E80FF91FEA2CF12C062C02C0F594B9
:1030B000E7940A94E2F7F080FE28F0821401240ECF
:1030C000351E7C01E01AF10AC701840F951F0D918E
:1030D0001C911197B12C4215530508F5080F191FC3
:1030E000F801D080098001C0AA0C0A94EAF7A082F6
:1030F000F901E40FF51FA490ED91FC911197E80FF1
:10310000F91F8A2D90E0062C02C0959587950A94A8
:10311000E2F79081982B90834F5F5F4FD5CFE88582
:10312000F985389744F4FC013197E00FF11FD42062
:1031300010811D290CC0E885F985389749F0780180
:10314000E80EF91EF7011081FD811F23F70110839E
:103150000D911C911197080F191F098002C0AA0C2C
:10316000BB1C0A94E2F7F80180818A2980836F5F93
:103170007F4F8A0171CF29960FB6F894DEBF0FBE3C
:10318000CDBFDF91CF911F910F91FF90EF90DF9016
:10319000CF90BF90AF909F908F907F906F905F90F7
:1031A0004F903F902F900895DF92EF92FF920F93F0
:1031B0001F93CF93DF934130A9F1C0F0423009F45F
:1031C0004DC0433009F0C8C0562F5770E52E6695A4
:1031D0006695669570E0719561957109F12C02E034
:1031E00010E088E090E0851B910983C080917B010D
:1031F00090917C0120917601FC01629FE00DF11D10
:10320000112430917501AC01329F400D511D1124E4
:103210009A01DC012E173F0708F49EC080818D9330
:103220001192F8CF80917B0190917C0130917501D2
:1032300020917601DC01329FA00DB11D1124FD010A
:10324000629FE019F10911241196E817F90708F4B3
:1032500083C020812E9310823197F7CF162F1770DD
:1032600066956695669570E0D0E028E030E0211B19
:10327000310980917501D81708F06EC080917601F0
:10328000E0917B01F0917C018D9FE00DF11D1124F7
:10329000DF01A60FB71F90E002978E0F9F1F8A17BE
:1032A0009B0790F0CC91012E01C0CC0F0A94EAF755
:1032B0001D924C9150E0022E02C0559547950A94FC
:1032C000E2F7C42BC193EBCF8C91012E01C0880F84
:1032D0000A94EAF71C928083DF5FCBCF2C9130E019
:1032E0000E2C02C0359527950A94E2F71C92208394
:1032F000F39420917501F21678F5E09176014E2F46
:1033000050E09A0121503109EF9D200D311D11240B
:10331000E0917B01F0917C01E20FF31F9801241BE7
:10332000350B2E0F3F1FDF01A60FB71FA217B307E4
:10333000A8F24C9150E00E2C02C0559547950A9486
:10334000E2F71C92CE91082E01C0CC0F0A94EAF746
:103350004C2B40833197EACFDF91CF911F910F9192
:10336000FF90EF90DF900895EFE6F0E080818E7F90
:103370008083089581E080936F000895FC01758338
:1033800064830895CF92EF920F931F93CF93DF93AF
:10339000FC01A481B581FD0132963491ED012196A5
:1033A000FE01C490FD01E490FE010491231B209FC7
:1033B000800111240D5F1F4F9D010E94B117DF9105
:1033C000CF911F910F91EF90CF900895DC0113964C
:1033D0004C91139750E01496ED91FC91159731960E
:1033E00064912091750130E0261B31094217530783
:1033F00024F0649140E00C94D418E4914E0F511DD8
:10340000FC01438308950F931F93CF93DF931F9283
:10341000CDB7DEB78C01262F6A3031F1F8F4662380
:1034200009F466C0683069F5DC011496ED91FC91F1
:103430001597E491DC0112966C91129770E06E1B67
:10344000710912966C93129720E213964C910F908B
:10345000DF91CF911F910F910C94C2196D3071F0D3
:103460006E3009F445C00DC0DC0112961C920F901D
:10347000DF91CF911F910F910C94E619FC011282FC
:1034800037C0D80112966C911297809176011496EC
:10349000ED91FC911597E491462F50E0B8E08B9F99
:1034A000C00111248E1B9109F801481759076CF0CF
:1034B0001282C80129830E94E6192981D801139636
:1034C0004C91139712966C9101C04381C8010E94E0
:1034D000C219D8011496ED91FC911597E491D80189
:1034E00012968C911297F0E0E80FF11D1296EC9372
:1034F0000F90DF91CF911F910F9108950F931F931C
:10350000CF93DF938C01EB016991662321F0C80111
:103510000E94031AF9CFDF91CF911F910F91089567
:103520000C947E1A0F931F93CF93DF938C01EB01C2
:10353000FE016491662329F02196C8010E94031AB6
:10354000F7CFDF91CF911F910F9108950F931F93A4
:10355000CF93DF93EC0189016A834B83F801649177
:10356000662331F00F5F1F4FCE010E94031AF6CF82
:10357000DF91CF911F910F910895FC0162834383E6
:1035800008954F925F926F927F928F929F92AF9227
:10359000BF92CF92DF92EF92FF920F931F93CF9340
:1035A000DF93CDB7DEB7A0970FB6F894DEBF0FBE9E
:1035B000CDBF5C014115510561057105C9F460E39A
:1035C000A0960FB6F894DEBF0FBECDBFDF91CF91AE
:1035D0001F910F91FF90EF90DF90CF90BF90AF9031
:1035E0009F908F907F906F905F904F900C94031AF4
:1035F0008E010F5F1F4FC12CD12C76014801422E46
:10360000512C612C712C8FEFC81AD80AE80AF80ADD
:10361000CB01BA01A30192010E941726CA01F80149
:1036200061938F01A901BC01411551056105710527
:1036300051F7F1E0CF1AD108E108F108F401EC0DDF
:10364000FD1D60816A3010F4605D01C0695CC501D8
:103650000E94031A81E0C81AD108E108F108EFEFCF
:10366000CE16DE06EE06FE0649F7A0960FB6F894D3
:10367000DEBF0FBECDBFDF91CF911F910F91FF90A5
:10368000EF90DF90CF90BF90AF909F908F907F9002
:103690006F905F904F9008952115310519F4642FB4
:1036A0000C94031A0C94C11A9A01462F50E060E062
:1036B00070E00C944C1B9A01AB0160E070E00C943C
:1036C0004C1BCF92DF92EF92FF92CF93DF93EC01EE
:1036D0006A017B0177FF0BC06DE20E94031AF09430
:1036E000E094D094C094C11CD11CE11CF11C2AE0D0
:1036F000B701A601CE01DF91CF91FF90EF90DF904F
:10370000CF900C94C11A2115310519F4642F0C9433
:10371000031A2A30310511F40C94611B0C94C11A60
:103720009A01AB01662757FD6095762F0C94831B99
:10373000089520916C0130916D018091720190E0AB
:103740002817390779F410927E0110927D0180913B
:103750007801809379018EE49CE1909369018093D4
:10376000680116C020916C0130916D018091730148
:10377000909174012817390759F482ED9BE19093D9
:10378000690180936801E0910A01F0910B010995AC
:1037900080916C0190916D01019690936D018093E1
:1037A0006C01089520916C0130916D01809173013D
:1037B00090917401281739070CF44EC08CEA93E0FD
:1037C000909389008093880010926D0110926C0193
:1037D00080916E0190916F01A0917001B091710183
:1037E0000196A11DB11D80936E0190936F01A0936E
:1037F0007001B09371018091640190916501A09175
:103800006601B0916701892B8A2B8B2B09F180917E
:10381000640190916501A0916601B091670118164D
:1038200019061A061B0684F58091640190916501C2
:10383000A0916601B09167010197A109B109809338
:10384000640190936501A0936601B09367011CC069
:103850001092B1002B9818C020916C0130916D012D
:1038600080917A01992787FD90952817390761F48F
:103870008AE490E0909389008093880089E99BE135
:10388000909369018093680180916C0190916D0122
:10389000019690936D0180936C010895309184009E
:1038A000209177012A50231B2350F0F72D5F19F048
:1038B0002A9511F001C00000E0916A01F0916B01BE
:1038C0000995809179014091780181110FC0409351
:1038D00079012091760180917D0190917E01820F86
:1038E000911D90937E0180937D0103C08150809350
:1038F000790120916C0130916D012F5F3F4F6091F4
:10390000720170917501552747FD50954F5F5F4FCC
:10391000749FC001759F900D1124860F911D28176B
:10392000390731F489E99BE190936901809368013B
:1039300080916C0190916D01019690936D0180933F
:103940006C0108950F93CF93DF93A0917B01B09109
:103950007C01C0917D01D0917E0180917601AC0FF8
:10396000BD1F0BB10F7703C000FA07F90BB90D901B
:10397000000007FA07F90BB900000000000006FA82
:1039800007F90BB900000000000005FA07F90BB9B0
:1039900000000000000004FA07F90BB90000000065
:1039A000000003FA07F90BB900000000000002FA5A
:1039B00007F90BB900000000000001FA07F90BB984
:1039C0008A9591F60000000000FA07F90BB90BB1D7
:1039D0000F7707FB07F90BB9DF91CF910F9108958E
:1039E0000F93CF93DF93A0917B01B0917C01C091A5
:1039F0007D01D0917E0180917601AC0FBD1F0BB18E
:103A00000F7703C000FA07F90BB90D9007FA07F911
:103A10000BB90000000006FA07F90BB9000000001E
:103A200005FA07F90BB90000000004FA07F90BB911
:103A30000000000003FA07F90BB90000000002FAC9
:103A400007F90BB900008A9501FA07F90BB9D1F60D
:103A5000000000FA07F90BB90BB10F7707FB07F964
:103A60000BB9DF91CF910F9108950F93CF93DF930F
:103A7000A0917B01B0917C01C0917D01D0917E012C
:103A800080917601AC0FBD1F02C0000C0BB80D90E9
:103A900000000BB800000000000C0BB80000000094
:103AA000000C0BB800000000000C0BB80000000078
:103AB000000C0BB800000000000C0BB80000000C5C
:103AC0008A950BB811F70000000C0BB8000000003D
:103AD00000005F98DF91CF910F9108950F93CF93DE
:103AE000DF93A0917B01B0917C01C0917D01D091C9
:103AF0007E0180917601AC0FBD1F8E3191F08D312A
:103B000051F08C3149F08B3141F08A3139F08931F3
:103B100031F0883129F01CC032C048C05EC074C08A
:103B20008AC00D900BB80000000C0BB80000000C10
:103B30000BB80000000C0BB80000000C0BB8000024
:103B4000000C0BB80000000C0BB80000000C0BB808
:103B50000D900BB80000000C0BB80000000C0BB867
:103B60000000000C0BB80000000C0BB80000000CAB
:103B70000BB80000000C0BB80000000C0BB80D9047
:103B80000BB80000000C0BB80000000C0BB80000D4
:103B9000000C0BB80000000C0BB80000000C0BB8B8
:103BA0000000000C0BB80000000C0BB80D900BB817
:103BB0000000000C0BB80000000C0BB80000000C5B
:103BC0000BB80000000C0BB80000000C0BB8000094
:103BD000000C0BB80000000C0BB80D900BB80000E7
:103BE000000C0BB80000000C0BB80000000C0BB868
:103BF0000000000C0BB80000000C0BB80000000C1B
:103C00000BB80000000C0BB80D900BB80000000CB6
:103C10000BB80000000C0BB80000000C0BB8000043
:103C2000000C0BB80000000C0BB80000000C0BB827
:103C30000000000C0BB80D900BB80000000C0BB886
:103C40000000000C0BB80000000C0BB80000000CCA
:103C50000BB80000000C0BB80000000C0BB8000003
:103C6000000C0BB80D900BB80000000C0BB8000056
:103C7000000C0BB80000000C0BB80000000C0BB8D7
:103C80000000000C0BB80000000C0BB80000000C8A
:103C90000BB80D900BB80000000C0BB80000000C26
:103CA0000BB80000000C0BB80000000C0BB80000B3
:103CB000000C0BB80000000C0BB80000000C0BB897
:103CC0000D900BB80000000C0BB80000000C0BB8F6
:103CD0000000000C0BB80000000C0BB80000000C3A
:103CE0000BB80000000C0BB80000000C0BB80D90D6
:103CF0000BB80000000C0BB80000000C0BB8000063
:103D0000000C0BB80000000C0BB80000000C0BB846
:103D10000000000C0BB80000000C0BB80D900BB8A5
:103D20000000000C0BB80000000C0BB80000000CE9
:103D30000BB80000000C0BB80000000C0BB8000022
:103D4000000C0BB80000000C0BB80D900BB8000075
:103D5000000C0BB80000000C0BB80000000C0BB8F6
:103D60000000000C0BB80000000C0BB80000000CA9
:103D70000BB80000000C0BB80D900BB80000000C45
:103D80000BB80000000C0BB80000000C0BB80000D2
:103D9000000C0BB80000000C0BB80000000C0BB8B6
:103DA0000000000C0BB80D900BB80000000C0BB815
:103DB0000000000C0BB80000000C0BB80000000C59
:103DC0000BB80000000C0BB80000000C0BB8000092
:103DD000000C0BB80D900BB80000000C0BB80000E5
:103DE000000C0BB80000000C0BB80000000C0BB866
:103DF0000000000C0BB80000000C0BB80000000C19
:103E00000BB80D900BB80000000C0BB80000000CB4
:103E10000BB80000000C0BB80000000C0BB8000041
:103E2000000C0BB80000000C0BB80000000C0BB825
:103E30000D900BB80000000C0BB80000000C0BB884
:103E40000000000C0BB80000000C0BB80000000CC8
:103E50000BB80000000C0BB80000000C0BB80D9064
:103E60000BB80000000C0BB80000000C0BB80000F1
:103E7000000C0BB80000000C0BB80000000C0BB8D5
:103E80000000000C0BB80000000C0BB80D900BB834
:103E90000000000C0BB80000000C0BB80000000C78
:103EA0000BB80000000C0BB80000000C0BB80000B1
:103EB000000C0BB80000000C0BB80D900BB8000004
:103EC000000C0BB80000000C0BB80000000C0BB885
:103ED0000000000C0BB80000000C0BB80000000C38
:103EE0000BB80000000C0BB80D900BB80000000CD4
:103EF0000BB80000000C0BB80000000C0BB8000061
:103F0000000C0BB80000000C0BB80000000C0BB844
:103F10000000000C0BB80D900BB80000000C0BB8A3
:103F20000000000C0BB80000000C0BB80000000CE7
:103F30000BB80000000C0BB80000000C0BB8000020
:103F4000000C0BB80D900BB80000000C0BB8000073
:103F5000000C0BB80000000C0BB80000000C0BB8F4
:103F60000000000C0BB80000000C0BB80000000CA7
:103F70000BB80D900BB80000000C0BB80000000C43
:103F80000BB80000000C0BB80000000C0BB80000D0
:103F9000000C0BB80000000C0BB80000000C0BB8B4
:103FA0000D900BB80000000C0BB80000000C0BB813
:103FB0000000000C0BB80000000C0BB80000000C57
:103FC0000BB80000000C0BB80000000C0BB80D90F3
:103FD0000BB80000000C0BB80000000C0BB8000080
:103FE000000C0BB80000000C0BB80000000C0BB864
:103FF0000000000C0BB80000000C0BB80D900BB8C3
:104000000000000C0BB80000000C0BB80000000C06
:104010000BB80000000C0BB80000000C0BB800003F
:10402000000C0BB80000000C0BB80D900BB8000092
:10403000000C0BB80000000C0BB80000000C0BB813
:104040000000000C0BB80000000C0BB80000000CC6
:104050000BB80000000C0BB80D900BB80000000C62
:104060000BB80000000C0BB80000000C0BB80000EF
:10407000000C0BB80000000C0BB80000000C0BB8D3
:104080000000000C0BB8000000005F98DF91CF919A
:104090000F910895CF93DF93C82FE62F30937C01C3
:1040A00020937B01609376014093750110926E011D
:1040B00010926F011092700110927101642F70E0E4
:1040C000882319F084E091E002C088ED90E00E941E
:1040D0000326615060937801D0917801D0937901E3
:1040E00088E0E89F90011124442737FD4095542F24
:1040F00060EE72E080E090E00E943926243091F07A
:1041000018F42330B9F011C0253049F0263069F495
:1041100082EA9CE190936B0180936A0111C040EFA9
:104120005CE10AC045E35DE107C0273018F042EAD0
:104130005CE102C04EE65DE150936B0140936A0181
:10414000579A219A5F98299A239A82EC809380004B
:1041500089E180938100409175012D2F332727FD40
:1041600030952F5F3F4F429FC001439F900D112418
:10417000CC23C9F097FD01969595879591958195EA
:10418000910984568093720187EC8093770187E0D0
:1041900080937A0188E391E0909374018093730196
:1041A0008FEF93E018C097FD0196959587959195AF
:1041B000819591098557809372018FEB80937701E8
:1041C00083E080937A0186E091E09093740180937C
:1041D000730187EF93E090938700809386008AE4D1
:1041E00090E0909389008093880080917301909172
:1041F0007401019690936D0180936C0182ED9BE1B7
:10420000909369018093680181E080936F007894B6
:10421000DF91CF9108951F920F920FB60F92112444
:104220002F933F934F935F936F937F938F939F93BE
:10423000AF93BF93EF93FF93E0910C01F0910D01C9
:104240000995E0916801F09169010995FF91EF915D
:10425000BF91AF919F918F917F916F915F914F919E
:104260003F912F910F900FBE0F901F9018951F92A6
:104270000F920FB60F9211242F933F938F939F931A
:10428000AF93BF938091800190918101A0918201B1
:10429000B091830130917F0123E0230F2D3720F46B
:1042A0000196A11DB11D05C026E8230F0296A11D90
:1042B000B11D20937F018093800190938101A09391
:1042C0008201B09383018091840190918501A09136
:1042D0008601B09187010196A11DB11D80938401D3
:1042E00090938501A0938601B0938701BF91AF9110
:1042F0009F918F913F912F910F900FBE0F901F9024
:1043000018952FB7F8946091800170918101809188
:104310008201909183012FBF08953FB7F894809157
:10432000840190918501A0918601B091870126B505
:10433000A89B05C02F3F19F00196A11DB11D3FBFDD
:104340006627782F892F9A2F620F711D811D911D6D
:1043500042E0660F771F881F991F4A95D1F708958D
:10436000CF92DF92EF92FF92CF93DF936B017C01AC
:104370000E948D21EB01C114D104E104F10489F004
:104380000E94DE250E948D216C1B7D0B683E7340D0
:1043900090F381E0C81AD108E108F108C851DC4F58
:1043A000EACFDF91CF91FF90EF90DF90CF9008950B
:1043B000019739F0880F991F880F991F029701976D
:1043C000F1F70895789484B5826084BD84B58160E6
:1043D00084BD85B5826085BD85B5816085BDEEE60D
:1043E000F0E0808181608083E1E8F0E010828081EC
:1043F00082608083808181608083E0E8F0E080815A
:1044000081608083E1EBF0E0808184608083E0EB79
:10441000F0E0808181608083EAE7F0E08081846061
:1044200080838081826080838081816080838081BD
:10443000806880831092C10008958E3008F08E50FD
:10444000877020910E0190E4299F90011124822B06
:1044500080937C0080917A00806480937A008091C0
:104460007A0086FDFCCF809178002091790090E061
:10447000922B0895833081F028F4813099F08230B6
:10448000A1F008958730A9F08830B9F08430D1F4D4
:10449000809180008F7D03C0809180008F77809312
:1044A0008000089584B58F7702C084B58F7D84BD68
:1044B00008958091B0008F7703C08091B0008F7D08
:1044C0008093B0000895CF93DF9390E0FC01E35E0A
:1044D000FE4E2491FC01EF5CFE4E8491882349F14D
:1044E00090E0880F991FFC01E75AFE4EA591B49108
:1044F000815B9E4EFC01C591D4919FB7611108C0AC
:10450000F8948C91209582238C93888182230AC011
:10451000623051F4F8948C91322F309583238C9330
:104520008881822B888304C0F8948C91822B8C9391
:104530009FBFDF91CF9108950F931F93CF93DF9388
:104540001F92CDB7DEB7282F30E0F901E75FFE4EAE
:104550008491F901E35EFE4E1491F901EF5CFE4E89
:1045600004910023C9F0882321F069830E943A2234
:104570006981E02FF0E0EE0FFF1FE15BFE4EA59199
:10458000B4919FB7F8948C91611103C01095812369
:1045900001C0812B8C939FBF0F90DF91CF911F9112
:1045A0000F910895CF93DF93282F30E0F901E75F53
:1045B000FE4E8491F901E35EFE4ED491F901EF5C69
:1045C000FE4EC491CC2391F081110E943A22EC2F2F
:1045D000F0E0EE0FFF1FEB5BFE4EA591B4912C9126
:1045E0002D2381E090E021F480E002C080E090E0A3
:1045F000DF91CF910895FC01818D228D90E0805C48
:104600009F4F821B91098F7399270895FC01918D0B
:10461000828D981731F0828DE80FF11D858D90E025
:1046200008958FEF9FEF0895FC01918D828D98176B
:1046300061F0828DDF01A80FB11D5D968C91928D86
:104640009F5F9F73928F90E008958FEF9FEF089583
:1046500088E994E2892B49F080E090E0892B29F0E9
:104660000E94982481110C9400000895FC01848D0F
:10467000DF01A80FB11DA35ABF4F2C91848D90E08C
:1046800001968F739927848FA689B7892C93A08967
:10469000B1898C9180648C93938D848D981306C01E
:1046A0000288F389E02D80818F7D80830895CF93E8
:1046B000DF93EC01888D8823C9F0EA89FB8980812A
:1046C00085FD05C0A889B9898C9186FD0FC00FB6FC
:1046D00007FCF5CF808185FFF2CFA889B9898C913D
:1046E00085FFEDCFCE010E943623E7CFDF91CF913A
:1046F0000895CF92DF92FF920F931F93CF93DF9392
:104700001F92CDB7DEB76C01DC015B969C915B9785
:104710005C968C915C97981307C05096ED91FC9134
:104720005197808185FD32C0F601038D10E00F5F47
:104730001F4F0F731127F02EF601848DF81211C050
:104740000FB607FCF9CFD6015096ED91FC91519729
:10475000808185FFF1CFC60169830E94362369817C
:10476000EBCF838DE80FF11DE35AFF4F6083D60135
:104770005B960C935B975296ED91FC9153978081D9
:104780008062808381E058968C930DC0D601569646
:10479000ED91FC91579760835096ED91FC91519764
:1047A00080818064808381E090E00F90DF91CF91E1
:1047B0001F910F91FF90DF90CF900895BF92CF92FD
:1047C000DF92EF92FF92CF93DF93EC016A017B01BE
:1047D000B22EE889F98982E08083411581EE58077D
:1047E00061057105A1F060E079E08DE390E0A7013B
:1047F00096010E9417262150310941095109569509
:10480000479537952795211580E1380798F0E88975
:10481000F989108260E874E88EE190E0A7019601C2
:104820000E94172621503109410951095695479593
:1048300037952795EC85FD853083EE85FF852083B0
:10484000188EEC89FD89B082EA89FB8980818061BC
:104850008083EA89FB89808188608083EA89FB897B
:10486000808180688083EA89FB8980818F7D808355
:10487000DF91CF91FF90EF90DF90CF90BF900895A0
:104880001F920F920FB60F9211242F938F939F9325
:10489000EF93FF93E0919801F09199018081E0916D
:1048A0009E01F0919F0182FD12C090818091A10133
:1048B0008F5F8F732091A201821751F0E091A101C7
:1048C000F0E0E857FE4F958F8093A10101C08081F1
:1048D000FF91EF919F918F912F910F900FBE0F90AD
:1048E0001F9018951F920F920FB60F9211242F93BD
:1048F0003F934F935F936F937F938F939F93AF9368
:10490000BF93EF93FF9388E891E00E943623FF91D5
:10491000EF91BF91AF919F918F917F916F915F9137
:104920004F913F912F910F900FBE0F901F901895B0
:1049300088E891E00E94FB2221E0892B09F420E025
:10494000822F089510928B0110928A0188EE93E0D5
:10495000A0E0B0E080938C0190938D01A0938E0134
:10496000B0938F018CE191E090938901809388014D
:1049700085EC90E0909395018093940184EC90E015
:10498000909397018093960180EC90E09093990129
:104990008093980181EC90E090939B0180939A0121
:1049A00082EC90E090939D0180939C0186EC90E0D6
:1049B00090939F0180939E011092A1011092A201F9
:1049C0001092A3011092A401089508950E94E2217B
:1049D0000E94E5240E94C90DC8E2D3E20E94761429
:1049E0002097E1F30E942823F9CFCF92DF92EF9234
:1049F000FF920F931F93CF93DF936C017A01EB012A
:104A0000E60EF71E00E010E0CE15DF0561F06991BB
:104A1000D601ED91FC910190F081E02DC601099540
:104A2000080F191FF1CFC801DF91CF911F910F918E
:104A3000FF90EF90DF90CF9008956115710581F0A0
:104A4000DB010D900020E9F7AD0141505109461BF3
:104A5000570BDC01ED91FC910280F381E02D09946C
:104A600080E090E00895EF92FF920F931F93CF9311
:104A7000DF938C01FB01C0E0D0E064917F018FEFF8
:104A8000E81AF80A662361F0D801ED91FC910190D3
:104A9000F081E02DC8010995C80FD91FF701EDCFAE
:104AA000CE01DF91CF911F910F91FF90EF9008956C
:104AB000DC01ED91FC910190F081E02D09940F93C0
:104AC0001F93CF93DF93EC016DE00E9458258C017A
:104AD0006AE0CE010E945825800F911FDF91CF918F
:104AE0001F910F9108950F931F93CF93DF93EC01C4
:104AF0000E9433258C01CE010E945F25800F911FFB
:104B0000DF91CF911F910F9108950F931F93CF9332
:104B1000DF93EC010E941D258C01CE010E945F25D0
:104B2000800F911FDF91CF911F910F9108954F92A8
:104B30005F926F927F92AF92BF92CF92DF92EF928D
:104B4000FF920F931F93CF93DF93CDB7DEB7290169
:104B50003A01621B730B840B950B29893A894B89A7
:104B60005C892A193B094C095D09298B3A8B4B8BCF
:104B70005C8B9B01AC0169897A898B899C890E9435
:104B8000DF25E418F50806091709A80197010E9416
:104B900039262A0D3B1D4C1D5D1DCA01B901DF914F
:104BA000CF911F910F91FF90EF90DF90CF90BF902A
:104BB000AF907F906F905F904F9008950895DB01C4
:104BC0008F939F930E945E26BF91AF91A29F800D0D
:104BD000911DA39F900DB29F900D11240895AA1BC3
:104BE000BB1B51E107C0AA1FBB1FA617B70710F0D8
:104BF000A61BB70B881F991F5A95A9F7809590950A
:104C0000BC01CD01089597FB072E16F4009407D040
:104C100077FD09D00E94EF2507FC05D03EF4909562
:104C200081959F4F0895709561957F4F0895A1E2FA
:104C30001A2EAA1BBB1BFD010DC0AA1FBB1FEE1F16
:104C4000FF1FA217B307E407F50720F0A21BB30B61
:104C5000E40BF50B661F771F881F991F1A9469F7DD
:104C600060957095809590959B01AC01BD01CF0139
:104C70000895052E97FB1EF400940E94502657FDC0
:104C800007D00E94172607FC03D04EF40C94502640
:104C900050954095309521953F4F4F4F5F4F089568
:104CA00090958095709561957F4F8F4F9F4F089598
:104CB000EE0FFF1F0590F491E02D09940E946926E4
:104CC000A59F900DB49F900DA49F800D911D112460
:104CD0000895A29FB001B39FC001A39F700D811DD5
:104CE0001124911DB29F700D811D1124911D0895F5
:104CF000CF93DF938230910510F482E090E0E09151
:104D00002702F091280220E030E0A0E0B0E03097E8
:104D100039F14081518148175907B8F048175907B0
:104D200071F482819381109729F013969C938E934E
:104D300012972CC0909328028093270227C0211538
:104D4000310531F04217530718F0A901DB0101C00A
:104D5000EF019A01BD01DF010280F381E02DD7CF81
:104D600021153105F9F0281B390B2430310580F469
:104D70008A819B816115710521F0FB0193838283F8
:104D800004C09093280280932702FE01329644C00B
:104D9000FE01E20FF31F8193919322503109398371
:104DA00028833AC02091250230912602232B41F41A
:104DB00020910201309103013093260220932502B5
:104DC00020910001309101012115310541F42DB7E9
:104DD0003EB74091040150910501241B350BE09131
:104DE0002502F0912602E217F307A0F42E1B3F0BD9
:104DF0002817390778F0AC014E5F5F4F241735074D
:104E000048F04E0F5F1F5093260240932502819376
:104E1000919302C0E0E0F0E0CF01DF91CF910895DF
:104E2000CF93DF93009709F487C0FC013297138278
:104E30001282C0912702D0912802209781F420810C
:104E40003181280F391F8091250290912602821707
:104E5000930779F5F0932602E09325026DC0DE01F9
:104E600020E030E0AE17BF0750F412964D915C91F0
:104E700013979D014115510509F1DA01F3CFB38371
:104E8000A28340815181840F951F8A179B0771F47B
:104E90008D919C911197840F951F02969183808329
:104EA00012968D919C9113979383828321153105DE
:104EB00029F4F0932802E09327023EC0D90113960B
:104EC000FC93EE9312974D915D91A40FB51FEA17D5
:104ED000FB0779F480819181840F951F0296D90197
:104EE00011969C938E938281938113969C938E93BB
:104EF0001297E0E0F0E08A819B81009719F0FE01B3
:104F0000EC01F9CFCE01029628813981820F931FDF
:104F100020912502309126022817390769F430972D
:104F200029F4109228021092270202C013821282E2
:104F3000D0932602C0932502DF91CF910895F9996D
:104F4000FECF92BD81BDF89A992780B50895262F8E
:104F5000F999FECF1FBA92BD81BD20BD0FB6F8945E
:0E4F6000FA9AF99A0FBE01960895F894FFCFC1
:104F6E0000002902800001000000981B981B0131EF
:104F7E002E306200202D2000000000007923F52441
:084F8E00FB2214230623572324
:00000001FF
