:100000000C94DA080C94F7080C94F7080C94F70891
:100010000C94F7080C94F7080C94F7080C94F70864
:100020000C94F7080C94F7080C94F7080C94F70854
:100030000C94F7080C945E270C94F7080C94F708BE
:100040000C948A270C94F7080C94F7080C94F70882
:100050000C94F7080C94F7080C94F7080C94F70824
:100060000C94F7080C94F7082F103E104C10DE107B
:100070004A110812BC123B13A7130314EA14991671
:100080002C178818DE185819333020736563003236
:100090003020736563003130207365630035207351
:1000A000656300436F6E742E002020202020200006
:1000B000323020250034302025003630202500380D
:1000C0003020250031303020250020202020200045
:1000D0003130206D696E0038206D696E0035206DFD
:1000E000696E0032206D696E0031206D696E0020EE
:1000F000202020202000534156454420212121006A
:10010000457869740046616E204D6F64652020203B
:100110003A0046616E20537065656420203A0054B1
:10012000696D657220496E632E203A0046414E206B
:100130004F7074696F6E73005341564544202121FE
:100140002100616E7920746F2063616E63656C00BD
:10015000486F6C64204D6F646520746F2053617626
:100160006500202D200044657465637465643A2041
:1001700000202D200053617665642020203A200065
:10018000525353492043616C6962726174696F6EA6
:1001900000524620737065637472756D20616E61E4
:1001A0006C797A6572005341564544202121210023
:1001B0002020200052535349004368616E6E656CE5
:1001C0003A20005246204368616E6E656C2053658C
:1001D0006C656374696F6E00507265737320616E35
:1001E0007920746F20636F6E74696E75652E2E2E84
:1001F000002020202020486F6C64203A2053617634
:1002000065004D6F646520436C69636B3A204578E7
:100210006974002020202020486F6C64203A20530D
:1002200063616E004E65787420436C69636B3A209D
:1002300043682B00427574746F6E204B65792049BA
:100240006E666F00534156454420212121003E0037
:10025000457869740020205246204469766572739F
:100260006974790020204578742E20566964656F82
:10027000002020524620566964656F2032002020FD
:10028000524620566964656F203100566964656F77
:1002900020496E707574204D656E75002500202014
:1002A00020202000202D00202D20004368616E6E4C
:1002B000656C3A00457869740046616E204F75742C
:1002C00070757400524620537065637472756D00CA
:1002D0005246204368616E6E656C2053657475707C
:1002E00000566964656F20496E7075742053656CA3
:1002F0006563742E00436F6E666967757261746919
:100300006F6E204D656E7500250020202020200096
:10031000202D00202D20004368616E6E656C3A0030
:10032000467265616B7941747469632E636F6D0009
:10033000352E3847487A20566964656F20527820F8
:100340002D205665722E004641353847485A00E93F
:1003500016D516C116AD169916851671165D166559
:100360001678168B169E16B116C416D716EA1649BD
:1003700016351621160D16FD161117251739176C8F
:100380001680169416A816BC16D016E416F8161A7F
:10039000163F1664168916AE16D316F8161D1705E5
:1003A0002A9B29912987291D29132909299F280377
:1003B000290C2916291F29892992299C29052A9562
:1003C000288B28812817280F2A192A832A8D2A0684
:1003D0002910291A2984298E299829022A0C2A1DD4
:1003E00028B028022915298729DA290C2A132A136B
:1003F00020121121100722081806091905230A1ACC
:10040000040B1B03240C1C020D1D25010E1E000FE6
:100410001F261415271617040620000000000000F0
:10042000404040004000A0A000000000A0E0A0E08C
:10043000A0004060C060C000A0204080A00020401C
:10044000C0A0E0008080000000004080808040006C
:1004500080404040800040A0400000000040E0405C
:1004600000000000008080000000E00000000000AC
:1004700000008000202040808000E0A0A0A0E000DC
:1004800040C04040E000E020E080E000E020E020CC
:10049000E000A0A0E0202000E080E020C000C080BC
:1004A000E0A0E000E02040808000E0A0E0A0E000CC
:1004B000E0A0E0206000004000400000004000405C
:1004C000800020408040200000E000E000008040EC
:1004D00020408000C02040004000E0A0A0E0E000FC
:1004E000E0A0E0A0A000C0A0E0A0C000E08080806C
:1004F000E000C0A0A0A0C000E080E080E000E080BC
:10050000E0808000E08080A0E000A0A0E0A0A0004B
:10051000E0404040E000202020A0E00080A0C0C0DB
:10052000A00080808080E000A0E0E0A0A000C0A04B
:10053000A0A0A00040A0A0A04000E0A0E08080001B
:1005400040A0A0E06600E0A0C0E0AA00E080E020BB
:10055000E000E04040404000A0A0A0A0E000A0A03B
:10056000A0A04000A0A0E0E0A200A0A040A0A000A9
:10057000A0A040404000E0204080E000C08080809B
:10058000C000008040202000C0404040C00040A08B
:100590000000000000000000E000804000000000BB
:1005A0000060A0A060008080C0A0C00000608080CB
:1005B0006000202060A0600040A0E08060006040FB
:1005C000E040400060A06020C0008080C0A0A0008B
:1005D00040004040400040004040C0008080A0C03B
:1005E000A000C0404040E00000A0E0A0A00000C08B
:1005F000A0A0A0000040A0A0400000C0A0C08000BB
:100600000060A060200000C0A0808000006040204A
:10061000600040E04040400000A0A0A0600000A0BA
:10062000A0A0400000A0A0E0A00000A04040A000CA
:1006300000A0E020400000E04080E0002040C040FA
:10064000220040400040400080406040800000A008
:1006500040000000060820000000000000000040EC
:10066000404040400040005050500000000000005A
:100670000050F850F850002070A070287020000042
:10068000C8D0205898000020508040A890680040B2
:10069000404000000000001020404040201000407A
:1006A0002010101020400010381000000000000042
:1006B0002020F820200000000000000010100000A2
:1006C0000000F80000000000000000001000000022
:1006D000081020408000007088A8A88870000020C2
:1006E000602020207000007088102040F80000F882
:1006F00010201088700000909090F810100000F802
:1007000080F008887000007080F08888700000F821
:100710000810204080000070887088887000007089
:100720008888780870000000002000002000000089
:1007300000200020204000001860806018000000A9
:100740000078007800000000C0300830C000006071
:1007500090202000200000708898A89088700020C9
:100760005088F888880000F088F08888F0000070D1
:1007700088808088700000F088888888F00000F801
:1007800080F88080F80000F880F0808080000070A1
:10079000888098887000008888F8888888000070B1
:1007A0002020202070000038101010906000008879
:1007B00090E0A0908800008080808080F800008811
:1007C000D8A8A8888800008888C8A89888000070E1
:1007D00088888888700000F088F080808000007031
:1007E0008888A890680000F088F0A09088000078C1
:1007F00080700808F00000F82020202020000088E9
:100800008888888870000088888888502000008840
:1008100088A8A8A850000088502050888800008828
:1008200088502020200000F808102040F80000E048
:1008300080808080E00000008040201008000038A8
:1008400008080808380000205000000000000000E0
:100850000000000000F800804000000000000000E0
:10086000601070906000008080E09090E0000000D8
:100870000070808070000010107090907000000078
:100880006090F0807000003040E040404000000088
:10089000609070101060008080E0909090000020C8
:1008A0000020202070000010003010101060008028
:1008B00090A0C0A0900000602020202070000000C8
:1008C0000050A8A8A800000000F088888800000058
:1008D0000060909060000000006090F08080000058
:1008E000006090F01010000000B048404000000090
:1008F000304020106000004040E0404040000000D8
:100900000090909060000000008888502000000057
:100910000088A8A8500000008850205088000000DF
:10092000009090604080000000F02040F000002027
:100930004040804040200020202020202020002017
:100940001010081010200040A81000000000000047
:100950000000000000000008080000000000000087
:1009600000007E81A581BD99817E7EFFDBFFC3E70C
:10097000FF7E6CFEFEFE7C38100010387CFE7C385A
:100980001000387C38FEFED6103810387CFEFE7C15
:1009900010380000183C3C180000FFFFE7C3C3E715
:1009A000FFFF003C664242663C00FFC399BDBD9913
:1009B000C3FF0F070F7DCCCCCC783C6666663C1835
:1009C0007E183F333F303070F0E07F637F636367B2
:1009D000E6C018DB3CE7E73CDB1880E0F8FEF8E017
:1009E0008000020E3EFE3E0E0200183C7E18187E6D
:1009F0003C1866666666660066007FDBDB7B1B1B59
:100A00001B003E613C66663C867C000000007E7EEA
:100A10007E00183C7E187E3C18FF183C7E18181883
:100A20001800181818187E3C180000180CFE0C1836
:100A30000000003060FE603000000000C0C0C0FE5A
:100A40000000002466FF6624000000183C7EFFFFC3
:100A5000000000FFFF7E3C180000000000000000C6
:100A60000000183C3C1818001800666624000000BE
:100A700000006C6CFE6CFE6C6C00183E603C067CEA
:100A8000180000C6CC183066C600386C3876DCCC4E
:100A9000760018183000000000000C1830303018B4
:100AA0000C0030180C0C0C18300000663CFF3C6643
:100AB00000000018187E1818000000000000001840
:100AC00018300000007E0000000000000000001848
:100AD0001800060C183060C080007CC6CED6E6C672
:100AE0007C001838181818187E007CC6061C306662
:100AF000FE007CC6063C06C67C001C3C6CCCFE0C92
:100B00001E00FEC0C0FC06C67C003860C0FCC6C625
:100B10007C00FEC60C18303030007CC6C67CC6C6D1
:100B20007C007CC6C67E060C7800001818000018F1
:100B300018000018180000181830060C1830180C8F
:100B4000060000007E00007E00006030180C1830A7
:100B500060007CC60C18180018007CC6DEDEDEC003
:100B60007800386CC6FEC6C6C600FC66667C666643
:100B7000FC003C66C0C0C0663C00F86C6666666CF3
:100B8000F800FE6268786862FE00FE62687868605D
:100B9000F0003C66C0C0CE663A00C6C6C6FEC6C6F9
:100BA000C6003C18181818183C001E0C0C0CCCCCB5
:100BB0007800E6666C786C66E600F06060606266FD
:100BC000FE00C6EEFEFED6C6C600C6E6F6DECEC601
:100BD000C6007CC6C6C6C6C67C00FC66667C606075
:100BE000F0007CC6C6C6C6CE7C0EFC66667C6C6613
:100BF000E6007CC660380CC67C007E7E5A18181849
:100C00003C00C6C6C6C6C6C67C00C6C6C6C6C66C3E
:100C10003800C6C6C6D6D6FE6C00C6C66C386CC6D2
:100C2000C6006666663C18183C00FEC68C18326624
:100C3000FE003C30303030303C00C06030180C06D4
:100C400002003C0C0C0C0C0C3C0010386CC6000074
:100C5000000000000000000000FF30180C00000041
:100C600000000000780C7CCC7600E0607C66666654
:100C7000DC0000007CC6C0C67C001C0C7CCCCCCC4C
:100C8000760000007CC6FEC07C003C6660F86060B8
:100C9000F000000076CCCC7C0CF8E0606C766666E8
:100CA000E6001800381818183C000600060606660C
:100CB000663CE060666C786CE60038181818181806
:100CC0003C000000ECFED6D6D6000000DC6666666E
:100CD000660000007CC6C6C67C000000DC66667C40
:100CE00060F0000076CCCC7C0C1E0000DC766060EE
:100CF000F00000007EC07C06FC003030FC30303656
:100D00001C000000CCCCCCCC76000000C6C6C66C63
:100D100038000000C6D6D6FE6C000000C66C386CE9
:100D2000C6000000C6C6C67E06FC00007E4C183217
:100D30007E000E18187018180E00181818181818B9
:100D400018007018180E1818700076DC00000000EB
:100D500000000010386CC6C6FE0060F0607C66665D
:100D6000660CFC607C6666666C001C10007E606031
:100D700060003820FEC0C0C0C0006C007CC6FEC051
:100D80007C006CFE62786062FE0000007CC6F0C6EB
:100D90007C003C66C0F8C0663C0000007EC07C065B
:100DA000FC007CC660380CC67C003000303030302F
:100DB00078007830303030307800CC00303030304F
:100DC0007800663C181818183C00180018181818F5
:100DD00018701E0C0C0C0CCC7800000070505C528B
:100DE000DC0070505C525252DC000000A0A0FCA25B
:100DF000BC00A0A0A0FCA2A2BC0060F0607C666663
:100E00006600F8607C66666666001C10C6D8F8CC82
:100E1000C60018D6CCF8F8CCC6006C38C6C6C67E5C
:100E2000067C38C6C67E06C67C000000C6C6C6C69E
:100E3000FE10C6C6C6C6C6C6FE100000DCD6F6D674
:100E4000DC00DCD6D6F6D6D6DC000000F0B03C36AE
:100E50003C00F0F0B03C36363C000000780C7CCC16
:100E600076003E66C6C6FEC6C600067CC07CC6C608
:100E70007C00FE66607C6666FC000000CCCCCCCCBE
:100E8000FE06CCCCCCCCCCCCFE0600003C6C6C6C12
:100E9000FEC61E3666666666FFC300007CC6FEC0E0
:100EA0007C00FE6268786862FE0000007CD6D67C1A
:100EB00010387CD6D6D67C1038000000FE66606004
:100EC000F000FE6660606060F000003366CC663360
:100ED000000000CC663366CC00002288228822887D
:100EE000228855AA55AA55AA55AADB77DBEEDB77EF
:100EF000DBEE181818181818181818181818F818F9
:100F000018180000C66C386CC600C6C66C386CC6B3
:100F1000C6000000C6CEDEF6E600C6C6CEDEF6E6A9
:100F2000C6003636F606F6363636363636363636B7
:100F300036360000FE06F63636363636F606FE0043
:100F400000000038C6CEDEF6E60038C6CEDEF6E695
:100F5000C60000000000F8181818181818181F000C
:100F6000000018181818FF00000000000000FF180B
:100F70001818181818181F18181800000000FF007B
:100F8000000018181818FF1818180000E66C786C84
:100F9000E600E66C78786C66E600363637303F005F
:100FA000000000003F30373636363636F700FF0097
:100FB00000000000FF00F736363636363730373659
:100FC00036360000FF00FF0000003636F700F73627
:100FD000363600C67CC6C67CC60000003E66666625
:100FE000E6001E3666666666C6000000C6FEFED6D1
:100FF000C600C6EEFEFED6C6C6000000C6C6FEC6C9
:10100000C600C6C6C6FEC6C6C60000007CC6C6C6AA
:101010007C007CC6C6C6C6C67C000000FEC6C6C62E
:10102000C60018181818F8000000000000001F186B
:101030001818FFFFFFFFFFFFFFFF00000000FFFF8A
:10104000FFFFFEC6C6C6C6C6C60000007EC67E66D8
:10105000C600FFFFFFFF000000007EC6C6C67E661A
:10106000C6000000FC66667C60F0FC6666667C601C
:10107000F00000007CC6C0C67C007CC6C0C0C0C6F4
:101080007C0000007E5A18183C007E5A1818181868
:101090003C000000C6C6C67E067CC6C6C67E06C626
:1010A0007C000000D67C387CD600D6D67C387CD636
:1010B000D6000000FC667C66FC00FC66667C66660A
:1010C000FC000000F0607C66FC00F060607C6666FE
:1010D0007C008FCDEFFCDCCCCC000000007C7C00E1
:1010E00000000000C6C6F6DEF600C6C6C6F6DEDEA6
:1010F000F60000007CC61CC67C007CC6063C06C60A
:101100007C000000D6D6D6D6FE00D6D6D6D6D6D609
:10111000FE0000007CC61EC67C00788C063E068C55
:1011200078000000D6D6D6D6FF03D6D6D6D6D6D6E9
:10113000FF030000C6C67E060600C6C6C67E0606BB
:1011400006003E613C66663C867C00003C3C3C3CC4
:101150000000000000000000000000000008000285
:10116000010000030407000000000000000001026D
:101170000408102040800102040810200102040825
:101180001020040404040404040402020202020203
:1011900003030303030300000000230026002900CB
:1011A00000000000250028002B00000000002400A3
:1011B00027002A0011241FBECFEFD8E0DEBFCDBF2D
:1011C00011E0A0E0B1E0EAEBF7E502C005900D9276
:1011D000AA31B107D9F721E0AAE1B1E001C01D921F
:1011E000A039B207E1F70E94AE290C94DB2B0C94D6
:1011F00000000C94C52B0C94CD2BCF92DF92EF9274
:10120000FF92CF93DF93EC010E94D4276B017C0106
:10121000CC0EDD1EE11CF11C0E94D4276C157D054F
:101220008E059F05C8F461E080E10E944E2960E0D0
:1012300081E10E944E2984E690E00E942B2860E024
:1012400080E10E944E2961E081E10E944E2984E6FE
:1012500090E00E942B28E0CF60E080E10E944E29C0
:1012600060E081E1DF91CF91FF90EF90DF90CF9030
:101270000C944E2960915B0181E090E00E94FB0894
:1012800060915A0182E090E00E94FB086091590150
:1012900083E090E00E94FB086091580184E090E0B8
:1012A0000E94FB086091570185E090E00E94FB08D6
:1012B0006091560186E090E00E94FB086091550124
:1012C00087E090E00E94FB086091540188E090E084
:1012D0000E94FB086091530189E090E00C94FB08A8
:1012E000CF93DF9380E090E00E94F908813309F00A
:1012F00051C082E00E948429EC0184E00E9484298C
:10130000892B19F4CD2B09F445C081E090E00E94AF
:10131000F90880935B0182E090E00E94F9088093D5
:101320005A0183E090E00E94F908C82F84E090E021
:101330000E94F9082C2F30E0322F2227282B3093DF
:1013400059012093580185E090E00E94F908C82FC8
:1013500086E090E00E94F9082C2F30E0322F2227FF
:10136000282B309357012093560187E090E00E948C
:10137000F9088093550188E090E00E94F908809375
:10138000540189E090E00E94F90880935301DF91B5
:10139000CF91089561E380E090E00E94FB081092F5
:1013A0005B0185E180935A0184E591E090935901B6
:1013B0008093580181E990E0909357018093560102
:1013C00083E08093550110925401109253010E94C2
:1013D0003A099BCF0F931F9382E00E94842940918A
:1013E000290150912A0160912B0170912C01892BC8
:1013F00081F4452B462B472B09F047C00E94D42788
:101400006093290170932A0180932B0190932C0102
:101410003CC0452B462B472BC1F10E94D42700919D
:10142000290110912A0120912B0130912C01601B80
:10143000710B820B930B6333710581059105E8F005
:10144000683522E072078105910518F481E090E08B
:1014500010C0683B2BE072078105910518F482E00B
:1014600090E007C0603A7F408105910530F483E049
:1014700090E09093520180935101109229011092B3
:101480002A0110922B0110922C0183E00E948429E2
:10149000409125015091260160912701709128010A
:1014A000892B81F4452B462B472B09F047C00E941E
:1014B000D427609325017093260180932701909390
:1014C00028013CC0452B462B472BC1F10E94D42755
:1014D00000912501109126012091270130912801CA
:1014E000601B710B820B930B6333710581059105B2
:1014F000E8F0683522E072078105910518F481E073
:1015000090E010C0683B2BE072078105910518F44C
:1015100082E090E007C0603A7F408105910530F499
:1015200083E090E09093500180934F011092250149
:1015300010922601109227011092280184E00E9447
:1015400084294091210150912201609123017091E1
:101550002401892B81F4452B462B472B09F047C0EA
:101560000E94D4276093210170932201809323016C
:10157000909324013CC0452B462B472BC1F10E9480
:10158000D427009121011091220120912301309153
:101590002401601B710B820B930B63337105810572
:1015A0009105E8F0683522E072078105910518F48D
:1015B00081E090E010C0683B2BE072078105910547
:1015C00018F482E090E007C0603A7F408105910501
:1015D00030F483E090E090934E0180934D0110929F
:1015E00021011092220110922301109224011F91D7
:1015F0000F910895109252011092510110925001D2
:1016000010924F0110924E0110924D010895809159
:10161000510190915201019741F40E94FA0A8FE022
:1016200090E00E94FD0881E0089580E00895809197
:10163000510190915201029741F40E94FA0A8FE001
:1016400090E00E94FD0881E0089580E00895809177
:10165000510190915201039741F40E94FA0A8FE0E0
:1016600090E00E94FD0881E0089580E00895809157
:101670004F0190915001019741F40E94FA0A8FE0C6
:1016800090E00E94FD0881E0089580E00895809137
:101690004F0190915001029741F40E94FA0A8FE0A5
:1016A00090E00E94FD0881E0089580E00895809117
:1016B0004D0190914E01019741F40E94FA0A8FE08A
:1016C00090E00E94FD0881E0089580E008958091F7
:1016D0004D0190914E01029741F40E94FA0A8FE069
:1016E00090E00E94FD0881E0089580E0089531E0D7
:1016F0008091510190915201892B09F430E021E051
:1017000080914D0190914E01892B09F420E0232B0B
:1017100031F480914F0190915001892B41F00E944A
:10172000FA0A8FE090E00E94FD0881E0089580E0D1
:1017300008950F931F930E94D42700916001109188
:101740006101209162013091630106171707280794
:10175000390750F480910A01882309F470C010926F
:101760000A0160E070E00EC08091530181110EC04B
:101770006091200180910A01861709F460C060938E
:101780000A0170E085E00E948D2859C00E94D4278C
:1017900000915C0110915D0120915E0130915F012B
:1017A000061717072807390708F049C0809120015C
:1017B00090910A01981719F080930A0102C01092C3
:1017C0000A0160910A0170E085E00E948D280E9464
:1017D000D42760935C0170935D0180935E019093C8
:1017E0005F01209153012230A9F048F4213039F5EE
:1017F000DC01CB0188579C4EAF4FBF4F18C0233040
:1018000081F02430E1F4DC01CB01805D9A48AF4FD8
:10181000BF4F0DC0DC01CB01805F984DAF4FBF4F74
:1018200006C0DC01CB01805E914BAF4FBF4F809370
:101830005C0190935D01A0935E01B0935F010E94F3
:10184000570B882309F486C00E94D42700916001B9
:101850001091610120916201309163010617170711
:101860002807390750F40E94D427609360017093D1
:1018700061018093620190936301809155018230F0
:1018800089F190F4882309F1813009F04BC08091EF
:10189000600190916101A0916201B0916301805457
:1018A0009B42AE4FBF4F36C0833049F18430D1F5F3
:1018B0008091600190916101A0916201B0916301FA
:1018C0008054984DA64FBF4F25C0809160019091E4
:1018D0006101A0916201B0916301805A9541AF4FBF
:1018E000BF4F18C08091600190916101A091620189
:1018F000B091630180529C46AB4FBF4F0BC08091AB
:10190000600190916101A0916201B09163019D5AC3
:10191000A84FBF4F8093600190936101A093620133
:10192000B093630180915401823079F030F48823C0
:1019300051F0813079F48CEC0BC0833041F084306D
:1019400049F483E305C08FEF03C089E901C086E64F
:10195000809320010E94670B8823A1F00E94D42766
:1019600060936001709361018093620190936301C1
:101970000E94D42760935C0170935D0180935E01A7
:1019800090935F011F910F91089561E087E491E0CA
:101990000E94951B1816ACF461E08DE00E944E2960
:1019A0006CE271E080E090E00E94032860E08DE04E
:1019B0000E944E296CE271E080E090E00E940328D2
:1019C000EBCF60E087E491E00E94151B82E090E09D
:1019D000909346018093450108958091450190912F
:1019E0004601059731F084E090E0909346018093A2
:1019F000450108958091450190914601019721F09C
:101A000010924601109245010895CF92EF920F93E4
:101A1000242F8093440180934301609342014093BB
:101A20004101880F482F440F440F480F4E5E52E08B
:101A3000C52EEE24E3940AE062E087E491E00E9480
:101A4000871D0F91EF90CF9008954BE70C94050DF3
:101A5000CF92EF920F93809144018F5F8093440166
:101A600090914201891302C0109244018091430178
:101A7000880F482F440F440F480F4E5E62E0C62E79
:101A8000E12C0AE02091410162E087E491E00E94AC
:101A9000871D80914401880F482F440F440F480F41
:101AA0004E5EEE24E3942091410162E087E491E0F0
:101AB0000E94871D80914401809343010F91EF9014
:101AC000CF9008951F93CF93DF93982F9F70282F67
:101AD00022952F7038E0239F900D11249950983251
:101AE00018F48093300104C081E18093300190E0CC
:101AF000892F90E0880F991FFC01E15BFC4F259135
:101B0000349130932F0120932E0181569C4FFC017C
:101B1000C591D49181E090E00E942B2860E08BE099
:101B20000E944E298AE090E00E942B2860E08CE021
:101B30000E944E2981E090E00E942B2861E08AE01B
:101B40000E944E2981E090E00E942B2861E08CE009
:101B50000E944E2981E090E00E942B2860E08CE0FA
:101B60000E944E2981E090E00E942B2860E08CE0EA
:101B70000E944E2981E090E00E942B2860E08AE0DC
:101B80000E944E2981E090E00E942B2861E08CE0C9
:101B90000E944E2981E090E00E942B2860E08CE0BA
:101BA0000E944E2981E090E00E942B2860E08CE0AA
:101BB0000E944E2981E090E00E942B2860E08AE09C
:101BC0000E944E2981E090E00E942B2861E08CE089
:101BD0000E944E2981E090E00E942B2860E08CE07A
:101BE0000E944E2981E090E00E942B2860E08CE06A
:101BF0000E944E2981E090E00E942B2860E08AE05C
:101C00000E944E2981E090E00E942B2861E08CE048
:101C10000E944E2981E090E00E942B2860E08CE039
:101C20000E944E2981E090E00E942B2860E08CE029
:101C30000E944E2981E090E00E942B2861E08AE01A
:101C40000E944E2981E090E00E942B2861E08CE008
:101C50000E944E2981E090E00E942B2860E08CE0F9
:101C60000E944E2981E090E00E942B2810E160E064
:101C7000C0FF09C08CE00E944E2981E090E00E94E4
:101C80002B2861E008C08CE00E944E2981E090E0A2
:101C90000E942B2860E08AE00E944E2981E090E0BB
:101CA0000E942B2861E08CE00E944E2981E090E0A8
:101CB0000E942B2860E08CE00E944E2981E090E099
:101CC0000E942B28D695C795115089F6C4E060E094
:101CD0008CE00E944E2981E090E00E942B2860E079
:101CE0008AE00E944E2981E090E00E942B2861E06A
:101CF0008CE00E944E2981E090E00E942B2860E059
:101D00008CE00E944E2981E090E00E942B28C15077
:101D1000F1F681E090E00E942B2861E08BE00E94C8
:101D20004E298AE090E00E942B2861E08BE00E941F
:101D30004E2960E08CE00E944E2960E08AE0DF914D
:101D4000CF911F910C944E29823061F0833091F035
:101D50008130C1F480915A010E94620D0E94FA0CF8
:101D600061E013C080915A010E94620D0E94FA0C3A
:101D700060E003C00E94FA0C61E08EE00E944E29F0
:101D800061E007C00E94ED0C60E08EE00E944E29E9
:101D900060E08FE00C944E290E94620D81E090E09B
:101DA0000E942B2861E08BE00E944E298AE090E09F
:101DB0000C942B28CF9361E08BE00E94152961E001
:101DC0008AE00E94152961E08CE00E94152961E0FB
:101DD00082E10E94152961E082E10E944E2961E0C2
:101DE0008EE00E94152961E08FE00E94152960E0D5
:101DF0008EE00E944E2960E08FE00E944E2960E054
:101E000082E00E94152962E082E00E944E2960E093
:101E100083E00E94152962E083E00E944E2960E081
:101E200084E00E94152962E084E00E944E2961E06E
:101E300080E10E94152961E081E10E94152960E09E
:101E400080E10E944E2960E081E10E944E2961E01C
:101E50008DE00E94152961E08DE00E944E2961E02D
:101E600085E00E94152961E085E00E944E29C6E0C8
:101E700061E08DE00E944E298AE090E00E94FD081A
:101E800060E08DE00E944E2964E670E080E090E022
:101E90000E940328C15061F70E94700980915A0185
:101EA0000E94CC0E0E94C50C0E94D427609364014E
:101EB0007093650180936601909367010E94D42717
:101EC000609360017093610180936201909363015C
:101ED000CF91089590913001892F8F7092959F70C6
:101EE00028E0929F800D1124895008950E946A0F66
:101EF0008F5F883209F480E0282F26952695269555
:101F00008F5F98E0299F800D11248F702F5F90E1E3
:101F1000299F90011124822B0C94620D80912D0138
:101F20008F5F883218F480932D0102C010922D012A
:101F3000E0912D01F0E0E151FC4F8491282F30E039
:101F4000F3E036952795FA95E1F78F5F98E0299FA2
:101F5000800D11248F702F5F90E1299F9001112433
:101F6000822B0C94620DE82FEF7082958F7098E0B1
:101F7000899FE00D1124E950E83208F0E0E0F0E03C
:101F8000EE0FFF1FE15BFC4F859194910895CF9276
:101F9000DF92EF92FF92CF93DF93CFE0D0E0C12C9E
:101FA000D12C760184E10E947028AA2797FDA09584
:101FB000BA2FC80ED91EEA1EFB1E219799F7C7013A
:101FC000B6012FE030E040E050E00E943D2AC90118
:101FD000DF91CF91FF90EF90DF90CF9008950E9416
:101FE000C70F209156013091570182179307B0F027
:101FF00060915801709159016817790790F0AC0110
:10200000421B530BE4E6E49FC001E59F900D1124B1
:10201000621B730B0E94152ACB01089580E090E0AB
:10202000089584E690E008954F925F926F927F92B8
:10203000AF92BF92CF92DF92EF92FF920F931F93D6
:10204000CF93DF93E0914501F0914601E031F10536
:1020500010F00C949C1AEC5CFF4F0C947E2A0E94AA
:10206000FA0A80915B018F5F0E94A40E87E491E0E1
:102070000E94EB1F81E090E00C94981A0E94170BCD
:10208000C82F0E94270BC82B0E94470B8C2B11F4E2
:102090000C949C1A0C94961A0E94FA0A80E00E94F2
:1020A000A40E60E087E491E00E94151BCC24CA9442
:1020B000D2E0ED2E0FE52FE740E060E087E491E00D
:1020C0000E94871D67E579E087E491E00E94F51F93
:1020D00027E433E042E163E287E491E00E94DD20FF
:1020E00067E174E087E491E00E94F51F20E333E0AC
:1020F00048E26AE087E491E00E94DD2060E171E05F
:1021000087E491E00E94C72020E233E042E360E2EE
:1021100087E491E00E94DD20EE24E39404E52FE7BC
:1021200044E560E087E491E00E94C11C27E133E0D0
:1021300047E56CE087E491E00E94DD2047E562E33B
:1021400087E491E00E94F42040E150E0609130018A
:1021500087E491E00E948B2163E173E087E491E0E2
:102160000E94C92060912E0170912F014AE050E039
:1021700087E491E00E94922160E173E087E491E0BE
:102180000E94C9200E94D4276093390170933A01BC
:1021900080933B0190933C010E94D427605F784D6F
:1021A0008F4F9F4F60933D0170933E0180933F019D
:1021B0009093400183E090E00C94981A0E94D427F9
:1021C000C1E0D0E040903D0150903E0160903F0161
:1021D00070904001461657066806790610F0C0E078
:1021E000D0E00E94770BC82BCD2B31F084E090E03B
:1021F00090934601809345010E94D4274090390175
:1022000050903A0160903B0170903C014616570691
:102210006806790610F00C949C1A0E94D427665028
:102220007F4F8F4F9F4F6093390170933A01809396
:102230003B0190933C0147E564E687E491E00E940E
:10224000F4206AE073E087E491E00E94C92047E54A
:1022500064E687E491E00E94F4200E94EF0F4AE0D8
:1022600050E0BC0187E491E00E94922168E073E0B5
:1022700087E491E0DF91CF911F910F91FF90EF9054
:10228000DF90CF90BF90AF907F906F905F904F9016
:102290000C94C92080915A010E94620D0E94FA0A92
:1022A00080E00E94A40E87E491E00E94F11F60E0AC
:1022B00087E491E00E94151BCC24CA94C2E0EC2E66
:1022C0000FE52FE740E060E087E491E00E94871D82
:1022D00067E174E087E491E00E94F51F25EF32E0AA
:1022E00043E064E187E491E00E94DD200BE02FE70A
:1022F0004BE060E087E491E00E94C11C64E576E079
:1023000087E491E00E94F51F21EE32E044E165E0B0
:1023100087E491E00E94DD2020ED32E04EE165E0AF
:1023200087E491E00E94DD2024EC32E048E265E0A1
:1023300087E491E00E94DD2029EB32E042E365E092
:1023400087E491E00E94DD2024EB32E04CE365E07D
:1023500087E491E00E94DD2067E174E087E491E08A
:102360000E94F51FEE24E39404E52FE744E560E0C6
:1023700087E491E00E94C11C2BEA32E047E56CE063
:1023800087E491E00E94DD2047E562E387E491E085
:102390000E94F42040E150E06091300187E491E038
:1023A0000E948B2167EA72E087E491E00E94C920D5
:1023B00060912E0170912F014AE050E087E491E096
:1023C0000E94922164EA72E087E491E00E94C920B1
:1023D00065E084E00E94250D0E94D42760933901B6
:1023E00070933A0180933B0190933C010E94D42763
:1023F000605F784D8F4F9F4F60933D0170933E011A
:1024000080933F019093400185E090E00C94981AEE
:102410000E94D42740903D0150903E0160903F01C2
:1024200070904001461657066806790620F410920F
:102430004601109245010E94D427409039015090E6
:102440003A0160903B0170903C01461657066806C1
:102450007906A8F567E174E087E491E00E94F51F32
:102460000E94D42766507F4F8F4F9F4F6093390152
:1024700070933A0180933B0190933C0147E564E6F9
:1024800087E491E00E94F4206EE972E087E491E035
:102490000E94C92047E564E687E491E00E94F420A9
:1024A0000E94EF0F4AE050E0BC0187E491E00E94F7
:1024B00092216CE972E087E491E00E94C9200E94B9
:1024C000370B882381F00E94D427605F784D8F4FAF
:1024D0009F4F60933D0170933E0180933F01909325
:1024E00040010E94280D0E94070BC82F0E94470B35
:1024F0008C2B11F40C949C1A84E190E00E94FD084E
:1025000068EC70E080E090E00E94032884E190E0B5
:102510000E94FD080E94D427605F784D8F4F9F4F27
:1025200060933D0170933E0180933F019093400181
:10253000809144018230D1F050F48823A1F08130A1
:1025400011F00C949C1A88E090E00C94981A833057
:1025500081F0843011F00C949C1A10924601109274
:1025600045010C949C1A86E090E0E2C78BE090E075
:10257000DFC78EE090E0DCC70E94FA0A87E491E0B2
:102580000E94F11F60E087E491E00E94151BCC24BB
:10259000CA94B2E0EB2E0FE52FE740E060E087E45D
:1025A00091E00E94871D67E174E087E491E00E945A
:1025B000F51F2BE832E043E064E187E491E00E94FC
:1025C000DD200BE02FE74BE060E087E491E00E9424
:1025D000C11C64E576E087E491E00E94F51F2EE7D8
:1025E00032E044E165E087E491E00E94DD2021E7EC
:1025F00032E04EE165E087E491E00E94DD2024E6D0
:1026000032E048E265E087E491E00E94DD2025E5C4
:1026100032E042E365E087E491E00E94DD2020E5BE
:1026200032E04CE365E087E491E00E94DD20809198
:102630005B01880F482F440F440F480F4C5E2EE477
:1026400032E065E087E491E00E94DD2065E084E00F
:102650000E94250D0E94D427605F784D8F4F9F4FB9
:1026600060933D0170933E0180933F019093400140
:1026700087E090E05DC70E94D42740903D015090D4
:102680003E0160903F017090400146165706680673
:10269000790630F484E090E0909346018093450100
:1026A0000E94370B882381F00E94D427605F784D09
:1026B0008F4F9F4F60933D0170933E0180933F0188
:1026C000909340010E94280D0E94070BC82F0E9482
:1026D000470B8C2B09F430C70E94D427605F784DDC
:1026E0008F4F9F4F60933D0170933E0180933F0158
:1026F0009093400180914401843009F417C78330DE
:1027000009F480E080935B010E943A0984E190E043
:102710000E94FD0868EC70E080E090E00E940328D1
:1027200084E190E00E94FD0840E568E287E491E0E2
:102730000E94F42064E472E087E491E00E94C920E2
:102740006CED75E080E090E00E940328EFC60E94E7
:10275000FA0A87E491E00E94F11F60E087E491E0CB
:102760000E94151B64E576E087E491E00E94F51F66
:1027700024E332E04AE06AE087E491E00E94DD2051
:1027800067E174E087E491E00E94F51F24E232E003
:1027900049E16CE087E491E00E94DD2023E132E032
:1027A00043E26CE087E491E00E94DD2022E032E029
:1027B00042E36CE087E491E00E94DD2021EF31E00C
:1027C0004CE36CE087E491E00E94DD2028ED31E0ED
:1027D0004AE565E087E491E00E94DD2080915A019E
:1027E0000E94620D0E94D42768577C4E8F4F9F4FE6
:1027F00060933D0170933E0180933F0190934001AF
:1028000089E090E095C60E94D427C1E0D0E04090D6
:102810003D0150903E0160903F017090400146168E
:1028200057066806790610F0C0E0D0E00E94770BEA
:10283000C82BCD2B09F480C68AE090E09093460126
:102840008093450160E087E491E00E94151BCC2451
:10285000CA94EE24E39403E22FE740E060E087E4CB
:1028600091E00E94871D67E174E087E491E00E9497
:10287000F51F23EC31E043E064E187E491E00E943E
:10288000DD200BE02FE74BE060E087E491E00E9461
:10289000C11C64E576E087E491E00E94F51F29EB16
:1028A00031E04FE065E087E491E00E94DD2024EB19
:1028B00031E049E165E087E491E00E94DD2002E338
:1028C00028E645E26BE087E491E00E94871D67E11E
:1028D00074E087E491E00E94F51F4AE565E087E433
:1028E00091E00E94F420E5E7F3E0659174914AE0FD
:1028F00050E087E491E00E94C7214AE567E387E45E
:1029000091E00E94F420E5E6F3E0659174914AE0DD
:1029100050E087E491E00E94C7214AE569E687E438
:1029200091E00E94F420EDE7F3E0659174914AE0B4
:1029300050E087E491E00E94C72164E576E087E4F7
:1029400091E00E94F51F4FE06CE387E491E00E9464
:10295000F42040E150E06091300187E491E00E9472
:102960008B2166E171E087E491E00E94C7208091AD
:1029700030010E94B30F4AE050E0BC0187E491E0CF
:102980000E94C7218FEF80931F0110921E010E94A9
:10299000D42760933501709336018093370190936B
:1029A00038010E94D4276093390170933A018093D3
:1029B0003B0190933C010E94D427605C73468F4F8B
:1029C0009F4F60933D0170933E0180933F01909330
:1029D0004001B2C50E94D4274090390150903A017D
:1029E00060903B0170903C014616570668067906D8
:1029F00008F0F0C00E94D42766507F4F8F4F9F4F42
:102A00006093390170933A0180933B0190933C01AC
:102A10000E94EF0FEC01C12CEE24E39406E02BE4BE
:102A200049E16EE187E491E00E94871D2E01612C4F
:102A3000712C1F921F921F928BE48F93A12CB12CAB
:102A4000650114E6E12EF12C00E010E020E030E01A
:102A5000A901C301B2010E94BD29262FCC24C39431
:102A6000EE24E39406E049E16EE187E491E00E9400
:102A7000871D20EB31E049E16CE687E491E00E949C
:102A8000DD2049E16CE687E491E00E94F4204AE011
:102A900050E0BE0187E491E00E94922160912E01F6
:102AA00070912F0180E090E01F921F921F9224E608
:102AB0002F93A12CB12C650119E3E12E17E1F12E22
:102AC00000E010E02DE036E140E050E00E94BD293A
:102AD000D62FCDE0C60FE12C07E22C2F45E56C2F59
:102AE00087E491E00E94C11C1F921F921F921F92C7
:102AF000FEE2AF2EB12CC12CD12C14E6E12EF12C2C
:102B000000E010E020E030E0A901C301B2010E9422
:102B1000BD29695DEE24E394062F2C2F45E56C2F2B
:102B200087E491E00E94C11C8DB79EB70C960FB64A
:102B3000F8949EBF0FBE8DBF80911F018D1709F4C1
:102B400049C064E576E087E491E00E94F51F4FE01C
:102B50006CE387E491E00E94F42040E150E0609152
:102B6000300187E491E00E948B2166E171E087E407
:102B700091E00E94C720809130010E94B30F4AE08B
:102B800050E0BC0187E491E00E94C72160911F01E1
:102B90006F3F81F0635F22E045E287E491E00E94AD
:102BA000991B60911F01635F22E047E587E491E094
:102BB0000E94991B22E045E26C2F87E491E00E947D
:102BC000991B22E047E56C2F87E491E00E94991B56
:102BD000D0931F01C0911E01D0E00E94D42721E0B4
:102BE00030E0409035015090360160903701709090
:102BF0003801461657066806790610F020E030E0E6
:102C0000C223D323CD2B89F10E94D42768587F4F4C
:102C10008F4F9F4F6093350170933601809337013A
:102C2000909338010E94760F62E370E080E090E0BC
:102C30000E9403280E94EF0F8B349105B0F0109290
:102C40001E0164E170E080E090E00E9403288FE0C4
:102C500090E00E94FD0864E170E080E090E00E9456
:102C600003288FE090E00E94FD080E94370B882324
:102C7000B1F00E94D427605C73468F4F9F4F6093E2
:102C80003D0170933E0180933F01909340010E946B
:102C9000760F6AE070E080E090E00E9403280E94D6
:102CA000470B882331F080911E0191E089278093A2
:102CB0001E010E94070B882351F080915A010E9447
:102CC000620D84E090E090934601809345010E945C
:102CD000170B882309F41BC484E190E00E94FD08CF
:102CE00068EC70E080E090E00E94032884E190E0CE
:102CF0000E94FD088091300180935A010E943A0998
:102D00004DE268E287E491E00E94F42066EA71E017
:102D100087E491E00E94C9206CED75E080E090E0CE
:102D20000E94032884E090E090934601809345013F
:102D3000EEC30E94FA0A87E491E00E94F11F60E06E
:102D400087E491E00E94151BCC24CA9462E0E62E31
:102D50000BE02FE740E060E087E491E00E94871DF0
:102D600067E174E087E491E00E94F51F21E931E01A
:102D700043E064E187E491E00E94DD20EE24E394E7
:102D800006E428E64FE06BE087E491E00E94871DAF
:102D900067E174E087E491E00E94F51F49E565E092
:102DA00087E491E00E94F420E5E7F3E065917491F7
:102DB0004AE050E087E491E00E94C72149E567E3DB
:102DC00087E491E00E94F420E5E6F3E065917491D8
:102DD0004AE050E087E491E00E94C72149E569E6B6
:102DE00087E491E00E94F420EDE7F3E065917491AF
:102DF0004AE050E087E491E00E94C72180915801A9
:102E00009091590190933201809331018091560144
:102E10009091570190933401809333018FEF809309
:102E20001F010E94D427609335017093360180936F
:102E30003701909338010E94D427605C73468F4F0E
:102E40009F4F60933D0170933E0180933F019093AB
:102E500040018CE090E06CC30E94D4274090350183
:102E60005090360160903701709038014616570631
:102E70006806790608F0A7C00E94D427645C7F4FDB
:102E80008F4F9F4F609335017093360180933701C8
:102E9000909338010E948E0F68E270E080E090E02D
:102EA0000E9403280E94EF0FEC0160912E017091A7
:102EB0002F0180E090E01F921F921F9224E62F9333
:102EC000A12CB12C650119E3E12E17E1F12E00E0F0
:102ED00010E02DE036E140E050E00E94BD29662E72
:102EE0003DE0732E760EE12C01E1272D45E5672D9F
:102EF00087E491E00E94C11CBE0180E090E01F9237
:102F00001F921F921F9242E4A42EB12CC12CD12CEF
:102F100014E6E12EF12C00E010E020E030E0A90101
:102F20000E94BD296F5EEE24E394062F272D45E510
:102F3000672D87E491E00E94C11C60911F018DB74D
:102F40009EB708960FB6F8949EBF0FBE8DBF66154C
:102F500011F16F3F81F0635F22E04FE087E491E081
:102F60000E94991B60911F01635F22E045E587E4A1
:102F700091E00E94991B22E04FE0672D87E491E0E9
:102F80000E94991B22E045E5672D87E491E00E94AD
:102F9000991B60921F010E94C70F2091310130914F
:102FA00032018217930720F490933201809331010C
:102FB00020913301309134012817390720F4909380
:102FC0003401809333010E94170B882309F4DCC07D
:102FD0000E94FA0A87E491E00E94F11F60E087E412
:102FE00091E00E94151BCC24CA94C2E0EC2E0BE0A9
:102FF0002FE740E060E087E491E00E94871D67E1F1
:1030000074E087E491E00E94F51F20E831E043E09E
:1030100064E187E491E00E94DD2064E576E087E4E6
:1030200091E00E94F51F44E165E087E491E00E9491
:10303000F42065E771E087E491E00E94C920609187
:103040005601709157014AE050E087E491E00E94F8
:10305000C72161E771E087E491E00E94C920609197
:103060005801709159014AE050E087E491E00E94D4
:10307000DB214EE165E087E491E00E94F42066E602
:1030800071E087E491E00E94C92060913101709164
:1030900032014AE050E087E491E00E94C72162E6F5
:1030A00071E087E491E00E94C92060913301709142
:1030B00034014AE050E087E491E00E94DB2142E3E2
:1030C0006AE087E491E00E94F42060E571E087E423
:1030D00091E00E94C9204CE36AE087E491E00E94FD
:1030E000F42062E471E087E491E00E94C9200E942C
:1030F000D427605C73468F4F9F4F60933D01709360
:103100003E0180933F01909340018DE090E038C0F4
:103110000E94170B8823C1F18091310190913201F7
:10312000909357018093560180913301909134011F
:1031300090935901809358010E943A0984E190E0EC
:103140000E94FD0868EC70E080E090E00E94032897
:1031500084E190E00E94FD0840E568E287E491E0A8
:103160000E94F42068E371E087E491E00E94C920A6
:103170006CED75E080E090E00E94032884E090E030
:1031800090934601809345010E94D427C1E0D0E08E
:1031900040903D0150903E0160903F017090400191
:1031A000461657066806790610F0C0E0D0E00E9487
:1031B000770BC82BCD2B09F4BFC1B8C10E94FA0A06
:1031C00087E491E00E94F11F60E087E491E00E94B3
:1031D000151BCC24CA94EE24E3940FE52FE740E0BE
:1031E00060E087E491E00E94871D67E174E087E476
:1031F00091E00E94F51F2CE231E043E064E187E4B6
:1032000091E00E94DD20B2E0EB2E0BE02FE74BE0D7
:1032100060E087E491E00E94C11C64E576E087E409
:1032200091E00E94F51F2FE131E044E165E087E481
:1032300091E00E94DD2022E131E04EE165E087E48B
:1032400091E00E94DD2025E031E048E265E087E47E
:1032500091E00E94DD2020E031E042E365E087E478
:1032600091E00E94DD204BE464E083E00E94050DC4
:103270008091550180931D018091540180931C0120
:103280008091530180931B0181E080931A010E9479
:10329000D427605F784D8F4F9F4F60933D017093AF
:1032A0003E0180933F01909340018FE090E040C148
:1032B0000E94370B882381F00E94D427605F784DED
:1032C0008F4F9F4F60933D0170933E0180933F016C
:1032D000909340010E94280D80914401833009F0B1
:1032E00050C00E94170BC82F0E94470B8C2B09F46B
:1032F00048C080911D018093550180911C018093ED
:10330000540180911B01809353010E943A0984E18A
:1033100090E00E94FD0868EC70E080E090E00E9480
:10332000032884E190E00E94FD0840E568E287E41C
:1033300091E00E94F42066EF70E087E491E00E9443
:10334000C9206CED75E080E090E00E9403280E94A7
:10335000D427609360017093610180936201909320
:1033600063010E94D42760935C0170935D01809398
:103370005E0190935F0184E090E09093460180931A
:1033800045010E94070BC82F0E94470B8C2BE9F1C7
:1033900080914401813071F018F08230A9F01EC094
:1033A00080911D018F5F80931D018530E8F01092A0
:1033B0001D011AC080911C018F5F80931C01853014
:1033C00098F010921C0110C080911B018F5F8093B8
:1033D0001B01853048F010921B0106C084E090E08C
:1033E000909346018093450181E080931A010E94E9
:1033F000D427605F784D8F4F9F4F60933D0170934E
:103400003E0180933F019093400180911A018823EF
:1034100009F47DC010921A012FEE30E044E160E51E
:1034200087E491E00E94DD2080911D01823091F0BF
:1034300038F4882361F08130C1F423EE30E00FC00E
:10344000833059F0843089F420ED30E008C029EE53
:1034500030E005C02DED30E002C027ED30E044E162
:1034600060E587E491E00E94DD202AEC30E04EE147
:1034700060E587E491E00E94DD2080911C018230AC
:1034800091F038F4882361F08130C1F42FEB30E003
:103490000FC0833059F0843089F420EB30E008C04D
:1034A00024EC30E005C02AEB30E002C025EB30E030
:1034B0004EE160E587E491E00E94DD2029EA30E0FA
:1034C00048E260E587E491E00E94DD2080911B01E5
:1034D000823091F038F4882361F08130C1F42DE915
:1034E00030E00FC0833059F0843089F428E830E0B0
:1034F00008C023EA30E005C026E930E002C02FE82A
:1035000030E048E260E587E491E00E94DD200E941F
:10351000D42740903D0150903E0160903F01709053
:103520004001461657066806790630F484E090E0BC
:103530009093460180934501DF91CF911F910F91A8
:10354000FF90EF90DF90CF90BF90AF907F906F9003
:103550005F904F9008950F931F930E94EA090E9475
:1035600014100E94990B0E94D427009164011091BD
:10357000650120916601309167010617170728073A
:103580003907D8F40E94D4276C507E4F8F4F9F4F3D
:103590006093640170936501809366019093670165
:1035A0008DE00E948429892B11F060E001C061E068
:1035B0008DE01F910F910C944E291F910F9108954A
:1035C000E0917A01982F96959695969520917F0196
:1035D0003091800187706E9FF0011124E90FF11D79
:1035E000E20FF31F413051F420E830E002C035957E
:1035F00027958A95E2F78081822B15C041110AC078
:103600002FE73FEF02C0359527958A95E2F7808135
:10361000822309C020E830E002C0359527958A95BD
:10362000E2F78081822780830895FC016130F9F000
:1036300030F0623009F049C080E090E031C0128281
:10364000138280E090E030917A0120917901329FDD
:1036500090011124821793074CF4E0917F01F091BF
:103660008001E80FF91F10820196EDCF08951282B4
:10367000138280E090E04FEF30917A012091790140
:10368000329F90011124821793074CF4E0917F013F
:10369000F0918001E80FF91F40830196EDCF089566
:1036A00030917A0120917901329F90011124821783
:1036B00093075CF4E0917F01F0918001E80FF91F1E
:1036C0002081209520830196EBCF0895FF920F93E0
:1036D0001F93CF93DF93EC01F62E022F842F887F68
:1036E000D9F0142F169516951695129FC001112426
:1036F0000E949E2A99838883009781F01A821B82F8
:103700009C01402F612F8F2D0E949D2660E0CE01ED
:103710000E94151B80E003C081E001C084E0DF91BE
:10372000CF911F910F91FF90089520E640E80C94EF
:10373000661B862F642FE0917A01A82FB0E098E0F5
:10374000E99FF0011124AE17BF073CF49091790175
:10375000491718F4422F0C94E01A08950F931F9301
:10376000CF93DF93DC01FA014217530749F4202F6E
:10377000462F6E2FDF91CF911F910F910C94991BC3
:103780002417350720F4CA019927F9019C01EF019C
:10379000C770DD278FEF90E0AC0102C055954795CB
:1037A000CA95E2F7EA01142F43E0F695E7954A95AA
:1037B000E1F740917A01469FB0011124E60FF71F0F
:1037C000A9014770552702C0959587954A95E2F75C
:1037D000582F5095C901D3E096958795DA95E1F772
:1037E000860F971FE817F90719F41C2F152350E0CF
:1037F0000130D9F49F012F5F3F4FCD91DC9111979C
:10380000CE0FDF1F4881412B48834FEFED91FC9194
:103810001197E20FF31F2817390720F440832F5F19
:103820003F4FF4CF8081852B3BC001111CC09F010D
:103830002F5F3F4FCD91DC911197CE0FDF1F109579
:10384000488141234883ED91FC911197E20FF31FCA
:103850002817390720F410822F5F3F4FF4CF50957F
:10386000808185231DC00230E1F49F012F5F3F4F0F
:10387000CD91DC911197CE0FDF1F488141274883FE
:10388000ED91FC911197E20FF31F2817390730F4DF
:103890004081409540832F5F3F4FF2CF8081852745
:1038A0008083DF91CF911F910F9108950F93CF9354
:1038B000DF934217530731F4202FDF91CF910F91FF
:1038C0000C94991B2417350720F4FA01FF27A9014E
:1038D0009F01762F7770A0E8B0E002C0B595A7955C
:1038E0007A95E2F77A2FC0917A01C49FF001C59FC3
:1038F000F00D1124669566956695E60FF11D013071
:1039000091F424173507C8F1EC01A881B981AE0FF5
:10391000BF1F6C91672B6C9360917A01E60FF11DCC
:103920004F5F5F4FEECF011114C07A2F70952417AF
:10393000350718F1EC01A881B981AE0FBF1F6C915A
:1039400067236C9360917A01E60FF11D4F5F5F4F23
:10395000EECF023091F42417350778F0EC01A881FE
:10396000B981AE0FBF1F6C9167276C9360917A018C
:10397000E60FF11D4F5F5F4FEECFDF91CF910F91BB
:1039800008952F923F924F925F926F927F928F9203
:103990009F92AF92BF92CF92DF92EF92FF920F93DE
:1039A0001F93CF93DF9300D000D0CDB7DEB7742F35
:1039B000302F0E2D462F50E05C834B83E0917A012F
:1039C00058E0E59FF00111244B815C81E417F50775
:1039D0000CF486C040917901471708F481C0422E4B
:1039E000512CE415F5050CF47BC0431708F478C09E
:1039F000621307C0232F30E0472F50E00E94561C6F
:103A00006FC0731307C092014B815C81672F0E94C6
:103A1000AE1B66C0261738F48B819C8184199509EA
:103A20002C018FEF05C0EB81FC814E1A5F0A81E00B
:103A3000A72EB12CC32ED12C371730F495012C1999
:103A40003D0969019FEF03C0CA18DB0891E04C14DF
:103A50005D043CF03C2D2D2D6201432E522E10E0D2
:103A600001C011E0440C551C42018C189D089601C0
:103A7000220F331F612C712C292E332427FC309404
:103A8000E82EFF24E7FCF094C614D7044CF1402F35
:103A90006A2D8B8129833A830E94E01A29813A8119
:103AA00097FC0DC0113039F44B815C814E0D5F1DC8
:103AB0005C834B8302C0A20CB31C821A930A1130A0
:103AC00019F4A20CB31C06C08B819C818E0D9F1D26
:103AD0009C838B83840C951C9FEF691A790AD4CF41
:103AE0000F900F900F900F90DF91CF911F910F913A
:103AF000FF90EF90DF90CF90BF90AF909F908F900E
:103B00007F906F905F904F903F902F9008954F92CD
:103B10005F926F927F928F929F92AF92BF92CF925D
:103B2000DF92EF92FF920F931F93CF93DF93EC01FD
:103B3000F62E142F422E502EDE2C8FEFC81230C0DE
:103B4000AF2CA40CED2C012F2A2D412F6F2DCE016F
:103B50000E94C11CB12EB50C0B2D2F2D412F6F2DA6
:103B6000CE010E94C11C2A2D412F6A2DCE010E9438
:103B7000C11C2A2D4B2D6F2DCE010E94C11CDF913F
:103B8000CF911F910F91FF90EF90DF90CF90BF905A
:103B9000AF909F908F907F906F905F904F9008951F
:103BA000E42EA02EB12CA40EB11C862E912C340133
:103BB000620E711C8E2D90E08A159B050CF60C2D63
:103BC0009301A4016E2DCE010E94AE1BE394F2CFAF
:103BD0002F923F924F925F926F927F928F929F921D
:103BE000AF92BF92CF92DF92EF92FF920F931F930B
:103BF000CF93DF93CDB7DEB729970FB6F894DEBF2A
:103C00000FBECDBFDC01962F977058E0591BE11015
:103C100006C0F901E00FF11FE4900F5F1F4FC110C4
:103C200006C0F901E00FF11FC4900F5F1F4F8E2DEA
:103C30008770EE2DE695E695E695882321F0882499
:103C400083948E0E02C08E2E88E0669566956695EA
:103C5000E62EF12CFC82EB82692E712CB301680FE9
:103C6000711D798768876FEF70E0088402C07595D1
:103C700067950A94E2F7852F90E09A83898391E013
:103C8000891202C0562E01C0512C8FEF90E05C01CA
:103C9000052E01C0AA0C0A94EAF75A28462E688518
:103CA00079856850710902C0959587956A95E2F704
:103CB0008D8360E070E0E42EF12CFF82EE82912C87
:103CC00041E0841A91086C1508F08CC0F0917A01DB
:103CD0004E815F81460F571FF49FC001F59F900DE5
:103CE0001124EB80FC808E0D9F1DED91FC911197AE
:103CF000E80FF91FD0804D2D45214083A8014F5F6B
:103D00005F4FF801E20FF31FA490ED91FC91119722
:103D1000E80FF91FEA2CF12C062C02C0F594E79469
:103D20000A94E2F7F080FE28F0821401240E351E7A
:103D30007C01E01AF10AC701840F951F0D911C91B7
:103D40001197B12C4215530508F5080F191FF801FA
:103D5000D080098001C0AA0C0A94EAF7A082F90178
:103D6000E40FF51FA490ED91FC911197E80FF91F56
:103D70008A2D90E0062C02C0959587950A94E2F76B
:103D80009081982B90834F5F5F4FD5CFE885F98561
:103D9000389744F4FC013197E00FF11FD4201081D3
:103DA0001D290CC0E885F985389749F07801E80E9F
:103DB000F91EF7011081FD811F23F70110830D917A
:103DC0001C911197080F191F098002C0AA0CBB1C77
:103DD0000A94E2F7F80180818A2980836F5F7F4F20
:103DE0008A0171CF29960FB6F894DEBF0FBECDBF02
:103DF000DF91CF911F910F91FF90EF90DF90CF90C7
:103E0000BF90AF909F908F907F906F905F904F90FA
:103E10003F902F900895DF92EF92FF920F931F93A0
:103E2000CF93DF934130A9F1C0F0423009F44DC087
:103E3000433009F0C8C0562F5770E52E6695669539
:103E4000669570E0719561957109F12C02E010E0C2
:103E500088E090E0851B910983C080917F0190915B
:103E6000800120917A01FC01629FE00DF11D112477
:103E700030917901AC01329F400D511D11249A01FE
:103E8000DC012E173F0708F49EC080818D931192AC
:103E9000F8CF80917F01909180013091790120913C
:103EA0007A01DC01329FA00DB11D1124FD01629F3A
:103EB000E019F10911241196E817F90708F483C0F5
:103EC00020812E9310823197F7CF162F17706695A9
:103ED0006695669570E0D0E028E030E0211B31095E
:103EE00080917901D81708F06EC080917A01E09135
:103EF0007F01F09180018D9FE00DF11D1124DF0104
:103F0000A60FB71F90E002978E0F9F1F8A179B077F
:103F100090F0CC91012E01C0CC0F0A94EAF71D92CB
:103F20004C9150E0022E02C0559547950A94E2F755
:103F3000C42BC193EBCF8C91012E01C0880F0A9442
:103F4000EAF71C928083DF5FCBCF2C9130E00E2C00
:103F500002C0359527950A94E2F71C922083F394CA
:103F600020917901F21678F5E0917A014E2F50E018
:103F70009A0121503109EF9D200D311D1124E0914E
:103F80007F01F0918001E20FF31F9801241B350B94
:103F90002E0F3F1FDF01A60FB71FA217B307A8F20E
:103FA0004C9150E00E2C02C0559547950A94E2F7CB
:103FB0001C92CE91082E01C0CC0F0A94EAF74C2B2C
:103FC00040833197EACFDF91CF911F910F91FF90FE
:103FD000EF90DF900895EFE6F0E080818E7F8083A0
:103FE000089581E080936F000895FC0175836483D8
:103FF0000895CF92EF920F931F93CF93DF93FC011D
:10400000A481B581FD0132963491ED012196FE0126
:10401000C490FD01E490FE010491231B209F8001C8
:1040200011240D5F1F4F9D010E94E81DDF91CF916C
:104030001F910F91EF90CF900895DC0113964C9152
:10404000139750E01496ED91FC9115973196649179
:104050002091790130E0261B31094217530724F0E3
:10406000649140E00C940B1FE4914E0F511DFC0134
:10407000438308950F931F93CF93DF931F92CDB780
:10408000DEB78C01262F6A3031F1F8F4662309F48B
:1040900066C0683069F5DC011496ED91FC911597C6
:1040A000E491DC0112966C91129770E06E1B71091D
:1040B00012966C93129720E213964C910F90DF9119
:1040C000CF911F910F910C94F91F6D3071F06E30EC
:1040D00009F445C00DC0DC0112961C920F90DF91CF
:1040E000CF911F910F910C941D20FC01128237C0BB
:1040F000D80112966C91129780917A011496ED91E5
:10410000FC911597E491462F50E0B8E08B9FC001D9
:1041100011248E1B9109F801481759076CF012827F
:10412000C80129830E941D202981D80113964C9132
:10413000139712966C9101C04381C8010E94F91F28
:10414000D8011496ED91FC911597E491D80112963F
:104150008C911297F0E0E80FF11D1296EC930F90FE
:10416000DF91CF911F910F9108950F931F93CF93DC
:10417000DF938C01EB016991662321F0C8010E9455
:104180003A20F9CFDF91CF911F910F9108950C94B0
:10419000B5200F931F93CF93DF938C01EB01FE01AA
:1041A0006491662329F02196C8010E943A20F7CF36
:1041B000DF91CF911F910F9108950F931F93CF938C
:1041C000DF93EC0189016A834B83F80164916623D4
:1041D00031F00F5F1F4FCE010E943A20F6CFDF91E2
:1041E000CF911F910F910895FC016283438308953D
:1041F0004F925F926F927F928F929F92AF92BF92F7
:10420000CF92DF92EF92FF920F931F93CF93DF93A2
:10421000CDB7DEB7A0970FB6F894DEBF0FBECDBF07
:104220005C014115510561057105C9F460E3A09673
:104230000FB6F894DEBF0FBECDBFDF91CF911F91B7
:104240000F91FF90EF90DF90CF90BF90AF909F9035
:104250008F907F906F905F904F900C943A208E01DA
:104260000F5F1F4FC12CD12C76014801422E512CDB
:10427000612C712C8FEFC81AD80AE80AF80ACB0112
:10428000BA01A30192010E943D2ACA01F80161937B
:104290008F01A901BC01411551056105710551F757
:1042A000F1E0CF1AD108E108F108F401EC0DFD1D91
:1042B00060816A3010F4605D01C0695CC5010E94D4
:1042C0003A2081E0C81AD108E108F108EFEFCE16D4
:1042D000DE06EE06FE0649F7A0960FB6F894DEBF9E
:1042E0000FBECDBFDF91CF911F910F91FF90EF9047
:1042F000DF90CF90BF90AF909F908F907F906F9006
:104300005F904F9008952115310519F4642F0C9496
:104310003A200C94F8209A01462F50E060E070E0BB
:104320000C9483219A01AB0160E070E00C9483212E
:10433000CF92DF92EF92FF92CF93DF93EC016A016D
:104340007B0177FF0BC06DE20E943A20F094E0946D
:10435000D094C094C11CD11CE11CF11C2AE0B7010F
:10436000A601CE01DF91CF91FF90EF90DF90CF902B
:104370000C94F8202115310519F4642F0C943A207F
:104380002A30310511F40C9498210C94F8209A01EC
:10439000AB01662757FD6095762F0C94BA21CF9319
:1043A000DF93EC016DE00E943A206AE0CE01DF91DC
:1043B000CF910C943A20CF93DF93EC019A01AB019B
:1043C000662757FD6095762F0E94BA21CE01DF91B6
:1043D000CF910C94CF2108952091700130917101FB
:1043E0008091760190E02817390779F410928201C4
:1043F0001092810180917C0180937D0181EA92E29B
:1044000090936D0180936C0116C0209170013091E2
:10441000710180917701909178012817390759F43B
:1044200085E292E290936D0180936C01E0910B0123
:10443000F0910C01099580917001909171010196A4
:1044400090937101809370010895209170013091D3
:1044500071018091770190917801281739070CF448
:104460004EC08CEA93E0909389008093880010926C
:104470007101109270018091720190917301A0916D
:104480007401B09175010196A11DB11D8093720157
:1044900090937301A0937401B093750180916801AA
:1044A00090916901A0916A01B0916B01892B8A2BCF
:1044B0008B2B09F18091680190916901A0916A01AB
:1044C000B0916B01181619061A061B0684F5809127
:1044D000680190916901A0916A01B0916B01019707
:1044E000A109B1098093680190936901A0936A01C1
:1044F000B0936B011CC01092B1002B9818C0209192
:1045000070013091710180917E01992787FD90950E
:104510002817390761F48AE490E09093890080932A
:1045200088008CEE91E290936D0180936C018091F4
:1045300070019091710101969093710180937001C7
:1045400008953091840020917B012A50231B235031
:10455000F0F72D5F19F02A9511F001C00000E091ED
:104560006E01F0916F01099580917D0140917C0170
:1045700081110FC040937D0120917A0180918101CA
:1045800090918201820F911D90938201809381010D
:1045900003C0815080937D012091700130917101A1
:1045A0002F5F3F4F6091760170917901552747FD4C
:1045B00050954F5F5F4F749FC001759F900D112400
:1045C000860F911D2817390731F48CEE91E29093F4
:1045D0006D0180936C018091700190917101019641
:1045E000909371018093700108950F93CF93DF939F
:1045F000A0917F01B0918001C0918101D091820191
:1046000080917A01AC0FBD1F0BB10F7703C000FA88
:1046100007F90BB90D90000007FA07F90BB9000074
:104620000000000006FA07F90BB9000000000000C6
:1046300005FA07F90BB900000000000004FA07F9B9
:104640000BB900000000000003FA07F90BB90000E5
:104650000000000002FA07F90BB90000000000009A
:1046600001FA07F90BB98A9591F60000000000FAEB
:1046700007F90BB90BB10F7707FB07F90BB9DF91FE
:10468000CF910F9108950F93CF93DF93A0917F0166
:10469000B0918001C0918101D091820180917A0115
:1046A000AC0FBD1F0BB10F7703C000FA07F90BB9B0
:1046B0000D9007FA07F90BB90000000006FA07F998
:1046C0000BB90000000005FA07F90BB90000000063
:1046D00004FA07F90BB90000000003FA07F90BB957
:1046E0000000000002FA07F90BB900008A9501FAF0
:1046F00007F90BB9D1F6000000FA07F90BB90BB1B5
:104700000F7707FB07F90BB9DF91CF910F91089550
:104710000F93CF93DF93A0917F01B0918001C0915F
:104720008101D091820180917A01AC0FBD1F02C03E
:10473000000C0BB80D9000000BB800000000000C3E
:104740000BB800000000000C0BB800000000000CCB
:104750000BB800000000000C0BB800000000000CBB
:104760000BB80000000C8A950BB811F70000000C84
:104770000BB80000000000005F98DF91CF910F910F
:1047800008950F93CF93DF93A0917F01B0918001A3
:10479000C0918101D091820180917A01AC0FBD1F3F
:1047A0008E3191F08D3151F08C3149F08B3141F0E7
:1047B0008A3139F0893131F0883129F01CC032C09A
:1047C00048C05EC074C08AC00D900BB80000000CD9
:1047D0000BB80000000C0BB80000000C0BB8000078
:1047E000000C0BB80000000C0BB80000000C0BB85C
:1047F0000000000C0BB80D900BB80000000C0BB8BB
:104800000000000C0BB80000000C0BB80000000CFE
:104810000BB80000000C0BB80000000C0BB8000037
:10482000000C0BB80D900BB80000000C0BB800008A
:10483000000C0BB80000000C0BB80000000C0BB80B
:104840000000000C0BB80000000C0BB80000000CBE
:104850000BB80D900BB80000000C0BB80000000C5A
:104860000BB80000000C0BB80000000C0BB80000E7
:10487000000C0BB80000000C0BB80000000C0BB8CB
:104880000D900BB80000000C0BB80000000C0BB82A
:104890000000000C0BB80000000C0BB80000000C6E
:1048A0000BB80000000C0BB80000000C0BB80D900A
:1048B0000BB80000000C0BB80000000C0BB8000097
:1048C000000C0BB80000000C0BB80000000C0BB87B
:1048D0000000000C0BB80000000C0BB80D900BB8DA
:1048E0000000000C0BB80000000C0BB80000000C1E
:1048F0000BB80000000C0BB80000000C0BB8000057
:10490000000C0BB80000000C0BB80D900BB80000A9
:10491000000C0BB80000000C0BB80000000C0BB82A
:104920000000000C0BB80000000C0BB80000000CDD
:104930000BB80000000C0BB80D900BB80000000C79
:104940000BB80000000C0BB80000000C0BB8000006
:10495000000C0BB80000000C0BB80000000C0BB8EA
:104960000000000C0BB80D900BB80000000C0BB849
:104970000000000C0BB80000000C0BB80000000C8D
:104980000BB80000000C0BB80000000C0BB80000C6
:10499000000C0BB80D900BB80000000C0BB8000019
:1049A000000C0BB80000000C0BB80000000C0BB89A
:1049B0000000000C0BB80000000C0BB80000000C4D
:1049C0000BB80D900BB80000000C0BB80000000CE9
:1049D0000BB80000000C0BB80000000C0BB8000076
:1049E000000C0BB80000000C0BB80000000C0BB85A
:1049F0000D900BB80000000C0BB80000000C0BB8B9
:104A00000000000C0BB80000000C0BB80000000CFC
:104A10000BB80000000C0BB80000000C0BB80D9098
:104A20000BB80000000C0BB80000000C0BB8000025
:104A3000000C0BB80000000C0BB80000000C0BB809
:104A40000000000C0BB80000000C0BB80D900BB868
:104A50000000000C0BB80000000C0BB80000000CAC
:104A60000BB80000000C0BB80000000C0BB80000E5
:104A7000000C0BB80000000C0BB80D900BB8000038
:104A8000000C0BB80000000C0BB80000000C0BB8B9
:104A90000000000C0BB80000000C0BB80000000C6C
:104AA0000BB80000000C0BB80D900BB80000000C08
:104AB0000BB80000000C0BB80000000C0BB8000095
:104AC000000C0BB80000000C0BB80000000C0BB879
:104AD0000000000C0BB80D900BB80000000C0BB8D8
:104AE0000000000C0BB80000000C0BB80000000C1C
:104AF0000BB80000000C0BB80000000C0BB8000055
:104B0000000C0BB80D900BB80000000C0BB80000A7
:104B1000000C0BB80000000C0BB80000000C0BB828
:104B20000000000C0BB80000000C0BB80000000CDB
:104B30000BB80D900BB80000000C0BB80000000C77
:104B40000BB80000000C0BB80000000C0BB8000004
:104B5000000C0BB80000000C0BB80000000C0BB8E8
:104B60000D900BB80000000C0BB80000000C0BB847
:104B70000000000C0BB80000000C0BB80000000C8B
:104B80000BB80000000C0BB80000000C0BB80D9027
:104B90000BB80000000C0BB80000000C0BB80000B4
:104BA000000C0BB80000000C0BB80000000C0BB898
:104BB0000000000C0BB80000000C0BB80D900BB8F7
:104BC0000000000C0BB80000000C0BB80000000C3B
:104BD0000BB80000000C0BB80000000C0BB8000074
:104BE000000C0BB80000000C0BB80D900BB80000C7
:104BF000000C0BB80000000C0BB80000000C0BB848
:104C00000000000C0BB80000000C0BB80000000CFA
:104C10000BB80000000C0BB80D900BB80000000C96
:104C20000BB80000000C0BB80000000C0BB8000023
:104C3000000C0BB80000000C0BB80000000C0BB807
:104C40000000000C0BB80D900BB80000000C0BB866
:104C50000000000C0BB80000000C0BB80000000CAA
:104C60000BB80000000C0BB80000000C0BB80000E3
:104C7000000C0BB80D900BB80000000C0BB8000036
:104C8000000C0BB80000000C0BB80000000C0BB8B7
:104C90000000000C0BB80000000C0BB80000000C6A
:104CA0000BB80D900BB80000000C0BB80000000C06
:104CB0000BB80000000C0BB80000000C0BB8000093
:104CC000000C0BB80000000C0BB80000000C0BB877
:104CD0000D900BB80000000C0BB80000000C0BB8D6
:104CE0000000000C0BB80000000C0BB80000000C1A
:104CF0000BB80000000C0BB80000000C0BB80D90B6
:104D00000BB80000000C0BB80000000C0BB8000042
:104D1000000C0BB80000000C0BB80000000C0BB826
:104D20000000000C0BB80000000C0BB800000000E5
:104D30005F98DF91CF910F910895CF93DF93C82FA4
:104D4000E62F3093800120937F0160937A01409396
:104D500079011092720110927301109274011092F5
:104D60007501642F70E0882319F084E091E002C09F
:104D700088ED90E00E94292A615060937C01D091D7
:104D80007C01D0937D0188E0E89F900111244427A5
:104D900037FD4095542F60EE72E080E090E00E9475
:104DA0005F2A243091F018F42330B9F011C0253077
:104DB00049F0263069F485EF92E290936F01809379
:104DC0006E0111C043E453E20AC048E853E207C051
:104DD000273018F045EF52E202C041EC53E2509305
:104DE0006F0140936E01579A219A5F98299A239AEE
:104DF00082EC8093800089E1809381004091790169
:104E00002D2F332727FD30952F5F3F4F429FC00145
:104E1000439F900D1124CC23C9F097FD01969595E1
:104E2000879591958195910984568093760187ECB9
:104E300080937B0187E080937E0188E391E09093EB
:104E40007801809377018FEF93E018C097FD01966A
:104E500095958795919581959109855780937601D0
:104E60008FEB80937B0183E080937E0186E091E06D
:104E7000909378018093770187EF93E09093870078
:104E8000809386008AE490E0909389008093880064
:104E900080917701909178010196909371018093B0
:104EA000700185E292E290936D0180936C0181E044
:104EB00080936F007894DF91CF9108951F920F92A5
:104EC0000FB60F9211242F933F934F935F936F93DD
:104ED0007F938F939F93AF93BF93EF93FF93E09153
:104EE0000D01F0910E010995E0916C01F0916D01B9
:104EF0000995FF91EF91BF91AF919F918F917F9114
:104F00006F915F914F913F912F910F900FBE0F9036
:104F10001F9018951F920F920FB60F9211242F9386
:104F20003F938F939F93AF93BF9380918401909110
:104F30008501A0918601B09187013091830123E022
:104F4000230F2D3720F40196A11DB11D05C026E8C1
:104F5000230F0296A11DB11D20938301809384012C
:104F600090938501A0938601B09387018091880179
:104F700090918901A0918A01B0918B010196A11DA8
:104F8000B11D8093880190938901A0938A01B09309
:104F90008B01BF91AF919F918F913F912F910F9076
:104FA0000FBE0F901F9018952FB7F8946091840151
:104FB0007091850180918601909187012FBF08959E
:104FC0003FB7F8948091880190918901A0918A015E
:104FD000B0918B0126B5A89B05C02F3F19F0019613
:104FE000A11DB11D3FBF6627782F892F9A2F620F11
:104FF000711D811D911D42E0660F771F881F991F4B
:105000004A95D1F70895CF92DF92EF92FF92CF9316
:10501000DF936B017C010E94E027EB01C114D104F6
:10502000E104F10489F00E94042A0E94E0276C1B2D
:105030007D0B683E734090F381E0C81AD108E10807
:10504000F108C851DC4FEACFDF91CF91FF90EF908C
:10505000DF90CF900895019739F0880F991F880F3E
:10506000991F02970197F1F70895789484B58260AB
:1050700084BD84B5816084BD85B5826085BD85B5FC
:10508000816085BDEEE6F0E0808181608083E1E8AB
:10509000F0E01082808182608083808181608083E3
:1050A000E0E8F0E0808181608083E1EBF0E08081E6
:1050B00084608083E0EBF0E0808181608083EAE7B8
:1050C000F0E0808184608083808182608083808141
:1050D000816080838081806880831092C100089500
:1050E0008E3008F08E50877020910F0190E4299F38
:1050F00090011124822B80937C0080917A0080643F
:1051000080937A0080917A0086FDFCCF80917800B0
:105110002091790090E0922B08951F93CF93DF9315
:10512000182FEB0161E00E941529209711F460E02F
:1051300004C0CF3FD10539F461E0812FDF91CF91D9
:105140001F910C944E29E12FF0E0E65AFE4EE491B7
:10515000E330F9F048F4E130B9F0E230A1F584B57C
:10516000806284BDC8BD34C0E730E9F0E83019F191
:10517000E43049F580918000806280938000D09374
:105180008B00C0938A0024C084B5806884BDC7BDED
:105190001FC080918000806880938000D093890038
:1051A000C093880015C08091B00080688093B000E3
:1051B000C093B3000DC08091B00080628093B000B6
:1051C000C093B40005C0C038D1050CF0B5CFAFCF47
:1051D000DF91CF911F910895833081F028F48130C1
:1051E00099F08230A1F008958730A9F08830B9F0A5
:1051F0008430D1F4809180008F7D03C08091800045
:105200008F7780938000089584B58F7702C084B52E
:105210008F7D84BD08958091B0008F7703C0809109
:10522000B0008F7D8093B0000895CF93DF9390E01E
:10523000FC01E259FE4E2491FC01EE57FE4E849192
:10524000882349F190E0880F991FFC01E655FE4E36
:10525000A591B49180569E4EFC01C591D4919FB703
:10526000611108C0F8948C91209582238C938881D9
:1052700082230AC0623051F4F8948C91322F309519
:1052800083238C938881822B888304C0F8948C912B
:10529000822B8C939FBFDF91CF9108950F931F9323
:1052A000CF93DF931F92CDB7DEB7282F30E0F901FF
:1052B000E65AFE4E8491F901E259FE4E1491F9012D
:1052C000EE57FE4E04910023C9F0882321F0698334
:1052D0000E94EC286981E02FF0E0EE0FFF1FE056FE
:1052E000FE4EA591B4919FB7F8948C91611103C0C3
:1052F0001095812301C0812B8C939FBF0F90DF916C
:10530000CF911F910F910895CF93DF93282F30E015
:10531000F901E65AFE4E8491F901E259FE4ED4910C
:10532000F901EE57FE4EC491CC2391F081110E94F9
:10533000EC28EC2FF0E0EE0FFF1FEA56FE4EA59191
:10534000B4912C912D2381E090E021F480E002C003
:1053500080E090E0DF91CF91089508950E94352874
:105360000E94AD290E94DA0EC0E0D0E00E94AB1A84
:105370002097E1F30E940000F9CF4F925F926F9265
:105380007F92AF92BF92CF92DF92EF92FF920F93F4
:105390001F93CF93DF93CDB7DEB729013A01621B8C
:1053A000730B840B950B29893A894B895C892A19DF
:1053B0003B094C095D09298B3A8B4B8B5C8B9B011C
:1053C000AC0169897A898B899C890E94052AE41835
:1053D000F50806091709A80197010E945F2A2A0DFE
:1053E0003B1D4C1D5D1DCA01B901DF91CF911F917D
:1053F0000F91FF90EF90DF90CF90BF90AF907F9094
:105400006F905F904F9008950895DB018F939F9365
:105410000E94842ABF91AF91A29F800D911DA39FEE
:10542000900DB29F900D11240895AA1BBB1B51E152
:1054300007C0AA1FBB1FA617B70710F0A61BB70B04
:10544000881F991F5A95A9F780959095BC01CD01A9
:10545000089597FB072E16F4009407D077FD09D026
:105460000E94152A07FC05D03EF4909581959F4F28
:105470000895709561957F4F0895A1E21A2EAA1B99
:10548000BB1BFD010DC0AA1FBB1FEE1FFF1FA217F4
:10549000B307E407F50720F0A21BB30BE40BF50BF1
:1054A000661F771F881F991F1A9469F7609570957A
:1054B000809590959B01AC01BD01CF010895052E0B
:1054C00097FB1EF400940E94762A57FD07D00E9495
:1054D0003D2A07FC03D04EF40C94762A5095409553
:1054E000309521953F4F4F4F5F4F08959095809590
:1054F000709561957F4F8F4F9F4F0895EE0FFF1F5F
:105500000590F491E02D09940E948F2AA59F900D9B
:10551000B49F900DA49F800D911D11240895A29F0A
:10552000B001B39FC001A39F700D811D1124911D77
:10553000B29F700D811D1124911D0895CF93DF93AB
:105540008230910510F482E090E0E0918E01F091BC
:105550008F0120E030E0A0E0B0E0309739F14081E9
:10556000518148175907B8F04817590771F48281DB
:105570009381109729F013969C938E9312972CC0C9
:1055800090938F0180938E0127C02115310531F052
:105590004217530718F0A901DB0101C0EF019A017E
:1055A000BD01DF010280F381E02DD7CF2115310548
:1055B000F9F0281B390B2430310580F48A819B8156
:1055C0006115710521F0FB019383828304C09093E0
:1055D0008F0180938E01FE01329644C0FE01E20FDE
:1055E000F31F8193919322503109398328833AC064
:1055F00020918C0130918D01232B41F420910201E7
:105600003091030130938D0120938C012091000192
:10561000309101012115310541F42DB73EB740917C
:10562000040150910501241B350BE0918C01F09190
:105630008D01E217F307A0F42E1B3F0B2817390743
:1056400078F0AC014E5F5F4F2417350748F04E0FDE
:105650005F1F50938D0140938C018193919302C001
:10566000E0E0F0E0CF01DF91CF910895CF93DF9399
:10567000009709F487C0FC01329713821282C0910F
:105680008E01D0918F01209781F420813181280FE4
:10569000391F80918C0190918D018217930779F5C4
:1056A000F0938D01E0938C016DC0DE0120E030E0CD
:1056B000AE17BF0750F412964D915C9113979D0160
:1056C0004115510509F1DA01F3CFB383A28340817B
:1056D0005181840F951F8A179B0771F48D919C91BE
:1056E0001197840F951F02969183808312968D9156
:1056F0009C911397938382832115310529F4F093AC
:105700008F01E0938E013EC0D9011396FC93EE9376
:1057100012974D915D91A40FB51FEA17FB0779F41D
:1057200080819181840F951F0296D90111969C93D7
:105730008E938281938113969C938E931297E0E0CF
:10574000F0E08A819B81009719F0FE01EC01F9CF0E
:10575000CE01029628813981820F931F20918C01FE
:1057600030918D012817390769F4309729F4109288
:105770008F0110928E0102C013821282D0938D018C
:10578000C0938C01DF91CF910895F999FECF92BD1E
:1057900081BDF89A992780B50895262FF999FECFF3
:1057A0001FBA92BD81BD20BD0FB6F894FA9AF99A3E
:0A57B0000FBE01960895F894FFCF94
:1057BA000000900180000100000001EB21EB2101B3
:0A57CA00312E30316200202D200046
:00000001FF
