:100000000C94BC030C94E4030C94E4030C94E403FC
:100010000C94E4030C94E4030C94E4030C94E403C4
:100020000C94E4030C94E4030C94E4030C94E403B4
:100030000C94E4030C94DD120C94E4030C94E4039C
:100040000C9409130C94E4030C94F5150C942716E6
:100050000C94E4030C94E4030C94E4030C94E40384
:100060000C94E4030C94E4034578697400525353F0
:10007000492043616C6962726174696F6E00466108
:100080006E204F7574707574005246205363616E14
:100090006E6572005246204D616E75616C2053652D
:1000A00074757000566964656F20496E70757420B0
:1000B00053656C6563742E00436F6E666967757275
:1000C0006174696F6E204D656E75004F5344206DED
:1000D000656E75206F666600686F6C64206C6F6E6D
:1000E0006700686F6C6400636C69636B0042792021
:1000F000467265616B7961747469632E636F6D0A12
:10010000000A0A0A0D4641353847485A205246200F
:10011000566964656F204D6F64756C65202D20569F
:1001200065722E2000426F61726420696E69746985
:10013000616C697A6564202E2E2E00E916D516C1F1
:1001400016AD169916851671165D16651678168BFE
:10015000169E16B116C416D716EA1649163516217C
:10016000160D16FD161117251739176C16801694E3
:1001700016A816BC16D016E416F8161A163F166402
:10018000168916AE16D316F8161D17052A9B299147
:100190002987291D29132909299F2803290C291694
:1001A000291F29892992299C29052A95288B28818C
:1001B0002817280F2A192A832A8D2A062910291A76
:1001C0002984298E299829022A0C2A1D28B0280260
:1001D0002915298729DA290C2A132A040620000068
:1001E00000000000404040004000A0A000000000CF
:1001F000A0E0A0E0A0004060C060C000A02040805F
:10020000A0002040C0A0E0008080000000004080EE
:100210008080400080404040800040A040000000BE
:100220000040E04000000000008080000000E0008E
:100230000000000000008000202040808000E0A03E
:10024000A0A0E00040C04040E000E020E080E000EE
:10025000E020E020E000A0A0E0202000E080E020FE
:10026000C000C080E0A0E000E02040808000E0A06E
:10027000E0A0E000E0A0E0206000004000400000BE
:1002800000400040800020408040200000E000E06E
:100290000000804020408000C02040004000E0A0DE
:1002A000A0E0E000E0A0E0A0A000C0A0E0A0C000AE
:1002B000E0808080E000C0A0A0A0C000E080E080DE
:1002C000E000E080E0808000E08080A0E000A0A06E
:1002D000E0A0A000E0404040E000202020A0E0009E
:1002E00080A0C0C0A00080808080E000A0E0E0A0EE
:1002F000A000C0A0A0A0A00040A0A0A04000E0A03E
:10030000E080800040A0A0E06600E0A0C0E0AA007D
:10031000E080E020E000E04040404000A0A0A0A03D
:10032000E000A0A0A0A04000A0A0E0E0A200A0A04B
:1003300040A0A000A0A040404000E0204080E0009D
:10034000C0808080C000008040202000C04040402D
:10035000C00040A00000000000000000E00080405D
:10036000000000000060A0A060008080C0A0C0006D
:10037000006080806000202060A0600040A0E080DD
:1003800060006040E040400060A06020C0008080CD
:10039000C0A0A00040004040400040004040C000DD
:1003A0008080A0C0A000C0404040E00000A0E0A0CD
:1003B000A00000C0A0A0A0000040A0A0400000C07D
:1003C000A0C080000060A060200000C0A08080006D
:1003D00000604020600040E04040400000A0A0A03D
:1003E000600000A0A0A0400000A0A0E0A00000A02D
:1003F0004040A00000A0E020400000E04080E0007D
:100400002040C0402200404000404000804060400A
:10041000800000A04000000006082000000000004E
:10042000000000404040404000400050505000005C
:10043000000000000050F850F850002070A0702814
:1004400070200000C8D0205898000020508040A89C
:1004500090680040404000000000001020404040F4
:100460002010004020101010204000103810000014
:10047000000000002020F820200000000000000004
:10048000101000000000F800000000000000000054
:1004900010000000081020408000007088A8A88884
:1004A0007000002060202020700000708810204024
:1004B000F80000F810201088700000909090F8105C
:1004C000100000F880F008887000007080F08888C4
:1004D000700000F808102040800000708870888844
:1004E000700000708888780870000000002000000C
:1004F00020000000002000202040000018608060E4
:10050000180000000078007800000000C0300830BB
:10051000C000006090202000200000708898A89003
:10052000887000205088F888880000F088F088885B
:10053000F000007088808088700000F088888888CB
:10054000F00000F880F88080F80000F880F08080EB
:1005500080000070888098887000008888F88888FB
:1005600088000070202020207000003810101090AB
:100570006000008890E0A0908800008080808080EB
:10058000F8000088D8A8A8888800008888C8A8989B
:100590008800007088888888700000F088F080806B
:1005A000800000708888A890680000F088F0A09013
:1005B0008800007880700808F00000F820202020D3
:1005C0002000008888888888700000888888885083
:1005D0002000008888A8A8A85000008850205088D3
:1005E0008800008888502020200000F80810204053
:1005F000F80000E080808080E00000008040201053
:1006000008000038080808083800002050000000E2
:10061000000000000000000000F800804000000022
:1006200000000000601070906000008080E09090FA
:10063000E00000000070808070000010107090904A
:10064000700000006090F0807000003040E040409A
:1006500040000000609070101060008080E090907A
:1006600090000020002020207000001000301010AA
:100670001060008090A0C0A090000060202020208A
:10068000700000000050A8A8A800000000F08888B2
:10069000880000000060909060000000006090F012
:1006A00080800000006090F01010000000B0484012
:1006B00040000000304020106000004040E040401A
:1006C000400000000090909060000000008888507A
:1006D000200000000088A8A850000000885020508A
:1006E00088000000009090604080000000F02040F2
:1006F000F0000020404080404020002020202020AA
:10070000202000201010081010200040A810000029
:1007100000000000000000000000000000000800D1
:1007200002010000030407000000000000000001B7
:100730000204081020408001020408102001020475
:100740000810200404040404040404020202020247
:100750000203030303030300000000230026002913
:100760000000000000250028002B000000000024ED
:100770000027002A0000571611241FBECFEFD8E033
:10078000DEBFCDBF11E0A0E0B1E0EAECF1E302C0D2
:1007900005900D92A232B107D9F721E0A2E2B1E0B3
:1007A00001C01D92AE3FB207E1F717E0C8E7D7E0FE
:1007B00004C02297FE010E94B817C637D107C9F7B7
:1007C0000E949B160C94E3180C940000CF92DF92C9
:1007D000EF92FF92CF93DF93EC010E9453136B01D2
:1007E0007C01CC0EDD1EE11CF11C0E9453136C1524
:1007F0007D058E059F05C8F461E080E10E945114DB
:1008000060E081E10E94511484E690E00E94AA1306
:1008100060E080E10E94511461E081E10E94511486
:1008200084E690E00E94AA13E0CF60E080E10E949D
:10083000511460E081E1DF91CF91FF90EF90DF9064
:10084000CF900C945114CF93DF93EC01809126014B
:10085000811120C026E040E052EC61E070E08DE5BF
:1008600091E00E94931561E071E08DE591E00E94B6
:10087000E8166AE071E08DE591E00E943A176DEEAE
:1008800070E08DE591E00E942817809126018F5F2E
:1008900080932601BE018DE591E0DF91CF910C940C
:1008A00028170F931F9382E00E9487144091220122
:1008B000509123016091240170912501892BA1F4AD
:1008C000452B462B472B09F05FC08FE090E00E943C
:1008D000E6030E94531360932201709323018093D7
:1008E00024019093250150C0452B462B472B09F43A
:1008F0004BC00E94531300912201109123012091BB
:10090000240130912501601B710B820B930B6093C6
:100910002201709323018093240190932501633376
:1009200071058105910540F1683C710581059105CE
:1009300038F487EE90E00E94230481E090E018C034
:10094000683B2BE072078105910538F482EE90E058
:100950000E94230482E090E00BC0603A7F40810552
:10096000910550F488ED90E00E94230483E090E02C
:10097000909333018093320110922201109223014F
:1009800010922401109225011F910F91089561E0AA
:100990008CE291E00E9433081816ACF461E08DE01F
:1009A0000E9451146CE271E080E090E00E9482139A
:1009B00060E08DE00E9451146CE271E080E090E014
:1009C0000E948213EBCF60E08CE291E00E94B307BB
:1009D00084E090E090932B0180932A010895CF92B8
:1009E000EF920F9380912A0190912B01009709F4C7
:1009F00067C0049709F072C08CE291E00E948F0CEE
:100A000060E08CE291E00E94B307CC24CA9482E0BB
:100A1000E82E0FE52FE740E060E08CE291E00E94D5
:100A2000250A6BED71E08CE291E00E94930C28EBBB
:100A300030E043E064E18CE291E00E94530D0BE072
:100A40002FE74BE060E08CE291E00E945F0968E1F3
:100A500074E08CE291E00E94930C24EA30E044E1DF
:100A600065E08CE291E00E94530D24E930E04EE114
:100A700065E08CE291E00E94530D29E830E048E205
:100A800065E08CE291E00E94530D2EE730E042E3F6
:100A900065E08CE291E00E94530D2DE630E04CE3DE
:100AA00065E08CE291E00E94530D28E630E046E4D8
:100AB00065E08CE291E00E94530D85E090E00AC071
:100AC0008CE291E00E94890C8BEC90E00E94230460
:100AD00081E090E090932B0180932A010F91EF9099
:100AE000CF9008950F931F930E9451040E94EF042A
:100AF0000E94531300913501109136012091370166
:100B0000309138010617170728073907D8F40E94D3
:100B100053136C507E4F8F4F9F4F609335017093EE
:100B2000360180933701909338018DE00E9487143D
:100B3000892B11F060E001C061E08DE01F910F9101
:100B40000C9451141F910F9108951F93CF93DF932D
:100B5000982F9F70282F22952F7038E0239F900D9B
:100B600011249950983218F48093290104C081E12E
:100B70008093290190E0892F90E0880F991FFC0154
:100B8000E55CFE4F25913491309328012093270195
:100B900085579E4FFC01C591D49181E090E00E9461
:100BA000AA1360E08BE00E9451148AE090E00E945A
:100BB000AA1360E08CE00E94511481E090E00E9452
:100BC000AA1361E08AE00E94511481E090E00E9443
:100BD000AA1361E08CE00E94511481E090E00E9431
:100BE000AA1360E08CE00E94511481E090E00E9422
:100BF000AA1360E08CE00E94511481E090E00E9412
:100C0000AA1360E08AE00E94511481E090E00E9403
:100C1000AA1361E08CE00E94511481E090E00E94F0
:100C2000AA1360E08CE00E94511481E090E00E94E1
:100C3000AA1360E08CE00E94511481E090E00E94D1
:100C4000AA1360E08AE00E94511481E090E00E94C3
:100C5000AA1361E08CE00E94511481E090E00E94B0
:100C6000AA1360E08CE00E94511481E090E00E94A1
:100C7000AA1360E08CE00E94511481E090E00E9491
:100C8000AA1360E08AE00E94511481E090E00E9483
:100C9000AA1361E08CE00E94511481E090E00E9470
:100CA000AA1360E08CE00E94511481E090E00E9461
:100CB000AA1360E08CE00E94511481E090E00E9451
:100CC000AA1361E08AE00E94511481E090E00E9442
:100CD000AA1361E08CE00E94511481E090E00E9430
:100CE000AA1360E08CE00E94511481E090E00E9421
:100CF000AA1310E160E0C0FF09C08CE00E9451140B
:100D000081E090E00E94AA1361E008C08CE00E949C
:100D1000511481E090E00E94AA1360E08AE00E94F2
:100D2000511481E090E00E94AA1361E08CE00E94DF
:100D3000511481E090E00E94AA1360E08CE00E94D0
:100D4000511481E090E00E94AA13D695C7951150E6
:100D500089F6C4E060E08CE00E94511481E090E0EC
:100D60000E94AA1360E08AE00E94511481E090E0A2
:100D70000E94AA1361E08CE00E94511481E090E08F
:100D80000E94AA1360E08CE00E94511481E090E080
:100D90000E94AA13C150F1F681E090E00E94AA13CC
:100DA00061E08BE00E9451148AE090E00E94AA1357
:100DB00061E08BE00E94511460E08CE00E945114CD
:100DC00060E08AE0DF91CF911F910C9451140E9452
:100DD000A50581E090E00E94AA1361E08BE00E94EB
:100DE00051148AE090E00C94AA13CF9361E08BE059
:100DF0000E94181461E08AE00E94181461E08CE0FF
:100E00000E94181461E082E10E94181461E082E1FE
:100E10000E94511461E08EE00E94181461E08FE09E
:100E20000E94181460E08EE00E94511460E08FE090
:100E30000E94511460E082E00E94181462E082E097
:100E40000E94511460E083E00E94181462E083E085
:100E50000E94511460E084E00E94181462E084E073
:100E60000E94511461E080E10E94181461E081E168
:100E70000E94181460E080E10E94511460E081E15A
:100E80000E94511461E08DE00E94181461E08DE031
:100E90000E94511461E089E00E94181461E089E029
:100EA0000E945114C6E061E08DE00E9451148AE076
:100EB00090E00E94E60360E08DE00E94511464E639
:100EC00070E080E090E00E948213C15061F785E1FC
:100ED000809334010E94E7060E94C70485E291E0F6
:100EE0000E9423040E9453136093350170933601CE
:100EF0008093370190933801CF910895E0914B0191
:100F0000982F969596959695209150013091510184
:100F100087706E9FF0011124E90FF11DE20FF31F9E
:100F2000413051F420E830E002C0359527958A958C
:100F3000E2F78081822B15C041110AC02FE73FEFF5
:100F400002C0359527958A95E2F78081822309C0F2
:100F500020E830E002C0359527958A95E2F7808138
:100F6000822780830895FC016130F9F030F062300F
:100F700009F049C080E090E031C01282138280E025
:100F800090E030914B0120914A01329F9001112451
:100F9000821793074CF4E0915001F0915101E80F52
:100FA000F91F10820196EDCF08951282138280E01E
:100FB00090E04FEF30914B0120914A01329F900118
:100FC0001124821793074CF4E0915001F0915101E4
:100FD000E80FF91F40830196EDCF089530914B0142
:100FE00020914A01329F90011124821793075CF4EB
:100FF000E0915001F0915101E80FF91F20812095F7
:1010000020830196EBCF0895FF920F931F93CF9308
:10101000DF93EC01F62E022F842F887FD9F0142F56
:10102000169516951695129FC00111240E94BC17A3
:1010300099838883009781F01A821B829C01402F3C
:10104000612F8F2D0E941C1260E0CE010E94B30719
:1010500080E003C081E001C084E0DF91CF911F9167
:101060000F91FF90089520E640E80C940408862F25
:10107000642FE0914B01A82FB0E098E0E99FF001C8
:101080001124AE17BF073CF490914A01491718F498
:10109000422F0C947E0708950F931F93CF93DF93F5
:1010A000DC01FA014217530749F4202F462F6E2F17
:1010B000DF91CF911F910F910C94370824173507BA
:1010C00020F4CA019927F9019C01EF01C770DD27BF
:1010D0008FEF90E0AC0102C055954795CA95E2F7B5
:1010E000EA01142F43E0F695E7954A95E1F7409120
:1010F0004B01469FB0011124E60FF71FA90147706D
:10110000552702C0959587954A95E2F7582F509537
:10111000C901D3E096958795DA95E1F7860F971F79
:10112000E817F90719F41C2F152350E00130D9F402
:101130009F012F5F3F4FCD91DC911197CE0FDF1FA5
:101140004881412B48834FEFED91FC911197E20FBD
:10115000F31F2817390720F440832F5F3F4FF4CF48
:101160008081852B3BC001111CC09F012F5F3F4F29
:10117000CD91DC911197CE0FDF1F1095488141234F
:101180004883ED91FC911197E20FF31F281739075F
:1011900020F410822F5F3F4FF4CF5095808185233C
:1011A0001DC00230E1F49F012F5F3F4FCD91DC91D4
:1011B0001197CE0FDF1F488141274883ED91FC91A5
:1011C0001197E20FF31F2817390730F4408140953B
:1011D00040832F5F3F4FF2CF808185278083DF914F
:1011E000CF911F910F9108950F93CF93DF934217E3
:1011F000530731F4202FDF91CF910F910C943708D2
:101200002417350720F4FA01FF27A9019F01762F43
:101210007770A0E8B0E002C0B595A7957A95E2F79F
:101220007A2FC0914B01C49FF001C59FF00D11248E
:10123000669566956695E60FF11D013091F42417C9
:101240003507C8F1EC01A881B981AE0FBF1F6C91C1
:10125000672B6C9360914B01E60FF11D4F5F5F4F61
:10126000EECF011114C07A2F70952417350718F1AD
:10127000EC01A881B981AE0FBF1F6C9167236C93FD
:1012800060914B01E60FF11D4F5F5F4FEECF0230D3
:1012900091F42417350778F0EC01A881B981AE0FDD
:1012A000BF1F6C9167276C9360914B01E60FF11D96
:1012B0004F5F5F4FEECFDF91CF910F9108952F9247
:1012C0003F924F925F926F927F928F929F92AF92D6
:1012D000BF92CF92DF92EF92FF920F931F93CF9323
:1012E000DF9300D000D0CDB7DEB7742F302F0E2D96
:1012F000462F50E05C834B83E0914B0158E0E59F23
:10130000F00111244B815C81E417F5070CF486C0D1
:1013100040914A01471708F481C0422E512CE41530
:10132000F5050CF47BC0431708F478C0621307C0BE
:10133000232F30E0472F50E00E94F4086FC0731352
:1013400007C092014B815C81672F0E944C0866C0E8
:10135000261738F48B819C81841995092C018FEF15
:1013600005C0EB81FC814E1A5F0A81E0A72EB12CEB
:10137000C32ED12C371730F495012C193D09690182
:101380009FEF03C0CA18DB0891E04C145D043CF0E9
:101390003C2D2D2D6201432E522E10E001C011E094
:1013A000440C551C42018C189D089601220F331FD6
:1013B000612C712C292E332427FC3094E82EFF2435
:1013C000E7FCF094C614D7044CF1402F6A2D8B81B2
:1013D00029833A830E947E0729813A8197FC0DC0B8
:1013E000113039F44B815C814E0D5F1D5C834B8362
:1013F00002C0A20CB31C821A930A113019F4A20C79
:10140000B31C06C08B819C818E0D9F1D9C838B839A
:10141000840C951C9FEF691A790AD4CF0F900F9016
:101420000F900F90DF91CF911F910F91FF90EF9050
:10143000DF90CF90BF90AF909F908F907F906F90F4
:101440005F904F903F902F9008954F925F926F92D0
:101450007F928F929F92AF92BF92CF92DF92EF9244
:10146000FF920F931F93CF93DF93EC01F62E142F6F
:10147000422E502EDE2C8FEFC81230C0AF2CA40CA1
:10148000ED2C012F2A2D412F6F2DCE010E945F09D7
:10149000B12EB50C0B2D2F2D412F6F2DCE010E949B
:1014A0005F092A2D412F6A2DCE010E945F092A2D46
:1014B0004B2D6F2DCE010E945F09DF91CF911F91BF
:1014C0000F91FF90EF90DF90CF90BF90AF909F90E3
:1014D0008F907F906F905F904F900895E42EA02E94
:1014E000B12CA40EB11C862E912C3401620E711CFD
:1014F0008E2D90E08A159B050CF60C2D9301A4010E
:101500006E2DCE010E944C08E394F2CF2F923F92B1
:101510004F925F926F927F928F929F92AF92BF9203
:10152000CF92DF92EF92FF920F931F93CF93DF93AF
:10153000CDB7DEB729970FB6F894DEBF0FBECDBF8B
:10154000DC01962F977058E0591BE11006C0F90195
:10155000E00FF11FE4900F5F1F4FC11006C0F901AB
:10156000E00FF11FC4900F5F1F4F8E2D8770EE2D7F
:10157000E695E695E695882321F0882483948E0EDF
:1015800002C08E2E88E0669566956695E62EF12C53
:10159000FC82EB82692E712CB301680F711D798773
:1015A00068876FEF70E0088402C0759567950A94AC
:1015B000E2F7852F90E09A83898391E0891202C037
:1015C000562E01C0512C8FEF90E05C01052E01C01A
:1015D000AA0C0A94EAF75A28462E6885798568503D
:1015E000710902C0959587956A95E2F78D8360E051
:1015F00070E0E42EF12CFF82EE82912C41E0841AFF
:1016000091086C1508F08CC0F0914B014E815F8100
:10161000460F571FF49FC001F59F900D1124EB80DA
:10162000FC808E0D9F1DED91FC911197E80FF91F25
:10163000D0804D2D45214083A8014F5F5F4FF801B9
:10164000E20FF31FA490ED91FC911197E80FF91FA1
:10165000EA2CF12C062C02C0F594E7940A94E2F7E8
:10166000F080FE28F0821401240E351E7C01E01A61
:10167000F10AC701840F951F0D911C911197B12C90
:101680004215530508F5080F191FF801D08009808D
:1016900001C0AA0C0A94EAF7A082F901E40FF51F31
:1016A000A490ED91FC911197E80FF91F8A2D90E01D
:1016B000062C02C0959587950A94E2F79081982BA5
:1016C00090834F5F5F4FD5CFE885F985389744F415
:1016D000FC013197E00FF11FD42010811D290CC0AF
:1016E000E885F985389749F07801E80EF91EF70189
:1016F0001081FD811F23F70110830D911C9111971B
:10170000080F191F098002C0AA0CBB1C0A94E2F73B
:10171000F80180818A2980836F5F7F4F8A0171CFB2
:1017200029960FB6F894DEBF0FBECDBFDF91CF91E3
:101730001F910F91FF90EF90DF90CF90BF90AF90EF
:101740009F908F907F906F905F904F903F902F90E1
:101750000895DF92EF92FF920F931F93CF93DF9341
:101760004130A9F1C0F0423009F44DC0433009F0D6
:10177000C8C0562F5770E52E66956695669570E041
:10178000719561957109F12C02E010E088E090E01C
:10179000851B910983C08091500190915101209146
:1017A0004B01FC01629FE00DF11D112430914A01B3
:1017B000AC01329F400D511D11249A01DC012E17FE
:1017C0003F0708F49EC080818D931192F8CF8091DD
:1017D00050019091510130914A0120914B01DC015F
:1017E000329FA00DB11D1124FD01629FE019F10986
:1017F00011241196E817F90708F483C020812E936D
:1018000010823197F7CF162F1770669566956695FB
:1018100070E0D0E028E030E0211B310980914A01DE
:10182000D81708F06EC080914B01E0915001F09103
:1018300051018D9FE00DF11D1124DF01A60FB71F8F
:1018400090E002978E0F9F1F8A179B0790F0CC9114
:10185000012E01C0CC0F0A94EAF71D924C9150E082
:10186000022E02C0559547950A94E2F7C42BC19306
:10187000EBCF8C91012E01C0880F0A94EAF71C92DD
:101880008083DF5FCBCF2C9130E00E2C02C03595EA
:1018900027950A94E2F71C922083F39420914A0141
:1018A000F21678F5E0914B014E2F50E09A0121504D
:1018B0003109EF9D200D311D1124E0915001F0916F
:1018C0005101E20FF31F9801241B350B2E0F3F1F10
:1018D000DF01A60FB71FA217B307A8F24C9150E083
:1018E0000E2C02C0559547950A94E2F71C92CE91B2
:1018F000082E01C0CC0F0A94EAF74C2B4083319795
:10190000EACFDF91CF911F910F91FF90EF90DF9081
:101910000895EFE6F0E080818E7F8083089581E076
:1019200080936F000895FC01758364830895CF92BE
:10193000EF920F931F93CF93DF93FC01A481B581A6
:10194000FD0132963491ED012196FE01C490FD0116
:10195000E490FE010491231B209F800111240D5F60
:101960001F4F9D010E94860ADF91CF911F910F9119
:10197000EF90CF900895DC0113964C91139750E0AF
:101980001496ED91FC9115973196649120914A013E
:1019900030E0261B31094217530724F0649140E0E0
:1019A0000C94A90BE4914E0F511DFC014383089543
:1019B0000F931F93CF93DF931F92CDB7DEB78C01A8
:1019C000262F6A3031F1F8F4662309F466C06830D6
:1019D00069F5DC011496ED91FC911597E491DC0119
:1019E00012966C91129770E06E1B710912966C93AF
:1019F000129720E213964C910F90DF91CF911F9197
:101A00000F910C94970C6D3071F06E3009F445C055
:101A10000DC0DC0112961C920F90DF91CF911F91A7
:101A20000F910C94BB0CFC01128237C0D8011296A6
:101A30006C91129780914B011496ED91FC91159742
:101A4000E491462F50E0B8E08B9FC00111248E1B1B
:101A50009109F801481759076CF01282C8012983CF
:101A60000E94BB0C2981D80113964C9113971296B2
:101A70006C9101C04381C8010E94970CD801149653
:101A8000ED91FC911597E491D80112968C911297E3
:101A9000F0E0E80FF11D1296EC930F90DF91CF91DB
:101AA0001F910F9108950F931F93CF93DF93EC0134
:101AB00089016A834B83F8016491662331F00F5FDB
:101AC0001F4FCE010E94D80CF6CFDF91CF911F910E
:101AD0000F91089508952091410130914201809124
:101AE000470190E02817390779F4109253011092BA
:101AF000520180914D0180934E0180E29EE09093CF
:101B00003E0180933D0116C0209141013091420178
:101B100080914801909149012817390759F484EAC6
:101B20009DE090933E0180933D01E0910601F0918C
:101B3000070109958091410190914201019690938E
:101B40004201809341010895209141013091420169
:101B50008091480190914901281739070CF44EC033
:101B60008CEA93E090938900809388001092420160
:101B7000109241018091430190914401A09145014F
:101B8000B09146010196A11DB11D80934301909330
:101B90004401A0934501B093460180913901909191
:101BA0003A01A0913B01B0913C01892B8A2B8B2BF0
:101BB00009F18091390190913A01A0913B01B091D6
:101BC0003C01181619061A061B0684F58091390186
:101BD00090913A01A0913B01B0913C010197A1097C
:101BE000B1098093390190933A01A0933B01B093DE
:101BF0003C011CC01092B1002B9818C020914101EB
:101C00003091420180914F01992787FD90952817C7
:101C1000390761F48AE490E090938900809388000A
:101C20008BE69DE090933E0180933D0180914101C0
:101C30009091420101969093420180934101089551
:101C40003091840020914C012A50231B2350F0F73F
:101C50002D5F19F02A9511F001C00000E0913F01BD
:101C6000F0914001099580914E0140914D01811103
:101C70000FC040934E0120914B01809152019091F1
:101C80005301820F911D909353018093520103C021
:101C9000815080934E0120914101309142012F5F8C
:101CA0003F4F6091470170914A01552747FD50957C
:101CB0004F5F5F4F749FC001759F900D1124860F79
:101CC000911D2817390731F48BE69DE090933E0172
:101CD00080933D0180914101909142010196909342
:101CE00042018093410108950F93CF93DF93A09118
:101CF0005001B0915101C0915201D0915301809196
:101D00004B01AC0FBD1F0BB10F7703C000FA07F9F1
:101D10000BB90D90000007FA07F90BB9000000009D
:101D2000000006FA07F90BB900000000000005FAF0
:101D300007F90BB900000000000004FA07F90BB91D
:101D400000000000000003FA07F90BB900000000D2
:101D5000000002FA07F90BB900000000000001FAC8
:101D600007F90BB98A9591F60000000000FA07F90F
:101D70000BB90BB10F7707FB07F90BB9DF91CF91C7
:101D80000F9108950F93CF93DF93A0915001B091DD
:101D90005101C0915201D091530180914B01AC0F80
:101DA000BD1F0BB10F7703C000FA07F90BB90D90F7
:101DB00007FA07F90BB90000000006FA07F90BB99A
:101DC0000000000005FA07F90BB90000000004FA52
:101DD00007F90BB90000000003FA07F90BB900007E
:101DE000000002FA07F90BB900008A9501FA07F919
:101DF0000BB9D1F6000000FA07F90BB90BB10F7758
:101E000007FB07F90BB9DF91CF910F9108950F935D
:101E1000CF93DF93A0915001B0915101C091520135
:101E2000D091530180914B01AC0FBD1F02C0000C3B
:101E30000BB80D9000000BB800000000000C0BB8B0
:101E400000000000000C0BB800000000000C0BB8F4
:101E500000000000000C0BB800000000000C0BB8E4
:101E60000000000C8A950BB811F70000000C0BB8AD
:101E70000000000000005F98DF91CF910F9108955E
:101E80000F93CF93DF93A0915001B0915101C09176
:101E90005201D091530180914B01AC0FBD1F8E3187
:101EA00091F08D3151F08C3149F08B3141F08A3114
:101EB00039F0893131F0883129F01CC032C048C076
:101EC0005EC074C08AC00D900BB80000000C0BB847
:101ED0000000000C0BB80000000C0BB80000000C58
:101EE0000BB80000000C0BB80000000C0BB8000091
:101EF000000C0BB80D900BB80000000C0BB80000E4
:101F0000000C0BB80000000C0BB80000000C0BB864
:101F10000000000C0BB80000000C0BB80000000C17
:101F20000BB80D900BB80000000C0BB80000000CB3
:101F30000BB80000000C0BB80000000C0BB8000040
:101F4000000C0BB80000000C0BB80000000C0BB824
:101F50000D900BB80000000C0BB80000000C0BB883
:101F60000000000C0BB80000000C0BB80000000CC7
:101F70000BB80000000C0BB80000000C0BB80D9063
:101F80000BB80000000C0BB80000000C0BB80000F0
:101F9000000C0BB80000000C0BB80000000C0BB8D4
:101FA0000000000C0BB80000000C0BB80D900BB833
:101FB0000000000C0BB80000000C0BB80000000C77
:101FC0000BB80000000C0BB80000000C0BB80000B0
:101FD000000C0BB80000000C0BB80D900BB8000003
:101FE000000C0BB80000000C0BB80000000C0BB884
:101FF0000000000C0BB80000000C0BB80000000C37
:102000000BB80000000C0BB80D900BB80000000CD2
:102010000BB80000000C0BB80000000C0BB800005F
:10202000000C0BB80000000C0BB80000000C0BB843
:102030000000000C0BB80D900BB80000000C0BB8A2
:102040000000000C0BB80000000C0BB80000000CE6
:102050000BB80000000C0BB80000000C0BB800001F
:10206000000C0BB80D900BB80000000C0BB8000072
:10207000000C0BB80000000C0BB80000000C0BB8F3
:102080000000000C0BB80000000C0BB80000000CA6
:102090000BB80D900BB80000000C0BB80000000C42
:1020A0000BB80000000C0BB80000000C0BB80000CF
:1020B000000C0BB80000000C0BB80000000C0BB8B3
:1020C0000D900BB80000000C0BB80000000C0BB812
:1020D0000000000C0BB80000000C0BB80000000C56
:1020E0000BB80000000C0BB80000000C0BB80D90F2
:1020F0000BB80000000C0BB80000000C0BB800007F
:10210000000C0BB80000000C0BB80000000C0BB862
:102110000000000C0BB80000000C0BB80D900BB8C1
:102120000000000C0BB80000000C0BB80000000C05
:102130000BB80000000C0BB80000000C0BB800003E
:10214000000C0BB80000000C0BB80D900BB8000091
:10215000000C0BB80000000C0BB80000000C0BB812
:102160000000000C0BB80000000C0BB80000000CC5
:102170000BB80000000C0BB80D900BB80000000C61
:102180000BB80000000C0BB80000000C0BB80000EE
:10219000000C0BB80000000C0BB80000000C0BB8D2
:1021A0000000000C0BB80D900BB80000000C0BB831
:1021B0000000000C0BB80000000C0BB80000000C75
:1021C0000BB80000000C0BB80000000C0BB80000AE
:1021D000000C0BB80D900BB80000000C0BB8000001
:1021E000000C0BB80000000C0BB80000000C0BB882
:1021F0000000000C0BB80000000C0BB80000000C35
:102200000BB80D900BB80000000C0BB80000000CD0
:102210000BB80000000C0BB80000000C0BB800005D
:10222000000C0BB80000000C0BB80000000C0BB841
:102230000D900BB80000000C0BB80000000C0BB8A0
:102240000000000C0BB80000000C0BB80000000CE4
:102250000BB80000000C0BB80000000C0BB80D9080
:102260000BB80000000C0BB80000000C0BB800000D
:10227000000C0BB80000000C0BB80000000C0BB8F1
:102280000000000C0BB80000000C0BB80D900BB850
:102290000000000C0BB80000000C0BB80000000C94
:1022A0000BB80000000C0BB80000000C0BB80000CD
:1022B000000C0BB80000000C0BB80D900BB8000020
:1022C000000C0BB80000000C0BB80000000C0BB8A1
:1022D0000000000C0BB80000000C0BB80000000C54
:1022E0000BB80000000C0BB80D900BB80000000CF0
:1022F0000BB80000000C0BB80000000C0BB800007D
:10230000000C0BB80000000C0BB80000000C0BB860
:102310000000000C0BB80D900BB80000000C0BB8BF
:102320000000000C0BB80000000C0BB80000000C03
:102330000BB80000000C0BB80000000C0BB800003C
:10234000000C0BB80D900BB80000000C0BB800008F
:10235000000C0BB80000000C0BB80000000C0BB810
:102360000000000C0BB80000000C0BB80000000CC3
:102370000BB80D900BB80000000C0BB80000000C5F
:102380000BB80000000C0BB80000000C0BB80000EC
:10239000000C0BB80000000C0BB80000000C0BB8D0
:1023A0000D900BB80000000C0BB80000000C0BB82F
:1023B0000000000C0BB80000000C0BB80000000C73
:1023C0000BB80000000C0BB80000000C0BB80D900F
:1023D0000BB80000000C0BB80000000C0BB800009C
:1023E000000C0BB80000000C0BB80000000C0BB880
:1023F0000000000C0BB80000000C0BB80D900BB8DF
:102400000000000C0BB80000000C0BB80000000C22
:102410000BB80000000C0BB80000000C0BB800005B
:10242000000C0BB80000000C0BB8000000005F9817
:10243000DF91CF910F910895CF93DF93C82FE62FAF
:10244000309351012093500160934B0140934A0116
:1024500010924301109244011092450110924601DE
:10246000642F70E0882319F084E091E002C088EDC9
:1024700090E00E944D17615060934D01D0914D0145
:10248000D0934E0188E0E89F90011124442737FD46
:102490004095542F60EE72E080E090E00E94831738
:1024A000243091F018F42330B9F011C0253049F0F0
:1024B000263069F484E79EE09093400180933F01C9
:1024C00011C042EC5EE00AC047E05FE007C0273081
:1024D00018F044E75EE002C040E45FE05093400142
:1024E00040933F01579A219A5F98299A239A82EC48
:1024F0008093800089E18093810040914A012D2FD3
:10250000332727FD30952F5F3F4F429FC001439FE8
:10251000900D1124CC23C9F097FD019695958795D0
:1025200091958195910984568093470187EC80931A
:102530004C0187E080934F0188E391E0909349013B
:10254000809348018FEF93E018C097FD0196959511
:1025500087959195819591098557809347018FEBD8
:1025600080934C0183E080934F0186E091E090934B
:1025700049018093480187EF93E09093870080930F
:1025800086008AE490E0909389008093880080918F
:102590004801909149010196909342018093410135
:1025A00084EA9DE090933E0180933D0181E0809319
:1025B0006F007894DF91CF9108951F920F920FB61C
:1025C0000F9211242F933F934F935F936F937F93B9
:1025D0008F939F93AF93BF93EF93FF93E091080185
:1025E000F09109010995E0913D01F0913E010995B5
:1025F000FF91EF91BF91AF919F918F917F916F91DB
:102600005F914F913F912F910F900FBE0F901F90B0
:1026100018951F920F920FB60F9211242F933F938C
:102620008F939F93AF93BF938091550190915601E3
:10263000A0915701B09158013091540123E0230F2C
:102640002D3720F40196A11DB11D05C026E8230FEA
:102650000296A11DB11D20935401809355019093C2
:102660005601A0935701B093580180915901909160
:102670005A01A0915B01B0915C010196A11DB11DB1
:102680008093590190935A01A0935B01B0935C0130
:10269000BF91AF919F918F913F912F910F900FBE5E
:1026A0000F901F9018952FB7F89460915501709175
:1026B000560180915701909158012FBF08953FB75F
:1026C000F8948091590190915A01A0915B01B091C9
:1026D0005C0126B5A89B05C02F3F19F00196A11DEE
:1026E000B11D3FBF6627782F892F9A2F620F711D6A
:1026F000811D911D42E0660F771F881F991F4A9523
:10270000D1F70895CF92DF92EF92FF92CF93DF93AC
:102710006B017C010E945F13EB01C114D104E10441
:10272000F10489F00E944C170E945F136C1B7D0B13
:10273000683E734090F381E0C81AD108E108F108BF
:10274000C851DC4FEACFDF91CF91FF90EF90DF903F
:10275000CF900895019739F0880F991F880F991F1E
:1027600002970197F1F70895789484B5826084BD4B
:1027700084B5816084BD85B5826085BD85B5816085
:1027800085BDEEE6F0E0808181608083E1E8F0E0E5
:102790001082808182608083808181608083E0E814
:1027A000F0E0808181608083E1EBF0E080818460F3
:1027B0008083E0EBF0E0808181608083EAE7F0E0F5
:1027C0008081846080838081826080838081816059
:1027D00080838081806880831092C1000895833057
:1027E00081F028F4813099F08230A1F0089587308B
:1027F000A9F08830B9F08430D1F4809180008F7DC9
:1028000003C0809180008F7780938000089584B505
:102810008F7702C084B58F7D84BD08958091B0000C
:102820008F7703C08091B0008F7D8093B0000895B2
:10283000CF93DF9390E0FC01E15DF84F2491FC0120
:10284000ED5BF84F8491882349F190E0880F991F40
:10285000FC01E559F84FA591B4918F59984FFC01AF
:10286000C591D4919FB7611108C0F8948C912095BF
:1028700082238C93888182230AC0623051F4F894B9
:102880008C91322F309583238C938881822B88837F
:1028900004C0F8948C91822B8C939FBFDF91CF91D1
:1028A00008950F931F93CF93DF931F92CDB7DEB799
:1028B000282F30E0F901E55EF84F8491F901E15DE0
:1028C000F84F1491F901ED5BF84F04910023C9F022
:1028D000882321F069830E94EF136981E02FF0E0E3
:1028E000EE0FFF1FEF59F84FA591B4919FB7F894E1
:1028F0008C91611103C01095812301C0812B8C93B1
:102900009FBF0F90DF91CF911F910F910895CF93AB
:10291000DF93282F30E0F901E55EF84F8491F9014B
:10292000E15DF84FD491F901ED5BF84FC491CC23F0
:1029300091F081110E94EF13EC2FF0E0EE0FFF1FDA
:10294000E95AF84FA591B4912C912D2381E090E0A4
:1029500021F480E002C080E090E0DF91CF91089503
:10296000FC01818D228D90E0805C9F4F821B91093C
:102970008F7399270895FC01918D828D981731F0FE
:10298000828DE80FF11D858D90E008958FEF9FEF08
:102990000895FC01918D828D981761F0828DDF0181
:1029A000A80FB11D5D968C91928D9F5F9F73928F42
:1029B00090E008958FEF9FEF08958DE496E1892BC5
:1029C00049F080E090E0892B29F00E944D1681119A
:1029D0000C9400000895FC01848DDF01A80FB11D47
:1029E000A35ABF4F2C91848D90E001968F73992745
:1029F000848FA689B7892C93A089B1898C91806432
:102A00008C93938D848D981306C00288F389E02DF2
:102A100080818F7D80830895CF93DF93EC01888D33
:102A20008823C9F0EA89FB89808185FD05C0A889D2
:102A3000B9898C9186FD0FC00FB607FCF5CF808158
:102A400085FFF2CFA889B9898C9185FFEDCFCE01A2
:102A50000E94EB14E7CFDF91CF910895CF92DF92E0
:102A6000FF920F931F93CF93DF931F92CDB7DEB7E3
:102A70006C01DC015B969C915B975C968C915C97FA
:102A8000981307C05096ED91FC915197808185FD78
:102A900032C0F601038D10E00F5F1F4F0F73112737
:102AA000F02EF601848DF81211C00FB607FCF9CF95
:102AB000D6015096ED91FC915197808185FFF1CF21
:102AC000C60169830E94EB146981EBCF838DE80F07
:102AD000F11DE35AFF4F6083D6015B960C935B9721
:102AE0005296ED91FC91539780818062808381E0C2
:102AF00058968C930DC0D6015696ED91FC91579740
:102B000060835096ED91FC91519780818064808321
:102B100081E090E00F90DF91CF911F910F91FF9096
:102B2000DF90CF900895BF92CF92DF92EF92FF9205
:102B3000CF93DF93EC016A017B01B22EE889F9891A
:102B400082E08083411581EE580761057105A1F08F
:102B500060E079E08DE390E0A70196010E946117A3
:102B600021503109410951095695479537952795C7
:102B7000211580E1380798F0E889F989108260E82A
:102B800074E88EE190E0A70196010E946117215040
:102B90003109410951095695479537952795EC8597
:102BA000FD853083EE85FF852083188EEC89FD89B5
:102BB000B082EA89FB89808180618083EA89FB8910
:102BC000808188608083EA89FB8980818068808336
:102BD000EA89FB8980818F7D8083DF91CF91FF908F
:102BE000EF90DF90CF90BF9008951F920F920FB695
:102BF0000F9211242F938F939F93EF93FF93E09164
:102C00006D01F0916E018081E0917301F09174018A
:102C100082FD12C09081809176018F5F8F73209129
:102C20007701821751F0E0917601F0E0E35AFE4F10
:102C3000958F8093760101C08081FF91EF919F91E4
:102C40008F912F910F900FBE0F901F9018951F928C
:102C50000F920FB60F9211242F933F934F935F93D0
:102C60006F937F938F939F93AF93BF93EF93FF9354
:102C70008DE591E00E94EB14FF91EF91BF91AF9130
:102C80009F918F917F916F915F914F913F912F9184
:102C90000F900FBE0F901F9018958DE591E00E9448
:102CA000B01421E0892B09F420E0822F08951092BE
:102CB000600110925F0188EE93E0A0E0B0E08093A5
:102CC000610190936201A0936301B093640186E176
:102CD00091E090935E0180935D0185EC90E090938C
:102CE0006A018093690184EC90E090936C01809379
:102CF0006B0180EC90E090936E0180936D0181EC0C
:102D000090E09093700180936F0182EC90E090933B
:102D100072018093710186EC90E09093740180932E
:102D2000730110927601109277011092780110923F
:102D30007901089508950E94B4130E949A160E9482
:102D4000F506CDEDD4E10E9472052097E1F30E94D3
:102D5000DD14F9CFCF92DF92EF92FF920F931F9382
:102D6000CF93DF936C017A01EB01E60EF71E00E0D2
:102D700010E0CE15DF0561F06991D601ED91FC916F
:102D80000190F081E02DC6010995080F191FF1CFC0
:102D9000C801DF91CF911F910F91FF90EF90DF90CD
:102DA000CF9008956115710581F0DB010D90002031
:102DB000E9F7AD0141505109461B570BDC01ED917C
:102DC000FC910280F381E02D099480E090E0089569
:102DD000EF92FF920F931F93CF93DF938C01FB0130
:102DE000C0E0D0E064917F018FEFE81AF80A662313
:102DF00061F0D801ED91FC910190F081E02DC801C6
:102E00000995C80FD91FF701EDCFCE01DF91CF9102
:102E10001F910F91FF90EF900895DC01ED91FC91CF
:102E20000190F081E02D09940F931F93CF93DF93CE
:102E3000EC016DE00E940D178C016AE0CE010E944A
:102E40000D17800F911FDF91CF911F910F91089562
:102E50000F931F93CF93DF93EC010E94E8168C0130
:102E6000CE010E941417800F911FDF91CF911F9107
:102E70000F9108950F931F93CF93DF93EC010E945E
:102E8000D2168C01CE010E941417800F911FDF9182
:102E9000CF911F910F910895089597FB072E16F477
:102EA000009407D077FD09D00E94A21707FC05D037
:102EB0003EF4909581959F4F0895709561957F4F51
:102EC0000895A1E21A2EAA1BBB1BFD010DC0AA1F6B
:102ED000BB1FEE1FFF1FA217B307E407F50720F083
:102EE000A21BB30BE40BF50B661F771F881F991FFE
:102EF0001A9469F760957095809590959B01AC0147
:102F0000BD01CF010895052E97FB1EF400940E9489
:102F10009A1757FD07D00E94611707FC03D04EF4A3
:102F20000C949A1750954095309521953F4F4F4FEF
:102F30005F4F089590958095709561957F4F8F4F65
:102F40009F4F0895AA1BBB1B51E107C0AA1FBB1FBF
:102F5000A617B70710F0A61BB70B881F991F5A9525
:102F6000A9F780959095BC01CD010895EE0FFF1F44
:102F70000590F491E02D0994CF93DF938230910571
:102F800010F482E090E0E091FC01F091FD0120E07E
:102F900030E0A0E0B0E0309739F14081518148172E
:102FA0005907B8F04817590771F482819381109737
:102FB00029F013969C938E9312972CC09093FD0149
:102FC0008093FC0127C02115310531F042175307CA
:102FD00018F0A901DB0101C0EF019A01BD01DF0179
:102FE0000280F381E02DD7CF21153105F9F0281BA0
:102FF000390B2430310580F48A819B81611571057C
:1030000021F0FB019383828304C09093FD018093A0
:10301000FC01FE01329644C0FE01E20FF31F8193D2
:10302000919322503109398328833AC02091FA01C3
:103030003091FB01232B41F42091020130910301D7
:103040003093FB012093FA0120910001309101019E
:103050002115310541F42DB73EB74091040150913F
:103060000501241B350BE091FA01F091FB01E217F9
:10307000F307A0F42E1B3F0B2817390778F0AC019B
:103080004E5F5F4F2417350748F04E0F5F1F509378
:10309000FB014093FA018193919302C0E0E0F0E0DC
:1030A000CF01DF91CF910895CF93DF93009709F47B
:1030B00087C0FC01329713821282C091FC01D0912B
:1030C000FD01209781F420813181280F391F8091E3
:1030D000FA019091FB018217930779F5F093FB01B8
:1030E000E093FA016DC0DE0120E030E0AE17BF07CB
:1030F00050F412964D915C9113979D014115510525
:1031000009F1DA01F3CFB383A28340815181840FA7
:10311000951F8A179B0771F48D919C911197840FCD
:10312000951F02969183808312968D919C9113979F
:10313000938382832115310529F4F093FD01E093F7
:10314000FC013EC0D9011396FC93EE9312974D916A
:103150005D91A40FB51FEA17FB0779F48081918177
:10316000840F951F0296D90111969C938E938281AC
:10317000938113969C938E931297E0E0F0E08A81FE
:103180009B81009719F0FE01EC01F9CFCE01029668
:1031900028813981820F931F2091FA013091FB0120
:1031A0002817390769F4309729F41092FD0110921D
:1031B000FC0102C013821282D093FB01C093FA017A
:0A31C000DF91CF910895F894FFCF3E
:1031CA000000FE0180006A0D6A0D42657461312EAD
:1031DA003000000000002E15AA16B014C914BB1442
:0231EA000C15C2
:00000001FF
