:100000000C9426090C9443090C9443090C9443095D
:100010000C9443090C9443090C9443090C94430930
:100020000C9443090C9443090C9443090C94430920
:100030000C9443090C94CF2B0C9443090C94430962
:100040000C94FB2B0C9443090C9443090C94430926
:100050000C9443090C9443090C9443090C944309F0
:100060000C9443090C944309F510041112119C11CE
:10007000551213131D149D140A1566154F16FE17FD
:100080009118EE19441ABE1A001C921C2020002060
:1000900020003373003273002020004F6666004F4B
:1000A0006E0020202000534156454420212121008C
:1000B00020202020202020002020202020003E2062
:1000C000202020203C002020202020202000202054
:1000D0002020003E202020203C0045786974004309
:1000E000616C69627261746520203A0043656C6CD2
:1000F00020416C61726D203A004261742E2043658C
:100100006C6C73203A004261742E20416C61726DF8
:10011000203A0042617474657279204D6F6E697483
:100120006F72003330207365630032302073656373
:100130000031302073656300352073656300436FC1
:100140006E742E0020202020202000323020250038
:10015000343020250036302025003830202500316D
:1001600030302025002020202020003130206D69F3
:100170006E0038206D696E0035206D696E0032208A
:100180006D696E0031206D696E00202020202020D6
:1001900000534156454420212121004578697400CF
:1001A00046616E204D6F64652020203A0046616EE6
:1001B00020537065656420203A0054696D65722093
:1001C000496E632E203A0046414E204F7074696F8D
:1001D0006E730053415645442021212100616E7900
:1001E00020746F2063616E63656C00486F6C6420DF
:1001F0004D6F646520746F205361766500202D205B
:100200000044657465637465643A2000202D200005
:1002100053617665642020203A20005253534920D0
:1002200043616C6962726174696F6E00524620733B
:100230007065637472756D20616E616C797A657238
:100240000053415645442021212100202020005206
:10025000535349004368616E6E656C3A2000524604
:10026000204368616E6E656C2053656C65637469CC
:100270006F6E00507265737320616E7920746F2009
:10028000636F6E74696E75652E2E2E0020202020FF
:1002900020486F6C64203A2053617665004D6F648E
:1002A0006520436C69636B3A2045786974002020AF
:1002B000202020486F6C64203A205363616E004E0A
:1002C00065787420436C69636B3A2043682B004265
:1002D0007574746F6E204B657920496E666F00539C
:1002E0004156454420212121003E00457869740093
:1002F0002020524620446976657273697479002023
:10030000204578742E20566964656F00202052467F
:1003100020566964656F20320020205246205669BD
:1003200064656F203100566964656F20496E707591
:1003300074204D656E7500250020202020200020AF
:100340002D00202D20004578697400426174746589
:100350007279204D6F6E69746F720046616E204F26
:1003600075747075740052462053706563747275AD
:100370006D005246204368616E6E656C2053657453
:10038000757000566964656F20496E7075742053EE
:10039000656C6563742E00436F6E66696775726184
:1003A00074696F6E204D656E750025002020202039
:1003B00000202D00202D2000467265616B7941746C
:1003C0007469632E636F6D00352E3847487A205666
:1003D0006964656F205278202D205665722E004684
:1003E00041353847485A00E916D516C116AD169959
:1003F00016851671165D16651678168B169E16B143
:1004000016C416D716EA164916351621160D16FD0E
:10041000161117251739176C1680169416A816BCD6
:1004200016D016E416F8161A163F1664168916AE7C
:1004300016D316F8161D17052A9B29912987291D01
:1004400029132909299F2803290C2916291F2989DD
:100450002992299C29052A95288B28812817280F5D
:100460002A192A832A8D2A062910291A2984298ED5
:10047000299829022A0C2A1D28B028022915298723
:1004800029DA290C2A132A13201211211007220815
:100490001806091905230A1A040B1B03240C1C0255
:1004A0000D1D25010E1E000F1F26141527161704FB
:1004B0000620000000000000404040004000A0A0D6
:1004C00000000000A0E0A0E0A0004060C060C0000C
:1004D000A0204080A0002040C0A0E000808000005C
:1004E000000040808080400080404040800040A06C
:1004F000400000000040E04000000000008080005C
:100500000000E0000000000000008000202040808B
:100510008000E0A0A0A0E00040C04040E000E0205B
:10052000E080E000E020E020E000A0A0E02020004B
:10053000E080E020C000C080E0A0E000E02040803B
:100540008000E0A0E0A0E000E0A0E020600000402B
:10055000004000000040004080002040804020001B
:1005600000E000E00000804020408000C02040000B
:100570004000E0A0A0E0E000E0A0E0A0A000C0A05B
:10058000E0A0C000E0808080E000C0A0A0A0C0008B
:10059000E080E080E000E080E0808000E08080A0FB
:1005A000E000A0A0E0A0A000E0404040E00020204B
:1005B00020A0E00080A0C0C0A00080808080E0007B
:1005C000A0E0E0A0A000C0A0A0A0A00040A0A0A02B
:1005D0004000E0A0E080800040A0A0E06600E0A035
:1005E000C0E0AA00E080E020E000E04040404000A1
:1005F000A0A0A0A0E000A0A0A0A04000A0A0E0E0DB
:10060000A200A0A040A0A000A0A040404000E02088
:100610004080E000C0808080C0000080402020003A
:10062000C0404040C00040A00000000000000000AA
:10063000E0008040000000000060A0A0600080801A
:10064000C0A0C000006080806000202060A060002A
:1006500040A0E08060006040E040400060A060207A
:10066000C0008080C0A0A00040004040400040008A
:100670004040C0008080A0C0A000C0404040E000DA
:1006800000A0E0A0A00000C0A0A0A0000040A0A08A
:10069000400000C0A0C080000060A060200000C03A
:1006A000A080800000604020600040E040404000AA
:1006B00000A0A0A0600000A0A0A0400000A0A0E0BA
:1006C000A00000A04040A00000A0E020400000E00A
:1006D0004080E0002040C0402200404000404000F8
:1006E00080406040800000A040000000060820001C
:1006F000000000000000004040404040004000502A
:1007000050500000000000000050F850F850002049
:1007100070A0702870200000C8D0205898000020D9
:10072000508040A890680040404000000000001049
:1007300020404040201000402010101020400010A9
:1007400038100000000000002020F82020000000E9
:1007500000000000101000000000F8000000000081
:100760000000000010000000081020408000007011
:1007700088A8A888700000206020202070000070E9
:1007800088102040F80000F81020108870000090B9
:100790009090F810100000F880F008887000007049
:1007A00080F08888700000F80810204080000070F9
:1007B0008870888870000070888878087000000051
:1007C0000020000020000000002000202040000049
:1007D00018608060180000000078007800000000B9
:1007E000C0300830C0000060902020002000007061
:1007F0008898A890887000205088F888880000F0B9
:1008000088F08888F000007088808088700000F090
:1008100088888888F00000F880F88080F80000F868
:1008200080F0808080000070888098887000008848
:1008300088F8888888000070202020207000003808
:10084000101010906000008890E0A0908800008058
:1008500080808080F8000088D8A8A8888800008858
:1008600088C8A8988800007088888888700000F080
:1008700088F08080800000708888A890680000F070
:1008800088F0A0908800007880700808F00000F8D8
:100890002020202020000088888888887000008818
:1008A000888888502000008888A8A8A85000008860
:1008B000502050888800008888502020200000F8B0
:1008C00008102040F80000E080808080E0000000F8
:1008D0008040201008000038080808083800002070
:1008E00050000000000000000000000000F8008040
:1008F0004000000000000000601070906000008068
:1009000080E09090E0000000007080807000001097
:1009100010709090700000006090F08070000030C7
:1009200040E0404040000000609070101060008087
:1009300080E09090900000200020202070000010A7
:10094000003010101060008090A0C0A090000060E7
:1009500020202020700000000050A8A8A80000005F
:1009600000F088888800000000609090600000001F
:10097000006090F080800000006090F01010000097
:1009800000B04840400000003040201060000040AF
:1009900040E0404040000000009090906000000067
:1009A00000888850200000000088A8A8500000009F
:1009B0008850205088000000009090604080000027
:1009C00000F02040F0000020404080404020002007
:1009D000202020202020002010100810102000408F
:1009E000A810000000000000000000000000000847
:1009F000080000000000000000007E81A581BD9974
:100A0000817E7EFFDBFFC3E7FF7E6CFEFEFE7C384F
:100A1000100010387CFE7C381000387C38FEFED682
:100A2000103810387CFEFE7C10380000183C3C1852
:100A30000000FFFFE7C3C3E7FFFF003C66424266DA
:100A40003C00FFC399BDBD99C3FF0F070F7DCCCC00
:100A5000CC783C6666663C187E183F333F30307079
:100A6000F0E07F637F636367E6C018DB3CE7E73C49
:100A7000DB1880E0F8FEF8E08000020E3EFE3E0E3D
:100A80000200183C7E18187E3C1866666666660092
:100A900066007FDBDB7B1B1B1B003E613C66663C0C
:100AA000867C000000007E7E7E00183C7E187E3C26
:100AB00018FF183C7E1818181800181818187E3CD3
:100AC000180000180CFE0C180000003060FE6030AA
:100AD00000000000C0C0C0FE0000002466FF6624C5
:100AE000000000183C7EFFFF000000FFFF7E3C1866
:100AF00000000000000000000000183C3C18180036
:100B0000180066662400000000006C6CFE6CFE6C31
:100B10006C00183E603C067C180000C6CC1830669D
:100B2000C600386C3876DCCC76001818300000002F
:100B300000000C18303030180C0030180C0C0C1859
:100B4000300000663CFF3C6600000018187E181854
:100B5000000000000000001818300000007E0000B7
:100B600000000000000000181800060C183060C0DB
:100B700080007CC6CED6E6C67C0018381818181837
:100B80007E007CC6061C3066FE007CC6063C06C69F
:100B90007C001C3C6CCCFE0C1E00FEC0C0FC06C6DB
:100BA0007C003860C0FCC6C67C00FEC60C18303025
:100BB00030007CC6C67CC6C67C007CC6C67E060CE1
:100BC0007800001818000018180000181800001805
:100BD0001830060C1830180C060000007E00007E4D
:100BE00000006030180C183060007CC60C1818002B
:100BF00018007CC6DEDEDEC07800386CC6FEC6C6D5
:100C0000C600FC66667C6666FC003C66C0C0C066CA
:100C10003C00F86C6666666CF800FE626878686294
:100C2000FE00FE6268786860F0003C66C0C0CE6678
:100C30003A00C6C6C6FEC6C6C6003C181818181824
:100C40003C001E0C0C0CCCCC7800E6666C786C6614
:100C5000E600F06060606266FE00C6EEFEFED6C68C
:100C6000C600C6E6F6DECEC6C6007CC6C6C6C6C68A
:100C70007C00FC66667C6060F0007CC6C6C6C6CEA2
:100C80007C0EFC66667C6C66E6007CC660380CC632
:100C90007C007E7E5A1818183C00C6C6C6C6C6C65A
:100CA0007C00C6C6C6C6C66C3800C6C6C6D6D6FE4A
:100CB0006C00C6C66C386CC6C6006666663C181802
:100CC0003C00FEC68C183266FE003C3030303030BE
:100CD0003C00C06030180C0602003C0C0C0C0C0CE4
:100CE0003C0010386CC6000000000000000000004E
:100CF00000FF30180C00000000000000780C7CCCD5
:100D00007600E0607C666666DC0000007CC6C0C6DB
:100D10007C001C0C7CCCCCCC760000007CC6FEC0D9
:100D20007C003C6660F86060F000000076CCCC7C13
:100D30000CF8E0606C766666E60018003818181843
:100D40003C00060006060666663CE060666C786C51
:100D5000E6003818181818183C000000ECFED6D62B
:100D6000D6000000DC666666660000007CC6C6C66B
:100D70007C000000DC66667C60F0000076CCCC7CF9
:100D80000C1E0000DC766060F00000007EC07C0677
:100D9000FC003030FC3030361C000000CCCCCCCC19
:100DA00076000000C6C6C66C38000000C6D6D6FE67
:100DB0006C000000C66C386CC6000000C6C6C67E5B
:100DC00006FC00007E4C18327E000E1818701818B1
:100DD0000E0018181818181818007018180E18187F
:100DE000700076DC0000000000000010386CC6C601
:100DF000FE0060F0607C6666660CFC607C66666681
:100E00006C001C10007E606060003820FEC0C0C016
:100E1000C0006C007CC6FEC07C006CFE6278606224
:100E2000FE0000007CC6F0C67C003C66C0F8C066D0
:100E30003C0000007EC07C06FC007CC660380CC60E
:100E40007C00300030303030780078303030303056
:100E50007800CC00303030307800663C1818181814
:100E60003C0018001818181818701E0C0C0C0CCC2C
:100E70007800000070505C52DC0070505C5252529E
:100E8000DC000000A0A0FCA2BC00A0A0A0FCA2A2CC
:100E9000BC0060F0607C66666600F8607C66666632
:100EA00066001C10C6D8F8CCC60018D6CCF8F8CC12
:100EB000C6006C38C6C6C67E067C38C6C67E06C668
:100EC0007C000000C6C6C6C6FE10C6C6C6C6C6C6DC
:100ED000FE100000DCD6F6D6DC00DCD6D6F6D6D680
:100EE000DC000000F0B03C363C00F0F0B03C3636A0
:100EF0003C000000780C7CCC76003E66C6C6FEC680
:100F0000C600067CC07CC6C67C00FE66607C666649
:100F1000FC000000CCCCCCCCFE06CCCCCCCCCCCCD9
:100F2000FE0600003C6C6C6CFEC61E36666666668D
:100F3000FFC300007CC6FEC07C00FE626878686269
:100F4000FE0000007CD6D67C10387CD6D6D67C102D
:100F500038000000FE666060F000FE666060606061
:100F6000F000003366CC6633000000CC663366CCFC
:100F70000000228822882288228855AA55AA55AACC
:100F800055AADB77DBEEDB77DBEE1818181818189C
:100F9000181818181818F81818180000C66C386CAB
:100FA000C600C6C66C386CC6C6000000C6CEDEF6EB
:100FB000E600C6C6CEDEF6E6C6003636F606F636DD
:100FC000363636363636363636360000FE06F636D5
:100FD00036363636F606FE0000000038C6CEDEF69F
:100FE000E60038C6CEDEF6E6C60000000000F818BF
:100FF0001818181818181F00000018181818FF00E3
:10100000000000000000FF181818181818181F1802
:10101000181800000000FF00000018181818FF182A
:1010200018180000E66C786CE600E66C78786C6660
:10103000E600363637303F00000000003F303736DC
:1010400036363636F700FF0000000000FF00F736A6
:10105000363636363730373636360000FF00FF007A
:1010600000003636F700F736363600C67CC6C67C3A
:10107000C60000003E666666E6001E366666666668
:10108000C6000000C6FEFED6C600C6EEFEFED6C6F0
:10109000C6000000C6C6FEC6C600C6C6C6FEC6C698
:1010A000C60000007CC6C6C67C007CC6C6C6C6C6D6
:1010B0007C000000FEC6C6C6C60018181818F80046
:1010C0000000000000001F181818FFFFFFFFFFFFBF
:1010D000FFFF00000000FFFFFFFFFEC6C6C6C6C63A
:1010E000C60000007EC67E66C600FFFFFFFF000050
:1010F00000007EC6C6C67E66C6000000FC66667C32
:1011000060F0FC6666667C60F00000007CC6C0C6CD
:101110007C007CC6C0C0C0C67C0000007E5A181887
:101120003C007E5A181818183C000000C6C6C67E3F
:10113000067CC6C6C67E06C67C000000D67C387C0F
:10114000D600D6D67C387CD6D6000000FC667C66FD
:10115000FC00FC66667C6666FC000000F0607C6655
:10116000FC00F060607C66667C008FCDEFFCDCCC20
:10117000CC000000007C7C0000000000C6C6F6DE4B
:10118000F600C6C6C6F6DEDEF60000007CC61CC64B
:101190007C007CC6063C06C67C000000D6D6D6D6AF
:1011A000FE00D6D6D6D6D6D6FE0000007CC61EC619
:1011B0007C00788C063E068C78000000D6D6D6D609
:1011C000FF03D6D6D6D6D6D6FF030000C6C67E0607
:1011D0000600C6C6C67E060606003E613C66663C44
:1011E000867C00003C3C3C3C00000000000000000D
:1011F00000000000000800020100000304070000D6
:1012000000000000000001020408102040800102DC
:10121000040810200102040810200404040404043B
:101220000404020202020202030303030303000098
:1012300000002300260029000000000025002800EF
:101240002B0000000000240027002A0011241FBEEC
:10125000CFEFD8E0DEBFCDBF11E0A0E0B1E0ECE918
:10126000F0E602C005900D92A632B107D9F721E051
:10127000A6E2B1E001C01D92A93AB207E1F70E94CF
:101280001F2E0C944C300C9400000C9436300C94AF
:101290003E30CF92DF92EF92FF92CF93DF93EC013B
:1012A0000E94452C6B017C01CC0EDD1EE11CF11C63
:1012B0000E94452C6C157D058E059F05C8F461E0E4
:1012C00080E10E94BF2D60E081E10E94BF2D84E695
:1012D00090E00E949C2C60E080E10E94BF2D61E0C4
:1012E00081E10E94BF2D84E690E00E949C2CE0CF1B
:1012F00060E080E10E94BF2D60E081E1DF91CF914D
:10130000FF90EF90DF90CF900C94BF2D609174010F
:1013100081E090E00E9447096091730182E090E0D3
:101320000E9447096091720183E090E00E944709A2
:101330006091710184E090E00E9447096091700122
:1013400085E090E00E94470960916F0186E090E09F
:101350000E94470960916E0187E090E00E94470972
:1013600060916D0188E090E00E94470960916C01F6
:1013700089E090E00E94470960916B018AE090E06B
:101380000E94470960916A018BE090E00E94470942
:10139000609169018CE090E00E94470960916801CA
:1013A0008DE090E00E944709609167018EE090E037
:1013B0000E944709609166018FE090E00C94470914
:1013C000CF93DF9380E090E00E944509813309F0DC
:1013D00081C082E00E94F52DEC0184E00E94F52D91
:1013E000892B19F4CD2B09F475C081E090E00E949F
:1013F00045098093740182E090E00E944509809342
:10140000730183E090E00E944509C82F84E090E0DA
:101410000E9445092C2F30E0322F2227282B3093B1
:1014200072012093710185E090E00E944509C82F68
:1014300086E090E00E9445092C2F30E0322F2227D1
:10144000282B3093700120936F0187E090E00E9479
:10145000450980936E0188E090E00E9445098093E1
:101460006D0189E090E00E94450980936C018AE05B
:1014700090E00E94450980936B018BE090E00E9410
:10148000450980936A018CE090E00E944509C82FCD
:101490008DE090E00E9445092C2F30E0322F22276A
:1014A000282B30936901209368018EE090E00E9420
:1014B0004509C82F8FE090E00E9445092C2F30E0AD
:1014C000322F2227282B3093670120936601DF916A
:1014D000CF91089561E380E090E00E944709109267
:1014E000740185E18093730184E591E0909372012A
:1014F0008093710181E990E09093700180936F0176
:1015000083E080936E0110926D0110926C01109235
:101510006B0182E080936A0188EB9BE09093690104
:10152000809368018FE59CE090936701809366014A
:101530000E9486095ACF0F931F9382E00E94F52DD7
:1015400040913C0150913D0160913E0170913F01FD
:10155000892B81F4452B462B472B09F047C00E946D
:10156000452C60933C0170933D0180933E01909324
:101570003F013CC0452B462B472BC1F10E94452C17
:1015800000913C0110913D0120913E0130913F01BD
:10159000601B710B820B930B633371058105910501
:1015A000E8F0683522E072078105910518F481E0C2
:1015B00090E010C0683B2BE072078105910518F49C
:1015C00082E090E007C0603A7F408105910530F4E9
:1015D00083E090E0909365018093640110923C0158
:1015E00010923D0110923E0110923F0183E00E9453
:1015F000F52D409138015091390160913A01709177
:101600003B01892B81F4452B462B472B09F047C022
:101610000E94452C609338017093390180933A0100
:1016200090933B013CC0452B462B472BC1F10E94B8
:10163000452C009138011091390120913A013091E7
:101640003B01601B710B820B930B633371058105AA
:101650009105E8F0683522E072078105910518F4DC
:1016600081E090E010C0683B2BE072078105910596
:1016700018F482E090E007C0603A7F408105910550
:1016800030F483E090E090936301809362011092C4
:1016900038011092390110923A0110923B0184E016
:1016A0000E94F52D40913401509135016091360131
:1016B00070913701892B81F4452B462B472B09F07C
:1016C00047C00E94452C609334017093350180938C
:1016D0003601909337013CC0452B462B472BC1F177
:1016E0000E94452C00913401109135012091360162
:1016F00030913701601B710B820B930B63337105C3
:1017000081059105E8F0683522E0720781059105B1
:1017100018F481E090E010C0683B2BE0720781056F
:10172000910518F482E090E007C0603A7F4081059F
:10173000910530F483E090E0909361018093600123
:101740001092340110923501109236011092370137
:101750001F910F91089510926501109264011092EB
:10176000630110926201109261011092600108956C
:101770008091640190916501019741F40E94AB0B47
:101780008FE090E00E94490981E0089580E008958B
:101790008091640190916501029741F40E94AB0B26
:1017A0008FE090E00E94490981E0089580E008956B
:1017B0008091640190916501039741F40E94AB0B05
:1017C0008FE090E00E94490981E0089580E008954B
:1017D0008091620190916301019741F40E94AB0BEB
:1017E0008FE090E00E94490981E0089580E008952B
:1017F0008091620190916301029741F40E94AB0BCA
:101800008FE090E00E94490981E0089580E008950A
:101810008091600190916101019741F40E94AB0BAE
:101820008FE090E00E94490981E0089580E00895EA
:101830008091600190916101029741F40E94AB0B8D
:101840008FE090E00E94490981E0089580E00895CA
:1018500031E08091640190916501892B09F430E0B9
:1018600021E08091600190916101892B09F420E0D1
:10187000232B31F48091620190916301892B41F017
:101880000E94AB0B8FE090E00E94490981E008952F
:1018900080E008950F931F930E94452C00917901D9
:1018A00010917A0120917B0130917C010617170776
:1018B0002807390750F480910A01882309F470C081
:1018C00010920A0160E070E00EC080916C018111FD
:1018D0000EC06091330180910A01861709F460C03F
:1018E00060930A0170E085E00E94FE2C59C00E94BE
:1018F000452C00917501109176012091770130916E
:101900007801061717072807390708F049C08091A2
:10191000330190910A01981719F080930A0102C0CF
:1019200010920A0160910A0170E085E00E94FE2C8D
:101930000E94452C60937501709376018093770126
:101940009093780120916C012230A9F048F4213065
:1019500039F5DC01CB0188579C4EAF4FBF4F18C003
:10196000233081F02430E1F4DC01CB01805D9A4822
:10197000AF4FBF4F0DC0DC01CB01805F984DAF4F23
:10198000BF4F06C0DC01CB01805E914BAF4FBF4F14
:101990008093750190937601A0937701B0937801BD
:1019A0000E94080C882309F486C00E94452C0091EF
:1019B000790110917A0120917B0130917C01061709
:1019C00017072807390750F40E94452C60937901C6
:1019D00070937A0180937B0190937C0180916E01DA
:1019E000823089F190F4882309F1813009F04BC0ED
:1019F0008091790190917A01A0917B01B0917C0155
:101A000080549B42AE4FBF4F36C0833049F1843083
:101A1000D1F58091790190917A01A0917B01B091EB
:101A20007C018054984DA64FBF4F25C0809179010D
:101A300090917A01A0917B01B0917C01805A9541EF
:101A4000AF4FBF4F18C08091790190917A01A0915A
:101A50007B01B0917C0180529C46AB4FBF4F0BC0C5
:101A60008091790190917A01A0917B01B0917C01E4
:101A70009D5AA84FBF4F8093790190937A01A0930C
:101A80007B01B0937C0180916D01823079F030F45C
:101A9000882351F0813079F48CEC0BC0833041F015
:101AA000843049F483E305C08FEF03C089E901C0A6
:101AB00086E6809333010E94180C8823A1F00E94CF
:101AC000452C6093790170937A0180937B01909308
:101AD0007C010E94452C6093750170937601809380
:101AE0007701909378011F910F910895CF93DF9321
:101AF000CFE0D0E083E10E94E12C2197D9F78091DB
:101B0000320191E0980F9093320190E08857984D00
:101B1000DF91CF91089561E08AE591E00E9406206F
:101B20001816ACF461E08DE00E94BF2D6CE271E00C
:101B300080E090E00E94742C60E08DE00E94BF2D58
:101B40006CE271E080E090E00E94742CEBCF60E0EA
:101B50008AE591E00E94861F82E090E0909359010F
:101B600080935801089580915801909159010597EB
:101B700031F084E090E090935901809358010895EA
:101B80008091580190915901019721F010925901CB
:101B9000109258010895CF92EF920F93242F8093C3
:101BA0005701809356016093550140935401880F6B
:101BB000482F440F440F480F4E5E72E0C72EEE24AC
:101BC000E3940AE062E08AE591E00E94F8210F9137
:101BD000EF90CF9008954BE70C94CB0DCF92EF92FE
:101BE0000F93809157018F5F80935701909155011A
:101BF000891302C01092570180915601880F482F17
:101C0000440F440F480F4E5EE2E0CE2EE12C0AE076
:101C10002091540162E08AE591E00E94F8218091D0
:101C20005701880F482F440F440F480F4E5EEE2493
:101C3000E3942091540162E08AE591E00E94F8214A
:101C400080915701809356010F91EF90CF900895A6
:101C50001F93CF93DF93982F9F70282F22952F707B
:101C600038E0239F900D11249950983218F48093F6
:101C7000430104C081E18093430190E0892F90E00B
:101C8000880F991FFC01E951FC4F25913491309345
:101C9000420120934101895C9B4FFC01C591D49185
:101CA00081E090E00E949C2C60E08BE00E94BF2DC0
:101CB0008AE090E00E949C2C60E08CE00E94BF2DA6
:101CC00081E090E00E949C2C61E08AE00E94BF2DA0
:101CD00081E090E00E949C2C61E08CE00E94BF2D8E
:101CE00081E090E00E949C2C60E08CE00E94BF2D7F
:101CF00081E090E00E949C2C60E08CE00E94BF2D6F
:101D000081E090E00E949C2C60E08AE00E94BF2D60
:101D100081E090E00E949C2C61E08CE00E94BF2D4D
:101D200081E090E00E949C2C60E08CE00E94BF2D3E
:101D300081E090E00E949C2C60E08CE00E94BF2D2E
:101D400081E090E00E949C2C60E08AE00E94BF2D20
:101D500081E090E00E949C2C61E08CE00E94BF2D0D
:101D600081E090E00E949C2C60E08CE00E94BF2DFE
:101D700081E090E00E949C2C60E08CE00E94BF2DEE
:101D800081E090E00E949C2C60E08AE00E94BF2DE0
:101D900081E090E00E949C2C61E08CE00E94BF2DCD
:101DA00081E090E00E949C2C60E08CE00E94BF2DBE
:101DB00081E090E00E949C2C60E08CE00E94BF2DAE
:101DC00081E090E00E949C2C61E08AE00E94BF2D9F
:101DD00081E090E00E949C2C61E08CE00E94BF2D8D
:101DE00081E090E00E949C2C60E08CE00E94BF2D7E
:101DF00081E090E00E949C2C10E160E0C0FF09C0EF
:101E00008CE00E94BF2D81E090E00E949C2C61E05C
:101E100008C08CE00E94BF2D81E090E00E949C2CC5
:101E200060E08AE00E94BF2D81E090E00E949C2C3F
:101E300061E08CE00E94BF2D81E090E00E949C2C2C
:101E400060E08CE00E94BF2D81E090E00E949C2C1D
:101E5000D695C795115089F6C4E060E08CE00E94E9
:101E6000BF2D81E090E00E949C2C60E08AE00E94FF
:101E7000BF2D81E090E00E949C2C61E08CE00E94EC
:101E8000BF2D81E090E00E949C2C60E08CE00E94DD
:101E9000BF2D81E090E00E949C2CC150F1F681E0C2
:101EA00090E00E949C2C61E08BE00E94BF2D8AE0B4
:101EB00090E00E949C2C61E08BE00E94BF2D60E0CE
:101EC0008CE00E94BF2D60E08AE0DF91CF911F91EE
:101ED0000C94BF2D823061F0833091F08130C1F4D9
:101EE000809173010E94280E0E94C00D61E013C012
:101EF000809173010E94280E0E94C00D60E003C013
:101F00000E94C00D61E08EE00E94BF2D61E007C01D
:101F10000E94B30D60E08EE00E94BF2D60E08FE074
:101F20000C94BF2D0E94280E81E090E00E949C2C12
:101F300061E08BE00E94BF2D8AE090E00C949C2C25
:101F4000CF9361E08BE00E94862D61E08AE00E94E1
:101F5000862D61E08CE00E94862D61E082E10E9486
:101F6000862D61E082E10E94BF2D61E08EE00E943B
:101F7000862D61E08FE00E94862D60E08EE00E9459
:101F8000BF2D60E08FE00E94BF2D60E082E00E94E4
:101F9000862D62E082E00E94BF2D60E083E00E9417
:101FA000862D62E083E00E94BF2D60E084E00E9405
:101FB000862D62E084E00E94BF2D61E080E10E94F6
:101FC000862D61E081E10E94862D60E080E10E9423
:101FD000BF2D60E081E10E94BF2D61E08DE00E9495
:101FE000862D61E08DE00E94BF2D61E085E00E94BA
:101FF000862D61E085E00E94BF2DC6E061E08DE0A6
:102000000E94BF2D8AE090E00E94490960E08DE0C7
:102010000E94BF2D64E670E080E090E00E94742C86
:10202000C15061F70E94E009809173010E94920FF4
:102030000E948B0D0E94452C60937D0170937E0160
:1020400080937F01909380010E94452C60937901D9
:1020500070937A0180937B0190937C01CF910895D6
:1020600090914301892F8F7092959F7028E0929FE5
:10207000800D1124895008950E9430108F5F88329E
:1020800009F480E0282F2695269526958F5F98E005
:10209000299F800D11248F702F5F90E1299F90015F
:1020A0001124822B0C94280E809140018F5F88327E
:1020B00018F48093400102C010924001E091400169
:1020C000F0E0E957FB4F8491282F30E0B3E03695DC
:1020D0002795BA95E1F78F5F98E0299F800D11242D
:1020E0008F702F5F90E1299F90011124822B0C9417
:1020F000280EE82FEF7082958F7098E0899FE00D91
:102100001124E950E83208F0E0E0F0E0EE0FFF1FA4
:10211000E951FC4F859194910895CF92DF92EF920F
:10212000FF92CF93DF93CFE0D0E0C12CD12C76018A
:1021300084E10E94E12CAA2797FDA095BA2FC80E32
:10214000D91EEA1EFB1E219799F7C701B6012FE0A1
:1021500030E040E050E00E94AE2EC901DF91CF9107
:10216000FF90EF90DF90CF9008950E948D10209106
:102170006F013091700182179307B0F06091710187
:10218000709172016817790790F0AC01421B530BF4
:10219000E4E6E49FC001E59F900D1124621B730BE0
:1021A0000E94862ECB01089580E090E0089584E699
:1021B00090E008954F925F926F927F92AF92BF929C
:1021C000CF92DF92EF92FF920F931F93CF93DF9303
:1021D000E0915801F0915901E231F10510F00C94B1
:1021E0000D1FEC5CFF4F0C94EF2E0E94AB0B809107
:1021F00074018F5F0E946A0F8AE591E00E945C245F
:1022000081E090E00C948D1C0E94C80BC82F0E94A6
:10221000D80BC82B0E94F80B8C2B11F40C940D1FBB
:102220000C94FD1B0E94AB0B80E00E946A0F60E0E3
:102230008AE591E00E94861FCC24CA9432E0E32E06
:102240000FE52FE740E060E08AE591E00E94F82189
:102250006FEE79E08AE591E00E9466242FED33E08D
:1022600042E163E28AE591E00E944E256FEA74E064
:102270008AE591E00E94662428EC33E048E26AE0B7
:102280008AE591E00E944E2560E171E08AE591E0E7
:102290000E94382528EB33E042E360E28AE591E0D2
:1022A0000E944E25EE24E39404E52FE744E560E028
:1022B0008AE591E00E94322147E56AE08AE591E0F3
:1022C0000E94652540E150E0609143018AE591E07C
:1022D0000E94FC2564EB73E08AE591E00E943A25B8
:1022E00060914101709142014AE050E08AE591E03D
:1022F0000E94032661EB73E08AE591E00E943A2593
:102300000E94452C60934C0170934D0180934E01C7
:1023100090934F010E94452C605F784D8F4F9F4FE7
:102320006093500170935101809352019093530137
:1023300083E090E00C948D1C0E94452CC1E0D0E01D
:10234000009150011091510120915201309153019F
:10235000061717072807390710F0C0E0D0E00E94E1
:10236000280CC82BCD2B31F084E090E090935901DC
:10237000809358010E94452C00914C0110914D0111
:1023800020914E0130914F01061717072807390792
:1023900010F00C940D1F0E94452C66507F4F8F4FFC
:1023A0009F4F60934C0170934D0180934E01909329
:1023B0004F0147E56CE38AE591E00E9465256CEAF0
:1023C00073E08AE591E00E943A2547E56CE38AE5EF
:1023D00091E00E9465250E94B5104AE050E0BC01E2
:1023E0008AE591E00E9403266AEA73E08AE591E0BB
:1023F0000E943A2547E56FE58AE591E00E94652550
:1024000066E171E08AE591E00E94382547E56FE5D5
:102410008AE591E00E9465250E94760DEC0108EEA8
:1024200013E0B8010E94862E3B014AE050E08AE5A5
:1024300091E00E9403266CE171E08AE591E00E9440
:102440003825609EC001619E900D709E900D1124F4
:102450009E01281B390BC9016AE070E00E94862E9C
:10246000EB016A30710530F46EE171E08AE591E0CC
:102470000E9438254AE050E0BE018AE591E00E94C2
:10248000032660E271E08AE591E0DF91CF911F9130
:102490000F91FF90EF90DF90CF90BF90AF907F9023
:1024A0006F905F904F900C943825809173010E943B
:1024B000280E0E94AB0B80E00E946A0F8AE591E033
:1024C0000E94622460E08AE591E00E94861FCC248D
:1024D000CA9422E0E22E0FE52FE740E060E08AE5B3
:1024E00091E00E94F8216FEA74E08AE591E00E9491
:1024F000662427E933E043E064E18AE591E00E9445
:102500004E250BE02FE74BE060E08AE591E00E946A
:1025100032216CEE76E08AE591E00E94662423E8A1
:1025200033E044E165E08AE591E00E944E2522E730
:1025300033E04EE165E08AE591E00E944E2526E613
:1025400033E048E265E08AE591E00E944E252BE504
:1025500033E042E365E08AE591E00E944E252BE4FA
:1025600033E04CE365E08AE591E00E944E2526E4E5
:1025700033E046E465E08AE591E00E944E256FEA8B
:1025800074E08AE591E00E946624EE24E39404E579
:102590002FE744E560E08AE591E00E94322147E5BB
:1025A0006AE08AE591E00E94652540E150E0609193
:1025B00043018AE591E00E94FC2562E473E08AE52C
:1025C00091E00E943A2560914101709142014AE0F8
:1025D00050E08AE591E00E9403266FE373E08AE50C
:1025E00091E00E943A2566E085E00E94EB0D0E9492
:1025F000452C60934C0170934D0180934E01909354
:102600004F010E94452C605F784D8F4F9F4F609324
:10261000500170935101809352019093530185E0D2
:1026200090E00C948D1C0E94452C0091500110915B
:1026300051012091520130915301061717072807C5
:10264000390720F410925901109258010E94452C2C
:1026500000914C0110914D0120914E0130914F019C
:10266000061717072807390708F082C06FEA74E0D9
:102670008AE591E00E9466240E94452C66507F4FB7
:102680008F4F9F4F60934C0170934D0180934E018B
:1026900090934F0147E56CE38AE591E00E94652540
:1026A00069E373E08AE591E00E943A2547E56CE32F
:1026B0008AE591E00E9465250E94B5104AE050E04D
:1026C000BC018AE591E00E94032667E373E08AE596
:1026D00091E00E943A2547E56FE58AE591E00E9486
:1026E000652566E171E08AE591E00E94382547E5BD
:1026F0006FE58AE591E00E9465250E94760DEC0168
:1027000008EE13E0B8010E94862E3B014AE050E03B
:102710008AE591E00E9403266CE171E08AE591E090
:102720000E943825609EC001619E900D709E900DA4
:1027300011249E01281B390BC9016AE070E00E9438
:10274000862EEB016A30710530F46EE171E08AE5A6
:1027500091E00E9438254AE050E0BE018AE591E010
:102760000E94032660E271E08AE591E00E9438252C
:102770000E94E80B882381F00E94452C605F784D11
:102780008F4F9F4F6093500170935101809352017E
:10279000909353010E94EE0D0E94B80BC82F0E9427
:1027A000F80B8C2B11F40C940D1F84E190E00E9427
:1027B000490968EC70E080E090E00E94742C84E1AC
:1027C00090E00E9449090E94452C605F784D8F4F30
:1027D0009F4F6093500170935101809352019093E9
:1027E0005301809157018230E1F050F48823A9F021
:1027F000813011F00C940D1F88E090E00C948D1C3A
:102800008430B9F090F0853011F00C940D1F1092C7
:102810005901109258010C940D1F86E090E00C9421
:102820008D1C8BE090E00C948D1C8EE090E00C945D
:102830008D1C80E190E00C948D1C0E94AB0B8AE50E
:1028400091E00E94622460E08AE591E00E94861F88
:10285000CC24CA9492E0E92E0FE52FE740E060E037
:102860008AE591E00E94F8216FEA74E08AE591E040
:102870000E94662426E233E043E064E18AE591E0C9
:102880000E944E250BE02FE74BE060E08AE591E0E7
:102890000E9432216CEE76E08AE591E00E94662487
:1028A00029E133E044E165E08AE591E00E944E25AC
:1028B0002CE033E04EE165E08AE591E00E944E2590
:1028C0002FEF32E048E265E08AE591E00E944E2574
:1028D00020EF32E042E365E08AE591E00E944E2578
:1028E0002BEE32E04CE365E08AE591E00E944E2554
:1028F00080917401880F482F440F440F480F4C5E9D
:1029000029EE32E065E08AE591E00E944E2565E01F
:1029100084E00E94EB0D0E94452C605F784D8F4F44
:102920009F4F609350017093510180935201909397
:10293000530187E090E00C948D1C0E94452C00917F
:10294000500110915101209152013091530106170D
:1029500017072807390730F484E090E09093590175
:10296000809358010E94E80B882381F00E94452C37
:10297000605F784D8F4F9F4F60935001709351016E
:1029800080935201909353010E94EE0D0E94B80B68
:10299000C82F0E94F80B8C2B11F40C940D1F0E9471
:1029A000452C605F784D8F4F9F4F6093500170931F
:1029B00051018093520190935301809157018430CB
:1029C00009F41BC7833009F480E0809374010E94EE
:1029D000860984E190E00E94490968EC70E080E09B
:1029E00090E00E94742C84E190E00E94490940E547
:1029F00068E28AE591E00E9465256FED72E08AE564
:102A000091E00E943A256CED75E080E090E00E9434
:102A1000742CF3C60E94AB0B8AE591E00E946224FD
:102A200060E08AE591E00E94861F6CEE76E08AE520
:102A300091E00E9466242FEC32E04AE06AE08AE5E9
:102A400091E00E944E256FEA74E08AE591E00E94D1
:102A500066242FEB32E049E16CE08AE591E00E94C8
:102A60004E252EEA32E043E26CE08AE591E00E94D6
:102A70004E252DE932E042E36CE08AE591E00E94C8
:102A80004E252CE832E04CE36CE08AE591E00E94B0
:102A90004E2523E732E04AE565E08AE591E00E94B1
:102AA0004E25809173010E94280E0E94452C685784
:102AB0007C4E8F4F9F4F60935001709351018093D4
:102AC00052019093530189E090E027C70E94452C62
:102AD000C1E0D0E0009150011091510120915201CC
:102AE00030915301061717072807390710F0C0E087
:102AF000D0E00E94280CC82BCD2B11F40C940D1F94
:102B00008AE090E0909359018093580160E08AE553
:102B100091E00E94861FCC24CA94EE24E39403E241
:102B20002FE740E060E08AE591E00E94F8216FEA3B
:102B300074E08AE591E00E9466242EE532E043E0ED
:102B400064E18AE591E00E944E250BE02FE74BE01F
:102B500060E08AE591E00E9432216CEE76E08AE541
:102B600091E00E94662424E532E04FE065E08AE5CA
:102B700091E00E944E252FE432E049E165E08AE5CC
:102B800091E00E944E2502E328E645E26BE08AE5EB
:102B900091E00E94F8216FEA74E08AE591E00E94DA
:102BA00066244AE565E08AE591E00E946525EDE04E
:102BB000F4E0659174914AE050E08AE591E00E946A
:102BC00038264AE567E38AE591E00E946525EDEF46
:102BD000F3E0659174914AE050E08AE591E00E944B
:102BE00038264AE569E68AE591E00E946525E5E137
:102BF000F4E0659174914AE050E08AE591E00E942A
:102C000038266CEE76E08AE591E00E9466244FE07B
:102C10006CE38AE591E00E94652540E150E0609117
:102C200043018AE591E00E94FC2562E271E08AE5B9
:102C300091E00E943825809143010E9479104AE07A
:102C400050E0BC018AE591E00E9438268FEF809326
:102C50003101109230010E94452C6093480170931D
:102C6000490180934A0190934B010E94452C609347
:102C70004C0170934D0180934E0190934F010E943F
:102C8000452C605C73468F4F9F4F6093500170934B
:102C9000510180935201909353010C940D1F0E9497
:102CA000452C00914C0110914D0120914E01309125
:102CB0004F01061717072807390708F0F0C00E94D0
:102CC000452C66507F4F8F4F9F4F60934C01709300
:102CD0004D0180934E0190934F010E94B510EC017D
:102CE000C12CEE24E39406E02BE449E16EE18AE591
:102CF00091E00E94F8212E01612C712C1F921F92ED
:102D00001F928BE48F93A12CB12C650114E6E12E68
:102D1000F12C00E010E020E030E0A901C301B20195
:102D20000E942E2E262FCC24C394EE24E39406E09A
:102D300049E16EE18AE591E00E94F8212BE432E05E
:102D400049E16CE68AE591E00E944E2549E16CE696
:102D50008AE591E00E9465254AE050E0BE018AE5DF
:102D600091E00E940326609141017091420180E050
:102D700090E01F921F921F9224E62F93A12CB12C5A
:102D8000650119E3E12E17E1F12E00E010E02DE0DE
:102D900036E140E050E00E942E2ED62FCDE0C60F47
:102DA000E12C07E22C2F45E56C2F8AE591E00E948B
:102DB00032211F921F921F921F921EE2A12EB12C50
:102DC000C12CD12C14E6E12EF12C00E010E020E023
:102DD00030E0A901C301B2010E942E2E695DEE24EC
:102DE000E394062F2C2F45E56C2F8AE591E00E9495
:102DF00032218DB79EB70C960FB6F8949EBF0FBECA
:102E00008DBF809131018D1709F449C06CEE76E0D9
:102E10008AE591E00E9466244FE06CE38AE591E048
:102E20000E94652540E150E0609143018AE591E010
:102E30000E94FC2562E271E08AE591E00E9438255B
:102E4000809143010E9479104AE050E0BC018AE57C
:102E500091E00E943826609131016F3F81F0635FFD
:102E600022E045E28AE591E00E940A20609131016A
:102E7000635F22E047E58AE591E00E940A2022E0B4
:102E800045E26C2F8AE591E00E940A2022E047E5A6
:102E90006C2F8AE591E00E940A20D0933101C09105
:102EA0003001D0E00E94452C21E030E04090480104
:102EB0005090490160904A0170904B0146165706A8
:102EC0006806790610F020E030E0C223D323CD2B32
:102ED00089F10E94452C68587F4F8F4F9F4F609318
:102EE00048017093490180934A0190934B010E94DD
:102EF0003C1062E370E080E090E00E94742C0E943D
:102F0000B5108B349105B0F01092300164E170E09F
:102F100080E090E00E94742C8FE090E00E944909CC
:102F200064E170E080E090E00E94742C8FE090E01B
:102F30000E9449090E94E80B8823B1F00E94452CA9
:102F4000605C73468F4F9F4F6093500170935101A7
:102F500080935201909353010E943C106AE070E00C
:102F600080E090E00E94742C0E94F80B882331F0DE
:102F70008091300191E08927809330010E94B80B45
:102F8000882351F0809173010E94280E84E090E024
:102F900090935901809358010E94C80B882309F42B
:102FA0001CC484E190E00E94490968EC70E080E074
:102FB00090E00E94742C84E190E00E944909809185
:102FC0004301809373010E9486094DE268E28AE51D
:102FD00091E00E94652561E472E08AE591E00E943B
:102FE0003A256CED75E080E090E00E94742C84E05E
:102FF00090E09093590180935801EFC30E94AB0B6E
:103000008AE591E00E94622460E08AE591E00E94F6
:10301000861FCC24CA94A2E0EA2E0BE02FE740E002
:1030200060E08AE591E00E94F8216FEA74E08AE5A9
:1030300091E00E9466242CE232E043E064E18AE5FC
:1030400091E00E944E25EE24E39406E428E64FE04A
:103050006BE08AE591E00E94F8216FEA74E08AE56E
:1030600091E00E94662449E565E08AE591E00E94CE
:103070006525EDE0F4E0659174914AE050E08AE561
:1030800091E00E94382649E567E38AE591E00E94D5
:103090006525EDEFF3E0659174914AE050E08AE533
:1030A00091E00E94382649E569E68AE591E00E94B0
:1030B0006525E5E1F4E0659174914AE050E08AE528
:1030C00091E00E9438268091710190917201909355
:1030D00045018093440180916F019091700190931C
:1030E0004701809346018FEF809331010E94452C68
:1030F000609348017093490180934A0190934B017A
:103100000E94452C605C73468F4F9F4F6093500127
:103110007093510180935201909353018CE090E0A1
:10312000FCC30E94452C0091480110914901209157
:103130004A0130914B01061717072807390708F095
:10314000A8C00E94452C645C7F4F8F4F9F4F6093B7
:1031500048017093490180934A0190934B010E946A
:10316000541068E270E080E090E00E94742C0E94AD
:10317000B510EC01609141017091420180E090E056
:103180001F921F921F9224E62F93A12CB12C650150
:1031900019E3E12E17E1F12E00E010E02DE036E119
:1031A00040E050E00E942E2E662E5DE0752E760ED9
:1031B000E12C01E1272D45E5672D8AE591E00E948C
:1031C0003221BE0180E090E01F921F921F921F9259
:1031D000E2E4AE2EB12CC12CD12C14E6E12EF12C60
:1031E00000E010E020E030E0A9010E942E2E6F5E8A
:1031F000EE24E394062F272D45E5672D8AE591E01F
:103200000E943221609131012DB73EB7285F3F4FB8
:103210000FB6F8943EBF0FBE2DBF661511F16F3F7C
:1032200081F0635F22E04FE08AE591E00E940A208E
:1032300060913101635F22E045E58AE591E00E94FB
:103240000A2022E04FE0672D8AE591E00E940A20E3
:1032500022E045E5672D8AE591E00E940A20609210
:1032600031010E948D102091440130914501821757
:10327000930720F4909345018093440120914601E7
:10328000309147012817390720F490934701809324
:1032900046010E94C80B882309F4DCC00E94AB0BD6
:1032A0008AE591E00E94622460E08AE591E00E9454
:1032B000861FCC24CA9432E0E32E0BE02FE740E0D7
:1032C00060E08AE591E00E94F8216FEA74E08AE507
:1032D00091E00E9466242BE132E043E064E18AE55C
:1032E00091E00E944E256CEE76E08AE591E00E9426
:1032F000662444E165E08AE591E00E94652560E18D
:1033000072E08AE591E00E943A2560916F01709128
:1033100070014AE050E08AE591E00E9438266CE0B6
:1033200072E08AE591E00E943A2560917101709106
:1033300072014AE050E08AE591E00E944C264EE19D
:1033400065E08AE591E00E94652561E072E08AE52A
:1033500091E00E943A2560914401709145014AE054
:1033600050E08AE591E00E9438266DEF71E08AE531
:1033700091E00E943A2560914601709147014AE030
:1033800050E08AE591E00E944C2642E36AE08AE53B
:1033900091E00E9465256BEE71E08AE591E00E9464
:1033A0003A254CE36AE08AE591E00E9465256DEDDF
:1033B00071E08AE591E00E943A250E94452C605C0C
:1033C00073468F4F9F4F60935001709351018093CC
:1033D0005201909353018DE090E038C00E94C80BD9
:1033E0008823C1F18091440190914501909370012F
:1033F00080936F01809146019091470190937201F3
:10340000809371010E94860984E190E00E9449093D
:1034100068EC70E080E090E00E94742C84E190E021
:103420000E94490940E568E28AE591E00E9465252D
:1034300063ED71E08AE591E00E943A256CED75E05C
:1034400080E090E00E94742C84E090E09093590119
:10345000809358010E94452CC1E0D0E000915001BA
:103460001091510120915201309153010617170715
:103470002807390710F0C0E0D0E00E94280CC82BC4
:10348000CD2B09F4CAC4B9C10E94AB0B8AE591E007
:103490000E94622460E08AE591E00E94861FCC24AD
:1034A000CA94EE24E3940FE52FE740E060E08AE55C
:1034B00091E00E94F8216FEA74E08AE591E00E94B1
:1034C000662427EC31E043E064E18AE591E00E9464
:1034D0004E2522E0E22E0BE02FE74BE060E08AE58C
:1034E00091E00E9432216CEE76E08AE591E00E9444
:1034F00066242AEB31E044E165E08AE591E00E9430
:103500004E252DEA31E04EE165E08AE591E00E942A
:103510004E2520EA31E048E265E08AE591E00E942C
:103520004E252BE931E042E365E08AE591E00E9417
:103530004E254BE464E083E00E94CB0D80916E0148
:1035400080932F0180916D0180932E0180916C01F9
:1035500080932D0181E080932C010E94452C605FB7
:10356000784D8F4F9F4F609350017093510180931E
:103570005201909353018FE090E0CFC10E94E80B7D
:10358000882381F00E94452C605F784D8F4F9F4FBC
:1035900060935001709351018093520190935301B5
:1035A0000E94EE0D80915701833009F050C00E94B7
:1035B000C80BC82F0E94F80B8C2B09F448C08091CF
:1035C0002F0180936E0180912E0180936D01809177
:1035D0002D0180936C010E94860984E190E00E9495
:1035E000490968EC70E080E090E00E94742C84E16E
:1035F00090E00E94490940E568E28AE591E00E9476
:10360000652561E971E08AE591E00E943A256CED5B
:1036100075E080E090E00E94742C0E94452C60933D
:10362000790170937A0180937B0190937C010E94D1
:10363000452C609375017093760180937701909388
:10364000780184E090E090935901809358010E94A2
:10365000B80BC82F0E94F80B8C2BE9F18091570111
:10366000813071F018F08230A9F01EC080912F01D6
:103670008F5F80932F018530E8F010922F011AC0E0
:1036800080912E018F5F80932E01853098F01092EB
:103690002E0110C080912D018F5F80932D01853008
:1036A00048F010922D0106C084E090E090935901FB
:1036B0008093580181E080932C010E94452C605F2B
:1036C000784D8F4F9F4F60935001709351018093BD
:1036D00052019093530180912C01882309F47DC0FD
:1036E00010922C012AE831E044E160E58AE591E09E
:1036F0000E944E2580912F01823091F038F488236A
:1037000061F08130C1F42EE731E00FC0833059F011
:10371000843089F42BE631E008C024E831E005C0AC
:1037200028E731E002C022E731E044E160E58AE5C4
:1037300091E00E944E2525E631E04EE160E58AE504
:1037400091E00E944E2580912E01823091F038F454
:10375000882361F08130C1F42AE531E00FC0833065
:1037600059F0843089F42BE431E008C02FE531E0D2
:1037700005C025E531E002C020E531E04EE160E51D
:103780008AE591E00E944E2524E431E048E260E5BC
:103790008AE591E00E944E2580912D01823091F0C2
:1037A00038F4882361F08130C1F428E331E00FC0A0
:1037B000833059F0843089F423E231E008C02EE3ED
:1037C00031E005C021E331E002C02AE231E048E205
:1037D00060E58AE591E00E944E250E94452C00910B
:1037E000500110915101209152013091530106175F
:1037F00017072807390708F010C384E090E08DC050
:103800000E94AB0B8AE591E00E94622460E08AE5A9
:1038100091E00E94861FCC24CA94EE24E3940FE525
:103820002FE740E060E08AE591E00E94F8216FEA2E
:1038300074E08AE591E00E94662423E131E043E0F0
:1038400064E18AE591E00E944E2592E0E92E0BE0CA
:103850002FE74BE060E08AE591E00E9432216CEEB8
:1038600076E08AE591E00E94662426E031E044E1BA
:1038700065E08AE591E00E944E2529EF30E04EE1B7
:1038800065E08AE591E00E944E252CEE30E048E2AA
:1038900065E08AE591E00E944E252FED30E042E39D
:1038A00065E08AE591E00E944E252AED30E04CE388
:1038B00065E08AE591E00E944E254BE465E084E0F6
:1038C0000E94CB0D80916B0180932B0180916A0146
:1038D00080932A0180916801909169019093290158
:1038E0008093280180916601909167019093270150
:1038F0008093260181E080932C010E94452C605F1B
:10390000784D8F4F9F4F609350017093510180937A
:1039100052019093530181E190E09093590180937B
:1039200058017BC20E94E80B882381F00E94452C3D
:10393000605F784D8F4F9F4F60935001709351019E
:1039400080935201909353010E94EE0D0E94452CEA
:103950000091500110915101209152013091530179
:10396000061717072807390730F484E090E0909392
:103970005901809358010E94B80BC82F0E94F80B80
:103980008C2B09F452C180915701813001F1C0F0B4
:10399000823039F1833009F031C12EEB30E042E35F
:1039A00060E58AE591E00E944E2581E080932C013C
:1039B0000E94760DEC0108EE13E055245394AEC03E
:1039C00080912B0191E0892780932B011DC180916B
:1039D0002A01823011F483E001C082E080932A0141
:1039E00013C181E080932C0123ED30E048E260E5D3
:1039F0008AE591E00E944E25C8EED3E077247394C7
:103A00000E949B0A80912C01882309F446C01092E1
:103A10002C012EEC30E048E266E58AE591E00E9458
:103A20004E2548E266E58AE591E00E946525809191
:103A3000280190912901BE010E94862E8B014AE047
:103A400050E08AE591E00E9403266CE171E08AE58E
:103A500091E00E9438250C9F90010D9F300D1C9F16
:103A6000300D11248091280190912901821B930B24
:103A70006AE070E00E94862E8B016A30710530F496
:103A80006EE171E08AE591E00E9438254AE050E05D
:103A9000B8018AE591E00E9403260E94C80B182F06
:103AA0000E94B80B209128013091290190E041E05B
:103AB00050E0203361E1360710F040E050E0482349
:103AC0005923452B41F02E5C3F4F30932901209321
:103AD000280170922C010E94E80B2091280130915E
:103AE0002901682F70E041E050E0253C89E038076B
:103AF00010F440E050E046235723452B41F07092EC
:103B00002C012253310930932901209328011123DC
:103B100009F476CF26EC30E048E26AC00E949B0AA6
:103B200080912C01882309F441C010922C0128EBCC
:103B300030E042E366E58AE591E00E944E2542E3EB
:103B400066E58AE591E00E946525CE01B8010E94F4
:103B5000862E3B014AE050E08AE591E00E94032670
:103B60006CE171E08AE591E00E943825609EC00119
:103B7000619E900D709E900D11249E01281B390BA3
:103B8000C9016AE070E00E94862E3B016A3071052F
:103B900030F46EE171E08AE591E00E9438254AE058
:103BA00050E0B3018AE591E00E9403260E94C80B11
:103BB000782E0E94B80B882319F02A9650922C0177
:103BC0000E94E80B41E050E0C536D10510F440E01A
:103BD00050E0282F30E024233523232B19F02A9797
:103BE00050922C01772009F499CF20EB30E042E38A
:103BF00060E58AE591E00E944E2506C084E090E0F1
:103C0000909359018093580181E080932C010E9488
:103C1000452C605F784D8F4F9F4F6093500170939C
:103C20005101809352019093530180915701843048
:103C300009F048C00E94C80BC82F0E94F80B8C2BBB
:103C400009F440C080912B0180936B0180912A017F
:103C500080936A01809128019091290190936901D4
:103C600080936801809126019091270190936701CC
:103C7000809366010E94860984E190E00E944909D0
:103C800068EC70E080E090E00E94742C84E190E0A9
:103C90000E94490940E568E28AE591E00E946525B5
:103CA00066EA70E08AE591E00E943A256CED75E0E5
:103CB00080E090E00E94742C84E090E090935901A1
:103CC0008093580180912C01882309F4A6C010929A
:103CD0002C0122EA30E044E160E58AE591E00E94AF
:103CE0004E2580912B01882319F02FE930E002C086
:103CF0002BE930E044E160E58AE591E00E944E2541
:103D000028E930E04EE160E58AE591E00E944E2529
:103D100080912A01823019F425E930E002C022E9BD
:103D200030E04EE160E58AE591E00E944E252FE803
:103D300030E048E260E58AE591E00E944E2548E2E5
:103D400060E58AE591E00E946525809128019091C7
:103D50002901C8EED3E0BE010E94862E8B014AE005
:103D600050E08AE591E00E9403266CE171E08AE56B
:103D700091E00E9438250C9FC0010D9F900D1C9F63
:103D8000900D11246091280170912901681B790B15
:103D90004AE050E08AE591E00E9403262CE830E0FA
:103DA00042E360E58AE591E00E944E2542E360E54A
:103DB0008AE591E00E9465250E94760D8C01BE0186
:103DC0000E94862E3B014AE050E08AE591E00E9485
:103DD00003266CE171E08AE591E00E9438256C9E33
:103DE000C0016D9E900D7C9E900D1124B801681B42
:103DF000790B4AE050E08AE591E0DF91CF911F9185
:103E00000F91FF90EF90DF90CF90BF90AF907F9099
:103E10006F905F904F900C940326DF91CF911F918C
:103E20000F91FF90EF90DF90CF90BF90AF907F9079
:103E30006F905F904F9008950F931F930E949B0A7D
:103E40000E94DA100E944A0C0E94452C00917D01CC
:103E500010917E0120917F01309180010617170794
:103E600028073907D8F40E94452C6C507E4F8F4F9D
:103E70009F4F60937D0170937E0180937F019093AB
:103E800080018DE00E94F52D892B11F060E001C0CA
:103E900061E08DE01F910F910C94BF2D1F910F9148
:103EA0000895E0919301982F969596959695209177
:103EB00098013091990187706E9FF0011124E90FEC
:103EC000F11DE20FF31F413051F420E830E002C051
:103ED000359527958A95E2F78081822B15C041118F
:103EE0000AC02FE73FEF02C0359527958A95E2F784
:103EF0008081822309C020E830E002C035952795F3
:103F00008A95E2F78081822780830895FC016130E1
:103F1000F9F030F0623009F049C080E090E031C043
:103F20001282138280E090E03091930120919201FF
:103F3000329F90011124821793074CF4E09198016D
:103F4000F0919901E80FF91F10820196EDCF0895C5
:103F50001282138280E090E04FEF30919301209124
:103F60009201329F90011124821793074CF4E09143
:103F70009801F0919901E80FF91F40830196EDCF68
:103F800008953091930120919201329F9001112464
:103F9000821793075CF4E0919801F0919901E80F82
:103FA000F91F2081209520830196EBCF0895FF9281
:103FB0000F931F93CF93DF93EC01F62E022F842FE4
:103FC000887FD9F0142F169516951695129FC0016B
:103FD00011240E940F2F99838883009781F01A8201
:103FE0001B829C01402F612F8F2D0E940E2B60E0C1
:103FF000CE010E94861F80E003C081E001C084E002
:10400000DF91CF911F910F91FF90089520E640E836
:104010000C94D71F862F642FE0919301A82FB0E056
:1040200098E0E99FF0011124AE17BF073CF490918E
:104030009201491718F4422F0C94511F08950F93C1
:104040001F93CF93DF93DC01FA014217530749F422
:10405000202F462F6E2FDF91CF911F910F910C943F
:104060000A202417350720F4CA019927F9019C0179
:10407000EF01C770DD278FEF90E0AC0102C05595CE
:104080004795CA95E2F7EA01142F43E0F695E795C4
:104090004A95E1F740919301469FB0011124E60F44
:1040A000F71FA9014770552702C0959587954A9536
:1040B000E2F7582F5095C901D3E096958795DA9588
:1040C000E1F7860F971FE817F90719F41C2F15233E
:1040D00050E00130D9F49F012F5F3F4FCD91DC912B
:1040E0001197CE0FDF1F4881412B48834FEFED9191
:1040F000FC911197E20FF31F2817390720F4408332
:104100002F5F3F4FF4CF8081852B3BC001111CC036
:104110009F012F5F3F4FCD91DC911197CE0FDF1F95
:104120001095488141234883ED91FC911197E20F4E
:10413000F31F2817390720F410822F5F3F4FF4CF69
:104140005095808185231DC00230E1F49F012F5FCF
:104150003F4FCD91DC911197CE0FDF1F4881412752
:104160004883ED91FC911197E20FF31F281739074F
:1041700030F44081409540832F5F3F4FF2CF8081E4
:1041800085278083DF91CF911F910F9108950F9321
:10419000CF93DF934217530731F4202FDF91CF9154
:1041A0000F910C940A202417350720F4FA01FF27F9
:1041B000A9019F01762F7770A0E8B0E002C0B59505
:1041C000A7957A95E2F77A2FC0919301C49FF001E9
:1041D000C59FF00D1124669566956695E60FF11D55
:1041E000013091F424173507C8F1EC01A881B98199
:1041F000AE0FBF1F6C91672B6C9360919301E60F1C
:10420000F11D4F5F5F4FEECF011114C07A2F7095F3
:104210002417350718F1EC01A881B981AE0FBF1F33
:104220006C9167236C9360919301E60FF11D4F5FD2
:104230005F4FEECF023091F42417350778F0EC0190
:10424000A881B981AE0FBF1F6C9167276C936091F5
:104250009301E60FF11D4F5F5F4FEECFDF91CF91DE
:104260000F9108952F923F924F925F926F927F929B
:104270008F929F92AF92BF92CF92DF92EF92FF9276
:104280000F931F93CF93DF9300D000D0CDB7DEB74D
:10429000742F302F0E2D462F50E05C834B83E0911E
:1042A000930158E0E59FF00111244B815C81E417F4
:1042B000F5070CF486C040919201471708F481C0BD
:1042C000422E512CE415F5050CF47BC0431708F47D
:1042D00078C0621307C0232F30E0472F50E00E94C0
:1042E000C7206FC0731307C092014B815C81672F99
:1042F0000E941F2066C0261738F48B819C81841988
:1043000095092C018FEF05C0EB81FC814E1A5F0AE5
:1043100081E0A72EB12CC32ED12C371730F4950194
:104320002C193D0969019FEF03C0CA18DB0891E011
:104330004C145D043CF03C2D2D2D6201432E522E79
:1043400010E001C011E0440C551C42018C189D087E
:104350009601220F331F612C712C292E332427FC48
:104360003094E82EFF24E7FCF094C614D7044CF1F7
:10437000402F6A2D8B8129833A830E94511F298106
:104380003A8197FC0DC0113039F44B815C814E0DA0
:104390005F1D5C834B8302C0A20CB31C821A930A7C
:1043A000113019F4A20CB31C06C08B819C818E0DB8
:1043B0009F1D9C838B83840C951C9FEF691A790A3F
:1043C000D4CF0F900F900F900F90DF91CF911F914E
:1043D0000F91FF90EF90DF90CF90BF90AF909F90A4
:1043E0008F907F906F905F904F903F902F900895A7
:1043F0004F925F926F927F928F929F92AF92BF92F5
:10440000CF92DF92EF92FF920F931F93CF93DF93A0
:10441000EC01F62E142F422E502EDE2C8FEFC812F8
:1044200030C0AF2CA40CED2C012F2A2D412F6F2D65
:10443000CE010E943221B12EB50C0B2D2F2D412F14
:104440006F2DCE010E9432212A2D412F6A2DCE01DF
:104450000E9432212A2D4B2D6F2DCE010E94322138
:10446000DF91CF911F910F91FF90EF90DF90CF9050
:10447000BF90AF909F908F907F906F905F904F9084
:104480000895E42EA02EB12CA40EB11C862E912CE2
:104490003401620E711C8E2D90E08A159B050CF67E
:1044A0000C2D9301A4016E2DCE010E941F20E394D8
:1044B000F2CF2F923F924F925F926F927F928F92A4
:1044C0009F92AF92BF92CF92DF92EF92FF920F93A3
:1044D0001F93CF93DF93CDB7DEB729970FB6F8942C
:1044E000DEBF0FBECDBFDC01962F977058E0591B81
:1044F000E11006C0F901E00FF11FE4900F5F1F4FBC
:10450000C11006C0F901E00FF11FC4900F5F1F4FEB
:104510008E2D8770EE2DE695E695E695882321F0A1
:10452000882483948E0E02C08E2E88E06695669550
:104530006695E62EF12CFC82EB82692E712CB3017C
:10454000680F711D798768876FEF70E0088402C07B
:10455000759567950A94E2F7852F90E09A83898391
:1045600091E0891202C0562E01C0512C8FEF90E0CD
:104570005C01052E01C0AA0C0A94EAF75A28462EBF
:10458000688579856850710902C0959587956A9507
:10459000E2F78D8360E070E0E42EF12CFF82EE8282
:1045A000912C41E0841A91086C1508F08CC0F091B0
:1045B00093014E815F81460F571FF49FC001F59F05
:1045C000900D1124EB80FC808E0D9F1DED91FC91D0
:1045D0001197E80FF91FD0804D2D45214083A80188
:1045E0004F5F5F4FF801E20FF31FA490ED91FC9134
:1045F0001197E80FF91FEA2CF12C062C02C0F59454
:10460000E7940A94E2F7F080FE28F0821401240E69
:10461000351E7C01E01AF10AC701840F951F0D9128
:104620001C911197B12C4215530508F5080F191F5D
:10463000F801D080098001C0AA0C0A94EAF7A08290
:10464000F901E40FF51FA490ED91FC911197E80F8B
:10465000F91F8A2D90E0062C02C0959587950A9443
:10466000E2F79081982B90834F5F5F4FD5CFE8851D
:10467000F985389744F4FC013197E00FF11FD420FD
:1046800010811D290CC0E885F985389749F078011B
:10469000E80EF91EF7011081FD811F23F701108339
:1046A0000D911C911197080F191F098002C0AA0CC7
:1046B000BB1C0A94E2F7F80180818A2980836F5F2E
:1046C0007F4F8A0171CF29960FB6F894DEBF0FBED7
:1046D000CDBFDF91CF911F910F91FF90EF90DF90B1
:1046E000CF90BF90AF909F908F907F906F905F9092
:1046F0004F903F902F900895DF92EF92FF920F938B
:104700001F93CF93DF934130A9F1C0F0423009F4F9
:104710004DC0433009F0C8C0562F5770E52E66953E
:104720006695669570E0719561957109F12C02E0CE
:1047300010E088E090E0851B910983C0809198018A
:104740009091990120919301FC01629FE00DF11D70
:10475000112430919201AC01329F400D511D112462
:104760009A01DC012E173F0708F49EC080818D93CB
:104770001192F8CF80919801909199013091920116
:1047800020919301DC01329FA00DB11D1124FD0188
:10479000629FE019F10911241196E817F90708F44E
:1047A00083C020812E9310823197F7CF162F177078
:1047B00066956695669570E0D0E028E030E0211BB4
:1047C000310980919201D81708F06EC08091930151
:1047D000E0919801F09199018D9FE00DF11D112458
:1047E000DF01A60FB71F90E002978E0F9F1F8A1759
:1047F0009B0790F0CC91012E01C0CC0F0A94EAF7F0
:104800001D924C9150E0022E02C0559547950A9496
:10481000E2F7C42BC193EBCF8C91012E01C0880F1E
:104820000A94EAF71C928083DF5FCBCF2C9130E0B3
:104830000E2C02C0359527950A94E2F71C9220832E
:10484000F39420919201F21678F5E09193014E2FA6
:1048500050E09A0121503109EF9D200D311D1124A6
:10486000E0919801F0919901E20FF31F9801241B48
:10487000350B2E0F3F1FDF01A60FB71FA217B3077F
:10488000A8F24C9150E00E2C02C0559547950A9421
:10489000E2F71C92CE91082E01C0CC0F0A94EAF7E1
:1048A0004C2B40833197EACFDF91CF911F910F912D
:1048B000FF90EF90DF900895EFE6F0E080818E7F2B
:1048C0008083089581E080936F000895FC017583D3
:1048D00064830895CF92EF920F931F93CF93DF934A
:1048E000FC01A481B581FD0132963491ED01219640
:1048F000FE01C490FD01E490FE010491231B209F62
:10490000800111240D5F1F4F9D010E945922DF91EC
:10491000CF911F910F91EF90CF900895DC011396E6
:104920004C91139750E01496ED91FC9115973196A8
:1049300064912091920130E0261B31094217530700
:1049400024F0649140E00C947C23E4914E0F511DBF
:10495000FC01438308950F931F93CF93DF931F921E
:10496000CDB7DEB78C01262F6A3031F1F8F466231B
:1049700009F466C0683069F5DC011496ED91FC918C
:104980001597E491DC0112966C91129770E06E1B02
:10499000710912966C93129720E213964C910F9026
:1049A000DF91CF911F910F910C946A246D3071F0BB
:1049B0006E3009F445C00DC0DC0112961C920F90B8
:1049C000DF91CF911F910F910C948E24FC011282E4
:1049D00037C0D80112966C9112978091930114966A
:1049E000ED91FC911597E491462F50E0B8E08B9F34
:1049F000C00111248E1B9109F801481759076CF06A
:104A00001282C80129830E948E242981D80113961D
:104A10004C91139712966C9101C04381C8010E947A
:104A20006A24D8011496ED91FC911597E491D80170
:104A300012968C911297F0E0E80FF11D1296EC930C
:104A40000F90DF91CF911F910F9108950F931F93B6
:104A5000CF93DF938C01EB016991662321F0C801AC
:104A60000E94AB24F9CFDF91CF911F910F91089550
:104A70000C9426250F931F93CF93DF938C01EB01AA
:104A8000FE016491662329F02196C8010E94AB249F
:104A9000F7CFDF91CF911F910F9108950F931F933F
:104AA000CF93DF93EC0189016A834B83F801649112
:104AB000662331F00F5F1F4FCE010E94AB24F6CF6B
:104AC000DF91CF911F910F910895FC016283438381
:104AD00008954F925F926F927F928F929F92AF92C2
:104AE000BF92CF92DF92EF92FF920F931F93CF93DB
:104AF000DF93CDB7DEB7A0970FB6F894DEBF0FBE39
:104B0000CDBF5C014115510561057105C9F460E334
:104B1000A0960FB6F894DEBF0FBECDBFDF91CF9148
:104B20001F910F91FF90EF90DF90CF90BF90AF90CB
:104B30009F908F907F906F905F904F900C94AB24DC
:104B40008E010F5F1F4FC12CD12C76014801422EE0
:104B5000512C612C712C8FEFC81AD80AE80AF80A78
:104B6000CB01BA01A30192010E94AE2ECA01F80145
:104B700061938F01A901BC014115510561057105C2
:104B800051F7F1E0CF1AD108E108F108F401EC0D7A
:104B9000FD1D60816A3010F4605D01C0695CC50173
:104BA0000E94AB2481E0C81AD108E108F108EFEFB8
:104BB000CE16DE06EE06FE0649F7A0960FB6F8946E
:104BC000DEBF0FBECDBFDF91CF911F910F91FF9040
:104BD000EF90DF90CF90BF90AF909F908F907F909D
:104BE0006F905F904F9008952115310519F4642F4F
:104BF0000C94AB240C9469259A01462F50E060E098
:104C000070E00C94F4259A01AB0160E070E00C9424
:104C1000F425CF92DF92EF92FF92CF93DF93EC01D6
:104C20006A017B0177FF0BC06DE20E94AB24F09418
:104C3000E094D094C094C11CD11CE11CF11C2AE06A
:104C4000B701A601CE01DF91CF91FF90EF90DF90E9
:104C5000CF900C9469252115310519F4642F0C941B
:104C6000AB242A30310511F40C9409260C946925E3
:104C70009A01AB01662757FD6095762F0C942B2681
:104C8000CF93DF93EC016DE00E94AB246AE0CE018C
:104C9000DF91CF910C94AB24CF93DF93EC019A0179
:104CA000AB01662757FD6095762F0E942B26CE011B
:104CB000DF91CF910C944026089520918901309185
:104CC0008A0180918F0190E02817390779F41092BA
:104CD0009B0110929A01809195018093960182E147
:104CE00097E2909386018093850116C020918901F7
:104CF00030918A0180919001909191012817390794
:104D000059F486E996E29093860180938501E091BB
:104D10000B01F0910C0109958091890190918A0114
:104D2000019690938A0180938901089520918901C9
:104D300030918A0180919001909191012817390753
:104D40000CF44EC08CEA93E0909389008093880025
:104D500010928A011092890180918B0190918C01AF
:104D6000A0918D01B0918E010196A11DB11D80937E
:104D70008B0190938C01A0938D01B0938E01809153
:104D8000810190918201A0918301B0918401892BCE
:104D90008A2B8B2B09F18091810190918201A09146
:104DA0008301B0918401181619061A061B0684F5B2
:104DB0008091810190918201A0918301B091840141
:104DC0000197A109B1098093810190938201A09379
:104DD0008301B09384011CC01092B1002B9818C0BD
:104DE0002091890130918A0180919701992787FD4F
:104DF00090952817390761F48AE490E09093890030
:104E0000809388008DE596E29093860180938501DA
:104E10008091890190918A01019690938A018093F3
:104E20008901089530918400209194012A50231B18
:104E30002350F0F72D5F19F02A9511F001C0000002
:104E4000E0918701F0918801099580919601409148
:104E5000950181110FC0409396012091930180919B
:104E60009A0190919B01820F911D90939B018093D9
:104E70009A0103C08150809396012091890130915D
:104E80008A012F5F3F4F60918F01709192015527EA
:104E900047FD50954F5F5F4F749FC001759F900D08
:104EA0001124860F911D2817390731F48DE596E2FC
:104EB00090938601809385018091890190918A0168
:104EC000019690938A018093890108950F93CF935F
:104ED000DF93A0919801B0919901C0919A01D0916E
:104EE0009B0180919301AC0FBD1F0BB10F7703C0E5
:104EF00000FA07F90BB90D90000007FA07F90BB992
:104F000000000000000006FA07F90BB900000000DD
:104F1000000005FA07F90BB900000000000004FAD0
:104F200007F90BB900000000000003FA07F90BB9FC
:104F300000000000000002FA07F90BB900000000B1
:104F4000000001FA07F90BB98A9591F600000000FC
:104F500000FA07F90BB90BB10F7707FB07F90BB98B
:104F6000DF91CF910F9108950F93CF93DF93A0918D
:104F70009801B0919901C0919A01D0919B018091C3
:104F80009301AC0FBD1F0BB10F7703C000FA07F9F7
:104F90000BB90D9007FA07F90BB90000000006FAEB
:104FA00007F90BB90000000005FA07F90BB900007A
:104FB000000004FA07F90BB90000000003FA07F932
:104FC0000BB90000000002FA07F90BB900008A953E
:104FD00001FA07F90BB9D1F6000000FA07F90BB98D
:104FE0000BB10F7707FB07F90BB9DF91CF910F9149
:104FF00008950F93CF93DF93A0919801B0919901F9
:10500000C0919A01D0919B0180919301AC0FBD1F7B
:1050100002C0000C0BB80D9000000BB8000000009F
:10502000000C0BB800000000000C0BB800000000E2
:10503000000C0BB800000000000C0BB800000000D2
:10504000000C0BB80000000C8A950BB811F700009B
:10505000000C0BB80000000000005F98DF91CF91BA
:105060000F9108950F93CF93DF93A0919801B09182
:105070009901C0919A01D0919B0180919301AC0F4D
:10508000BD1F8E3191F08D3151F08C3149F08B3153
:1050900041F08A3139F0893131F0883129F01CC072
:1050A00032C048C05EC074C08AC00D900BB800000A
:1050B000000C0BB80000000C0BB80000000C0BB883
:1050C0000000000C0BB80000000C0BB80000000C36
:1050D0000BB80000000C0BB80D900BB80000000CD2
:1050E0000BB80000000C0BB80000000C0BB800005F
:1050F000000C0BB80000000C0BB80000000C0BB843
:105100000000000C0BB80D900BB80000000C0BB8A1
:105110000000000C0BB80000000C0BB80000000CE5
:105120000BB80000000C0BB80000000C0BB800001E
:10513000000C0BB80D900BB80000000C0BB8000071
:10514000000C0BB80000000C0BB80000000C0BB8F2
:105150000000000C0BB80000000C0BB80000000CA5
:105160000BB80D900BB80000000C0BB80000000C41
:105170000BB80000000C0BB80000000C0BB80000CE
:10518000000C0BB80000000C0BB80000000C0BB8B2
:105190000D900BB80000000C0BB80000000C0BB811
:1051A0000000000C0BB80000000C0BB80000000C55
:1051B0000BB80000000C0BB80000000C0BB80D90F1
:1051C0000BB80000000C0BB80000000C0BB800007E
:1051D000000C0BB80000000C0BB80000000C0BB862
:1051E0000000000C0BB80000000C0BB80D900BB8C1
:1051F0000000000C0BB80000000C0BB80000000C05
:105200000BB80000000C0BB80000000C0BB800003D
:10521000000C0BB80000000C0BB80D900BB8000090
:10522000000C0BB80000000C0BB80000000C0BB811
:105230000000000C0BB80000000C0BB80000000CC4
:105240000BB80000000C0BB80D900BB80000000C60
:105250000BB80000000C0BB80000000C0BB80000ED
:10526000000C0BB80000000C0BB80000000C0BB8D1
:105270000000000C0BB80D900BB80000000C0BB830
:105280000000000C0BB80000000C0BB80000000C74
:105290000BB80000000C0BB80000000C0BB80000AD
:1052A000000C0BB80D900BB80000000C0BB8000000
:1052B000000C0BB80000000C0BB80000000C0BB881
:1052C0000000000C0BB80000000C0BB80000000C34
:1052D0000BB80D900BB80000000C0BB80000000CD0
:1052E0000BB80000000C0BB80000000C0BB800005D
:1052F000000C0BB80000000C0BB80000000C0BB841
:105300000D900BB80000000C0BB80000000C0BB89F
:105310000000000C0BB80000000C0BB80000000CE3
:105320000BB80000000C0BB80000000C0BB80D907F
:105330000BB80000000C0BB80000000C0BB800000C
:10534000000C0BB80000000C0BB80000000C0BB8F0
:105350000000000C0BB80000000C0BB80D900BB84F
:105360000000000C0BB80000000C0BB80000000C93
:105370000BB80000000C0BB80000000C0BB80000CC
:10538000000C0BB80000000C0BB80D900BB800001F
:10539000000C0BB80000000C0BB80000000C0BB8A0
:1053A0000000000C0BB80000000C0BB80000000C53
:1053B0000BB80000000C0BB80D900BB80000000CEF
:1053C0000BB80000000C0BB80000000C0BB800007C
:1053D000000C0BB80000000C0BB80000000C0BB860
:1053E0000000000C0BB80D900BB80000000C0BB8BF
:1053F0000000000C0BB80000000C0BB80000000C03
:105400000BB80000000C0BB80000000C0BB800003B
:10541000000C0BB80D900BB80000000C0BB800008E
:10542000000C0BB80000000C0BB80000000C0BB80F
:105430000000000C0BB80000000C0BB80000000CC2
:105440000BB80D900BB80000000C0BB80000000C5E
:105450000BB80000000C0BB80000000C0BB80000EB
:10546000000C0BB80000000C0BB80000000C0BB8CF
:105470000D900BB80000000C0BB80000000C0BB82E
:105480000000000C0BB80000000C0BB80000000C72
:105490000BB80000000C0BB80000000C0BB80D900E
:1054A0000BB80000000C0BB80000000C0BB800009B
:1054B000000C0BB80000000C0BB80000000C0BB87F
:1054C0000000000C0BB80000000C0BB80D900BB8DE
:1054D0000000000C0BB80000000C0BB80000000C22
:1054E0000BB80000000C0BB80000000C0BB800005B
:1054F000000C0BB80000000C0BB80D900BB80000AE
:10550000000C0BB80000000C0BB80000000C0BB82E
:105510000000000C0BB80000000C0BB80000000CE1
:105520000BB80000000C0BB80D900BB80000000C7D
:105530000BB80000000C0BB80000000C0BB800000A
:10554000000C0BB80000000C0BB80000000C0BB8EE
:105550000000000C0BB80D900BB80000000C0BB84D
:105560000000000C0BB80000000C0BB80000000C91
:105570000BB80000000C0BB80000000C0BB80000CA
:10558000000C0BB80D900BB80000000C0BB800001D
:10559000000C0BB80000000C0BB80000000C0BB89E
:1055A0000000000C0BB80000000C0BB80000000C51
:1055B0000BB80D900BB80000000C0BB80000000CED
:1055C0000BB80000000C0BB80000000C0BB800007A
:1055D000000C0BB80000000C0BB80000000C0BB85E
:1055E0000D900BB80000000C0BB80000000C0BB8BD
:1055F0000000000C0BB80000000C0BB80000000C01
:105600000BB80000000C0BB80000000C0BB8000039
:1056100000005F98DF91CF910F910895CF93DF93B2
:10562000C82FE62F3093990120939801609393013E
:105630004093920110928B0110928C0110928D0177
:1056400010928E01642F70E0882319F084E091E0BD
:1056500002C088ED90E00E949A2E615060939501FF
:10566000D0919501D093960188E0E89F9001112494
:10567000442737FD4095542F60EE72E080E090E0C3
:105680000E94D02E243091F018F42330B9F011C0CC
:10569000253049F0263069F486E697E29093880138
:1056A0008093870111C044EB57E20AC049EF57E2EB
:1056B00007C0273018F046E657E202C042E358E23E
:1056C0005093880140938701579A219A5F98299AAD
:1056D000239A82EC8093800089E18093810040913D
:1056E00092012D2F332727FD30952F5F3F4F429F8B
:1056F000C001439F900D1124CC23C9F097FD019662
:1057000095958795919581959109845680938F0100
:1057100087EC8093940187E08093970188E391E080
:1057200090939101809390018FEF93E018C097FDC3
:1057300001969595879591958195910985578093C7
:105740008F018FEB8093940183E08093970186E033
:1057500091E0909391018093900187EF93E0909373
:105760008700809386008AE490E09093890080937C
:1057700088008091900190919101019690938A0107
:105780008093890186E996E2909386018093850152
:1057900081E080936F007894DF91CF9108951F92FC
:1057A0000F920FB60F9211242F933F934F935F9355
:1057B0006F937F938F939F93AF93BF93EF93FF93D9
:1057C000E0910D01F0910E010995E0918501F091B4
:1057D00086010995FF91EF91BF91AF919F918F91B4
:1057E0007F916F915F914F913F912F910F900FBEDD
:1057F0000F901F9018951F920F920FB60F921124C1
:105800002F933F938F939F93AF93BF9380919D016D
:1058100090919E01A0919F01B091A00130919C01B7
:1058200023E0230F2D3720F40196A11DB11D05C0E3
:1058300026E8230F0296A11DB11D20939C018093A1
:105840009D0190939E01A0939F01B093A001809130
:10585000A1019091A201A091A301B091A401019690
:10586000A11DB11D8093A1019093A201A093A3015A
:10587000B093A401BF91AF919F918F913F912F91D0
:105880000F900FBE0F901F9018952FB7F89460914E
:105890009D0170919E0180919F019091A0012FBF69
:1058A00008953FB7F8948091A1019091A201A09131
:1058B000A301B091A40126B5A89B05C02F3F19F004
:1058C0000196A11DB11D3FBF6627782F892F9A2F02
:1058D000620F711D811D911D42E0660F771F881FA9
:1058E000991F4A95D1F70895CF92DF92EF92FF92D8
:1058F000CF93DF936B017C010E94512CEB01C1140B
:10590000D104E104F10489F00E94752E0E94512C0B
:105910006C1B7D0B683E734090F381E0C81AD10880
:10592000E108F108C851DC4FEACFDF91CF91FF9039
:10593000EF90DF90CF900895019739F0880F991F6D
:10594000880F991F02970197F1F70895789484B50D
:10595000826084BD84B5816084BD85B5826085BD6B
:1059600085B5816085BDEEE6F0E080818160808351
:10597000E1E8F0E010828081826080838081816034
:105980008083E0E8F0E0808181608083E1EBF0E0FB
:10599000808184608083E0EBF0E08081816080839F
:1059A000EAE7F0E080818460808380818260808388
:1059B0008081816080838081806880831092C100B3
:1059C00008958E3008F08E50877020910F0190E47A
:1059D000299F90011124822B80937C0080917A0072
:1059E000806480937A0080917A0086FDFCCF80915C
:1059F00078002091790090E0922B08951F93CF9327
:105A0000DF93182FEB0161E00E94862D209711F49F
:105A100060E004C0CF3FD10539F461E0812FDF9110
:105A2000CF911F910C94BF2DE12FF0E0EE50FE4E70
:105A3000E491E330F9F048F4E130B9F0E230A1F557
:105A400084B5806284BDC8BD34C0E730E9F0E83079
:105A500019F1E43049F580918000806280938000E4
:105A6000D0938B00C0938A0024C084B5806884BD25
:105A7000C7BD1FC080918000806880938000D09354
:105A80008900C093880015C08091B0008068809321
:105A9000B000C093B3000DC08091B00080628093CD
:105AA000B000C093B40005C0C038D1050CF0B5CF2C
:105AB000AFCFDF91CF911F910895833081F028F40B
:105AC000813099F08230A1F008958730A9F08830B4
:105AD000B9F08430D1F4809180008F7D03C0809133
